{
  "_format": "hh-sol-artifact-1",
  "contractName": "MyToken",
  "sourceName": "contracts/NFT.sol",
  "abi": [
    {
      "inputs": [
        {
          "internalType": "address",
          "name": "defaultAdmin",
          "type": "address"
        },
        {
          "internalType": "address",
          "name": "marketPlace",
          "type": "address"
        }
      ],
      "stateMutability": "nonpayable",
      "type": "constructor"
    },
    {
      "inputs": [
        {
          "internalType": "address",
          "name": "sender",
          "type": "address"
        },
        {
          "internalType": "uint256",
          "name": "balance",
          "type": "uint256"
        },
        {
          "internalType": "uint256",
          "name": "needed",
          "type": "uint256"
        },
        {
          "internalType": "uint256",
          "name": "tokenId",
          "type": "uint256"
        }
      ],
      "name": "ERC1155InsufficientBalance",
      "type": "error"
    },
    {
      "inputs": [
        {
          "internalType": "address",
          "name": "approver",
          "type": "address"
        }
      ],
      "name": "ERC1155InvalidApprover",
      "type": "error"
    },
    {
      "inputs": [
        {
          "internalType": "uint256",
          "name": "idsLength",
          "type": "uint256"
        },
        {
          "internalType": "uint256",
          "name": "valuesLength",
          "type": "uint256"
        }
      ],
      "name": "ERC1155InvalidArrayLength",
      "type": "error"
    },
    {
      "inputs": [
        {
          "internalType": "address",
          "name": "operator",
          "type": "address"
        }
      ],
      "name": "ERC1155InvalidOperator",
      "type": "error"
    },
    {
      "inputs": [
        {
          "internalType": "address",
          "name": "receiver",
          "type": "address"
        }
      ],
      "name": "ERC1155InvalidReceiver",
      "type": "error"
    },
    {
      "inputs": [
        {
          "internalType": "address",
          "name": "sender",
          "type": "address"
        }
      ],
      "name": "ERC1155InvalidSender",
      "type": "error"
    },
    {
      "inputs": [
        {
          "internalType": "address",
          "name": "operator",
          "type": "address"
        },
        {
          "internalType": "address",
          "name": "owner",
          "type": "address"
        }
      ],
      "name": "ERC1155MissingApprovalForAll",
      "type": "error"
    },
    {
      "inputs": [
        {
          "internalType": "address",
          "name": "owner",
          "type": "address"
        }
      ],
      "name": "OwnableInvalidOwner",
      "type": "error"
    },
    {
      "inputs": [
        {
          "internalType": "address",
          "name": "account",
          "type": "address"
        }
      ],
      "name": "OwnableUnauthorizedAccount",
      "type": "error"
    },
    {
      "anonymous": false,
      "inputs": [
        {
          "indexed": true,
          "internalType": "address",
          "name": "account",
          "type": "address"
        },
        {
          "indexed": true,
          "internalType": "address",
          "name": "operator",
          "type": "address"
        },
        {
          "indexed": false,
          "internalType": "bool",
          "name": "approved",
          "type": "bool"
        }
      ],
      "name": "ApprovalForAll",
      "type": "event"
    },
    {
      "anonymous": false,
      "inputs": [
        {
          "indexed": true,
          "internalType": "address",
          "name": "previousOwner",
          "type": "address"
        },
        {
          "indexed": true,
          "internalType": "address",
          "name": "newOwner",
          "type": "address"
        }
      ],
      "name": "OwnershipTransferred",
      "type": "event"
    },
    {
      "anonymous": false,
      "inputs": [
        {
          "indexed": true,
          "internalType": "address",
          "name": "operator",
          "type": "address"
        },
        {
          "indexed": true,
          "internalType": "address",
          "name": "from",
          "type": "address"
        },
        {
          "indexed": true,
          "internalType": "address",
          "name": "to",
          "type": "address"
        },
        {
          "indexed": false,
          "internalType": "uint256[]",
          "name": "ids",
          "type": "uint256[]"
        },
        {
          "indexed": false,
          "internalType": "uint256[]",
          "name": "values",
          "type": "uint256[]"
        }
      ],
      "name": "TransferBatch",
      "type": "event"
    },
    {
      "anonymous": false,
      "inputs": [
        {
          "indexed": true,
          "internalType": "address",
          "name": "operator",
          "type": "address"
        },
        {
          "indexed": true,
          "internalType": "address",
          "name": "from",
          "type": "address"
        },
        {
          "indexed": true,
          "internalType": "address",
          "name": "to",
          "type": "address"
        },
        {
          "indexed": false,
          "internalType": "uint256",
          "name": "id",
          "type": "uint256"
        },
        {
          "indexed": false,
          "internalType": "uint256",
          "name": "value",
          "type": "uint256"
        }
      ],
      "name": "TransferSingle",
      "type": "event"
    },
    {
      "anonymous": false,
      "inputs": [
        {
          "indexed": false,
          "internalType": "string",
          "name": "value",
          "type": "string"
        },
        {
          "indexed": true,
          "internalType": "uint256",
          "name": "id",
          "type": "uint256"
        }
      ],
      "name": "URI",
      "type": "event"
    },
    {
      "inputs": [
        {
          "internalType": "address",
          "name": "account",
          "type": "address"
        },
        {
          "internalType": "uint256",
          "name": "id",
          "type": "uint256"
        }
      ],
      "name": "balanceOf",
      "outputs": [
        {
          "internalType": "uint256",
          "name": "",
          "type": "uint256"
        }
      ],
      "stateMutability": "view",
      "type": "function"
    },
    {
      "inputs": [
        {
          "internalType": "address[]",
          "name": "accounts",
          "type": "address[]"
        },
        {
          "internalType": "uint256[]",
          "name": "ids",
          "type": "uint256[]"
        }
      ],
      "name": "balanceOfBatch",
      "outputs": [
        {
          "internalType": "uint256[]",
          "name": "",
          "type": "uint256[]"
        }
      ],
      "stateMutability": "view",
      "type": "function"
    },
    {
      "inputs": [
        {
          "internalType": "uint256",
          "name": "id",
          "type": "uint256"
        }
      ],
      "name": "exists",
      "outputs": [
        {
          "internalType": "bool",
          "name": "",
          "type": "bool"
        }
      ],
      "stateMutability": "view",
      "type": "function"
    },
    {
      "inputs": [
        {
          "internalType": "address",
          "name": "account",
          "type": "address"
        },
        {
          "internalType": "address",
          "name": "operator",
          "type": "address"
        }
      ],
      "name": "isApprovedForAll",
      "outputs": [
        {
          "internalType": "bool",
          "name": "",
          "type": "bool"
        }
      ],
      "stateMutability": "view",
      "type": "function"
    },
    {
      "inputs": [
        {
          "internalType": "address",
          "name": "account",
          "type": "address"
        },
        {
          "internalType": "uint256",
          "name": "id",
          "type": "uint256"
        },
        {
          "internalType": "uint256",
          "name": "amount",
          "type": "uint256"
        },
        {
          "internalType": "bytes",
          "name": "data",
          "type": "bytes"
        }
      ],
      "name": "mint",
      "outputs": [],
      "stateMutability": "nonpayable",
      "type": "function"
    },
    {
      "inputs": [
        {
          "internalType": "address",
          "name": "to",
          "type": "address"
        },
        {
          "internalType": "uint256[]",
          "name": "ids",
          "type": "uint256[]"
        },
        {
          "internalType": "uint256[]",
          "name": "amounts",
          "type": "uint256[]"
        },
        {
          "internalType": "bytes",
          "name": "data",
          "type": "bytes"
        }
      ],
      "name": "mintBatch",
      "outputs": [],
      "stateMutability": "nonpayable",
      "type": "function"
    },
    {
      "inputs": [],
      "name": "owner",
      "outputs": [
        {
          "internalType": "address",
          "name": "",
          "type": "address"
        }
      ],
      "stateMutability": "view",
      "type": "function"
    },
    {
      "inputs": [],
      "name": "renounceOwnership",
      "outputs": [],
      "stateMutability": "nonpayable",
      "type": "function"
    },
    {
      "inputs": [
        {
          "internalType": "address",
          "name": "from",
          "type": "address"
        },
        {
          "internalType": "address",
          "name": "to",
          "type": "address"
        },
        {
          "internalType": "uint256[]",
          "name": "ids",
          "type": "uint256[]"
        },
        {
          "internalType": "uint256[]",
          "name": "values",
          "type": "uint256[]"
        },
        {
          "internalType": "bytes",
          "name": "data",
          "type": "bytes"
        }
      ],
      "name": "safeBatchTransferFrom",
      "outputs": [],
      "stateMutability": "nonpayable",
      "type": "function"
    },
    {
      "inputs": [
        {
          "internalType": "address",
          "name": "from",
          "type": "address"
        },
        {
          "internalType": "address",
          "name": "to",
          "type": "address"
        },
        {
          "internalType": "uint256",
          "name": "id",
          "type": "uint256"
        },
        {
          "internalType": "uint256",
          "name": "value",
          "type": "uint256"
        },
        {
          "internalType": "bytes",
          "name": "data",
          "type": "bytes"
        }
      ],
      "name": "safeTransferFrom",
      "outputs": [],
      "stateMutability": "nonpayable",
      "type": "function"
    },
    {
      "inputs": [
        {
          "internalType": "address",
          "name": "operator",
          "type": "address"
        },
        {
          "internalType": "bool",
          "name": "approved",
          "type": "bool"
        }
      ],
      "name": "setApprovalForAll",
      "outputs": [],
      "stateMutability": "nonpayable",
      "type": "function"
    },
    {
      "inputs": [
        {
          "internalType": "string",
          "name": "newuri",
          "type": "string"
        }
      ],
      "name": "setURI",
      "outputs": [],
      "stateMutability": "nonpayable",
      "type": "function"
    },
    {
      "inputs": [
        {
          "internalType": "bytes4",
          "name": "interfaceId",
          "type": "bytes4"
        }
      ],
      "name": "supportsInterface",
      "outputs": [
        {
          "internalType": "bool",
          "name": "",
          "type": "bool"
        }
      ],
      "stateMutability": "view",
      "type": "function"
    },
    {
      "inputs": [],
      "name": "totalSupply",
      "outputs": [
        {
          "internalType": "uint256",
          "name": "",
          "type": "uint256"
        }
      ],
      "stateMutability": "view",
      "type": "function"
    },
    {
      "inputs": [
        {
          "internalType": "uint256",
          "name": "id",
          "type": "uint256"
        }
      ],
      "name": "totalSupply",
      "outputs": [
        {
          "internalType": "uint256",
          "name": "",
          "type": "uint256"
        }
      ],
      "stateMutability": "view",
      "type": "function"
    },
    {
      "inputs": [
        {
          "internalType": "address",
          "name": "newOwner",
          "type": "address"
        }
      ],
      "name": "transferOwnership",
      "outputs": [],
      "stateMutability": "nonpayable",
      "type": "function"
    },
    {
      "inputs": [
        {
          "internalType": "uint256",
          "name": "",
          "type": "uint256"
        }
      ],
      "name": "uri",
      "outputs": [
        {
          "internalType": "string",
          "name": "",
          "type": "string"
        }
      ],
      "stateMutability": "view",
      "type": "function"
    }
  ],
  "bytecode": "0x60806040523480156200001157600080fd5b50604051620031663803806200316683398181016040528101906200003791906200022e565b80604051806020016040528060008152506200005981620000e960201b60201c565b50600073ffffffffffffffffffffffffffffffffffffffff168173ffffffffffffffffffffffffffffffffffffffff1603620000cf5760006040517f1e4fbdf7000000000000000000000000000000000000000000000000000000008152600401620000c6919062000286565b60405180910390fd5b620000e081620000fe60201b60201c565b50505062000604565b8060029081620000fa91906200051d565b5050565b6000600560009054906101000a900473ffffffffffffffffffffffffffffffffffffffff16905081600560006101000a81548173ffffffffffffffffffffffffffffffffffffffff021916908373ffffffffffffffffffffffffffffffffffffffff1602179055508173ffffffffffffffffffffffffffffffffffffffff168173ffffffffffffffffffffffffffffffffffffffff167f8be0079c531659141344cd1fd0a4f28419497f9722a3daafe3b4186f6b6457e060405160405180910390a35050565b600080fd5b600073ffffffffffffffffffffffffffffffffffffffff82169050919050565b6000620001f682620001c9565b9050919050565b6200020881620001e9565b81146200021457600080fd5b50565b6000815190506200022881620001fd565b92915050565b60008060408385031215620002485762000247620001c4565b5b6000620002588582860162000217565b92505060206200026b8582860162000217565b9150509250929050565b6200028081620001e9565b82525050565b60006020820190506200029d600083018462000275565b92915050565b600081519050919050565b7f4e487b7100000000000000000000000000000000000000000000000000000000600052604160045260246000fd5b7f4e487b7100000000000000000000000000000000000000000000000000000000600052602260045260246000fd5b600060028204905060018216806200032557607f821691505b6020821081036200033b576200033a620002dd565b5b50919050565b60008190508160005260206000209050919050565b60006020601f8301049050919050565b600082821b905092915050565b600060088302620003a57fffffffffffffffffffffffffffffffffffffffffffffffffffffffffffffffff8262000366565b620003b1868362000366565b95508019841693508086168417925050509392505050565b6000819050919050565b6000819050919050565b6000620003fe620003f8620003f284620003c9565b620003d3565b620003c9565b9050919050565b6000819050919050565b6200041a83620003dd565b62000432620004298262000405565b84845462000373565b825550505050565b600090565b620004496200043a565b620004568184846200040f565b505050565b5b818110156200047e57620004726000826200043f565b6001810190506200045c565b5050565b601f821115620004cd57620004978162000341565b620004a28462000356565b81016020851015620004b2578190505b620004ca620004c18562000356565b8301826200045b565b50505b505050565b600082821c905092915050565b6000620004f260001984600802620004d2565b1980831691505092915050565b60006200050d8383620004df565b9150826002028217905092915050565b6200052882620002a3565b67ffffffffffffffff811115620005445762000543620002ae565b5b6200055082546200030c565b6200055d82828562000482565b600060209050601f83116001811462000595576000841562000580578287015190505b6200058c8582620004ff565b865550620005fc565b601f198416620005a58662000341565b60005b82811015620005cf57848901518255600182019150602085019450602081019050620005a8565b86831015620005ef5784890151620005eb601f891682620004df565b8355505b6001600288020188555050505b505050505050565b612b5280620006146000396000f3fe608060405234801561001057600080fd5b506004361061010a5760003560e01c80634f558e79116100a2578063a22cb46511610071578063a22cb465146102b5578063bd85b039146102d1578063e985e9c514610301578063f242432a14610331578063f2fde38b1461034d5761010a565b80634f558e7914610241578063715018a614610271578063731133e91461027b5780638da5cb5b146102975761010a565b806318160ddd116100de57806318160ddd146101bb5780631f7fdffa146101d95780632eb2c2d6146101f55780634e1273f4146102115761010a565b8062fdd58e1461010f57806301ffc9a71461013f57806302fe53051461016f5780630e89341c1461018b575b600080fd5b61012960048036038101906101249190611a90565b610369565b6040516101369190611adf565b60405180910390f35b61015960048036038101906101549190611b52565b6103c3565b6040516101669190611b9a565b60405180910390f35b61018960048036038101906101849190611cfb565b6103d5565b005b6101a560048036038101906101a09190611d44565b6103e9565b6040516101b29190611df0565b60405180910390f35b6101c361047d565b6040516101d09190611adf565b60405180910390f35b6101f360048036038101906101ee9190611f7b565b610487565b005b61020f600480360381019061020a9190612036565b6104a1565b005b61022b600480360381019061022691906121c8565b610549565b60405161023891906122fe565b60405180910390f35b61025b60048036038101906102569190611d44565b610658565b6040516102689190611b9a565b60405180910390f35b61027961066c565b005b61029560048036038101906102909190612320565b610680565b005b61029f61069a565b6040516102ac91906123b2565b60405180910390f35b6102cf60048036038101906102ca91906123f9565b6106c4565b005b6102eb60048036038101906102e69190611d44565b6106da565b6040516102f89190611adf565b60405180910390f35b61031b60048036038101906103169190612439565b6106f7565b6040516103289190611b9a565b60405180910390f35b61034b60048036038101906103469190612479565b61078b565b005b61036760048036038101906103629190612510565b610833565b005b600080600083815260200190815260200160002060008473ffffffffffffffffffffffffffffffffffffffff1673ffffffffffffffffffffffffffffffffffffffff16815260200190815260200160002054905092915050565b60006103ce826108b9565b9050919050565b6103dd61099b565b6103e681610a22565b50565b6060600280546103f89061256c565b80601f01602080910402602001604051908101604052809291908181526020018280546104249061256c565b80156104715780601f1061044657610100808354040283529160200191610471565b820191906000526020600020905b81548152906001019060200180831161045457829003601f168201915b50505050509050919050565b6000600454905090565b61048f61099b565b61049b84848484610a35565b50505050565b60006104ab610abb565b90508073ffffffffffffffffffffffffffffffffffffffff168673ffffffffffffffffffffffffffffffffffffffff16141580156104f057506104ee86826106f7565b155b156105345780866040517fe237d92200000000000000000000000000000000000000000000000000000000815260040161052b92919061259d565b60405180910390fd5b6105418686868686610ac3565b505050505050565b6060815183511461059557815183516040517f5b05999100000000000000000000000000000000000000000000000000000000815260040161058c9291906125c6565b60405180910390fd5b6000835167ffffffffffffffff8111156105b2576105b1611bd0565b5b6040519080825280602002602001820160405280156105e05781602001602082028036833780820191505090505b50905060005b845181101561064d5761061d6106058287610bbb90919063ffffffff16565b6106188387610bcf90919063ffffffff16565b610369565b8282815181106106305761062f6125ef565b5b602002602001018181525050806106469061264d565b90506105e6565b508091505092915050565b600080610664836106da565b119050919050565b61067461099b565b61067e6000610be3565b565b61068861099b565b61069484848484610ca9565b50505050565b6000600560009054906101000a900473ffffffffffffffffffffffffffffffffffffffff16905090565b6106d66106cf610abb565b8383610d42565b5050565b600060036000838152602001908152602001600020549050919050565b6000600160008473ffffffffffffffffffffffffffffffffffffffff1673ffffffffffffffffffffffffffffffffffffffff16815260200190815260200160002060008373ffffffffffffffffffffffffffffffffffffffff1673ffffffffffffffffffffffffffffffffffffffff16815260200190815260200160002060009054906101000a900460ff16905092915050565b6000610795610abb565b90508073ffffffffffffffffffffffffffffffffffffffff168673ffffffffffffffffffffffffffffffffffffffff16141580156107da57506107d886826106f7565b155b1561081e5780866040517fe237d92200000000000000000000000000000000000000000000000000000000815260040161081592919061259d565b60405180910390fd5b61082b8686868686610eb2565b505050505050565b61083b61099b565b600073ffffffffffffffffffffffffffffffffffffffff168173ffffffffffffffffffffffffffffffffffffffff16036108ad5760006040517f1e4fbdf70000000000000000000000000000000000000000000000000000000081526004016108a491906123b2565b60405180910390fd5b6108b681610be3565b50565b60007fd9b67a26000000000000000000000000000000000000000000000000000000007bffffffffffffffffffffffffffffffffffffffffffffffffffffffff1916827bffffffffffffffffffffffffffffffffffffffffffffffffffffffff1916148061098457507f0e89341c000000000000000000000000000000000000000000000000000000007bffffffffffffffffffffffffffffffffffffffffffffffffffffffff1916827bffffffffffffffffffffffffffffffffffffffffffffffffffffffff1916145b80610994575061099382610fbd565b5b9050919050565b6109a3610abb565b73ffffffffffffffffffffffffffffffffffffffff166109c161069a565b73ffffffffffffffffffffffffffffffffffffffff1614610a20576109e4610abb565b6040517f118cdaa7000000000000000000000000000000000000000000000000000000008152600401610a1791906123b2565b60405180910390fd5b565b8060029081610a319190612841565b5050565b600073ffffffffffffffffffffffffffffffffffffffff168473ffffffffffffffffffffffffffffffffffffffff1603610aa75760006040517f57f447ce000000000000000000000000000000000000000000000000000000008152600401610a9e91906123b2565b60405180910390fd5b610ab5600085858585611027565b50505050565b600033905090565b600073ffffffffffffffffffffffffffffffffffffffff168473ffffffffffffffffffffffffffffffffffffffff1603610b355760006040517f57f447ce000000000000000000000000000000000000000000000000000000008152600401610b2c91906123b2565b60405180910390fd5b600073ffffffffffffffffffffffffffffffffffffffff168573ffffffffffffffffffffffffffffffffffffffff1603610ba75760006040517f01a83514000000000000000000000000000000000000000000000000000000008152600401610b9e91906123b2565b60405180910390fd5b610bb48585858585611027565b5050505050565b600060208202602084010151905092915050565b600060208202602084010151905092915050565b6000600560009054906101000a900473ffffffffffffffffffffffffffffffffffffffff16905081600560006101000a81548173ffffffffffffffffffffffffffffffffffffffff021916908373ffffffffffffffffffffffffffffffffffffffff1602179055508173ffffffffffffffffffffffffffffffffffffffff168173ffffffffffffffffffffffffffffffffffffffff167f8be0079c531659141344cd1fd0a4f28419497f9722a3daafe3b4186f6b6457e060405160405180910390a35050565b600073ffffffffffffffffffffffffffffffffffffffff168473ffffffffffffffffffffffffffffffffffffffff1603610d1b5760006040517f57f447ce000000000000000000000000000000000000000000000000000000008152600401610d1291906123b2565b60405180910390fd5b600080610d2885856110d9565b91509150610d3a600087848487611027565b505050505050565b600073ffffffffffffffffffffffffffffffffffffffff168273ffffffffffffffffffffffffffffffffffffffff1603610db45760006040517fced3e100000000000000000000000000000000000000000000000000000000008152600401610dab91906123b2565b60405180910390fd5b80600160008573ffffffffffffffffffffffffffffffffffffffff1673ffffffffffffffffffffffffffffffffffffffff16815260200190815260200160002060008473ffffffffffffffffffffffffffffffffffffffff1673ffffffffffffffffffffffffffffffffffffffff16815260200190815260200160002060006101000a81548160ff0219169083151502179055508173ffffffffffffffffffffffffffffffffffffffff168373ffffffffffffffffffffffffffffffffffffffff167f17307eab39ab6107e8899845ad3d59bd9653f200f220920489ca2b5937696c3183604051610ea59190611b9a565b60405180910390a3505050565b600073ffffffffffffffffffffffffffffffffffffffff168473ffffffffffffffffffffffffffffffffffffffff1603610f245760006040517f57f447ce000000000000000000000000000000000000000000000000000000008152600401610f1b91906123b2565b60405180910390fd5b600073ffffffffffffffffffffffffffffffffffffffff168573ffffffffffffffffffffffffffffffffffffffff1603610f965760006040517f01a83514000000000000000000000000000000000000000000000000000000008152600401610f8d91906123b2565b60405180910390fd5b600080610fa385856110d9565b91509150610fb48787848487611027565b50505050505050565b60007f01ffc9a7000000000000000000000000000000000000000000000000000000007bffffffffffffffffffffffffffffffffffffffffffffffffffffffff1916827bffffffffffffffffffffffffffffffffffffffffffffffffffffffff1916149050919050565b61103385858585611109565b600073ffffffffffffffffffffffffffffffffffffffff168473ffffffffffffffffffffffffffffffffffffffff16146110d2576000611071610abb565b905060018451036110c1576000611092600086610bcf90919063ffffffff16565b905060006110aa600086610bcf90919063ffffffff16565b90506110ba83898985858961111b565b50506110d0565b6110cf8187878787876112cf565b5b505b5050505050565b60608060405191506001825283602083015260408201905060018152826020820152604081016040529250929050565b61111584848484611483565b50505050565b60008473ffffffffffffffffffffffffffffffffffffffff163b11156112c7578373ffffffffffffffffffffffffffffffffffffffff1663f23a6e6187878686866040518663ffffffff1660e01b815260040161117c959493929190612968565b6020604051808303816000875af19250505080156111b857506040513d601f19601f820116820180604052508101906111b591906129d7565b60015b61123c573d80600081146111e8576040519150601f19603f3d011682016040523d82523d6000602084013e6111ed565b606091505b50600081510361123457846040517f57f447ce00000000000000000000000000000000000000000000000000000000815260040161122b91906123b2565b60405180910390fd5b805181602001fd5b63f23a6e6160e01b7bffffffffffffffffffffffffffffffffffffffffffffffffffffffff1916817bffffffffffffffffffffffffffffffffffffffffffffffffffffffff1916146112c557846040517f57f447ce0000000000000000000000000000000000000000000000000000000081526004016112bc91906123b2565b60405180910390fd5b505b505050505050565b60008473ffffffffffffffffffffffffffffffffffffffff163b111561147b578373ffffffffffffffffffffffffffffffffffffffff1663bc197c8187878686866040518663ffffffff1660e01b8152600401611330959493929190612a04565b6020604051808303816000875af192505050801561136c57506040513d601f19601f8201168201806040525081019061136991906129d7565b60015b6113f0573d806000811461139c576040519150601f19603f3d011682016040523d82523d6000602084013e6113a1565b606091505b5060008151036113e857846040517f57f447ce0000000000000000000000000000000000000000000000000000000081526004016113df91906123b2565b60405180910390fd5b805181602001fd5b63bc197c8160e01b7bffffffffffffffffffffffffffffffffffffffffffffffffffffffff1916817bffffffffffffffffffffffffffffffffffffffffffffffffffffffff19161461147957846040517f57f447ce00000000000000000000000000000000000000000000000000000000815260040161147091906123b2565b60405180910390fd5b505b505050505050565b61148f8484848461163a565b600073ffffffffffffffffffffffffffffffffffffffff168473ffffffffffffffffffffffffffffffffffffffff160361156f576000805b83518110156115535760008382815181106114e5576114e46125ef565b5b602002602001015190508060036000878581518110611507576115066125ef565b5b60200260200101518152602001908152602001600020600082825461152c9190612a6c565b92505081905550808361153f9190612a6c565b9250508061154c9061264d565b90506114c7565b5080600460008282546115669190612a6c565b92505081905550505b600073ffffffffffffffffffffffffffffffffffffffff168373ffffffffffffffffffffffffffffffffffffffff1603611634576000805b83518110156116215760008382815181106115c5576115c46125ef565b5b6020026020010151905080600360008785815181106115e7576115e66125ef565b5b60200260200101518152602001908152602001600020600082825403925050819055508083019250508061161a9061264d565b90506115a7565b5080600460008282540392505081905550505b50505050565b805182511461168457815181516040517f5b05999100000000000000000000000000000000000000000000000000000000815260040161167b9291906125c6565b60405180910390fd5b600061168e610abb565b905060005b83518110156118a35760006116b18286610bcf90919063ffffffff16565b905060006116c88386610bcf90919063ffffffff16565b9050600073ffffffffffffffffffffffffffffffffffffffff168873ffffffffffffffffffffffffffffffffffffffff16146117f557600080600084815260200190815260200160002060008a73ffffffffffffffffffffffffffffffffffffffff1673ffffffffffffffffffffffffffffffffffffffff1681526020019081526020016000205490508181101561179d57888183856040517f03dee4c50000000000000000000000000000000000000000000000000000000081526004016117949493929190612aa0565b60405180910390fd5b81810360008085815260200190815260200160002060008b73ffffffffffffffffffffffffffffffffffffffff1673ffffffffffffffffffffffffffffffffffffffff16815260200190815260200160002081905550505b600073ffffffffffffffffffffffffffffffffffffffff168773ffffffffffffffffffffffffffffffffffffffff1614611890578060008084815260200190815260200160002060008973ffffffffffffffffffffffffffffffffffffffff1673ffffffffffffffffffffffffffffffffffffffff16815260200190815260200160002060008282546118889190612a6c565b925050819055505b50508061189c9061264d565b9050611693565b5060018351036119625760006118c3600085610bcf90919063ffffffff16565b905060006118db600085610bcf90919063ffffffff16565b90508573ffffffffffffffffffffffffffffffffffffffff168773ffffffffffffffffffffffffffffffffffffffff168473ffffffffffffffffffffffffffffffffffffffff167fc3d58168c5ae7397731d063d5bbf3d657854427343f4c083240f7aacaa2d0f6285856040516119539291906125c6565b60405180910390a450506119e1565b8373ffffffffffffffffffffffffffffffffffffffff168573ffffffffffffffffffffffffffffffffffffffff168273ffffffffffffffffffffffffffffffffffffffff167f4a39dc06d4c0dbc64b70af90fd698a233a518aa5d07e595d983b8c0526c8f7fb86866040516119d8929190612ae5565b60405180910390a45b5050505050565b6000604051905090565b600080fd5b600080fd5b600073ffffffffffffffffffffffffffffffffffffffff82169050919050565b6000611a27826119fc565b9050919050565b611a3781611a1c565b8114611a4257600080fd5b50565b600081359050611a5481611a2e565b92915050565b6000819050919050565b611a6d81611a5a565b8114611a7857600080fd5b50565b600081359050611a8a81611a64565b92915050565b60008060408385031215611aa757611aa66119f2565b5b6000611ab585828601611a45565b9250506020611ac685828601611a7b565b9150509250929050565b611ad981611a5a565b82525050565b6000602082019050611af46000830184611ad0565b92915050565b60007fffffffff0000000000000000000000000000000000000000000000000000000082169050919050565b611b2f81611afa565b8114611b3a57600080fd5b50565b600081359050611b4c81611b26565b92915050565b600060208284031215611b6857611b676119f2565b5b6000611b7684828501611b3d565b91505092915050565b60008115159050919050565b611b9481611b7f565b82525050565b6000602082019050611baf6000830184611b8b565b92915050565b600080fd5b600080fd5b6000601f19601f8301169050919050565b7f4e487b7100000000000000000000000000000000000000000000000000000000600052604160045260246000fd5b611c0882611bbf565b810181811067ffffffffffffffff82111715611c2757611c26611bd0565b5b80604052505050565b6000611c3a6119e8565b9050611c468282611bff565b919050565b600067ffffffffffffffff821115611c6657611c65611bd0565b5b611c6f82611bbf565b9050602081019050919050565b82818337600083830152505050565b6000611c9e611c9984611c4b565b611c30565b905082815260208101848484011115611cba57611cb9611bba565b5b611cc5848285611c7c565b509392505050565b600082601f830112611ce257611ce1611bb5565b5b8135611cf2848260208601611c8b565b91505092915050565b600060208284031215611d1157611d106119f2565b5b600082013567ffffffffffffffff811115611d2f57611d2e6119f7565b5b611d3b84828501611ccd565b91505092915050565b600060208284031215611d5a57611d596119f2565b5b6000611d6884828501611a7b565b91505092915050565b600081519050919050565b600082825260208201905092915050565b60005b83811015611dab578082015181840152602081019050611d90565b60008484015250505050565b6000611dc282611d71565b611dcc8185611d7c565b9350611ddc818560208601611d8d565b611de581611bbf565b840191505092915050565b60006020820190508181036000830152611e0a8184611db7565b905092915050565b600067ffffffffffffffff821115611e2d57611e2c611bd0565b5b602082029050602081019050919050565b600080fd5b6000611e56611e5184611e12565b611c30565b90508083825260208201905060208402830185811115611e7957611e78611e3e565b5b835b81811015611ea25780611e8e8882611a7b565b845260208401935050602081019050611e7b565b5050509392505050565b600082601f830112611ec157611ec0611bb5565b5b8135611ed1848260208601611e43565b91505092915050565b600067ffffffffffffffff821115611ef557611ef4611bd0565b5b611efe82611bbf565b9050602081019050919050565b6000611f1e611f1984611eda565b611c30565b905082815260208101848484011115611f3a57611f39611bba565b5b611f45848285611c7c565b509392505050565b600082601f830112611f6257611f61611bb5565b5b8135611f72848260208601611f0b565b91505092915050565b60008060008060808587031215611f9557611f946119f2565b5b6000611fa387828801611a45565b945050602085013567ffffffffffffffff811115611fc457611fc36119f7565b5b611fd087828801611eac565b935050604085013567ffffffffffffffff811115611ff157611ff06119f7565b5b611ffd87828801611eac565b925050606085013567ffffffffffffffff81111561201e5761201d6119f7565b5b61202a87828801611f4d565b91505092959194509250565b600080600080600060a08688031215612052576120516119f2565b5b600061206088828901611a45565b955050602061207188828901611a45565b945050604086013567ffffffffffffffff811115612092576120916119f7565b5b61209e88828901611eac565b935050606086013567ffffffffffffffff8111156120bf576120be6119f7565b5b6120cb88828901611eac565b925050608086013567ffffffffffffffff8111156120ec576120eb6119f7565b5b6120f888828901611f4d565b9150509295509295909350565b600067ffffffffffffffff8211156121205761211f611bd0565b5b602082029050602081019050919050565b600061214461213f84612105565b611c30565b9050808382526020820190506020840283018581111561216757612166611e3e565b5b835b81811015612190578061217c8882611a45565b845260208401935050602081019050612169565b5050509392505050565b600082601f8301126121af576121ae611bb5565b5b81356121bf848260208601612131565b91505092915050565b600080604083850312156121df576121de6119f2565b5b600083013567ffffffffffffffff8111156121fd576121fc6119f7565b5b6122098582860161219a565b925050602083013567ffffffffffffffff81111561222a576122296119f7565b5b61223685828601611eac565b9150509250929050565b600081519050919050565b600082825260208201905092915050565b6000819050602082019050919050565b61227581611a5a565b82525050565b6000612287838361226c565b60208301905092915050565b6000602082019050919050565b60006122ab82612240565b6122b5818561224b565b93506122c08361225c565b8060005b838110156122f15781516122d8888261227b565b97506122e383612293565b9250506001810190506122c4565b5085935050505092915050565b6000602082019050818103600083015261231881846122a0565b905092915050565b6000806000806080858703121561233a576123396119f2565b5b600061234887828801611a45565b945050602061235987828801611a7b565b935050604061236a87828801611a7b565b925050606085013567ffffffffffffffff81111561238b5761238a6119f7565b5b61239787828801611f4d565b91505092959194509250565b6123ac81611a1c565b82525050565b60006020820190506123c760008301846123a3565b92915050565b6123d681611b7f565b81146123e157600080fd5b50565b6000813590506123f3816123cd565b92915050565b600080604083850312156124105761240f6119f2565b5b600061241e85828601611a45565b925050602061242f858286016123e4565b9150509250929050565b600080604083850312156124505761244f6119f2565b5b600061245e85828601611a45565b925050602061246f85828601611a45565b9150509250929050565b600080600080600060a08688031215612495576124946119f2565b5b60006124a388828901611a45565b95505060206124b488828901611a45565b94505060406124c588828901611a7b565b93505060606124d688828901611a7b565b925050608086013567ffffffffffffffff8111156124f7576124f66119f7565b5b61250388828901611f4d565b9150509295509295909350565b600060208284031215612526576125256119f2565b5b600061253484828501611a45565b91505092915050565b7f4e487b7100000000000000000000000000000000000000000000000000000000600052602260045260246000fd5b6000600282049050600182168061258457607f821691505b6020821081036125975761259661253d565b5b50919050565b60006040820190506125b260008301856123a3565b6125bf60208301846123a3565b9392505050565b60006040820190506125db6000830185611ad0565b6125e86020830184611ad0565b9392505050565b7f4e487b7100000000000000000000000000000000000000000000000000000000600052603260045260246000fd5b7f4e487b7100000000000000000000000000000000000000000000000000000000600052601160045260246000fd5b600061265882611a5a565b91507fffffffffffffffffffffffffffffffffffffffffffffffffffffffffffffffff820361268a5761268961261e565b5b600182019050919050565b60008190508160005260206000209050919050565b60006020601f8301049050919050565b600082821b905092915050565b6000600883026126f77fffffffffffffffffffffffffffffffffffffffffffffffffffffffffffffffff826126ba565b61270186836126ba565b95508019841693508086168417925050509392505050565b6000819050919050565b600061273e61273961273484611a5a565b612719565b611a5a565b9050919050565b6000819050919050565b61275883612723565b61276c61276482612745565b8484546126c7565b825550505050565b600090565b612781612774565b61278c81848461274f565b505050565b5b818110156127b0576127a5600082612779565b600181019050612792565b5050565b601f8211156127f5576127c681612695565b6127cf846126aa565b810160208510156127de578190505b6127f26127ea856126aa565b830182612791565b50505b505050565b600082821c905092915050565b6000612818600019846008026127fa565b1980831691505092915050565b60006128318383612807565b9150826002028217905092915050565b61284a82611d71565b67ffffffffffffffff81111561286357612862611bd0565b5b61286d825461256c565b6128788282856127b4565b600060209050601f8311600181146128ab5760008415612899578287015190505b6128a38582612825565b86555061290b565b601f1984166128b986612695565b60005b828110156128e1578489015182556001820191506020850194506020810190506128bc565b868310156128fe57848901516128fa601f891682612807565b8355505b6001600288020188555050505b505050505050565b600081519050919050565b600082825260208201905092915050565b600061293a82612913565b612944818561291e565b9350612954818560208601611d8d565b61295d81611bbf565b840191505092915050565b600060a08201905061297d60008301886123a3565b61298a60208301876123a3565b6129976040830186611ad0565b6129a46060830185611ad0565b81810360808301526129b6818461292f565b90509695505050505050565b6000815190506129d181611b26565b92915050565b6000602082840312156129ed576129ec6119f2565b5b60006129fb848285016129c2565b91505092915050565b600060a082019050612a1960008301886123a3565b612a2660208301876123a3565b8181036040830152612a3881866122a0565b90508181036060830152612a4c81856122a0565b90508181036080830152612a60818461292f565b90509695505050505050565b6000612a7782611a5a565b9150612a8283611a5a565b9250828201905080821115612a9a57612a9961261e565b5b92915050565b6000608082019050612ab560008301876123a3565b612ac26020830186611ad0565b612acf6040830185611ad0565b612adc6060830184611ad0565b95945050505050565b60006040820190508181036000830152612aff81856122a0565b90508181036020830152612b1381846122a0565b9050939250505056fea264697066735822122000a70cc6b4e210344fe1fb18d85a218243ff2340bb2c6d31bd36dbcc3debeb6864736f6c63430008140033",
  "linkReferences": {},
  "deployedLinkReferences": {}
}