{
  "_format": "hh-sol-artifact-1",
  "contractName": "MyToken",
  "sourceName": "contracts/NFT.sol",
  "abi": [
    {
      "inputs": [
        {
          "internalType": "address",
          "name": "defaultAdmin",
          "type": "address"
        },
        {
          "internalType": "address",
          "name": "marketPlace",
          "type": "address"
        }
      ],
      "stateMutability": "nonpayable",
      "type": "constructor"
    },
    {
      "inputs": [
        {
          "internalType": "address",
          "name": "sender",
          "type": "address"
        },
        {
          "internalType": "uint256",
          "name": "balance",
          "type": "uint256"
        },
        {
          "internalType": "uint256",
          "name": "needed",
          "type": "uint256"
        },
        {
          "internalType": "uint256",
          "name": "tokenId",
          "type": "uint256"
        }
      ],
      "name": "ERC1155InsufficientBalance",
      "type": "error"
    },
    {
      "inputs": [
        {
          "internalType": "address",
          "name": "approver",
          "type": "address"
        }
      ],
      "name": "ERC1155InvalidApprover",
      "type": "error"
    },
    {
      "inputs": [
        {
          "internalType": "uint256",
          "name": "idsLength",
          "type": "uint256"
        },
        {
          "internalType": "uint256",
          "name": "valuesLength",
          "type": "uint256"
        }
      ],
      "name": "ERC1155InvalidArrayLength",
      "type": "error"
    },
    {
      "inputs": [
        {
          "internalType": "address",
          "name": "operator",
          "type": "address"
        }
      ],
      "name": "ERC1155InvalidOperator",
      "type": "error"
    },
    {
      "inputs": [
        {
          "internalType": "address",
          "name": "receiver",
          "type": "address"
        }
      ],
      "name": "ERC1155InvalidReceiver",
      "type": "error"
    },
    {
      "inputs": [
        {
          "internalType": "address",
          "name": "sender",
          "type": "address"
        }
      ],
      "name": "ERC1155InvalidSender",
      "type": "error"
    },
    {
      "inputs": [
        {
          "internalType": "address",
          "name": "operator",
          "type": "address"
        },
        {
          "internalType": "address",
          "name": "owner",
          "type": "address"
        }
      ],
      "name": "ERC1155MissingApprovalForAll",
      "type": "error"
    },
    {
      "inputs": [
        {
          "internalType": "address",
          "name": "owner",
          "type": "address"
        }
      ],
      "name": "OwnableInvalidOwner",
      "type": "error"
    },
    {
      "inputs": [
        {
          "internalType": "address",
          "name": "account",
          "type": "address"
        }
      ],
      "name": "OwnableUnauthorizedAccount",
      "type": "error"
    },
    {
      "anonymous": false,
      "inputs": [
        {
          "indexed": true,
          "internalType": "address",
          "name": "account",
          "type": "address"
        },
        {
          "indexed": true,
          "internalType": "address",
          "name": "operator",
          "type": "address"
        },
        {
          "indexed": false,
          "internalType": "bool",
          "name": "approved",
          "type": "bool"
        }
      ],
      "name": "ApprovalForAll",
      "type": "event"
    },
    {
      "anonymous": false,
      "inputs": [
        {
          "indexed": true,
          "internalType": "address",
          "name": "previousOwner",
          "type": "address"
        },
        {
          "indexed": true,
          "internalType": "address",
          "name": "newOwner",
          "type": "address"
        }
      ],
      "name": "OwnershipTransferred",
      "type": "event"
    },
    {
      "anonymous": false,
      "inputs": [
        {
          "indexed": true,
          "internalType": "address",
          "name": "operator",
          "type": "address"
        },
        {
          "indexed": true,
          "internalType": "address",
          "name": "from",
          "type": "address"
        },
        {
          "indexed": true,
          "internalType": "address",
          "name": "to",
          "type": "address"
        },
        {
          "indexed": false,
          "internalType": "uint256[]",
          "name": "ids",
          "type": "uint256[]"
        },
        {
          "indexed": false,
          "internalType": "uint256[]",
          "name": "values",
          "type": "uint256[]"
        }
      ],
      "name": "TransferBatch",
      "type": "event"
    },
    {
      "anonymous": false,
      "inputs": [
        {
          "indexed": true,
          "internalType": "address",
          "name": "operator",
          "type": "address"
        },
        {
          "indexed": true,
          "internalType": "address",
          "name": "from",
          "type": "address"
        },
        {
          "indexed": true,
          "internalType": "address",
          "name": "to",
          "type": "address"
        },
        {
          "indexed": false,
          "internalType": "uint256",
          "name": "id",
          "type": "uint256"
        },
        {
          "indexed": false,
          "internalType": "uint256",
          "name": "value",
          "type": "uint256"
        }
      ],
      "name": "TransferSingle",
      "type": "event"
    },
    {
      "anonymous": false,
      "inputs": [
        {
          "indexed": false,
          "internalType": "string",
          "name": "value",
          "type": "string"
        },
        {
          "indexed": true,
          "internalType": "uint256",
          "name": "id",
          "type": "uint256"
        }
      ],
      "name": "URI",
      "type": "event"
    },
    {
      "inputs": [
        {
          "internalType": "address",
          "name": "account",
          "type": "address"
        },
        {
          "internalType": "uint256",
          "name": "id",
          "type": "uint256"
        }
      ],
      "name": "balanceOf",
      "outputs": [
        {
          "internalType": "uint256",
          "name": "",
          "type": "uint256"
        }
      ],
      "stateMutability": "view",
      "type": "function"
    },
    {
      "inputs": [
        {
          "internalType": "address[]",
          "name": "accounts",
          "type": "address[]"
        },
        {
          "internalType": "uint256[]",
          "name": "ids",
          "type": "uint256[]"
        }
      ],
      "name": "balanceOfBatch",
      "outputs": [
        {
          "internalType": "uint256[]",
          "name": "",
          "type": "uint256[]"
        }
      ],
      "stateMutability": "view",
      "type": "function"
    },
    {
      "inputs": [
        {
          "internalType": "uint256",
          "name": "id",
          "type": "uint256"
        }
      ],
      "name": "exists",
      "outputs": [
        {
          "internalType": "bool",
          "name": "",
          "type": "bool"
        }
      ],
      "stateMutability": "view",
      "type": "function"
    },
    {
      "inputs": [
        {
          "internalType": "address",
          "name": "account",
          "type": "address"
        },
        {
          "internalType": "address",
          "name": "operator",
          "type": "address"
        }
      ],
      "name": "isApprovedForAll",
      "outputs": [
        {
          "internalType": "bool",
          "name": "",
          "type": "bool"
        }
      ],
      "stateMutability": "view",
      "type": "function"
    },
    {
      "inputs": [
        {
          "internalType": "address",
          "name": "account",
          "type": "address"
        },
        {
          "internalType": "uint256",
          "name": "id",
          "type": "uint256"
        },
        {
          "internalType": "uint256",
          "name": "amount",
          "type": "uint256"
        },
        {
          "internalType": "bytes",
          "name": "data",
          "type": "bytes"
        }
      ],
      "name": "mint",
      "outputs": [],
      "stateMutability": "nonpayable",
      "type": "function"
    },
    {
      "inputs": [
        {
          "internalType": "address",
          "name": "to",
          "type": "address"
        },
        {
          "internalType": "uint256[]",
          "name": "ids",
          "type": "uint256[]"
        },
        {
          "internalType": "uint256[]",
          "name": "amounts",
          "type": "uint256[]"
        },
        {
          "internalType": "bytes",
          "name": "data",
          "type": "bytes"
        }
      ],
      "name": "mintBatch",
      "outputs": [],
      "stateMutability": "nonpayable",
      "type": "function"
    },
    {
      "inputs": [],
      "name": "owner",
      "outputs": [
        {
          "internalType": "address",
          "name": "",
          "type": "address"
        }
      ],
      "stateMutability": "view",
      "type": "function"
    },
    {
      "inputs": [],
      "name": "renounceOwnership",
      "outputs": [],
      "stateMutability": "nonpayable",
      "type": "function"
    },
    {
      "inputs": [
        {
          "internalType": "address",
          "name": "from",
          "type": "address"
        },
        {
          "internalType": "address",
          "name": "to",
          "type": "address"
        },
        {
          "internalType": "uint256[]",
          "name": "ids",
          "type": "uint256[]"
        },
        {
          "internalType": "uint256[]",
          "name": "values",
          "type": "uint256[]"
        },
        {
          "internalType": "bytes",
          "name": "data",
          "type": "bytes"
        }
      ],
      "name": "safeBatchTransferFrom",
      "outputs": [],
      "stateMutability": "nonpayable",
      "type": "function"
    },
    {
      "inputs": [
        {
          "internalType": "address",
          "name": "from",
          "type": "address"
        },
        {
          "internalType": "address",
          "name": "to",
          "type": "address"
        },
        {
          "internalType": "uint256",
          "name": "id",
          "type": "uint256"
        },
        {
          "internalType": "uint256",
          "name": "amount",
          "type": "uint256"
        },
        {
          "internalType": "bytes",
          "name": "data",
          "type": "bytes"
        }
      ],
      "name": "safeTransferFrom",
      "outputs": [],
      "stateMutability": "nonpayable",
      "type": "function"
    },
    {
      "inputs": [
        {
          "internalType": "address",
          "name": "operator",
          "type": "address"
        },
        {
          "internalType": "bool",
          "name": "approved",
          "type": "bool"
        }
      ],
      "name": "setApprovalForAll",
      "outputs": [],
      "stateMutability": "nonpayable",
      "type": "function"
    },
    {
      "inputs": [
        {
          "internalType": "string",
          "name": "newuri",
          "type": "string"
        }
      ],
      "name": "setURI",
      "outputs": [],
      "stateMutability": "nonpayable",
      "type": "function"
    },
    {
      "inputs": [
        {
          "internalType": "bytes4",
          "name": "interfaceId",
          "type": "bytes4"
        }
      ],
      "name": "supportsInterface",
      "outputs": [
        {
          "internalType": "bool",
          "name": "",
          "type": "bool"
        }
      ],
      "stateMutability": "view",
      "type": "function"
    },
    {
      "inputs": [],
      "name": "totalSupply",
      "outputs": [
        {
          "internalType": "uint256",
          "name": "",
          "type": "uint256"
        }
      ],
      "stateMutability": "view",
      "type": "function"
    },
    {
      "inputs": [
        {
          "internalType": "uint256",
          "name": "id",
          "type": "uint256"
        }
      ],
      "name": "totalSupply",
      "outputs": [
        {
          "internalType": "uint256",
          "name": "",
          "type": "uint256"
        }
      ],
      "stateMutability": "view",
      "type": "function"
    },
    {
      "inputs": [
        {
          "internalType": "address",
          "name": "newOwner",
          "type": "address"
        }
      ],
      "name": "transferOwnership",
      "outputs": [],
      "stateMutability": "nonpayable",
      "type": "function"
    },
    {
      "inputs": [
        {
          "internalType": "uint256",
          "name": "",
          "type": "uint256"
        }
      ],
      "name": "uri",
      "outputs": [
        {
          "internalType": "string",
          "name": "",
          "type": "string"
        }
      ],
      "stateMutability": "view",
      "type": "function"
    }
  ],
  "bytecode": "0x60806040523480156200001157600080fd5b506040516200312c3803806200312c83398181016040528101906200003791906200022e565b80604051806020016040528060008152506200005981620000e960201b60201c565b50600073ffffffffffffffffffffffffffffffffffffffff168173ffffffffffffffffffffffffffffffffffffffff1603620000cf5760006040517f1e4fbdf7000000000000000000000000000000000000000000000000000000008152600401620000c6919062000286565b60405180910390fd5b620000e081620000fe60201b60201c565b50505062000604565b8060029081620000fa91906200051d565b5050565b6000600560009054906101000a900473ffffffffffffffffffffffffffffffffffffffff16905081600560006101000a81548173ffffffffffffffffffffffffffffffffffffffff021916908373ffffffffffffffffffffffffffffffffffffffff1602179055508173ffffffffffffffffffffffffffffffffffffffff168173ffffffffffffffffffffffffffffffffffffffff167f8be0079c531659141344cd1fd0a4f28419497f9722a3daafe3b4186f6b6457e060405160405180910390a35050565b600080fd5b600073ffffffffffffffffffffffffffffffffffffffff82169050919050565b6000620001f682620001c9565b9050919050565b6200020881620001e9565b81146200021457600080fd5b50565b6000815190506200022881620001fd565b92915050565b60008060408385031215620002485762000247620001c4565b5b6000620002588582860162000217565b92505060206200026b8582860162000217565b9150509250929050565b6200028081620001e9565b82525050565b60006020820190506200029d600083018462000275565b92915050565b600081519050919050565b7f4e487b7100000000000000000000000000000000000000000000000000000000600052604160045260246000fd5b7f4e487b7100000000000000000000000000000000000000000000000000000000600052602260045260246000fd5b600060028204905060018216806200032557607f821691505b6020821081036200033b576200033a620002dd565b5b50919050565b60008190508160005260206000209050919050565b60006020601f8301049050919050565b600082821b905092915050565b600060088302620003a57fffffffffffffffffffffffffffffffffffffffffffffffffffffffffffffffff8262000366565b620003b1868362000366565b95508019841693508086168417925050509392505050565b6000819050919050565b6000819050919050565b6000620003fe620003f8620003f284620003c9565b620003d3565b620003c9565b9050919050565b6000819050919050565b6200041a83620003dd565b62000432620004298262000405565b84845462000373565b825550505050565b600090565b620004496200043a565b620004568184846200040f565b505050565b5b818110156200047e57620004726000826200043f565b6001810190506200045c565b5050565b601f821115620004cd57620004978162000341565b620004a28462000356565b81016020851015620004b2578190505b620004ca620004c18562000356565b8301826200045b565b50505b505050565b600082821c905092915050565b6000620004f260001984600802620004d2565b1980831691505092915050565b60006200050d8383620004df565b9150826002028217905092915050565b6200052882620002a3565b67ffffffffffffffff811115620005445762000543620002ae565b5b6200055082546200030c565b6200055d82828562000482565b600060209050601f83116001811462000595576000841562000580578287015190505b6200058c8582620004ff565b865550620005fc565b601f198416620005a58662000341565b60005b82811015620005cf57848901518255600182019150602085019450602081019050620005a8565b86831015620005ef5784890151620005eb601f891682620004df565b8355505b6001600288020188555050505b505050505050565b612b1880620006146000396000f3fe608060405234801561001057600080fd5b506004361061010a5760003560e01c80634f558e79116100a2578063a22cb46511610071578063a22cb465146102b5578063bd85b039146102d1578063e985e9c514610301578063f242432a14610331578063f2fde38b1461034d5761010a565b80634f558e7914610241578063715018a614610271578063731133e91461027b5780638da5cb5b146102975761010a565b806318160ddd116100de57806318160ddd146101bb5780631f7fdffa146101d95780632eb2c2d6146101f55780634e1273f4146102115761010a565b8062fdd58e1461010f57806301ffc9a71461013f57806302fe53051461016f5780630e89341c1461018b575b600080fd5b61012960048036038101906101249190611a56565b610369565b6040516101369190611aa5565b60405180910390f35b61015960048036038101906101549190611b18565b6103c3565b6040516101669190611b60565b60405180910390f35b61018960048036038101906101849190611cc1565b6103d5565b005b6101a560048036038101906101a09190611d0a565b6103e9565b6040516101b29190611db6565b60405180910390f35b6101c361047d565b6040516101d09190611aa5565b60405180910390f35b6101f360048036038101906101ee9190611f41565b610487565b005b61020f600480360381019061020a9190611ffc565b6104a1565b005b61022b6004803603810190610226919061218e565b610549565b60405161023891906122c4565b60405180910390f35b61025b60048036038101906102569190611d0a565b610658565b6040516102689190611b60565b60405180910390f35b61027961066c565b005b610295600480360381019061029091906122e6565b610680565b005b61029f61069a565b6040516102ac9190612378565b60405180910390f35b6102cf60048036038101906102ca91906123bf565b6106c4565b005b6102eb60048036038101906102e69190611d0a565b6106da565b6040516102f89190611aa5565b60405180910390f35b61031b600480360381019061031691906123ff565b6106f7565b6040516103289190611b60565b60405180910390f35b61034b6004803603810190610346919061243f565b61078b565b005b610367600480360381019061036291906124d6565b6107f9565b005b600080600083815260200190815260200160002060008473ffffffffffffffffffffffffffffffffffffffff1673ffffffffffffffffffffffffffffffffffffffff16815260200190815260200160002054905092915050565b60006103ce8261087f565b9050919050565b6103dd610961565b6103e6816109e8565b50565b6060600280546103f890612532565b80601f016020809104026020016040519081016040528092919081815260200182805461042490612532565b80156104715780601f1061044657610100808354040283529160200191610471565b820191906000526020600020905b81548152906001019060200180831161045457829003601f168201915b50505050509050919050565b6000600454905090565b61048f610961565b61049b848484846109fb565b50505050565b60006104ab610a81565b90508073ffffffffffffffffffffffffffffffffffffffff168673ffffffffffffffffffffffffffffffffffffffff16141580156104f057506104ee86826106f7565b155b156105345780866040517fe237d92200000000000000000000000000000000000000000000000000000000815260040161052b929190612563565b60405180910390fd5b6105418686868686610a89565b505050505050565b6060815183511461059557815183516040517f5b05999100000000000000000000000000000000000000000000000000000000815260040161058c92919061258c565b60405180910390fd5b6000835167ffffffffffffffff8111156105b2576105b1611b96565b5b6040519080825280602002602001820160405280156105e05781602001602082028036833780820191505090505b50905060005b845181101561064d5761061d6106058287610b8190919063ffffffff16565b6106188387610b9590919063ffffffff16565b610369565b8282815181106106305761062f6125b5565b5b6020026020010181815250508061064690612613565b90506105e6565b508091505092915050565b600080610664836106da565b119050919050565b610674610961565b61067e6000610ba9565b565b610688610961565b61069484848484610c6f565b50505050565b6000600560009054906101000a900473ffffffffffffffffffffffffffffffffffffffff16905090565b6106d66106cf610a81565b8383610d08565b5050565b600060036000838152602001908152602001600020549050919050565b6000600160008473ffffffffffffffffffffffffffffffffffffffff1673ffffffffffffffffffffffffffffffffffffffff16815260200190815260200160002060008373ffffffffffffffffffffffffffffffffffffffff1673ffffffffffffffffffffffffffffffffffffffff16815260200190815260200160002060009054906101000a900460ff16905092915050565b6000610795610a81565b90508073ffffffffffffffffffffffffffffffffffffffff168673ffffffffffffffffffffffffffffffffffffffff16141580156107da57506107d886826106f7565b155b156107e457600080fd5b6107f18686868686610e78565b505050505050565b610801610961565b600073ffffffffffffffffffffffffffffffffffffffff168173ffffffffffffffffffffffffffffffffffffffff16036108735760006040517f1e4fbdf700000000000000000000000000000000000000000000000000000000815260040161086a9190612378565b60405180910390fd5b61087c81610ba9565b50565b60007fd9b67a26000000000000000000000000000000000000000000000000000000007bffffffffffffffffffffffffffffffffffffffffffffffffffffffff1916827bffffffffffffffffffffffffffffffffffffffffffffffffffffffff1916148061094a57507f0e89341c000000000000000000000000000000000000000000000000000000007bffffffffffffffffffffffffffffffffffffffffffffffffffffffff1916827bffffffffffffffffffffffffffffffffffffffffffffffffffffffff1916145b8061095a575061095982610f83565b5b9050919050565b610969610a81565b73ffffffffffffffffffffffffffffffffffffffff1661098761069a565b73ffffffffffffffffffffffffffffffffffffffff16146109e6576109aa610a81565b6040517f118cdaa70000000000000000000000000000000000000000000000000000000081526004016109dd9190612378565b60405180910390fd5b565b80600290816109f79190612807565b5050565b600073ffffffffffffffffffffffffffffffffffffffff168473ffffffffffffffffffffffffffffffffffffffff1603610a6d5760006040517f57f447ce000000000000000000000000000000000000000000000000000000008152600401610a649190612378565b60405180910390fd5b610a7b600085858585610fed565b50505050565b600033905090565b600073ffffffffffffffffffffffffffffffffffffffff168473ffffffffffffffffffffffffffffffffffffffff1603610afb5760006040517f57f447ce000000000000000000000000000000000000000000000000000000008152600401610af29190612378565b60405180910390fd5b600073ffffffffffffffffffffffffffffffffffffffff168573ffffffffffffffffffffffffffffffffffffffff1603610b6d5760006040517f01a83514000000000000000000000000000000000000000000000000000000008152600401610b649190612378565b60405180910390fd5b610b7a8585858585610fed565b5050505050565b600060208202602084010151905092915050565b600060208202602084010151905092915050565b6000600560009054906101000a900473ffffffffffffffffffffffffffffffffffffffff16905081600560006101000a81548173ffffffffffffffffffffffffffffffffffffffff021916908373ffffffffffffffffffffffffffffffffffffffff1602179055508173ffffffffffffffffffffffffffffffffffffffff168173ffffffffffffffffffffffffffffffffffffffff167f8be0079c531659141344cd1fd0a4f28419497f9722a3daafe3b4186f6b6457e060405160405180910390a35050565b600073ffffffffffffffffffffffffffffffffffffffff168473ffffffffffffffffffffffffffffffffffffffff1603610ce15760006040517f57f447ce000000000000000000000000000000000000000000000000000000008152600401610cd89190612378565b60405180910390fd5b600080610cee858561109f565b91509150610d00600087848487610fed565b505050505050565b600073ffffffffffffffffffffffffffffffffffffffff168273ffffffffffffffffffffffffffffffffffffffff1603610d7a5760006040517fced3e100000000000000000000000000000000000000000000000000000000008152600401610d719190612378565b60405180910390fd5b80600160008573ffffffffffffffffffffffffffffffffffffffff1673ffffffffffffffffffffffffffffffffffffffff16815260200190815260200160002060008473ffffffffffffffffffffffffffffffffffffffff1673ffffffffffffffffffffffffffffffffffffffff16815260200190815260200160002060006101000a81548160ff0219169083151502179055508173ffffffffffffffffffffffffffffffffffffffff168373ffffffffffffffffffffffffffffffffffffffff167f17307eab39ab6107e8899845ad3d59bd9653f200f220920489ca2b5937696c3183604051610e6b9190611b60565b60405180910390a3505050565b600073ffffffffffffffffffffffffffffffffffffffff168473ffffffffffffffffffffffffffffffffffffffff1603610eea5760006040517f57f447ce000000000000000000000000000000000000000000000000000000008152600401610ee19190612378565b60405180910390fd5b600073ffffffffffffffffffffffffffffffffffffffff168573ffffffffffffffffffffffffffffffffffffffff1603610f5c5760006040517f01a83514000000000000000000000000000000000000000000000000000000008152600401610f539190612378565b60405180910390fd5b600080610f69858561109f565b91509150610f7a8787848487610fed565b50505050505050565b60007f01ffc9a7000000000000000000000000000000000000000000000000000000007bffffffffffffffffffffffffffffffffffffffffffffffffffffffff1916827bffffffffffffffffffffffffffffffffffffffffffffffffffffffff1916149050919050565b610ff9858585856110cf565b600073ffffffffffffffffffffffffffffffffffffffff168473ffffffffffffffffffffffffffffffffffffffff1614611098576000611037610a81565b90506001845103611087576000611058600086610b9590919063ffffffff16565b90506000611070600086610b9590919063ffffffff16565b90506110808389898585896110e1565b5050611096565b611095818787878787611295565b5b505b5050505050565b60608060405191506001825283602083015260408201905060018152826020820152604081016040529250929050565b6110db84848484611449565b50505050565b60008473ffffffffffffffffffffffffffffffffffffffff163b111561128d578373ffffffffffffffffffffffffffffffffffffffff1663f23a6e6187878686866040518663ffffffff1660e01b815260040161114295949392919061292e565b6020604051808303816000875af192505050801561117e57506040513d601f19601f8201168201806040525081019061117b919061299d565b60015b611202573d80600081146111ae576040519150601f19603f3d011682016040523d82523d6000602084013e6111b3565b606091505b5060008151036111fa57846040517f57f447ce0000000000000000000000000000000000000000000000000000000081526004016111f19190612378565b60405180910390fd5b805181602001fd5b63f23a6e6160e01b7bffffffffffffffffffffffffffffffffffffffffffffffffffffffff1916817bffffffffffffffffffffffffffffffffffffffffffffffffffffffff19161461128b57846040517f57f447ce0000000000000000000000000000000000000000000000000000000081526004016112829190612378565b60405180910390fd5b505b505050505050565b60008473ffffffffffffffffffffffffffffffffffffffff163b1115611441578373ffffffffffffffffffffffffffffffffffffffff1663bc197c8187878686866040518663ffffffff1660e01b81526004016112f69594939291906129ca565b6020604051808303816000875af192505050801561133257506040513d601f19601f8201168201806040525081019061132f919061299d565b60015b6113b6573d8060008114611362576040519150601f19603f3d011682016040523d82523d6000602084013e611367565b606091505b5060008151036113ae57846040517f57f447ce0000000000000000000000000000000000000000000000000000000081526004016113a59190612378565b60405180910390fd5b805181602001fd5b63bc197c8160e01b7bffffffffffffffffffffffffffffffffffffffffffffffffffffffff1916817bffffffffffffffffffffffffffffffffffffffffffffffffffffffff19161461143f57846040517f57f447ce0000000000000000000000000000000000000000000000000000000081526004016114369190612378565b60405180910390fd5b505b505050505050565b61145584848484611600565b600073ffffffffffffffffffffffffffffffffffffffff168473ffffffffffffffffffffffffffffffffffffffff1603611535576000805b83518110156115195760008382815181106114ab576114aa6125b5565b5b6020026020010151905080600360008785815181106114cd576114cc6125b5565b5b6020026020010151815260200190815260200160002060008282546114f29190612a32565b9250508190555080836115059190612a32565b9250508061151290612613565b905061148d565b50806004600082825461152c9190612a32565b92505081905550505b600073ffffffffffffffffffffffffffffffffffffffff168373ffffffffffffffffffffffffffffffffffffffff16036115fa576000805b83518110156115e757600083828151811061158b5761158a6125b5565b5b6020026020010151905080600360008785815181106115ad576115ac6125b5565b5b6020026020010151815260200190815260200160002060008282540392505081905550808301925050806115e090612613565b905061156d565b5080600460008282540392505081905550505b50505050565b805182511461164a57815181516040517f5b05999100000000000000000000000000000000000000000000000000000000815260040161164192919061258c565b60405180910390fd5b6000611654610a81565b905060005b83518110156118695760006116778286610b9590919063ffffffff16565b9050600061168e8386610b9590919063ffffffff16565b9050600073ffffffffffffffffffffffffffffffffffffffff168873ffffffffffffffffffffffffffffffffffffffff16146117bb57600080600084815260200190815260200160002060008a73ffffffffffffffffffffffffffffffffffffffff1673ffffffffffffffffffffffffffffffffffffffff1681526020019081526020016000205490508181101561176357888183856040517f03dee4c500000000000000000000000000000000000000000000000000000000815260040161175a9493929190612a66565b60405180910390fd5b81810360008085815260200190815260200160002060008b73ffffffffffffffffffffffffffffffffffffffff1673ffffffffffffffffffffffffffffffffffffffff16815260200190815260200160002081905550505b600073ffffffffffffffffffffffffffffffffffffffff168773ffffffffffffffffffffffffffffffffffffffff1614611856578060008084815260200190815260200160002060008973ffffffffffffffffffffffffffffffffffffffff1673ffffffffffffffffffffffffffffffffffffffff168152602001908152602001600020600082825461184e9190612a32565b925050819055505b50508061186290612613565b9050611659565b506001835103611928576000611889600085610b9590919063ffffffff16565b905060006118a1600085610b9590919063ffffffff16565b90508573ffffffffffffffffffffffffffffffffffffffff168773ffffffffffffffffffffffffffffffffffffffff168473ffffffffffffffffffffffffffffffffffffffff167fc3d58168c5ae7397731d063d5bbf3d657854427343f4c083240f7aacaa2d0f62858560405161191992919061258c565b60405180910390a450506119a7565b8373ffffffffffffffffffffffffffffffffffffffff168573ffffffffffffffffffffffffffffffffffffffff168273ffffffffffffffffffffffffffffffffffffffff167f4a39dc06d4c0dbc64b70af90fd698a233a518aa5d07e595d983b8c0526c8f7fb868660405161199e929190612aab565b60405180910390a45b5050505050565b6000604051905090565b600080fd5b600080fd5b600073ffffffffffffffffffffffffffffffffffffffff82169050919050565b60006119ed826119c2565b9050919050565b6119fd816119e2565b8114611a0857600080fd5b50565b600081359050611a1a816119f4565b92915050565b6000819050919050565b611a3381611a20565b8114611a3e57600080fd5b50565b600081359050611a5081611a2a565b92915050565b60008060408385031215611a6d57611a6c6119b8565b5b6000611a7b85828601611a0b565b9250506020611a8c85828601611a41565b9150509250929050565b611a9f81611a20565b82525050565b6000602082019050611aba6000830184611a96565b92915050565b60007fffffffff0000000000000000000000000000000000000000000000000000000082169050919050565b611af581611ac0565b8114611b0057600080fd5b50565b600081359050611b1281611aec565b92915050565b600060208284031215611b2e57611b2d6119b8565b5b6000611b3c84828501611b03565b91505092915050565b60008115159050919050565b611b5a81611b45565b82525050565b6000602082019050611b756000830184611b51565b92915050565b600080fd5b600080fd5b6000601f19601f8301169050919050565b7f4e487b7100000000000000000000000000000000000000000000000000000000600052604160045260246000fd5b611bce82611b85565b810181811067ffffffffffffffff82111715611bed57611bec611b96565b5b80604052505050565b6000611c006119ae565b9050611c0c8282611bc5565b919050565b600067ffffffffffffffff821115611c2c57611c2b611b96565b5b611c3582611b85565b9050602081019050919050565b82818337600083830152505050565b6000611c64611c5f84611c11565b611bf6565b905082815260208101848484011115611c8057611c7f611b80565b5b611c8b848285611c42565b509392505050565b600082601f830112611ca857611ca7611b7b565b5b8135611cb8848260208601611c51565b91505092915050565b600060208284031215611cd757611cd66119b8565b5b600082013567ffffffffffffffff811115611cf557611cf46119bd565b5b611d0184828501611c93565b91505092915050565b600060208284031215611d2057611d1f6119b8565b5b6000611d2e84828501611a41565b91505092915050565b600081519050919050565b600082825260208201905092915050565b60005b83811015611d71578082015181840152602081019050611d56565b60008484015250505050565b6000611d8882611d37565b611d928185611d42565b9350611da2818560208601611d53565b611dab81611b85565b840191505092915050565b60006020820190508181036000830152611dd08184611d7d565b905092915050565b600067ffffffffffffffff821115611df357611df2611b96565b5b602082029050602081019050919050565b600080fd5b6000611e1c611e1784611dd8565b611bf6565b90508083825260208201905060208402830185811115611e3f57611e3e611e04565b5b835b81811015611e685780611e548882611a41565b845260208401935050602081019050611e41565b5050509392505050565b600082601f830112611e8757611e86611b7b565b5b8135611e97848260208601611e09565b91505092915050565b600067ffffffffffffffff821115611ebb57611eba611b96565b5b611ec482611b85565b9050602081019050919050565b6000611ee4611edf84611ea0565b611bf6565b905082815260208101848484011115611f0057611eff611b80565b5b611f0b848285611c42565b509392505050565b600082601f830112611f2857611f27611b7b565b5b8135611f38848260208601611ed1565b91505092915050565b60008060008060808587031215611f5b57611f5a6119b8565b5b6000611f6987828801611a0b565b945050602085013567ffffffffffffffff811115611f8a57611f896119bd565b5b611f9687828801611e72565b935050604085013567ffffffffffffffff811115611fb757611fb66119bd565b5b611fc387828801611e72565b925050606085013567ffffffffffffffff811115611fe457611fe36119bd565b5b611ff087828801611f13565b91505092959194509250565b600080600080600060a08688031215612018576120176119b8565b5b600061202688828901611a0b565b955050602061203788828901611a0b565b945050604086013567ffffffffffffffff811115612058576120576119bd565b5b61206488828901611e72565b935050606086013567ffffffffffffffff811115612085576120846119bd565b5b61209188828901611e72565b925050608086013567ffffffffffffffff8111156120b2576120b16119bd565b5b6120be88828901611f13565b9150509295509295909350565b600067ffffffffffffffff8211156120e6576120e5611b96565b5b602082029050602081019050919050565b600061210a612105846120cb565b611bf6565b9050808382526020820190506020840283018581111561212d5761212c611e04565b5b835b8181101561215657806121428882611a0b565b84526020840193505060208101905061212f565b5050509392505050565b600082601f83011261217557612174611b7b565b5b81356121858482602086016120f7565b91505092915050565b600080604083850312156121a5576121a46119b8565b5b600083013567ffffffffffffffff8111156121c3576121c26119bd565b5b6121cf85828601612160565b925050602083013567ffffffffffffffff8111156121f0576121ef6119bd565b5b6121fc85828601611e72565b9150509250929050565b600081519050919050565b600082825260208201905092915050565b6000819050602082019050919050565b61223b81611a20565b82525050565b600061224d8383612232565b60208301905092915050565b6000602082019050919050565b600061227182612206565b61227b8185612211565b935061228683612222565b8060005b838110156122b757815161229e8882612241565b97506122a983612259565b92505060018101905061228a565b5085935050505092915050565b600060208201905081810360008301526122de8184612266565b905092915050565b60008060008060808587031215612300576122ff6119b8565b5b600061230e87828801611a0b565b945050602061231f87828801611a41565b935050604061233087828801611a41565b925050606085013567ffffffffffffffff811115612351576123506119bd565b5b61235d87828801611f13565b91505092959194509250565b612372816119e2565b82525050565b600060208201905061238d6000830184612369565b92915050565b61239c81611b45565b81146123a757600080fd5b50565b6000813590506123b981612393565b92915050565b600080604083850312156123d6576123d56119b8565b5b60006123e485828601611a0b565b92505060206123f5858286016123aa565b9150509250929050565b60008060408385031215612416576124156119b8565b5b600061242485828601611a0b565b925050602061243585828601611a0b565b9150509250929050565b600080600080600060a0868803121561245b5761245a6119b8565b5b600061246988828901611a0b565b955050602061247a88828901611a0b565b945050604061248b88828901611a41565b935050606061249c88828901611a41565b925050608086013567ffffffffffffffff8111156124bd576124bc6119bd565b5b6124c988828901611f13565b9150509295509295909350565b6000602082840312156124ec576124eb6119b8565b5b60006124fa84828501611a0b565b91505092915050565b7f4e487b7100000000000000000000000000000000000000000000000000000000600052602260045260246000fd5b6000600282049050600182168061254a57607f821691505b60208210810361255d5761255c612503565b5b50919050565b60006040820190506125786000830185612369565b6125856020830184612369565b9392505050565b60006040820190506125a16000830185611a96565b6125ae6020830184611a96565b9392505050565b7f4e487b7100000000000000000000000000000000000000000000000000000000600052603260045260246000fd5b7f4e487b7100000000000000000000000000000000000000000000000000000000600052601160045260246000fd5b600061261e82611a20565b91507fffffffffffffffffffffffffffffffffffffffffffffffffffffffffffffffff82036126505761264f6125e4565b5b600182019050919050565b60008190508160005260206000209050919050565b60006020601f8301049050919050565b600082821b905092915050565b6000600883026126bd7fffffffffffffffffffffffffffffffffffffffffffffffffffffffffffffffff82612680565b6126c78683612680565b95508019841693508086168417925050509392505050565b6000819050919050565b60006127046126ff6126fa84611a20565b6126df565b611a20565b9050919050565b6000819050919050565b61271e836126e9565b61273261272a8261270b565b84845461268d565b825550505050565b600090565b61274761273a565b612752818484612715565b505050565b5b818110156127765761276b60008261273f565b600181019050612758565b5050565b601f8211156127bb5761278c8161265b565b61279584612670565b810160208510156127a4578190505b6127b86127b085612670565b830182612757565b50505b505050565b600082821c905092915050565b60006127de600019846008026127c0565b1980831691505092915050565b60006127f783836127cd565b9150826002028217905092915050565b61281082611d37565b67ffffffffffffffff81111561282957612828611b96565b5b6128338254612532565b61283e82828561277a565b600060209050601f831160018114612871576000841561285f578287015190505b61286985826127eb565b8655506128d1565b601f19841661287f8661265b565b60005b828110156128a757848901518255600182019150602085019450602081019050612882565b868310156128c457848901516128c0601f8916826127cd565b8355505b6001600288020188555050505b505050505050565b600081519050919050565b600082825260208201905092915050565b6000612900826128d9565b61290a81856128e4565b935061291a818560208601611d53565b61292381611b85565b840191505092915050565b600060a0820190506129436000830188612369565b6129506020830187612369565b61295d6040830186611a96565b61296a6060830185611a96565b818103608083015261297c81846128f5565b90509695505050505050565b60008151905061299781611aec565b92915050565b6000602082840312156129b3576129b26119b8565b5b60006129c184828501612988565b91505092915050565b600060a0820190506129df6000830188612369565b6129ec6020830187612369565b81810360408301526129fe8186612266565b90508181036060830152612a128185612266565b90508181036080830152612a2681846128f5565b90509695505050505050565b6000612a3d82611a20565b9150612a4883611a20565b9250828201905080821115612a6057612a5f6125e4565b5b92915050565b6000608082019050612a7b6000830187612369565b612a886020830186611a96565b612a956040830185611a96565b612aa26060830184611a96565b95945050505050565b60006040820190508181036000830152612ac58185612266565b90508181036020830152612ad98184612266565b9050939250505056fea2646970667358221220e1abdc4dbafcca16182f7084ccf2255777cadbaac9df9f702c01cbde4743c15b64736f6c63430008140033",
  "linkReferences": {},
  "deployedLinkReferences": {}
}