{
  "_format": "hh-sol-artifact-1",
  "contractName": "MyToken",
  "sourceName": "contracts/NFT.sol",
  "abi": [
    {
      "inputs": [
        {
          "internalType": "address",
          "name": "defaultAdmin",
          "type": "address"
        },
        {
          "internalType": "address",
          "name": "marketPlace",
          "type": "address"
        }
      ],
      "stateMutability": "nonpayable",
      "type": "constructor"
    },
    {
      "inputs": [
        {
          "internalType": "address",
          "name": "sender",
          "type": "address"
        },
        {
          "internalType": "uint256",
          "name": "balance",
          "type": "uint256"
        },
        {
          "internalType": "uint256",
          "name": "needed",
          "type": "uint256"
        },
        {
          "internalType": "uint256",
          "name": "tokenId",
          "type": "uint256"
        }
      ],
      "name": "ERC1155InsufficientBalance",
      "type": "error"
    },
    {
      "inputs": [
        {
          "internalType": "address",
          "name": "approver",
          "type": "address"
        }
      ],
      "name": "ERC1155InvalidApprover",
      "type": "error"
    },
    {
      "inputs": [
        {
          "internalType": "uint256",
          "name": "idsLength",
          "type": "uint256"
        },
        {
          "internalType": "uint256",
          "name": "valuesLength",
          "type": "uint256"
        }
      ],
      "name": "ERC1155InvalidArrayLength",
      "type": "error"
    },
    {
      "inputs": [
        {
          "internalType": "address",
          "name": "operator",
          "type": "address"
        }
      ],
      "name": "ERC1155InvalidOperator",
      "type": "error"
    },
    {
      "inputs": [
        {
          "internalType": "address",
          "name": "receiver",
          "type": "address"
        }
      ],
      "name": "ERC1155InvalidReceiver",
      "type": "error"
    },
    {
      "inputs": [
        {
          "internalType": "address",
          "name": "sender",
          "type": "address"
        }
      ],
      "name": "ERC1155InvalidSender",
      "type": "error"
    },
    {
      "inputs": [
        {
          "internalType": "address",
          "name": "operator",
          "type": "address"
        },
        {
          "internalType": "address",
          "name": "owner",
          "type": "address"
        }
      ],
      "name": "ERC1155MissingApprovalForAll",
      "type": "error"
    },
    {
      "inputs": [
        {
          "internalType": "address",
          "name": "owner",
          "type": "address"
        }
      ],
      "name": "OwnableInvalidOwner",
      "type": "error"
    },
    {
      "inputs": [
        {
          "internalType": "address",
          "name": "account",
          "type": "address"
        }
      ],
      "name": "OwnableUnauthorizedAccount",
      "type": "error"
    },
    {
      "anonymous": false,
      "inputs": [
        {
          "indexed": true,
          "internalType": "address",
          "name": "account",
          "type": "address"
        },
        {
          "indexed": true,
          "internalType": "address",
          "name": "operator",
          "type": "address"
        },
        {
          "indexed": false,
          "internalType": "bool",
          "name": "approved",
          "type": "bool"
        }
      ],
      "name": "ApprovalForAll",
      "type": "event"
    },
    {
      "anonymous": false,
      "inputs": [
        {
          "indexed": true,
          "internalType": "address",
          "name": "previousOwner",
          "type": "address"
        },
        {
          "indexed": true,
          "internalType": "address",
          "name": "newOwner",
          "type": "address"
        }
      ],
      "name": "OwnershipTransferred",
      "type": "event"
    },
    {
      "anonymous": false,
      "inputs": [
        {
          "indexed": true,
          "internalType": "address",
          "name": "operator",
          "type": "address"
        },
        {
          "indexed": true,
          "internalType": "address",
          "name": "from",
          "type": "address"
        },
        {
          "indexed": true,
          "internalType": "address",
          "name": "to",
          "type": "address"
        },
        {
          "indexed": false,
          "internalType": "uint256[]",
          "name": "ids",
          "type": "uint256[]"
        },
        {
          "indexed": false,
          "internalType": "uint256[]",
          "name": "values",
          "type": "uint256[]"
        }
      ],
      "name": "TransferBatch",
      "type": "event"
    },
    {
      "anonymous": false,
      "inputs": [
        {
          "indexed": true,
          "internalType": "address",
          "name": "operator",
          "type": "address"
        },
        {
          "indexed": true,
          "internalType": "address",
          "name": "from",
          "type": "address"
        },
        {
          "indexed": true,
          "internalType": "address",
          "name": "to",
          "type": "address"
        },
        {
          "indexed": false,
          "internalType": "uint256",
          "name": "id",
          "type": "uint256"
        },
        {
          "indexed": false,
          "internalType": "uint256",
          "name": "value",
          "type": "uint256"
        }
      ],
      "name": "TransferSingle",
      "type": "event"
    },
    {
      "anonymous": false,
      "inputs": [
        {
          "indexed": false,
          "internalType": "string",
          "name": "value",
          "type": "string"
        },
        {
          "indexed": true,
          "internalType": "uint256",
          "name": "id",
          "type": "uint256"
        }
      ],
      "name": "URI",
      "type": "event"
    },
    {
      "inputs": [
        {
          "internalType": "address",
          "name": "account",
          "type": "address"
        },
        {
          "internalType": "uint256",
          "name": "id",
          "type": "uint256"
        }
      ],
      "name": "balanceOf",
      "outputs": [
        {
          "internalType": "uint256",
          "name": "",
          "type": "uint256"
        }
      ],
      "stateMutability": "view",
      "type": "function"
    },
    {
      "inputs": [
        {
          "internalType": "address[]",
          "name": "accounts",
          "type": "address[]"
        },
        {
          "internalType": "uint256[]",
          "name": "ids",
          "type": "uint256[]"
        }
      ],
      "name": "balanceOfBatch",
      "outputs": [
        {
          "internalType": "uint256[]",
          "name": "",
          "type": "uint256[]"
        }
      ],
      "stateMutability": "view",
      "type": "function"
    },
    {
      "inputs": [
        {
          "internalType": "uint256",
          "name": "id",
          "type": "uint256"
        }
      ],
      "name": "exists",
      "outputs": [
        {
          "internalType": "bool",
          "name": "",
          "type": "bool"
        }
      ],
      "stateMutability": "view",
      "type": "function"
    },
    {
      "inputs": [
        {
          "internalType": "address",
          "name": "account",
          "type": "address"
        },
        {
          "internalType": "address",
          "name": "operator",
          "type": "address"
        }
      ],
      "name": "isApprovedForAll",
      "outputs": [
        {
          "internalType": "bool",
          "name": "",
          "type": "bool"
        }
      ],
      "stateMutability": "view",
      "type": "function"
    },
    {
      "inputs": [
        {
          "internalType": "address",
          "name": "account",
          "type": "address"
        },
        {
          "internalType": "uint256",
          "name": "id",
          "type": "uint256"
        },
        {
          "internalType": "uint256",
          "name": "amount",
          "type": "uint256"
        },
        {
          "internalType": "bytes",
          "name": "data",
          "type": "bytes"
        }
      ],
      "name": "mint",
      "outputs": [],
      "stateMutability": "nonpayable",
      "type": "function"
    },
    {
      "inputs": [],
      "name": "owner",
      "outputs": [
        {
          "internalType": "address",
          "name": "",
          "type": "address"
        }
      ],
      "stateMutability": "view",
      "type": "function"
    },
    {
      "inputs": [],
      "name": "renounceOwnership",
      "outputs": [],
      "stateMutability": "nonpayable",
      "type": "function"
    },
    {
      "inputs": [
        {
          "internalType": "address",
          "name": "from",
          "type": "address"
        },
        {
          "internalType": "address",
          "name": "to",
          "type": "address"
        },
        {
          "internalType": "uint256[]",
          "name": "ids",
          "type": "uint256[]"
        },
        {
          "internalType": "uint256[]",
          "name": "values",
          "type": "uint256[]"
        },
        {
          "internalType": "bytes",
          "name": "data",
          "type": "bytes"
        }
      ],
      "name": "safeBatchTransferFrom",
      "outputs": [],
      "stateMutability": "nonpayable",
      "type": "function"
    },
    {
      "inputs": [
        {
          "internalType": "address",
          "name": "from",
          "type": "address"
        },
        {
          "internalType": "address",
          "name": "to",
          "type": "address"
        },
        {
          "internalType": "uint256",
          "name": "id",
          "type": "uint256"
        },
        {
          "internalType": "uint256",
          "name": "value",
          "type": "uint256"
        },
        {
          "internalType": "bytes",
          "name": "data",
          "type": "bytes"
        }
      ],
      "name": "safeTransferFrom",
      "outputs": [],
      "stateMutability": "nonpayable",
      "type": "function"
    },
    {
      "inputs": [
        {
          "internalType": "address",
          "name": "operator",
          "type": "address"
        },
        {
          "internalType": "bool",
          "name": "approved",
          "type": "bool"
        }
      ],
      "name": "setApprovalForAll",
      "outputs": [],
      "stateMutability": "nonpayable",
      "type": "function"
    },
    {
      "inputs": [
        {
          "internalType": "string",
          "name": "newuri",
          "type": "string"
        }
      ],
      "name": "setURI",
      "outputs": [],
      "stateMutability": "nonpayable",
      "type": "function"
    },
    {
      "inputs": [
        {
          "internalType": "bytes4",
          "name": "interfaceId",
          "type": "bytes4"
        }
      ],
      "name": "supportsInterface",
      "outputs": [
        {
          "internalType": "bool",
          "name": "",
          "type": "bool"
        }
      ],
      "stateMutability": "view",
      "type": "function"
    },
    {
      "inputs": [],
      "name": "totalSupply",
      "outputs": [
        {
          "internalType": "uint256",
          "name": "",
          "type": "uint256"
        }
      ],
      "stateMutability": "view",
      "type": "function"
    },
    {
      "inputs": [
        {
          "internalType": "uint256",
          "name": "id",
          "type": "uint256"
        }
      ],
      "name": "totalSupply",
      "outputs": [
        {
          "internalType": "uint256",
          "name": "",
          "type": "uint256"
        }
      ],
      "stateMutability": "view",
      "type": "function"
    },
    {
      "inputs": [
        {
          "internalType": "address",
          "name": "newOwner",
          "type": "address"
        }
      ],
      "name": "transferOwnership",
      "outputs": [],
      "stateMutability": "nonpayable",
      "type": "function"
    },
    {
      "inputs": [
        {
          "internalType": "uint256",
          "name": "",
          "type": "uint256"
        }
      ],
      "name": "uri",
      "outputs": [
        {
          "internalType": "string",
          "name": "",
          "type": "string"
        }
      ],
      "stateMutability": "view",
      "type": "function"
    }
  ],
  "bytecode": "0x60806040523480156200001157600080fd5b50604051620030f8380380620030f883398181016040528101906200003791906200024d565b806040518060200160405280600081525062000059816200010560201b60201c565b50600073ffffffffffffffffffffffffffffffffffffffff168173ffffffffffffffffffffffffffffffffffffffff1603620000cf5760006040517f1e4fbdf7000000000000000000000000000000000000000000000000000000008152600401620000c69190620002a5565b60405180910390fd5b620000e0816200011a60201b60201c565b50620000fd67b5ca633e5cedd3de60c01b620001e060201b60201c565b505062000623565b80600290816200011691906200053c565b5050565b6000600560009054906101000a900473ffffffffffffffffffffffffffffffffffffffff16905081600560006101000a81548173ffffffffffffffffffffffffffffffffffffffff021916908373ffffffffffffffffffffffffffffffffffffffff1602179055508173ffffffffffffffffffffffffffffffffffffffff168173ffffffffffffffffffffffffffffffffffffffff167f8be0079c531659141344cd1fd0a4f28419497f9722a3daafe3b4186f6b6457e060405160405180910390a35050565b50565b600080fd5b600073ffffffffffffffffffffffffffffffffffffffff82169050919050565b60006200021582620001e8565b9050919050565b620002278162000208565b81146200023357600080fd5b50565b60008151905062000247816200021c565b92915050565b60008060408385031215620002675762000266620001e3565b5b6000620002778582860162000236565b92505060206200028a8582860162000236565b9150509250929050565b6200029f8162000208565b82525050565b6000602082019050620002bc600083018462000294565b92915050565b600081519050919050565b7f4e487b7100000000000000000000000000000000000000000000000000000000600052604160045260246000fd5b7f4e487b7100000000000000000000000000000000000000000000000000000000600052602260045260246000fd5b600060028204905060018216806200034457607f821691505b6020821081036200035a5762000359620002fc565b5b50919050565b60008190508160005260206000209050919050565b60006020601f8301049050919050565b600082821b905092915050565b600060088302620003c47fffffffffffffffffffffffffffffffffffffffffffffffffffffffffffffffff8262000385565b620003d0868362000385565b95508019841693508086168417925050509392505050565b6000819050919050565b6000819050919050565b60006200041d620004176200041184620003e8565b620003f2565b620003e8565b9050919050565b6000819050919050565b6200043983620003fc565b62000451620004488262000424565b84845462000392565b825550505050565b600090565b6200046862000459565b620004758184846200042e565b505050565b5b818110156200049d57620004916000826200045e565b6001810190506200047b565b5050565b601f821115620004ec57620004b68162000360565b620004c18462000375565b81016020851015620004d1578190505b620004e9620004e08562000375565b8301826200047a565b50505b505050565b600082821c905092915050565b60006200051160001984600802620004f1565b1980831691505092915050565b60006200052c8383620004fe565b9150826002028217905092915050565b6200054782620002c2565b67ffffffffffffffff811115620005635762000562620002cd565b5b6200056f82546200032b565b6200057c828285620004a1565b600060209050601f831160018114620005b457600084156200059f578287015190505b620005ab85826200051e565b8655506200061b565b601f198416620005c48662000360565b60005b82811015620005ee57848901518255600182019150602085019450602081019050620005c7565b868310156200060e57848901516200060a601f891682620004fe565b8355505b6001600288020188555050505b505050505050565b612ac580620006336000396000f3fe608060405234801561001057600080fd5b50600436106100ff5760003560e01c8063715018a611610097578063bd85b03911610066578063bd85b039146102aa578063e985e9c5146102da578063f242432a1461030a578063f2fde38b14610326576100ff565b8063715018a61461024a578063731133e9146102545780638da5cb5b14610270578063a22cb4651461028e576100ff565b806318160ddd116100d357806318160ddd146101b05780632eb2c2d6146101ce5780634e1273f4146101ea5780634f558e791461021a576100ff565b8062fdd58e1461010457806301ffc9a71461013457806302fe5305146101645780630e89341c14610180575b600080fd5b61011e60048036038101906101199190611abe565b610342565b60405161012b9190611b0d565b60405180910390f35b61014e60048036038101906101499190611b80565b61039c565b60405161015b9190611bc8565b60405180910390f35b61017e60048036038101906101799190611d29565b61047e565b005b61019a60048036038101906101959190611d72565b6104f6565b6040516101a79190611e1e565b60405180910390f35b6101b861058a565b6040516101c59190611b0d565b60405180910390f35b6101e860048036038101906101e39190611fa9565b610594565b005b61020460048036038101906101ff919061213b565b61063c565b6040516102119190612271565b60405180910390f35b610234600480360381019061022f9190611d72565b61074b565b6040516102419190611bc8565b60405180910390f35b61025261075f565b005b61026e60048036038101906102699190612293565b610773565b005b6102786107f1565b6040516102859190612325565b60405180910390f35b6102a860048036038101906102a3919061236c565b61081b565b005b6102c460048036038101906102bf9190611d72565b610831565b6040516102d19190611b0d565b60405180910390f35b6102f460048036038101906102ef91906123ac565b61084e565b6040516103019190611bc8565b60405180910390f35b610324600480360381019061031f91906123ec565b6108e2565b005b610340600480360381019061033b9190612483565b61098a565b005b600080600083815260200190815260200160002060008473ffffffffffffffffffffffffffffffffffffffff1673ffffffffffffffffffffffffffffffffffffffff16815260200190815260200160002054905092915050565b60007fd9b67a26000000000000000000000000000000000000000000000000000000007bffffffffffffffffffffffffffffffffffffffffffffffffffffffff1916827bffffffffffffffffffffffffffffffffffffffffffffffffffffffff1916148061046757507f0e89341c000000000000000000000000000000000000000000000000000000007bffffffffffffffffffffffffffffffffffffffffffffffffffffffff1916827bffffffffffffffffffffffffffffffffffffffffffffffffffffffff1916145b80610477575061047682610a10565b5b9050919050565b61049267a48f20054f84036860c01b610a7a565b61049a610a7d565b6104ae674ab1ac1df876616a60c01b610a7a565b6104c267aed7654c6da4b0ae60c01b610a7a565b6104d667413a10bbbc15247260c01b610a7a565b6104ea6730891531e40c7c1e60c01b610a7a565b6104f381610b04565b50565b606060028054610505906124df565b80601f0160208091040260200160405190810160405280929190818152602001828054610531906124df565b801561057e5780601f106105535761010080835404028352916020019161057e565b820191906000526020600020905b81548152906001019060200180831161056157829003601f168201915b50505050509050919050565b6000600454905090565b600061059e610b17565b90508073ffffffffffffffffffffffffffffffffffffffff168673ffffffffffffffffffffffffffffffffffffffff16141580156105e357506105e1868261084e565b155b156106275780866040517fe237d92200000000000000000000000000000000000000000000000000000000815260040161061e929190612510565b60405180910390fd5b6106348686868686610b1f565b505050505050565b6060815183511461068857815183516040517f5b05999100000000000000000000000000000000000000000000000000000000815260040161067f929190612539565b60405180910390fd5b6000835167ffffffffffffffff8111156106a5576106a4611bfe565b5b6040519080825280602002602001820160405280156106d35781602001602082028036833780820191505090505b50905060005b8451811015610740576107106106f88287610c1790919063ffffffff16565b61070b8387610c2b90919063ffffffff16565b610342565b82828151811061072357610722612562565b5b60200260200101818152505080610739906125c0565b90506106d9565b508091505092915050565b60008061075783610831565b119050919050565b610767610a7d565b6107716000610c3f565b565b61078767b1fd3c5bcfefeb1f60c01b610a7a565b61078f610a7d565b6107a3672877b02ca033848e60c01b610a7a565b6107b767c7ae3cbc26a1277d60c01b610a7a565b6107cb673d0568faee83888060c01b610a7a565b6107df671a4dbff411d4943a60c01b610a7a565b6107eb84848484610d05565b50505050565b6000600560009054906101000a900473ffffffffffffffffffffffffffffffffffffffff16905090565b61082d610826610b17565b8383610d9e565b5050565b600060036000838152602001908152602001600020549050919050565b6000600160008473ffffffffffffffffffffffffffffffffffffffff1673ffffffffffffffffffffffffffffffffffffffff16815260200190815260200160002060008373ffffffffffffffffffffffffffffffffffffffff1673ffffffffffffffffffffffffffffffffffffffff16815260200190815260200160002060009054906101000a900460ff16905092915050565b60006108ec610b17565b90508073ffffffffffffffffffffffffffffffffffffffff168673ffffffffffffffffffffffffffffffffffffffff1614158015610931575061092f868261084e565b155b156109755780866040517fe237d92200000000000000000000000000000000000000000000000000000000815260040161096c929190612510565b60405180910390fd5b6109828686868686610f0e565b505050505050565b610992610a7d565b600073ffffffffffffffffffffffffffffffffffffffff168173ffffffffffffffffffffffffffffffffffffffff1603610a045760006040517f1e4fbdf70000000000000000000000000000000000000000000000000000000081526004016109fb9190612325565b60405180910390fd5b610a0d81610c3f565b50565b60007f01ffc9a7000000000000000000000000000000000000000000000000000000007bffffffffffffffffffffffffffffffffffffffffffffffffffffffff1916827bffffffffffffffffffffffffffffffffffffffffffffffffffffffff1916149050919050565b50565b610a85610b17565b73ffffffffffffffffffffffffffffffffffffffff16610aa36107f1565b73ffffffffffffffffffffffffffffffffffffffff1614610b0257610ac6610b17565b6040517f118cdaa7000000000000000000000000000000000000000000000000000000008152600401610af99190612325565b60405180910390fd5b565b8060029081610b1391906127b4565b5050565b600033905090565b600073ffffffffffffffffffffffffffffffffffffffff168473ffffffffffffffffffffffffffffffffffffffff1603610b915760006040517f57f447ce000000000000000000000000000000000000000000000000000000008152600401610b889190612325565b60405180910390fd5b600073ffffffffffffffffffffffffffffffffffffffff168573ffffffffffffffffffffffffffffffffffffffff1603610c035760006040517f01a83514000000000000000000000000000000000000000000000000000000008152600401610bfa9190612325565b60405180910390fd5b610c108585858585611019565b5050505050565b600060208202602084010151905092915050565b600060208202602084010151905092915050565b6000600560009054906101000a900473ffffffffffffffffffffffffffffffffffffffff16905081600560006101000a81548173ffffffffffffffffffffffffffffffffffffffff021916908373ffffffffffffffffffffffffffffffffffffffff1602179055508173ffffffffffffffffffffffffffffffffffffffff168173ffffffffffffffffffffffffffffffffffffffff167f8be0079c531659141344cd1fd0a4f28419497f9722a3daafe3b4186f6b6457e060405160405180910390a35050565b600073ffffffffffffffffffffffffffffffffffffffff168473ffffffffffffffffffffffffffffffffffffffff1603610d775760006040517f57f447ce000000000000000000000000000000000000000000000000000000008152600401610d6e9190612325565b60405180910390fd5b600080610d8485856110cb565b91509150610d96600087848487611019565b505050505050565b600073ffffffffffffffffffffffffffffffffffffffff168273ffffffffffffffffffffffffffffffffffffffff1603610e105760006040517fced3e100000000000000000000000000000000000000000000000000000000008152600401610e079190612325565b60405180910390fd5b80600160008573ffffffffffffffffffffffffffffffffffffffff1673ffffffffffffffffffffffffffffffffffffffff16815260200190815260200160002060008473ffffffffffffffffffffffffffffffffffffffff1673ffffffffffffffffffffffffffffffffffffffff16815260200190815260200160002060006101000a81548160ff0219169083151502179055508173ffffffffffffffffffffffffffffffffffffffff168373ffffffffffffffffffffffffffffffffffffffff167f17307eab39ab6107e8899845ad3d59bd9653f200f220920489ca2b5937696c3183604051610f019190611bc8565b60405180910390a3505050565b600073ffffffffffffffffffffffffffffffffffffffff168473ffffffffffffffffffffffffffffffffffffffff1603610f805760006040517f57f447ce000000000000000000000000000000000000000000000000000000008152600401610f779190612325565b60405180910390fd5b600073ffffffffffffffffffffffffffffffffffffffff168573ffffffffffffffffffffffffffffffffffffffff1603610ff25760006040517f01a83514000000000000000000000000000000000000000000000000000000008152600401610fe99190612325565b60405180910390fd5b600080610fff85856110cb565b915091506110108787848487611019565b50505050505050565b611025858585856110fb565b600073ffffffffffffffffffffffffffffffffffffffff168473ffffffffffffffffffffffffffffffffffffffff16146110c4576000611063610b17565b905060018451036110b3576000611084600086610c2b90919063ffffffff16565b9050600061109c600086610c2b90919063ffffffff16565b90506110ac838989858589611149565b50506110c2565b6110c18187878787876112fd565b5b505b5050505050565b60608060405191506001825283602083015260408201905060018152826020820152604081016040529250929050565b61110f67fc6b1c127696de9760c01b610a7a565b611123677947b6af36eb360760c01b610a7a565b61113767b31b5885c565616460c01b610a7a565b611143848484846114b1565b50505050565b60008473ffffffffffffffffffffffffffffffffffffffff163b11156112f5578373ffffffffffffffffffffffffffffffffffffffff1663f23a6e6187878686866040518663ffffffff1660e01b81526004016111aa9594939291906128db565b6020604051808303816000875af19250505080156111e657506040513d601f19601f820116820180604052508101906111e3919061294a565b60015b61126a573d8060008114611216576040519150601f19603f3d011682016040523d82523d6000602084013e61121b565b606091505b50600081510361126257846040517f57f447ce0000000000000000000000000000000000000000000000000000000081526004016112599190612325565b60405180910390fd5b805181602001fd5b63f23a6e6160e01b7bffffffffffffffffffffffffffffffffffffffffffffffffffffffff1916817bffffffffffffffffffffffffffffffffffffffffffffffffffffffff1916146112f357846040517f57f447ce0000000000000000000000000000000000000000000000000000000081526004016112ea9190612325565b60405180910390fd5b505b505050505050565b60008473ffffffffffffffffffffffffffffffffffffffff163b11156114a9578373ffffffffffffffffffffffffffffffffffffffff1663bc197c8187878686866040518663ffffffff1660e01b815260040161135e959493929190612977565b6020604051808303816000875af192505050801561139a57506040513d601f19601f82011682018060405250810190611397919061294a565b60015b61141e573d80600081146113ca576040519150601f19603f3d011682016040523d82523d6000602084013e6113cf565b606091505b50600081510361141657846040517f57f447ce00000000000000000000000000000000000000000000000000000000815260040161140d9190612325565b60405180910390fd5b805181602001fd5b63bc197c8160e01b7bffffffffffffffffffffffffffffffffffffffffffffffffffffffff1916817bffffffffffffffffffffffffffffffffffffffffffffffffffffffff1916146114a757846040517f57f447ce00000000000000000000000000000000000000000000000000000000815260040161149e9190612325565b60405180910390fd5b505b505050505050565b6114bd84848484611668565b600073ffffffffffffffffffffffffffffffffffffffff168473ffffffffffffffffffffffffffffffffffffffff160361159d576000805b835181101561158157600083828151811061151357611512612562565b5b60200260200101519050806003600087858151811061153557611534612562565b5b60200260200101518152602001908152602001600020600082825461155a91906129df565b92505081905550808361156d91906129df565b9250508061157a906125c0565b90506114f5565b50806004600082825461159491906129df565b92505081905550505b600073ffffffffffffffffffffffffffffffffffffffff168373ffffffffffffffffffffffffffffffffffffffff1603611662576000805b835181101561164f5760008382815181106115f3576115f2612562565b5b60200260200101519050806003600087858151811061161557611614612562565b5b602002602001015181526020019081526020016000206000828254039250508190555080830192505080611648906125c0565b90506115d5565b5080600460008282540392505081905550505b50505050565b80518251146116b257815181516040517f5b0599910000000000000000000000000000000000000000000000000000000081526004016116a9929190612539565b60405180910390fd5b60006116bc610b17565b905060005b83518110156118d15760006116df8286610c2b90919063ffffffff16565b905060006116f68386610c2b90919063ffffffff16565b9050600073ffffffffffffffffffffffffffffffffffffffff168873ffffffffffffffffffffffffffffffffffffffff161461182357600080600084815260200190815260200160002060008a73ffffffffffffffffffffffffffffffffffffffff1673ffffffffffffffffffffffffffffffffffffffff168152602001908152602001600020549050818110156117cb57888183856040517f03dee4c50000000000000000000000000000000000000000000000000000000081526004016117c29493929190612a13565b60405180910390fd5b81810360008085815260200190815260200160002060008b73ffffffffffffffffffffffffffffffffffffffff1673ffffffffffffffffffffffffffffffffffffffff16815260200190815260200160002081905550505b600073ffffffffffffffffffffffffffffffffffffffff168773ffffffffffffffffffffffffffffffffffffffff16146118be578060008084815260200190815260200160002060008973ffffffffffffffffffffffffffffffffffffffff1673ffffffffffffffffffffffffffffffffffffffff16815260200190815260200160002060008282546118b691906129df565b925050819055505b5050806118ca906125c0565b90506116c1565b5060018351036119905760006118f1600085610c2b90919063ffffffff16565b90506000611909600085610c2b90919063ffffffff16565b90508573ffffffffffffffffffffffffffffffffffffffff168773ffffffffffffffffffffffffffffffffffffffff168473ffffffffffffffffffffffffffffffffffffffff167fc3d58168c5ae7397731d063d5bbf3d657854427343f4c083240f7aacaa2d0f628585604051611981929190612539565b60405180910390a45050611a0f565b8373ffffffffffffffffffffffffffffffffffffffff168573ffffffffffffffffffffffffffffffffffffffff168273ffffffffffffffffffffffffffffffffffffffff167f4a39dc06d4c0dbc64b70af90fd698a233a518aa5d07e595d983b8c0526c8f7fb8686604051611a06929190612a58565b60405180910390a45b5050505050565b6000604051905090565b600080fd5b600080fd5b600073ffffffffffffffffffffffffffffffffffffffff82169050919050565b6000611a5582611a2a565b9050919050565b611a6581611a4a565b8114611a7057600080fd5b50565b600081359050611a8281611a5c565b92915050565b6000819050919050565b611a9b81611a88565b8114611aa657600080fd5b50565b600081359050611ab881611a92565b92915050565b60008060408385031215611ad557611ad4611a20565b5b6000611ae385828601611a73565b9250506020611af485828601611aa9565b9150509250929050565b611b0781611a88565b82525050565b6000602082019050611b226000830184611afe565b92915050565b60007fffffffff0000000000000000000000000000000000000000000000000000000082169050919050565b611b5d81611b28565b8114611b6857600080fd5b50565b600081359050611b7a81611b54565b92915050565b600060208284031215611b9657611b95611a20565b5b6000611ba484828501611b6b565b91505092915050565b60008115159050919050565b611bc281611bad565b82525050565b6000602082019050611bdd6000830184611bb9565b92915050565b600080fd5b600080fd5b6000601f19601f8301169050919050565b7f4e487b7100000000000000000000000000000000000000000000000000000000600052604160045260246000fd5b611c3682611bed565b810181811067ffffffffffffffff82111715611c5557611c54611bfe565b5b80604052505050565b6000611c68611a16565b9050611c748282611c2d565b919050565b600067ffffffffffffffff821115611c9457611c93611bfe565b5b611c9d82611bed565b9050602081019050919050565b82818337600083830152505050565b6000611ccc611cc784611c79565b611c5e565b905082815260208101848484011115611ce857611ce7611be8565b5b611cf3848285611caa565b509392505050565b600082601f830112611d1057611d0f611be3565b5b8135611d20848260208601611cb9565b91505092915050565b600060208284031215611d3f57611d3e611a20565b5b600082013567ffffffffffffffff811115611d5d57611d5c611a25565b5b611d6984828501611cfb565b91505092915050565b600060208284031215611d8857611d87611a20565b5b6000611d9684828501611aa9565b91505092915050565b600081519050919050565b600082825260208201905092915050565b60005b83811015611dd9578082015181840152602081019050611dbe565b60008484015250505050565b6000611df082611d9f565b611dfa8185611daa565b9350611e0a818560208601611dbb565b611e1381611bed565b840191505092915050565b60006020820190508181036000830152611e388184611de5565b905092915050565b600067ffffffffffffffff821115611e5b57611e5a611bfe565b5b602082029050602081019050919050565b600080fd5b6000611e84611e7f84611e40565b611c5e565b90508083825260208201905060208402830185811115611ea757611ea6611e6c565b5b835b81811015611ed05780611ebc8882611aa9565b845260208401935050602081019050611ea9565b5050509392505050565b600082601f830112611eef57611eee611be3565b5b8135611eff848260208601611e71565b91505092915050565b600067ffffffffffffffff821115611f2357611f22611bfe565b5b611f2c82611bed565b9050602081019050919050565b6000611f4c611f4784611f08565b611c5e565b905082815260208101848484011115611f6857611f67611be8565b5b611f73848285611caa565b509392505050565b600082601f830112611f9057611f8f611be3565b5b8135611fa0848260208601611f39565b91505092915050565b600080600080600060a08688031215611fc557611fc4611a20565b5b6000611fd388828901611a73565b9550506020611fe488828901611a73565b945050604086013567ffffffffffffffff81111561200557612004611a25565b5b61201188828901611eda565b935050606086013567ffffffffffffffff81111561203257612031611a25565b5b61203e88828901611eda565b925050608086013567ffffffffffffffff81111561205f5761205e611a25565b5b61206b88828901611f7b565b9150509295509295909350565b600067ffffffffffffffff82111561209357612092611bfe565b5b602082029050602081019050919050565b60006120b76120b284612078565b611c5e565b905080838252602082019050602084028301858111156120da576120d9611e6c565b5b835b8181101561210357806120ef8882611a73565b8452602084019350506020810190506120dc565b5050509392505050565b600082601f83011261212257612121611be3565b5b81356121328482602086016120a4565b91505092915050565b6000806040838503121561215257612151611a20565b5b600083013567ffffffffffffffff8111156121705761216f611a25565b5b61217c8582860161210d565b925050602083013567ffffffffffffffff81111561219d5761219c611a25565b5b6121a985828601611eda565b9150509250929050565b600081519050919050565b600082825260208201905092915050565b6000819050602082019050919050565b6121e881611a88565b82525050565b60006121fa83836121df565b60208301905092915050565b6000602082019050919050565b600061221e826121b3565b61222881856121be565b9350612233836121cf565b8060005b8381101561226457815161224b88826121ee565b975061225683612206565b925050600181019050612237565b5085935050505092915050565b6000602082019050818103600083015261228b8184612213565b905092915050565b600080600080608085870312156122ad576122ac611a20565b5b60006122bb87828801611a73565b94505060206122cc87828801611aa9565b93505060406122dd87828801611aa9565b925050606085013567ffffffffffffffff8111156122fe576122fd611a25565b5b61230a87828801611f7b565b91505092959194509250565b61231f81611a4a565b82525050565b600060208201905061233a6000830184612316565b92915050565b61234981611bad565b811461235457600080fd5b50565b60008135905061236681612340565b92915050565b6000806040838503121561238357612382611a20565b5b600061239185828601611a73565b92505060206123a285828601612357565b9150509250929050565b600080604083850312156123c3576123c2611a20565b5b60006123d185828601611a73565b92505060206123e285828601611a73565b9150509250929050565b600080600080600060a0868803121561240857612407611a20565b5b600061241688828901611a73565b955050602061242788828901611a73565b945050604061243888828901611aa9565b935050606061244988828901611aa9565b925050608086013567ffffffffffffffff81111561246a57612469611a25565b5b61247688828901611f7b565b9150509295509295909350565b60006020828403121561249957612498611a20565b5b60006124a784828501611a73565b91505092915050565b7f4e487b7100000000000000000000000000000000000000000000000000000000600052602260045260246000fd5b600060028204905060018216806124f757607f821691505b60208210810361250a576125096124b0565b5b50919050565b60006040820190506125256000830185612316565b6125326020830184612316565b9392505050565b600060408201905061254e6000830185611afe565b61255b6020830184611afe565b9392505050565b7f4e487b7100000000000000000000000000000000000000000000000000000000600052603260045260246000fd5b7f4e487b7100000000000000000000000000000000000000000000000000000000600052601160045260246000fd5b60006125cb82611a88565b91507fffffffffffffffffffffffffffffffffffffffffffffffffffffffffffffffff82036125fd576125fc612591565b5b600182019050919050565b60008190508160005260206000209050919050565b60006020601f8301049050919050565b600082821b905092915050565b60006008830261266a7fffffffffffffffffffffffffffffffffffffffffffffffffffffffffffffffff8261262d565b612674868361262d565b95508019841693508086168417925050509392505050565b6000819050919050565b60006126b16126ac6126a784611a88565b61268c565b611a88565b9050919050565b6000819050919050565b6126cb83612696565b6126df6126d7826126b8565b84845461263a565b825550505050565b600090565b6126f46126e7565b6126ff8184846126c2565b505050565b5b81811015612723576127186000826126ec565b600181019050612705565b5050565b601f8211156127685761273981612608565b6127428461261d565b81016020851015612751578190505b61276561275d8561261d565b830182612704565b50505b505050565b600082821c905092915050565b600061278b6000198460080261276d565b1980831691505092915050565b60006127a4838361277a565b9150826002028217905092915050565b6127bd82611d9f565b67ffffffffffffffff8111156127d6576127d5611bfe565b5b6127e082546124df565b6127eb828285612727565b600060209050601f83116001811461281e576000841561280c578287015190505b6128168582612798565b86555061287e565b601f19841661282c86612608565b60005b828110156128545784890151825560018201915060208501945060208101905061282f565b86831015612871578489015161286d601f89168261277a565b8355505b6001600288020188555050505b505050505050565b600081519050919050565b600082825260208201905092915050565b60006128ad82612886565b6128b78185612891565b93506128c7818560208601611dbb565b6128d081611bed565b840191505092915050565b600060a0820190506128f06000830188612316565b6128fd6020830187612316565b61290a6040830186611afe565b6129176060830185611afe565b818103608083015261292981846128a2565b90509695505050505050565b60008151905061294481611b54565b92915050565b6000602082840312156129605761295f611a20565b5b600061296e84828501612935565b91505092915050565b600060a08201905061298c6000830188612316565b6129996020830187612316565b81810360408301526129ab8186612213565b905081810360608301526129bf8185612213565b905081810360808301526129d381846128a2565b90509695505050505050565b60006129ea82611a88565b91506129f583611a88565b9250828201905080821115612a0d57612a0c612591565b5b92915050565b6000608082019050612a286000830187612316565b612a356020830186611afe565b612a426040830185611afe565b612a4f6060830184611afe565b95945050505050565b60006040820190508181036000830152612a728185612213565b90508181036020830152612a868184612213565b9050939250505056fea26469706673582212208f026896ace44c706240ec56950f4af8d979b9d7fec9f91b8ac3cb2cbc8f025364736f6c63430008140033",
  "linkReferences": {},
  "deployedLinkReferences": {}
}