{
  "_format": "hh-sol-artifact-1",
  "contractName": "NFT",
  "sourceName": "contracts/NFT.sol",
  "abi": [
    {
      "inputs": [
        {
          "internalType": "address",
          "name": "defaultAdmin",
          "type": "address"
        },
        {
          "internalType": "address",
          "name": "marketPlace",
          "type": "address"
        }
      ],
      "stateMutability": "nonpayable",
      "type": "constructor"
    },
    {
      "inputs": [
        {
          "internalType": "address",
          "name": "sender",
          "type": "address"
        },
        {
          "internalType": "uint256",
          "name": "balance",
          "type": "uint256"
        },
        {
          "internalType": "uint256",
          "name": "needed",
          "type": "uint256"
        },
        {
          "internalType": "uint256",
          "name": "tokenId",
          "type": "uint256"
        }
      ],
      "name": "ERC1155InsufficientBalance",
      "type": "error"
    },
    {
      "inputs": [
        {
          "internalType": "address",
          "name": "approver",
          "type": "address"
        }
      ],
      "name": "ERC1155InvalidApprover",
      "type": "error"
    },
    {
      "inputs": [
        {
          "internalType": "uint256",
          "name": "idsLength",
          "type": "uint256"
        },
        {
          "internalType": "uint256",
          "name": "valuesLength",
          "type": "uint256"
        }
      ],
      "name": "ERC1155InvalidArrayLength",
      "type": "error"
    },
    {
      "inputs": [
        {
          "internalType": "address",
          "name": "operator",
          "type": "address"
        }
      ],
      "name": "ERC1155InvalidOperator",
      "type": "error"
    },
    {
      "inputs": [
        {
          "internalType": "address",
          "name": "receiver",
          "type": "address"
        }
      ],
      "name": "ERC1155InvalidReceiver",
      "type": "error"
    },
    {
      "inputs": [
        {
          "internalType": "address",
          "name": "sender",
          "type": "address"
        }
      ],
      "name": "ERC1155InvalidSender",
      "type": "error"
    },
    {
      "inputs": [
        {
          "internalType": "address",
          "name": "operator",
          "type": "address"
        },
        {
          "internalType": "address",
          "name": "owner",
          "type": "address"
        }
      ],
      "name": "ERC1155MissingApprovalForAll",
      "type": "error"
    },
    {
      "inputs": [
        {
          "internalType": "address",
          "name": "owner",
          "type": "address"
        }
      ],
      "name": "OwnableInvalidOwner",
      "type": "error"
    },
    {
      "inputs": [
        {
          "internalType": "address",
          "name": "account",
          "type": "address"
        }
      ],
      "name": "OwnableUnauthorizedAccount",
      "type": "error"
    },
    {
      "anonymous": false,
      "inputs": [
        {
          "indexed": true,
          "internalType": "address",
          "name": "account",
          "type": "address"
        },
        {
          "indexed": true,
          "internalType": "address",
          "name": "operator",
          "type": "address"
        },
        {
          "indexed": false,
          "internalType": "bool",
          "name": "approved",
          "type": "bool"
        }
      ],
      "name": "ApprovalForAll",
      "type": "event"
    },
    {
      "anonymous": false,
      "inputs": [
        {
          "indexed": true,
          "internalType": "address",
          "name": "previousOwner",
          "type": "address"
        },
        {
          "indexed": true,
          "internalType": "address",
          "name": "newOwner",
          "type": "address"
        }
      ],
      "name": "OwnershipTransferred",
      "type": "event"
    },
    {
      "anonymous": false,
      "inputs": [
        {
          "indexed": true,
          "internalType": "address",
          "name": "operator",
          "type": "address"
        },
        {
          "indexed": true,
          "internalType": "address",
          "name": "from",
          "type": "address"
        },
        {
          "indexed": true,
          "internalType": "address",
          "name": "to",
          "type": "address"
        },
        {
          "indexed": false,
          "internalType": "uint256[]",
          "name": "ids",
          "type": "uint256[]"
        },
        {
          "indexed": false,
          "internalType": "uint256[]",
          "name": "values",
          "type": "uint256[]"
        }
      ],
      "name": "TransferBatch",
      "type": "event"
    },
    {
      "anonymous": false,
      "inputs": [
        {
          "indexed": true,
          "internalType": "address",
          "name": "operator",
          "type": "address"
        },
        {
          "indexed": true,
          "internalType": "address",
          "name": "from",
          "type": "address"
        },
        {
          "indexed": true,
          "internalType": "address",
          "name": "to",
          "type": "address"
        },
        {
          "indexed": false,
          "internalType": "uint256",
          "name": "id",
          "type": "uint256"
        },
        {
          "indexed": false,
          "internalType": "uint256",
          "name": "value",
          "type": "uint256"
        }
      ],
      "name": "TransferSingle",
      "type": "event"
    },
    {
      "anonymous": false,
      "inputs": [
        {
          "indexed": false,
          "internalType": "string",
          "name": "value",
          "type": "string"
        },
        {
          "indexed": true,
          "internalType": "uint256",
          "name": "id",
          "type": "uint256"
        }
      ],
      "name": "URI",
      "type": "event"
    },
    {
      "inputs": [
        {
          "internalType": "address",
          "name": "account",
          "type": "address"
        },
        {
          "internalType": "uint256",
          "name": "id",
          "type": "uint256"
        }
      ],
      "name": "balanceOf",
      "outputs": [
        {
          "internalType": "uint256",
          "name": "",
          "type": "uint256"
        }
      ],
      "stateMutability": "view",
      "type": "function"
    },
    {
      "inputs": [
        {
          "internalType": "address[]",
          "name": "accounts",
          "type": "address[]"
        },
        {
          "internalType": "uint256[]",
          "name": "ids",
          "type": "uint256[]"
        }
      ],
      "name": "balanceOfBatch",
      "outputs": [
        {
          "internalType": "uint256[]",
          "name": "",
          "type": "uint256[]"
        }
      ],
      "stateMutability": "view",
      "type": "function"
    },
    {
      "inputs": [
        {
          "internalType": "uint256",
          "name": "id",
          "type": "uint256"
        }
      ],
      "name": "exists",
      "outputs": [
        {
          "internalType": "bool",
          "name": "",
          "type": "bool"
        }
      ],
      "stateMutability": "view",
      "type": "function"
    },
    {
      "inputs": [
        {
          "internalType": "address",
          "name": "account",
          "type": "address"
        },
        {
          "internalType": "address",
          "name": "operator",
          "type": "address"
        }
      ],
      "name": "isApprovedForAll",
      "outputs": [
        {
          "internalType": "bool",
          "name": "",
          "type": "bool"
        }
      ],
      "stateMutability": "view",
      "type": "function"
    },
    {
      "inputs": [
        {
          "internalType": "address",
          "name": "account",
          "type": "address"
        },
        {
          "internalType": "uint256",
          "name": "id",
          "type": "uint256"
        },
        {
          "internalType": "uint256",
          "name": "amount",
          "type": "uint256"
        },
        {
          "internalType": "bytes",
          "name": "data",
          "type": "bytes"
        }
      ],
      "name": "mint",
      "outputs": [],
      "stateMutability": "nonpayable",
      "type": "function"
    },
    {
      "inputs": [],
      "name": "owner",
      "outputs": [
        {
          "internalType": "address",
          "name": "",
          "type": "address"
        }
      ],
      "stateMutability": "view",
      "type": "function"
    },
    {
      "inputs": [],
      "name": "renounceOwnership",
      "outputs": [],
      "stateMutability": "nonpayable",
      "type": "function"
    },
    {
      "inputs": [
        {
          "internalType": "address",
          "name": "from",
          "type": "address"
        },
        {
          "internalType": "address",
          "name": "to",
          "type": "address"
        },
        {
          "internalType": "uint256[]",
          "name": "ids",
          "type": "uint256[]"
        },
        {
          "internalType": "uint256[]",
          "name": "values",
          "type": "uint256[]"
        },
        {
          "internalType": "bytes",
          "name": "data",
          "type": "bytes"
        }
      ],
      "name": "safeBatchTransferFrom",
      "outputs": [],
      "stateMutability": "nonpayable",
      "type": "function"
    },
    {
      "inputs": [
        {
          "internalType": "address",
          "name": "from",
          "type": "address"
        },
        {
          "internalType": "address",
          "name": "to",
          "type": "address"
        },
        {
          "internalType": "uint256",
          "name": "id",
          "type": "uint256"
        },
        {
          "internalType": "uint256",
          "name": "value",
          "type": "uint256"
        },
        {
          "internalType": "bytes",
          "name": "data",
          "type": "bytes"
        }
      ],
      "name": "safeTransferFrom",
      "outputs": [],
      "stateMutability": "nonpayable",
      "type": "function"
    },
    {
      "inputs": [
        {
          "internalType": "address",
          "name": "operator",
          "type": "address"
        },
        {
          "internalType": "bool",
          "name": "approved",
          "type": "bool"
        }
      ],
      "name": "setApprovalForAll",
      "outputs": [],
      "stateMutability": "nonpayable",
      "type": "function"
    },
    {
      "inputs": [
        {
          "internalType": "string",
          "name": "newuri",
          "type": "string"
        }
      ],
      "name": "setURI",
      "outputs": [],
      "stateMutability": "nonpayable",
      "type": "function"
    },
    {
      "inputs": [
        {
          "internalType": "bytes4",
          "name": "interfaceId",
          "type": "bytes4"
        }
      ],
      "name": "supportsInterface",
      "outputs": [
        {
          "internalType": "bool",
          "name": "",
          "type": "bool"
        }
      ],
      "stateMutability": "view",
      "type": "function"
    },
    {
      "inputs": [],
      "name": "totalSupply",
      "outputs": [
        {
          "internalType": "uint256",
          "name": "",
          "type": "uint256"
        }
      ],
      "stateMutability": "view",
      "type": "function"
    },
    {
      "inputs": [
        {
          "internalType": "uint256",
          "name": "id",
          "type": "uint256"
        }
      ],
      "name": "totalSupply",
      "outputs": [
        {
          "internalType": "uint256",
          "name": "",
          "type": "uint256"
        }
      ],
      "stateMutability": "view",
      "type": "function"
    },
    {
      "inputs": [
        {
          "internalType": "address",
          "name": "newOwner",
          "type": "address"
        }
      ],
      "name": "transferOwnership",
      "outputs": [],
      "stateMutability": "nonpayable",
      "type": "function"
    },
    {
      "inputs": [
        {
          "internalType": "uint256",
          "name": "",
          "type": "uint256"
        }
      ],
      "name": "uri",
      "outputs": [
        {
          "internalType": "string",
          "name": "",
          "type": "string"
        }
      ],
      "stateMutability": "view",
      "type": "function"
    }
  ],
  "bytecode": "0x60806040523480156200001157600080fd5b5060405162001a5538038062001a55833981016040819052620000349162000115565b6040805160208101909152600081528190620000508162000094565b506001600160a01b0381166200008057604051631e4fbdf760e01b81526000600482015260240160405180910390fd5b6200008b81620000a6565b505050620002be565b6002620000a28282620001f2565b5050565b600580546001600160a01b038381166001600160a01b0319831681179093556040519116919082907f8be0079c531659141344cd1fd0a4f28419497f9722a3daafe3b4186f6b6457e090600090a35050565b80516001600160a01b03811681146200011057600080fd5b919050565b600080604083850312156200012957600080fd5b6200013483620000f8565b91506200014460208401620000f8565b90509250929050565b634e487b7160e01b600052604160045260246000fd5b600181811c908216806200017857607f821691505b6020821081036200019957634e487b7160e01b600052602260045260246000fd5b50919050565b601f821115620001ed57600081815260208120601f850160051c81016020861015620001c85750805b601f850160051c820191505b81811015620001e957828155600101620001d4565b5050505b505050565b81516001600160401b038111156200020e576200020e6200014d565b62000226816200021f845462000163565b846200019f565b602080601f8311600181146200025e5760008415620002455750858301515b600019600386901b1c1916600185901b178555620001e9565b600085815260208120601f198616915b828110156200028f578886015182559484019460019091019084016200026e565b5085821015620002ae5787850151600019600388901b60f8161c191681555b5050505050600190811b01905550565b61178780620002ce6000396000f3fe608060405234801561001057600080fd5b50600436106100ff5760003560e01c8063715018a611610097578063bd85b03911610066578063bd85b03914610228578063e985e9c514610248578063f242432a1461025b578063f2fde38b1461026e57600080fd5b8063715018a6146101df578063731133e9146101e75780638da5cb5b146101fa578063a22cb4651461021557600080fd5b806318160ddd116100d357806318160ddd146101825780632eb2c2d61461018a5780634e1273f41461019d5780634f558e79146101bd57600080fd5b8062fdd58e1461010457806301ffc9a71461012a57806302fe53051461014d5780630e89341c14610162575b600080fd5b610117610112366004610f49565b610281565b6040519081526020015b60405180910390f35b61013d610138366004610f89565b6102a9565b6040519015158152602001610121565b61016061015b36600461104c565b6102f9565b005b61017561017036600461109d565b61030d565b60405161012191906110fc565b600454610117565b6101606101983660046111be565b6103a1565b6101b06101ab366004611268565b61040d565b6040516101219190611363565b61013d6101cb36600461109d565b600090815260036020526040902054151590565b6101606104e2565b6101606101f5366004611376565b6104f6565b6005546040516001600160a01b039091168152602001610121565b6101606102233660046113d7565b610510565b61011761023636600461109d565b60009081526003602052604090205490565b61013d610256366004611413565b61055a565b610160610269366004611446565b610588565b61016061027c3660046114ab565b6105e7565b6000818152602081815260408083206001600160a01b03861684529091529020545b92915050565b60006001600160e01b03198216636cdb3d1360e11b14806102da57506001600160e01b031982166303a24d0760e21b145b806102a357506301ffc9a760e01b6001600160e01b03198316146102a3565b610301610622565b61030a8161064f565b50565b60606002805461031c906114c6565b80601f0160208091040260200160405190810160405280929190818152602001828054610348906114c6565b80156103955780601f1061036a57610100808354040283529160200191610395565b820191906000526020600020905b81548152906001019060200180831161037857829003601f168201915b50505050509050919050565b336001600160a01b03861681148015906103c257506103c0868261055a565b155b156103f85760405163711bec9160e11b81526001600160a01b038083166004830152871660248201526044015b60405180910390fd5b610405868686868661065b565b505050505050565b6060815183511461043e5781518351604051635b05999160e01b8152600481019290925260248201526044016103ef565b6000835167ffffffffffffffff81111561045a5761045a610fad565b604051908082528060200260200182016040528015610483578160200160208202803683370190505b50905060005b84518110156104da576020808202860101516104ad90602080840287010151610281565b8282815181106104bf576104bf611500565b60209081029190910101526104d38161152c565b9050610489565b509392505050565b6104ea610622565b6104f460006106c2565b565b6104fe610622565b61050a84848484610714565b50505050565b610542604051806040016040528060118152602001701cd95d105c1c1c9bdd985b119bdc905b1b607a1b815250610771565b61054b336107b4565b6105563383836107fc565b5050565b6001600160a01b03918216600090815260016020908152604080832093909416825291909152205460ff1690565b336001600160a01b03861681148015906105a957506105a7868261055a565b155b156105da5760405163711bec9160e11b81526001600160a01b038083166004830152871660248201526044016103ef565b6104058686868686610892565b6105ef610622565b6001600160a01b03811661061957604051631e4fbdf760e01b8152600060048201526024016103ef565b61030a816106c2565b6005546001600160a01b031633146104f45760405163118cdaa760e01b81523360048201526024016103ef565b60026105568282611590565b6001600160a01b03841661068557604051632bfa23e760e11b8152600060048201526024016103ef565b6001600160a01b0385166106ae57604051626a0d4560e21b8152600060048201526024016103ef565b6106bb8585858585610920565b5050505050565b600580546001600160a01b038381166001600160a01b0319831681179093556040519116919082907f8be0079c531659141344cd1fd0a4f28419497f9722a3daafe3b4186f6b6457e090600090a35050565b6001600160a01b03841661073e57604051632bfa23e760e11b8152600060048201526024016103ef565b60408051600180825260208201869052818301908152606082018590526080820190925290610405600087848487610920565b61030a8160405160240161078591906110fc565b60408051601f198184030181529190526020810180516001600160e01b031663104c13eb60e21b179052610973565b6040516001600160a01b038216602482015261030a9060440160408051601f198184030181529190526020810180516001600160e01b031663161765e160e11b179052610973565b6001600160a01b0382166108255760405162ced3e160e81b8152600060048201526024016103ef565b6001600160a01b03838116600081815260016020908152604080832094871680845294825291829020805460ff191686151590811790915591519182527f17307eab39ab6107e8899845ad3d59bd9653f200f220920489ca2b5937696c31910160405180910390a3505050565b6001600160a01b0384166108bc57604051632bfa23e760e11b8152600060048201526024016103ef565b6001600160a01b0385166108e557604051626a0d4560e21b8152600060048201526024016103ef565b604080516001808252602082018690528183019081526060820185905260808201909252906109178787848487610920565b50505050505050565b61092c8585858561097c565b6001600160a01b038416156106bb5782513390600103610965576020848101519084015161095e838989858589610988565b5050610405565b610405818787878787610aac565b61030a81610b95565b61050a84848484610bb6565b6001600160a01b0384163b156104055760405163f23a6e6160e01b81526001600160a01b0385169063f23a6e61906109cc9089908990889088908890600401611650565b6020604051808303816000875af1925050508015610a07575060408051601f3d908101601f19168201909252610a0491810190611695565b60015b610a70573d808015610a35576040519150601f19603f3d011682016040523d82523d6000602084013e610a3a565b606091505b508051600003610a6857604051632bfa23e760e11b81526001600160a01b03861660048201526024016103ef565b805181602001fd5b6001600160e01b0319811663f23a6e6160e01b1461091757604051632bfa23e760e11b81526001600160a01b03861660048201526024016103ef565b6001600160a01b0384163b156104055760405163bc197c8160e01b81526001600160a01b0385169063bc197c8190610af090899089908890889088906004016116b2565b6020604051808303816000875af1925050508015610b2b575060408051601f3d908101601f19168201909252610b2891810190611695565b60015b610b59573d808015610a35576040519150601f19603f3d011682016040523d82523d6000602084013e610a3a565b6001600160e01b0319811663bc197c8160e01b1461091757604051632bfa23e760e11b81526001600160a01b03861660048201526024016103ef565b60006a636f6e736f6c652e6c6f679050600080835160208501845afa505050565b610bc284848484610d10565b6001600160a01b038416610c75576000805b8351811015610c5b576000838281518110610bf157610bf1611500565b602002602001015190508060036000878581518110610c1257610c12611500565b602002602001015181526020019081526020016000206000828254610c379190611710565b90915550610c4790508184611710565b92505080610c549061152c565b9050610bd4565b508060046000828254610c6e9190611710565b9091555050505b6001600160a01b03831661050a576000805b8351811015610cff576000838281518110610ca457610ca4611500565b602002602001015190508060036000878581518110610cc557610cc5611500565b602002602001015181526020019081526020016000206000828254039250508190555080830192505080610cf89061152c565b9050610c87565b506004805491909103905550505050565b8051825114610d3f5781518151604051635b05999160e01b8152600481019290925260248201526044016103ef565b3360005b8351811015610e4e576020818102858101820151908501909101516001600160a01b03881615610df6576000828152602081815260408083206001600160a01b038c16845290915290205481811015610dcf576040516303dee4c560e01b81526001600160a01b038a1660048201526024810182905260448101839052606481018490526084016103ef565b6000838152602081815260408083206001600160a01b038d16845290915290209082900390555b6001600160a01b03871615610e3b576000828152602081815260408083206001600160a01b038b16845290915281208054839290610e35908490611710565b90915550505b505080610e479061152c565b9050610d43565b508251600103610ecf5760208301516000906020840151909150856001600160a01b0316876001600160a01b0316846001600160a01b03167fc3d58168c5ae7397731d063d5bbf3d657854427343f4c083240f7aacaa2d0f628585604051610ec0929190918252602082015260400190565b60405180910390a450506106bb565b836001600160a01b0316856001600160a01b0316826001600160a01b03167f4a39dc06d4c0dbc64b70af90fd698a233a518aa5d07e595d983b8c0526c8f7fb8686604051610f1e929190611723565b60405180910390a45050505050565b80356001600160a01b0381168114610f4457600080fd5b919050565b60008060408385031215610f5c57600080fd5b610f6583610f2d565b946020939093013593505050565b6001600160e01b03198116811461030a57600080fd5b600060208284031215610f9b57600080fd5b8135610fa681610f73565b9392505050565b634e487b7160e01b600052604160045260246000fd5b604051601f8201601f1916810167ffffffffffffffff81118282101715610fec57610fec610fad565b604052919050565b600067ffffffffffffffff83111561100e5761100e610fad565b611021601f8401601f1916602001610fc3565b905082815283838301111561103557600080fd5b828260208301376000602084830101529392505050565b60006020828403121561105e57600080fd5b813567ffffffffffffffff81111561107557600080fd5b8201601f8101841361108657600080fd5b61109584823560208401610ff4565b949350505050565b6000602082840312156110af57600080fd5b5035919050565b6000815180845260005b818110156110dc576020818501810151868301820152016110c0565b506000602082860101526020601f19601f83011685010191505092915050565b602081526000610fa660208301846110b6565b600067ffffffffffffffff82111561112957611129610fad565b5060051b60200190565b600082601f83011261114457600080fd5b813560206111596111548361110f565b610fc3565b82815260059290921b8401810191818101908684111561117857600080fd5b8286015b84811015611193578035835291830191830161117c565b509695505050505050565b600082601f8301126111af57600080fd5b610fa683833560208501610ff4565b600080600080600060a086880312156111d657600080fd5b6111df86610f2d565b94506111ed60208701610f2d565b9350604086013567ffffffffffffffff8082111561120a57600080fd5b61121689838a01611133565b9450606088013591508082111561122c57600080fd5b61123889838a01611133565b9350608088013591508082111561124e57600080fd5b5061125b8882890161119e565b9150509295509295909350565b6000806040838503121561127b57600080fd5b823567ffffffffffffffff8082111561129357600080fd5b818501915085601f8301126112a757600080fd5b813560206112b76111548361110f565b82815260059290921b840181019181810190898411156112d657600080fd5b948201945b838610156112fb576112ec86610f2d565b825294820194908201906112db565b9650508601359250508082111561131157600080fd5b5061131e85828601611133565b9150509250929050565b600081518084526020808501945080840160005b838110156113585781518752958201959082019060010161133c565b509495945050505050565b602081526000610fa66020830184611328565b6000806000806080858703121561138c57600080fd5b61139585610f2d565b93506020850135925060408501359150606085013567ffffffffffffffff8111156113bf57600080fd5b6113cb8782880161119e565b91505092959194509250565b600080604083850312156113ea57600080fd5b6113f383610f2d565b91506020830135801515811461140857600080fd5b809150509250929050565b6000806040838503121561142657600080fd5b61142f83610f2d565b915061143d60208401610f2d565b90509250929050565b600080600080600060a0868803121561145e57600080fd5b61146786610f2d565b945061147560208701610f2d565b93506040860135925060608601359150608086013567ffffffffffffffff81111561149f57600080fd5b61125b8882890161119e565b6000602082840312156114bd57600080fd5b610fa682610f2d565b600181811c908216806114da57607f821691505b6020821081036114fa57634e487b7160e01b600052602260045260246000fd5b50919050565b634e487b7160e01b600052603260045260246000fd5b634e487b7160e01b600052601160045260246000fd5b60006001820161153e5761153e611516565b5060010190565b601f82111561158b57600081815260208120601f850160051c8101602086101561156c5750805b601f850160051c820191505b8181101561040557828155600101611578565b505050565b815167ffffffffffffffff8111156115aa576115aa610fad565b6115be816115b884546114c6565b84611545565b602080601f8311600181146115f357600084156115db5750858301515b600019600386901b1c1916600185901b178555610405565b600085815260208120601f198616915b8281101561162257888601518255948401946001909101908401611603565b50858210156116405787850151600019600388901b60f8161c191681555b5050505050600190811b01905550565b6001600160a01b03868116825285166020820152604081018490526060810183905260a06080820181905260009061168a908301846110b6565b979650505050505050565b6000602082840312156116a757600080fd5b8151610fa681610f73565b6001600160a01b0386811682528516602082015260a0604082018190526000906116de90830186611328565b82810360608401526116f08186611328565b9050828103608084015261170481856110b6565b98975050505050505050565b808201808211156102a3576102a3611516565b6040815260006117366040830185611328565b82810360208401526117488185611328565b9594505050505056fea26469706673582212206adb8f0b6f742d5d8e9452618456b46bfbc283ea8333fc759fd14beea6c64de364736f6c63430008140033",
  "linkReferences": {},
  "deployedLinkReferences": {}
}