{
  "_format": "hh-sol-artifact-1",
  "contractName": "NFTMarketplace",
  "sourceName": "contracts/Market.sol",
  "abi": [
    {
      "inputs": [],
      "stateMutability": "nonpayable",
      "type": "constructor"
    },
    {
      "inputs": [
        {
          "internalType": "address",
          "name": "owner",
          "type": "address"
        }
      ],
      "name": "OwnableInvalidOwner",
      "type": "error"
    },
    {
      "inputs": [
        {
          "internalType": "address",
          "name": "account",
          "type": "address"
        }
      ],
      "name": "OwnableUnauthorizedAccount",
      "type": "error"
    },
    {
      "inputs": [],
      "name": "ReentrancyGuardReentrantCall",
      "type": "error"
    },
    {
      "anonymous": false,
      "inputs": [
        {
          "indexed": true,
          "internalType": "address",
          "name": "previousOwner",
          "type": "address"
        },
        {
          "indexed": true,
          "internalType": "address",
          "name": "newOwner",
          "type": "address"
        }
      ],
      "name": "OwnershipTransferred",
      "type": "event"
    },
    {
      "anonymous": false,
      "inputs": [
        {
          "indexed": true,
          "internalType": "address",
          "name": "seller",
          "type": "address"
        },
        {
          "indexed": true,
          "internalType": "uint256",
          "name": "tokenId",
          "type": "uint256"
        },
        {
          "indexed": false,
          "internalType": "uint256",
          "name": "amount",
          "type": "uint256"
        },
        {
          "indexed": false,
          "internalType": "uint256",
          "name": "pricePerToken",
          "type": "uint256"
        },
        {
          "indexed": true,
          "internalType": "uint256",
          "name": "listingId",
          "type": "uint256"
        }
      ],
      "name": "TokenListed1155",
      "type": "event"
    },
    {
      "anonymous": false,
      "inputs": [
        {
          "indexed": false,
          "internalType": "address",
          "name": "buyer",
          "type": "address"
        },
        {
          "indexed": false,
          "internalType": "uint256",
          "name": "tokenId",
          "type": "uint256"
        },
        {
          "indexed": false,
          "internalType": "uint256",
          "name": "amount",
          "type": "uint256"
        },
        {
          "indexed": false,
          "internalType": "uint256",
          "name": "pricePerToken",
          "type": "uint256"
        }
      ],
      "name": "TokenSold1155",
      "type": "event"
    },
    {
      "anonymous": false,
      "inputs": [
        {
          "indexed": true,
          "internalType": "address",
          "name": "nftAddress",
          "type": "address"
        },
        {
          "indexed": true,
          "internalType": "address",
          "name": "contributerAddress",
          "type": "address"
        },
        {
          "indexed": false,
          "internalType": "uint256",
          "name": "contributionAmount",
          "type": "uint256"
        }
      ],
      "name": "newContributionAdded",
      "type": "event"
    },
    {
      "inputs": [
        {
          "internalType": "address",
          "name": "",
          "type": "address"
        }
      ],
      "name": "NFTs",
      "outputs": [
        {
          "internalType": "address",
          "name": "nftAddress",
          "type": "address"
        },
        {
          "internalType": "address",
          "name": "seller",
          "type": "address"
        },
        {
          "internalType": "uint256",
          "name": "tokenId",
          "type": "uint256"
        },
        {
          "internalType": "uint256",
          "name": "price",
          "type": "uint256"
        },
        {
          "internalType": "uint256",
          "name": "amount",
          "type": "uint256"
        }
      ],
      "stateMutability": "view",
      "type": "function"
    },
    {
      "inputs": [],
      "name": "_listingIds1155",
      "outputs": [
        {
          "internalType": "uint256",
          "name": "_value",
          "type": "uint256"
        }
      ],
      "stateMutability": "view",
      "type": "function"
    },
    {
      "inputs": [
        {
          "internalType": "address",
          "name": "nftAddress",
          "type": "address"
        },
        {
          "internalType": "uint128",
          "name": "tokenId",
          "type": "uint128"
        },
        {
          "internalType": "uint128",
          "name": "price",
          "type": "uint128"
        },
        {
          "internalType": "uint128",
          "name": "amount",
          "type": "uint128"
        }
      ],
      "name": "addNFT",
      "outputs": [],
      "stateMutability": "nonpayable",
      "type": "function"
    },
    {
      "inputs": [
        {
          "internalType": "address",
          "name": "nftAddress",
          "type": "address"
        },
        {
          "internalType": "address",
          "name": "userAddress",
          "type": "address"
        },
        {
          "internalType": "uint256",
          "name": "contribution",
          "type": "uint256"
        }
      ],
      "name": "addUsersContributions",
      "outputs": [],
      "stateMutability": "nonpayable",
      "type": "function"
    },
    {
      "inputs": [
        {
          "internalType": "uint256",
          "name": "id",
          "type": "uint256"
        }
      ],
      "name": "getNFTAddress",
      "outputs": [
        {
          "internalType": "address",
          "name": "",
          "type": "address"
        }
      ],
      "stateMutability": "view",
      "type": "function"
    },
    {
      "inputs": [
        {
          "internalType": "uint256",
          "name": "",
          "type": "uint256"
        }
      ],
      "name": "listingNFT",
      "outputs": [
        {
          "internalType": "address",
          "name": "",
          "type": "address"
        }
      ],
      "stateMutability": "view",
      "type": "function"
    },
    {
      "inputs": [
        {
          "internalType": "address",
          "name": "creator",
          "type": "address"
        },
        {
          "internalType": "string",
          "name": "uri",
          "type": "string"
        },
        {
          "internalType": "uint256",
          "name": "ownerContribution",
          "type": "uint256"
        },
        {
          "internalType": "uint256",
          "name": "tokenId",
          "type": "uint256"
        },
        {
          "internalType": "uint256",
          "name": "price",
          "type": "uint256"
        },
        {
          "internalType": "uint256",
          "name": "amount",
          "type": "uint256"
        }
      ],
      "name": "mintNFT",
      "outputs": [],
      "stateMutability": "nonpayable",
      "type": "function"
    },
    {
      "inputs": [],
      "name": "owner",
      "outputs": [
        {
          "internalType": "address",
          "name": "",
          "type": "address"
        }
      ],
      "stateMutability": "view",
      "type": "function"
    },
    {
      "inputs": [
        {
          "internalType": "address",
          "name": "nftAddress",
          "type": "address"
        },
        {
          "internalType": "uint256",
          "name": "tokenId",
          "type": "uint256"
        },
        {
          "internalType": "uint256",
          "name": "amount",
          "type": "uint256"
        }
      ],
      "name": "purchaseNFT",
      "outputs": [],
      "stateMutability": "payable",
      "type": "function"
    },
    {
      "inputs": [],
      "name": "renounceOwnership",
      "outputs": [],
      "stateMutability": "nonpayable",
      "type": "function"
    },
    {
      "inputs": [
        {
          "internalType": "address",
          "name": "newOwner",
          "type": "address"
        }
      ],
      "name": "transferOwnership",
      "outputs": [],
      "stateMutability": "nonpayable",
      "type": "function"
    },
    {
      "stateMutability": "payable",
      "type": "receive"
    }
  ],
  "bytecode": "0x60806040523480156200001157600080fd5b5033600073ffffffffffffffffffffffffffffffffffffffff168173ffffffffffffffffffffffffffffffffffffffff1603620000885760006040517f1e4fbdf70000000000000000000000000000000000000000000000000000000081526004016200007f9190620001b0565b60405180910390fd5b6200009981620000a760201b60201c565b5060018081905550620001cd565b60008060009054906101000a900473ffffffffffffffffffffffffffffffffffffffff169050816000806101000a81548173ffffffffffffffffffffffffffffffffffffffff021916908373ffffffffffffffffffffffffffffffffffffffff1602179055508173ffffffffffffffffffffffffffffffffffffffff168173ffffffffffffffffffffffffffffffffffffffff167f8be0079c531659141344cd1fd0a4f28419497f9722a3daafe3b4186f6b6457e060405160405180910390a35050565b600073ffffffffffffffffffffffffffffffffffffffff82169050919050565b600062000198826200016b565b9050919050565b620001aa816200018b565b82525050565b6000602082019050620001c760008301846200019f565b92915050565b61570880620001dd6000396000f3fe608060405260043610620000af5760003560e01c8063890c3e81116200006d578063890c3e8114620001a65780638da5cb5b14620001c65780639d18f77314620001f6578063a460a4bb146200023a578063b4e63f691462000268578063f2fde38b14620002b057620000b7565b80630372fb3f14620000bc5780630613810714620000ea5780631c51322714620001185780636656bdb3146200015c578063715018a6146200018c57620000b7565b36620000b757005b600080fd5b348015620000c957600080fd5b50620000e86004803603810190620000e2919062001300565b620002de565b005b348015620000f757600080fd5b50620001166004803603810190620001109190620013a9565b620003bb565b005b3480156200012557600080fd5b506200014460048036038101906200013e91906200141b565b62000770565b6040516200015391906200145e565b60405180910390f35b3480156200016957600080fd5b5062000174620007a3565b6040516200018391906200148c565b60405180910390f35b3480156200019957600080fd5b50620001a4620007af565b005b620001c46004803603810190620001be9190620014a9565b620007c7565b005b348015620001d357600080fd5b50620001de62000bbe565b604051620001ed91906200145e565b60405180910390f35b3480156200020357600080fd5b506200022260048036038101906200021c91906200141b565b62000be7565b6040516200023191906200145e565b60405180910390f35b3480156200024757600080fd5b5062000266600480360381019062000260919062001667565b62000c24565b005b3480156200027557600080fd5b506200029460048036038101906200028e919062001722565b62000f6b565b604051620002a795949392919062001754565b60405180910390f35b348015620002bd57600080fd5b50620002dc6004803603810190620002d6919062001722565b62000fe1565b005b8273ffffffffffffffffffffffffffffffffffffffff1663cfd00a7283836040518363ffffffff1660e01b81526004016200031b929190620017b1565b600060405180830381600087803b1580156200033657600080fd5b505af11580156200034b573d6000803e3d6000fd5b505050508173ffffffffffffffffffffffffffffffffffffffff168373ffffffffffffffffffffffffffffffffffffffff167f34d7c16374970ff7687c53d0d286619dab245ae88504cc395ed4d40572387f0483604051620003ae91906200148c565b60405180910390a3505050565b3373ffffffffffffffffffffffffffffffffffffffff16600260008673ffffffffffffffffffffffffffffffffffffffff1673ffffffffffffffffffffffffffffffffffffffff16815260200190815260200160002060010160009054906101000a900473ffffffffffffffffffffffffffffffffffffffff1673ffffffffffffffffffffffffffffffffffffffff16146200048e576040517f08c379a000000000000000000000000000000000000000000000000000000000815260040162000485906200183f565b60405180910390fd5b60008490508073ffffffffffffffffffffffffffffffffffffffff1663731133e93386856040518463ffffffff1660e01b8152600401620004d293929190620018df565b600060405180830381600087803b158015620004ed57600080fd5b505af115801562000502573d6000803e3d6000fd5b505050506040518060a001604052808273ffffffffffffffffffffffffffffffffffffffff1681526020013373ffffffffffffffffffffffffffffffffffffffff168152602001856fffffffffffffffffffffffffffffffff168152602001846fffffffffffffffffffffffffffffffff168152602001836fffffffffffffffffffffffffffffffff16815250600260008373ffffffffffffffffffffffffffffffffffffffff1673ffffffffffffffffffffffffffffffffffffffff16815260200190815260200160002060008201518160000160006101000a81548173ffffffffffffffffffffffffffffffffffffffff021916908373ffffffffffffffffffffffffffffffffffffffff16021790555060208201518160010160006101000a81548173ffffffffffffffffffffffffffffffffffffffff021916908373ffffffffffffffffffffffffffffffffffffffff1602179055506040820151816002015560608201518160030155608082015181600401559050506200068960046200106e565b6fffffffffffffffffffffffffffffffff16846fffffffffffffffffffffffffffffffff163373ffffffffffffffffffffffffffffffffffffffff167fc851cf80c9adac1532315b66d8d25a95a13f68c9759a3a57ed5cdb74100fc4618686604051620006f892919062001931565b60405180910390a480600360006200071160046200106e565b815260200190815260200160002060006101000a81548173ffffffffffffffffffffffffffffffffffffffff021916908373ffffffffffffffffffffffffffffffffffffffff1602179055506200076960046200107c565b5050505050565b60036020528060005260406000206000915054906101000a900473ffffffffffffffffffffffffffffffffffffffff1681565b60048060000154905081565b620007b962001092565b620007c5600062001122565b565b620007d1620011e6565b6000600260008573ffffffffffffffffffffffffffffffffffffffff1673ffffffffffffffffffffffffffffffffffffffff1681526020019081526020016000206040518060a00160405290816000820160009054906101000a900473ffffffffffffffffffffffffffffffffffffffff1673ffffffffffffffffffffffffffffffffffffffff1673ffffffffffffffffffffffffffffffffffffffff1681526020016001820160009054906101000a900473ffffffffffffffffffffffffffffffffffffffff1673ffffffffffffffffffffffffffffffffffffffff1673ffffffffffffffffffffffffffffffffffffffff16815260200160028201548152602001600382015481526020016004820154815250509050806020015173ffffffffffffffffffffffffffffffffffffffff163373ffffffffffffffffffffffffffffffffffffffff16036200095e576040517f08c379a00000000000000000000000000000000000000000000000000000000081526004016200095590620019ae565b60405180910390fd5b81670de0b6b3a76400008260600151620009799190620019ff565b620009859190620019ff565b341015620009ca576040517f08c379a0000000000000000000000000000000000000000000000000000000008152600401620009c19062001a9a565b60405180910390fd5b81816000015173ffffffffffffffffffffffffffffffffffffffff1662fdd58e8360200151866040518363ffffffff1660e01b815260040162000a0f929190620017b1565b602060405180830381865afa15801562000a2d573d6000803e3d6000fd5b505050506040513d601f19601f8201168201806040525081019062000a53919062001ad3565b101562000a97576040517f08c379a000000000000000000000000000000000000000000000000000000000815260040162000a8e9062001b7b565b60405180910390fd5b6000816000015173ffffffffffffffffffffffffffffffffffffffff1660643462000ac3919062001bcc565b606262000ad19190620019ff565b60405162000adf9062001c36565b60006040518083038185875af1925050503d806000811462000b1e576040519150601f19603f3d011682016040523d82523d6000602084013e62000b23565b606091505b505090508062000b6a576040517f08c379a000000000000000000000000000000000000000000000000000000000815260040162000b619062001cc3565b60405180910390fd5b7f096529233583f455cd83dd143673cb9355f55b1f4946a34934970695ddda9952338585856060015160405162000ba5949392919062001ce5565b60405180910390a1505062000bb96200122d565b505050565b60008060009054906101000a900473ffffffffffffffffffffffffffffffffffffffff16905090565b60006003600083815260200190815260200160002060009054906101000a900473ffffffffffffffffffffffffffffffffffffffff169050919050565b600084308860405162000c37906200123e565b62000c459392919062001d32565b604051809103906000f08015801562000c62573d6000803e3d6000fd5b5090508073ffffffffffffffffffffffffffffffffffffffff166302fe5305876040518263ffffffff1660e01b815260040162000ca0919062001de7565b600060405180830381600087803b15801562000cbb57600080fd5b505af115801562000cd0573d6000803e3d6000fd5b505050508073ffffffffffffffffffffffffffffffffffffffff1663731133e93386856040518463ffffffff1660e01b815260040162000d139392919062001e0b565b600060405180830381600087803b15801562000d2e57600080fd5b505af115801562000d43573d6000803e3d6000fd5b505050506040518060a001604052808273ffffffffffffffffffffffffffffffffffffffff1681526020013373ffffffffffffffffffffffffffffffffffffffff16815260200185815260200184815260200183815250600260008373ffffffffffffffffffffffffffffffffffffffff1673ffffffffffffffffffffffffffffffffffffffff16815260200190815260200160002060008201518160000160006101000a81548173ffffffffffffffffffffffffffffffffffffffff021916908373ffffffffffffffffffffffffffffffffffffffff16021790555060208201518160010160006101000a81548173ffffffffffffffffffffffffffffffffffffffff021916908373ffffffffffffffffffffffffffffffffffffffff16021790555060408201518160020155606082015181600301556080820151816004015590505062000e9460046200106e565b6fffffffffffffffffffffffffffffffff16843373ffffffffffffffffffffffffffffffffffffffff167fc851cf80c9adac1532315b66d8d25a95a13f68c9759a3a57ed5cdb74100fc461868660405162000ef192919062001e5d565b60405180910390a4806003600062000f0a60046200106e565b815260200190815260200160002060006101000a81548173ffffffffffffffffffffffffffffffffffffffff021916908373ffffffffffffffffffffffffffffffffffffffff16021790555062000f6260046200107c565b50505050505050565b60026020528060005260406000206000915090508060000160009054906101000a900473ffffffffffffffffffffffffffffffffffffffff16908060010160009054906101000a900473ffffffffffffffffffffffffffffffffffffffff16908060020154908060030154908060040154905085565b62000feb62001092565b600073ffffffffffffffffffffffffffffffffffffffff168173ffffffffffffffffffffffffffffffffffffffff1603620010605760006040517f1e4fbdf70000000000000000000000000000000000000000000000000000000081526004016200105791906200145e565b60405180910390fd5b6200106b8162001122565b50565b600081600001549050919050565b6001816000016000828254019250508190555050565b6200109c62001236565b73ffffffffffffffffffffffffffffffffffffffff16620010bc62000bbe565b73ffffffffffffffffffffffffffffffffffffffff16146200112057620010e262001236565b6040517f118cdaa70000000000000000000000000000000000000000000000000000000081526004016200111791906200145e565b60405180910390fd5b565b60008060009054906101000a900473ffffffffffffffffffffffffffffffffffffffff169050816000806101000a81548173ffffffffffffffffffffffffffffffffffffffff021916908373ffffffffffffffffffffffffffffffffffffffff1602179055508173ffffffffffffffffffffffffffffffffffffffff168173ffffffffffffffffffffffffffffffffffffffff167f8be0079c531659141344cd1fd0a4f28419497f9722a3daafe3b4186f6b6457e060405160405180910390a35050565b60026001540362001223576040517f3ee5aeb500000000000000000000000000000000000000000000000000000000815260040160405180910390fd5b6002600181905550565b60018081905550565b600033905090565b6138488062001e8b83390190565b6000604051905090565b600080fd5b600080fd5b600073ffffffffffffffffffffffffffffffffffffffff82169050919050565b60006200128d8262001260565b9050919050565b6200129f8162001280565b8114620012ab57600080fd5b50565b600081359050620012bf8162001294565b92915050565b6000819050919050565b620012da81620012c5565b8114620012e657600080fd5b50565b600081359050620012fa81620012cf565b92915050565b6000806000606084860312156200131c576200131b62001256565b5b60006200132c86828701620012ae565b93505060206200133f86828701620012ae565b92505060406200135286828701620012e9565b9150509250925092565b60006fffffffffffffffffffffffffffffffff82169050919050565b62001383816200135c565b81146200138f57600080fd5b50565b600081359050620013a38162001378565b92915050565b60008060008060808587031215620013c657620013c562001256565b5b6000620013d687828801620012ae565b9450506020620013e98782880162001392565b9350506040620013fc8782880162001392565b92505060606200140f8782880162001392565b91505092959194509250565b60006020828403121562001434576200143362001256565b5b60006200144484828501620012e9565b91505092915050565b620014588162001280565b82525050565b60006020820190506200147560008301846200144d565b92915050565b6200148681620012c5565b82525050565b6000602082019050620014a360008301846200147b565b92915050565b600080600060608486031215620014c557620014c462001256565b5b6000620014d586828701620012ae565b9350506020620014e886828701620012e9565b9250506040620014fb86828701620012e9565b9150509250925092565b600080fd5b600080fd5b6000601f19601f8301169050919050565b7f4e487b7100000000000000000000000000000000000000000000000000000000600052604160045260246000fd5b6200155a826200150f565b810181811067ffffffffffffffff821117156200157c576200157b62001520565b5b80604052505050565b6000620015916200124c565b90506200159f82826200154f565b919050565b600067ffffffffffffffff821115620015c257620015c162001520565b5b620015cd826200150f565b9050602081019050919050565b82818337600083830152505050565b600062001600620015fa84620015a4565b62001585565b9050828152602081018484840111156200161f576200161e6200150a565b5b6200162c848285620015da565b509392505050565b600082601f8301126200164c576200164b62001505565b5b81356200165e848260208601620015e9565b91505092915050565b60008060008060008060c0878903121562001687576200168662001256565b5b60006200169789828a01620012ae565b965050602087013567ffffffffffffffff811115620016bb57620016ba6200125b565b5b620016c989828a0162001634565b9550506040620016dc89828a01620012e9565b9450506060620016ef89828a01620012e9565b93505060806200170289828a01620012e9565b92505060a06200171589828a01620012e9565b9150509295509295509295565b6000602082840312156200173b576200173a62001256565b5b60006200174b84828501620012ae565b91505092915050565b600060a0820190506200176b60008301886200144d565b6200177a60208301876200144d565b6200178960408301866200147b565b6200179860608301856200147b565b620017a760808301846200147b565b9695505050505050565b6000604082019050620017c860008301856200144d565b620017d760208301846200147b565b9392505050565b600082825260208201905092915050565b7f6f6e6c79206f776e65722063616e206d696e74206e6577206e66740000000000600082015250565b600062001827601b83620017de565b91506200183482620017ef565b602082019050919050565b600060208201905081810360008301526200185a8162001818565b9050919050565b6000819050919050565b60006200188c6200188662001880846200135c565b62001861565b620012c5565b9050919050565b6200189e816200186b565b82525050565b600082825260208201905092915050565b50565b6000620018c7600083620018a4565b9150620018d482620018b5565b600082019050919050565b6000608082019050620018f660008301866200144d565b62001905602083018562001893565b62001914604083018462001893565b81810360608301526200192781620018b8565b9050949350505050565b600060408201905062001948600083018562001893565b62001957602083018462001893565b9392505050565b7f43616e27742062757920796f7572206f776e20746f6b656e7321000000000000600082015250565b600062001996601a83620017de565b9150620019a3826200195e565b602082019050919050565b60006020820190508181036000830152620019c98162001987565b9050919050565b7f4e487b7100000000000000000000000000000000000000000000000000000000600052601160045260246000fd5b600062001a0c82620012c5565b915062001a1983620012c5565b925082820262001a2981620012c5565b9150828204841483151762001a435762001a42620019d0565b5b5092915050565b7f496e73756666696369656e742066756e64732100000000000000000000000000600082015250565b600062001a82601383620017de565b915062001a8f8262001a4a565b602082019050919050565b6000602082019050818103600083015262001ab58162001a73565b9050919050565b60008151905062001acd81620012cf565b92915050565b60006020828403121562001aec5762001aeb62001256565b5b600062001afc8482850162001abc565b91505092915050565b7f53656c6c657220646f65736e2774206861766520656e6f75676820746f6b656e60008201527f7321000000000000000000000000000000000000000000000000000000000000602082015250565b600062001b63602283620017de565b915062001b708262001b05565b604082019050919050565b6000602082019050818103600083015262001b968162001b54565b9050919050565b7f4e487b7100000000000000000000000000000000000000000000000000000000600052601260045260246000fd5b600062001bd982620012c5565b915062001be683620012c5565b92508262001bf95762001bf862001b9d565b5b828204905092915050565b600081905092915050565b600062001c1e60008362001c04565b915062001c2b82620018b5565b600082019050919050565b600062001c438262001c0f565b9150819050919050565b7f556e61626c6520746f207472616e736665722066756e647320746f207265636960008201527f6576657200000000000000000000000000000000000000000000000000000000602082015250565b600062001cab602483620017de565b915062001cb88262001c4d565b604082019050919050565b6000602082019050818103600083015262001cde8162001c9c565b9050919050565b600060808201905062001cfc60008301876200144d565b62001d0b60208301866200147b565b62001d1a60408301856200147b565b62001d2960608301846200147b565b95945050505050565b600060608201905062001d4960008301866200147b565b62001d5860208301856200144d565b62001d6760408301846200144d565b949350505050565b600081519050919050565b60005b8381101562001d9a57808201518184015260208101905062001d7d565b60008484015250505050565b600062001db38262001d6f565b62001dbf8185620017de565b935062001dd181856020860162001d7a565b62001ddc816200150f565b840191505092915050565b6000602082019050818103600083015262001e03818462001da6565b905092915050565b600060808201905062001e2260008301866200144d565b62001e3160208301856200147b565b62001e4060408301846200147b565b818103606083015262001e5381620018b8565b9050949350505050565b600060408201905062001e7460008301856200147b565b62001e8360208301846200147b565b939250505056fe6080604052607d6006553480156200001657600080fd5b50604051620038483803806200384883398181016040528101906200003c919062000313565b8182806040518060200160405280600081525062000060816200019360201b60201c565b50600073ffffffffffffffffffffffffffffffffffffffff168173ffffffffffffffffffffffffffffffffffffffff1603620000d65760006040517f1e4fbdf7000000000000000000000000000000000000000000000000000000008152600401620000cd919062000380565b60405180910390fd5b620000e781620001a860201b60201c565b50505081600a60006101000a81548173ffffffffffffffffffffffffffffffffffffffff021916908373ffffffffffffffffffffffffffffffffffffffff16021790555082600c60008373ffffffffffffffffffffffffffffffffffffffff1673ffffffffffffffffffffffffffffffffffffffff1681526020019081526020016000208190555082600b6000828254620001839190620003cc565b925050819055505050506200075e565b8060029081620001a4919062000677565b5050565b6000600560009054906101000a900473ffffffffffffffffffffffffffffffffffffffff16905081600560006101000a81548173ffffffffffffffffffffffffffffffffffffffff021916908373ffffffffffffffffffffffffffffffffffffffff1602179055508173ffffffffffffffffffffffffffffffffffffffff168173ffffffffffffffffffffffffffffffffffffffff167f8be0079c531659141344cd1fd0a4f28419497f9722a3daafe3b4186f6b6457e060405160405180910390a35050565b600080fd5b6000819050919050565b620002888162000273565b81146200029457600080fd5b50565b600081519050620002a8816200027d565b92915050565b600073ffffffffffffffffffffffffffffffffffffffff82169050919050565b6000620002db82620002ae565b9050919050565b620002ed81620002ce565b8114620002f957600080fd5b50565b6000815190506200030d81620002e2565b92915050565b6000806000606084860312156200032f576200032e6200026e565b5b60006200033f8682870162000297565b93505060206200035286828701620002fc565b92505060406200036586828701620002fc565b9150509250925092565b6200037a81620002ce565b82525050565b60006020820190506200039760008301846200036f565b92915050565b7f4e487b7100000000000000000000000000000000000000000000000000000000600052601160045260246000fd5b6000620003d98262000273565b9150620003e68362000273565b92508282019050808211156200040157620004006200039d565b5b92915050565b600081519050919050565b7f4e487b7100000000000000000000000000000000000000000000000000000000600052604160045260246000fd5b7f4e487b7100000000000000000000000000000000000000000000000000000000600052602260045260246000fd5b600060028204905060018216806200048957607f821691505b6020821081036200049f576200049e62000441565b5b50919050565b60008190508160005260206000209050919050565b60006020601f8301049050919050565b600082821b905092915050565b600060088302620005097fffffffffffffffffffffffffffffffffffffffffffffffffffffffffffffffff82620004ca565b620005158683620004ca565b95508019841693508086168417925050509392505050565b6000819050919050565b600062000558620005526200054c8462000273565b6200052d565b62000273565b9050919050565b6000819050919050565b620005748362000537565b6200058c62000583826200055f565b848454620004d7565b825550505050565b600090565b620005a362000594565b620005b081848462000569565b505050565b5b81811015620005d857620005cc60008262000599565b600181019050620005b6565b5050565b601f8211156200062757620005f181620004a5565b620005fc84620004ba565b810160208510156200060c578190505b620006246200061b85620004ba565b830182620005b5565b50505b505050565b600082821c905092915050565b60006200064c600019846008026200062c565b1980831691505092915050565b600062000667838362000639565b9150826002028217905092915050565b620006828262000407565b67ffffffffffffffff8111156200069e576200069d62000412565b5b620006aa825462000470565b620006b7828285620005dc565b600060209050601f831160018114620006ef5760008415620006da578287015190505b620006e6858262000659565b86555062000756565b601f198416620006ff86620004a5565b60005b82811015620007295784890151825560018201915060208501945060208101905062000702565b8683101562000749578489015162000745601f89168262000639565b8355505b6001600288020188555050505b505050505050565b6130da806200076e6000396000f3fe60806040526004361061012d5760003560e01c806368d7cc48116100ab578063a22cb4651161006f578063a22cb4651461040e578063bd85b03914610437578063cfd00a7214610474578063e985e9c51461049d578063f242432a146104da578063f2fde38b1461050357610134565b806368d7cc4814610329578063715018a614610366578063731133e91461037d578063753dd464146103a65780638da5cb5b146103e357610134565b806318160ddd116100f257806318160ddd146102445780632eb2c2d61461026f5780633ccfd60b146102985780634e1273f4146102af5780634f558e79146102ec57610134565b8062fdd58e1461013957806301ffc9a71461017657806302fe5305146101b35780630dcf4b8f146101dc5780630e89341c1461020757610134565b3661013457005b600080fd5b34801561014557600080fd5b50610160600480360381019061015b9190611ea7565b61052c565b60405161016d9190611ef6565b60405180910390f35b34801561018257600080fd5b5061019d60048036038101906101989190611f69565b610586565b6040516101aa9190611fb1565b60405180910390f35b3480156101bf57600080fd5b506101da60048036038101906101d59190612112565b610668565b005b3480156101e857600080fd5b506101f161067c565b6040516101fe9190611ef6565b60405180910390f35b34801561021357600080fd5b5061022e6004803603810190610229919061215b565b610682565b60405161023b9190612207565b60405180910390f35b34801561025057600080fd5b50610259610716565b6040516102669190611ef6565b60405180910390f35b34801561027b57600080fd5b5061029660048036038101906102919190612392565b610720565b005b3480156102a457600080fd5b506102ad6107c8565b005b3480156102bb57600080fd5b506102d660048036038101906102d19190612524565b610933565b6040516102e3919061265a565b60405180910390f35b3480156102f857600080fd5b50610313600480360381019061030e919061215b565b610a42565b6040516103209190611fb1565b60405180910390f35b34801561033557600080fd5b50610350600480360381019061034b919061267c565b610a56565b60405161035d9190611ef6565b60405180910390f35b34801561037257600080fd5b5061037b610a6e565b005b34801561038957600080fd5b506103a4600480360381019061039f91906126a9565b610a82565b005b3480156103b257600080fd5b506103cd60048036038101906103c8919061267c565b610a9c565b6040516103da9190611ef6565b60405180910390f35b3480156103ef57600080fd5b506103f8610ae5565b604051610405919061273b565b60405180910390f35b34801561041a57600080fd5b5061043560048036038101906104309190612782565b610b0f565b005b34801561044357600080fd5b5061045e6004803603810190610459919061215b565b610b25565b60405161046b9190611ef6565b60405180910390f35b34801561048057600080fd5b5061049b60048036038101906104969190611ea7565b610b42565b005b3480156104a957600080fd5b506104c460048036038101906104bf91906127c2565b610c76565b6040516104d19190611fb1565b60405180910390f35b3480156104e657600080fd5b5061050160048036038101906104fc9190612802565b610d0a565b005b34801561050f57600080fd5b5061052a6004803603810190610525919061267c565b610db2565b005b600080600083815260200190815260200160002060008473ffffffffffffffffffffffffffffffffffffffff1673ffffffffffffffffffffffffffffffffffffffff16815260200190815260200160002054905092915050565b60007fd9b67a26000000000000000000000000000000000000000000000000000000007bffffffffffffffffffffffffffffffffffffffffffffffffffffffff1916827bffffffffffffffffffffffffffffffffffffffffffffffffffffffff1916148061065157507f0e89341c000000000000000000000000000000000000000000000000000000007bffffffffffffffffffffffffffffffffffffffffffffffffffffffff1916827bffffffffffffffffffffffffffffffffffffffffffffffffffffffff1916145b80610661575061066082610e38565b5b9050919050565b610670610ea2565b61067981610f29565b50565b600b5481565b606060028054610691906128c8565b80601f01602080910402602001604051908101604052809291908181526020018280546106bd906128c8565b801561070a5780601f106106df5761010080835404028352916020019161070a565b820191906000526020600020905b8154815290600101906020018083116106ed57829003601f168201915b50505050509050919050565b6000600454905090565b600061072a610f3c565b90508073ffffffffffffffffffffffffffffffffffffffff168673ffffffffffffffffffffffffffffffffffffffff161415801561076f575061076d8682610c76565b155b156107b35780866040517fe237d9220000000000000000000000000000000000000000000000000000000081526004016107aa9291906128f9565b60405180910390fd5b6107c08686868686610f44565b505050505050565b600047116107d557600080fd5b6000600c60003373ffffffffffffffffffffffffffffffffffffffff1673ffffffffffffffffffffffffffffffffffffffff1681526020019081526020016000205411610857576040517f08c379a000000000000000000000000000000000000000000000000000000000815260040161084e9061296e565b60405180910390fd5b60003373ffffffffffffffffffffffffffffffffffffffff166064600b5461087f91906129bd565b600c60003373ffffffffffffffffffffffffffffffffffffffff1673ffffffffffffffffffffffffffffffffffffffff16815260200190815260200160002054476108ca91906129bd565b6108d49190612a2e565b6040516108e090612a90565b60006040518083038185875af1925050503d806000811461091d576040519150601f19603f3d011682016040523d82523d6000602084013e610922565b606091505b505090508061093057600080fd5b50565b6060815183511461097f57815183516040517f5b059991000000000000000000000000000000000000000000000000000000008152600401610976929190612aa5565b60405180910390fd5b6000835167ffffffffffffffff81111561099c5761099b611fe7565b5b6040519080825280602002602001820160405280156109ca5781602001602082028036833780820191505090505b50905060005b8451811015610a3757610a076109ef828761103c90919063ffffffff16565b610a02838761105090919063ffffffff16565b61052c565b828281518110610a1a57610a19612ace565b5b60200260200101818152505080610a3090612afd565b90506109d0565b508091505092915050565b600080610a4e83610b25565b119050919050565b600c6020528060005260406000206000915090505481565b610a76610ea2565b610a806000611064565b565b610a8a610ea2565b610a968484848461112a565b50505050565b6000600c60008373ffffffffffffffffffffffffffffffffffffffff1673ffffffffffffffffffffffffffffffffffffffff168152602001908152602001600020549050919050565b6000600560009054906101000a900473ffffffffffffffffffffffffffffffffffffffff16905090565b610b21610b1a610f3c565b83836111c3565b5050565b600060036000838152602001908152602001600020549050919050565b600a60009054906101000a900473ffffffffffffffffffffffffffffffffffffffff1673ffffffffffffffffffffffffffffffffffffffff163373ffffffffffffffffffffffffffffffffffffffff1614610bd2576040517f08c379a0000000000000000000000000000000000000000000000000000000008152600401610bc990612b91565b60405180910390fd5b60008111610c15576040517f08c379a0000000000000000000000000000000000000000000000000000000008152600401610c0c90612bfd565b60405180910390fd5b80600c60008473ffffffffffffffffffffffffffffffffffffffff1673ffffffffffffffffffffffffffffffffffffffff1681526020019081526020016000208190555080600b6000828254610c6b9190612c1d565b925050819055505050565b6000600160008473ffffffffffffffffffffffffffffffffffffffff1673ffffffffffffffffffffffffffffffffffffffff16815260200190815260200160002060008373ffffffffffffffffffffffffffffffffffffffff1673ffffffffffffffffffffffffffffffffffffffff16815260200190815260200160002060009054906101000a900460ff16905092915050565b6000610d14610f3c565b90508073ffffffffffffffffffffffffffffffffffffffff168673ffffffffffffffffffffffffffffffffffffffff1614158015610d595750610d578682610c76565b155b15610d9d5780866040517fe237d922000000000000000000000000000000000000000000000000000000008152600401610d949291906128f9565b60405180910390fd5b610daa8686868686611333565b505050505050565b610dba610ea2565b600073ffffffffffffffffffffffffffffffffffffffff168173ffffffffffffffffffffffffffffffffffffffff1603610e2c5760006040517f1e4fbdf7000000000000000000000000000000000000000000000000000000008152600401610e23919061273b565b60405180910390fd5b610e3581611064565b50565b60007f01ffc9a7000000000000000000000000000000000000000000000000000000007bffffffffffffffffffffffffffffffffffffffffffffffffffffffff1916827bffffffffffffffffffffffffffffffffffffffffffffffffffffffff1916149050919050565b610eaa610f3c565b73ffffffffffffffffffffffffffffffffffffffff16610ec8610ae5565b73ffffffffffffffffffffffffffffffffffffffff1614610f2757610eeb610f3c565b6040517f118cdaa7000000000000000000000000000000000000000000000000000000008152600401610f1e919061273b565b60405180910390fd5b565b8060029081610f389190612dfd565b5050565b600033905090565b600073ffffffffffffffffffffffffffffffffffffffff168473ffffffffffffffffffffffffffffffffffffffff1603610fb65760006040517f57f447ce000000000000000000000000000000000000000000000000000000008152600401610fad919061273b565b60405180910390fd5b600073ffffffffffffffffffffffffffffffffffffffff168573ffffffffffffffffffffffffffffffffffffffff16036110285760006040517f01a8351400000000000000000000000000000000000000000000000000000000815260040161101f919061273b565b60405180910390fd5b611035858585858561143e565b5050505050565b600060208202602084010151905092915050565b600060208202602084010151905092915050565b6000600560009054906101000a900473ffffffffffffffffffffffffffffffffffffffff16905081600560006101000a81548173ffffffffffffffffffffffffffffffffffffffff021916908373ffffffffffffffffffffffffffffffffffffffff1602179055508173ffffffffffffffffffffffffffffffffffffffff168173ffffffffffffffffffffffffffffffffffffffff167f8be0079c531659141344cd1fd0a4f28419497f9722a3daafe3b4186f6b6457e060405160405180910390a35050565b600073ffffffffffffffffffffffffffffffffffffffff168473ffffffffffffffffffffffffffffffffffffffff160361119c5760006040517f57f447ce000000000000000000000000000000000000000000000000000000008152600401611193919061273b565b60405180910390fd5b6000806111a985856114f0565b915091506111bb60008784848761143e565b505050505050565b600073ffffffffffffffffffffffffffffffffffffffff168273ffffffffffffffffffffffffffffffffffffffff16036112355760006040517fced3e10000000000000000000000000000000000000000000000000000000000815260040161122c919061273b565b60405180910390fd5b80600160008573ffffffffffffffffffffffffffffffffffffffff1673ffffffffffffffffffffffffffffffffffffffff16815260200190815260200160002060008473ffffffffffffffffffffffffffffffffffffffff1673ffffffffffffffffffffffffffffffffffffffff16815260200190815260200160002060006101000a81548160ff0219169083151502179055508173ffffffffffffffffffffffffffffffffffffffff168373ffffffffffffffffffffffffffffffffffffffff167f17307eab39ab6107e8899845ad3d59bd9653f200f220920489ca2b5937696c31836040516113269190611fb1565b60405180910390a3505050565b600073ffffffffffffffffffffffffffffffffffffffff168473ffffffffffffffffffffffffffffffffffffffff16036113a55760006040517f57f447ce00000000000000000000000000000000000000000000000000000000815260040161139c919061273b565b60405180910390fd5b600073ffffffffffffffffffffffffffffffffffffffff168573ffffffffffffffffffffffffffffffffffffffff16036114175760006040517f01a8351400000000000000000000000000000000000000000000000000000000815260040161140e919061273b565b60405180910390fd5b60008061142485856114f0565b91509150611435878784848761143e565b50505050505050565b61144a85858585611520565b600073ffffffffffffffffffffffffffffffffffffffff168473ffffffffffffffffffffffffffffffffffffffff16146114e9576000611488610f3c565b905060018451036114d85760006114a960008661105090919063ffffffff16565b905060006114c160008661105090919063ffffffff16565b90506114d1838989858589611532565b50506114e7565b6114e68187878787876116e6565b5b505b5050505050565b60608060405191506001825283602083015260408201905060018152826020820152604081016040529250929050565b61152c8484848461189a565b50505050565b60008473ffffffffffffffffffffffffffffffffffffffff163b11156116de578373ffffffffffffffffffffffffffffffffffffffff1663f23a6e6187878686866040518663ffffffff1660e01b8152600401611593959493929190612f24565b6020604051808303816000875af19250505080156115cf57506040513d601f19601f820116820180604052508101906115cc9190612f93565b60015b611653573d80600081146115ff576040519150601f19603f3d011682016040523d82523d6000602084013e611604565b606091505b50600081510361164b57846040517f57f447ce000000000000000000000000000000000000000000000000000000008152600401611642919061273b565b60405180910390fd5b805181602001fd5b63f23a6e6160e01b7bffffffffffffffffffffffffffffffffffffffffffffffffffffffff1916817bffffffffffffffffffffffffffffffffffffffffffffffffffffffff1916146116dc57846040517f57f447ce0000000000000000000000000000000000000000000000000000000081526004016116d3919061273b565b60405180910390fd5b505b505050505050565b60008473ffffffffffffffffffffffffffffffffffffffff163b1115611892578373ffffffffffffffffffffffffffffffffffffffff1663bc197c8187878686866040518663ffffffff1660e01b8152600401611747959493929190612fc0565b6020604051808303816000875af192505050801561178357506040513d601f19601f820116820180604052508101906117809190612f93565b60015b611807573d80600081146117b3576040519150601f19603f3d011682016040523d82523d6000602084013e6117b8565b606091505b5060008151036117ff57846040517f57f447ce0000000000000000000000000000000000000000000000000000000081526004016117f6919061273b565b60405180910390fd5b805181602001fd5b63bc197c8160e01b7bffffffffffffffffffffffffffffffffffffffffffffffffffffffff1916817bffffffffffffffffffffffffffffffffffffffffffffffffffffffff19161461189057846040517f57f447ce000000000000000000000000000000000000000000000000000000008152600401611887919061273b565b60405180910390fd5b505b505050505050565b6118a684848484611a51565b600073ffffffffffffffffffffffffffffffffffffffff168473ffffffffffffffffffffffffffffffffffffffff1603611986576000805b835181101561196a5760008382815181106118fc576118fb612ace565b5b60200260200101519050806003600087858151811061191e5761191d612ace565b5b6020026020010151815260200190815260200160002060008282546119439190612c1d565b9250508190555080836119569190612c1d565b9250508061196390612afd565b90506118de565b50806004600082825461197d9190612c1d565b92505081905550505b600073ffffffffffffffffffffffffffffffffffffffff168373ffffffffffffffffffffffffffffffffffffffff1603611a4b576000805b8351811015611a385760008382815181106119dc576119db612ace565b5b6020026020010151905080600360008785815181106119fe576119fd612ace565b5b602002602001015181526020019081526020016000206000828254039250508190555080830192505080611a3190612afd565b90506119be565b5080600460008282540392505081905550505b50505050565b8051825114611a9b57815181516040517f5b059991000000000000000000000000000000000000000000000000000000008152600401611a92929190612aa5565b60405180910390fd5b6000611aa5610f3c565b905060005b8351811015611cba576000611ac8828661105090919063ffffffff16565b90506000611adf838661105090919063ffffffff16565b9050600073ffffffffffffffffffffffffffffffffffffffff168873ffffffffffffffffffffffffffffffffffffffff1614611c0c57600080600084815260200190815260200160002060008a73ffffffffffffffffffffffffffffffffffffffff1673ffffffffffffffffffffffffffffffffffffffff16815260200190815260200160002054905081811015611bb457888183856040517f03dee4c5000000000000000000000000000000000000000000000000000000008152600401611bab9493929190613028565b60405180910390fd5b81810360008085815260200190815260200160002060008b73ffffffffffffffffffffffffffffffffffffffff1673ffffffffffffffffffffffffffffffffffffffff16815260200190815260200160002081905550505b600073ffffffffffffffffffffffffffffffffffffffff168773ffffffffffffffffffffffffffffffffffffffff1614611ca7578060008084815260200190815260200160002060008973ffffffffffffffffffffffffffffffffffffffff1673ffffffffffffffffffffffffffffffffffffffff1681526020019081526020016000206000828254611c9f9190612c1d565b925050819055505b505080611cb390612afd565b9050611aaa565b506001835103611d79576000611cda60008561105090919063ffffffff16565b90506000611cf260008561105090919063ffffffff16565b90508573ffffffffffffffffffffffffffffffffffffffff168773ffffffffffffffffffffffffffffffffffffffff168473ffffffffffffffffffffffffffffffffffffffff167fc3d58168c5ae7397731d063d5bbf3d657854427343f4c083240f7aacaa2d0f628585604051611d6a929190612aa5565b60405180910390a45050611df8565b8373ffffffffffffffffffffffffffffffffffffffff168573ffffffffffffffffffffffffffffffffffffffff168273ffffffffffffffffffffffffffffffffffffffff167f4a39dc06d4c0dbc64b70af90fd698a233a518aa5d07e595d983b8c0526c8f7fb8686604051611def92919061306d565b60405180910390a45b5050505050565b6000604051905090565b600080fd5b600080fd5b600073ffffffffffffffffffffffffffffffffffffffff82169050919050565b6000611e3e82611e13565b9050919050565b611e4e81611e33565b8114611e5957600080fd5b50565b600081359050611e6b81611e45565b92915050565b6000819050919050565b611e8481611e71565b8114611e8f57600080fd5b50565b600081359050611ea181611e7b565b92915050565b60008060408385031215611ebe57611ebd611e09565b5b6000611ecc85828601611e5c565b9250506020611edd85828601611e92565b9150509250929050565b611ef081611e71565b82525050565b6000602082019050611f0b6000830184611ee7565b92915050565b60007fffffffff0000000000000000000000000000000000000000000000000000000082169050919050565b611f4681611f11565b8114611f5157600080fd5b50565b600081359050611f6381611f3d565b92915050565b600060208284031215611f7f57611f7e611e09565b5b6000611f8d84828501611f54565b91505092915050565b60008115159050919050565b611fab81611f96565b82525050565b6000602082019050611fc66000830184611fa2565b92915050565b600080fd5b600080fd5b6000601f19601f8301169050919050565b7f4e487b7100000000000000000000000000000000000000000000000000000000600052604160045260246000fd5b61201f82611fd6565b810181811067ffffffffffffffff8211171561203e5761203d611fe7565b5b80604052505050565b6000612051611dff565b905061205d8282612016565b919050565b600067ffffffffffffffff82111561207d5761207c611fe7565b5b61208682611fd6565b9050602081019050919050565b82818337600083830152505050565b60006120b56120b084612062565b612047565b9050828152602081018484840111156120d1576120d0611fd1565b5b6120dc848285612093565b509392505050565b600082601f8301126120f9576120f8611fcc565b5b81356121098482602086016120a2565b91505092915050565b60006020828403121561212857612127611e09565b5b600082013567ffffffffffffffff81111561214657612145611e0e565b5b612152848285016120e4565b91505092915050565b60006020828403121561217157612170611e09565b5b600061217f84828501611e92565b91505092915050565b600081519050919050565b600082825260208201905092915050565b60005b838110156121c25780820151818401526020810190506121a7565b60008484015250505050565b60006121d982612188565b6121e38185612193565b93506121f38185602086016121a4565b6121fc81611fd6565b840191505092915050565b6000602082019050818103600083015261222181846121ce565b905092915050565b600067ffffffffffffffff82111561224457612243611fe7565b5b602082029050602081019050919050565b600080fd5b600061226d61226884612229565b612047565b905080838252602082019050602084028301858111156122905761228f612255565b5b835b818110156122b957806122a58882611e92565b845260208401935050602081019050612292565b5050509392505050565b600082601f8301126122d8576122d7611fcc565b5b81356122e884826020860161225a565b91505092915050565b600067ffffffffffffffff82111561230c5761230b611fe7565b5b61231582611fd6565b9050602081019050919050565b6000612335612330846122f1565b612047565b90508281526020810184848401111561235157612350611fd1565b5b61235c848285612093565b509392505050565b600082601f83011261237957612378611fcc565b5b8135612389848260208601612322565b91505092915050565b600080600080600060a086880312156123ae576123ad611e09565b5b60006123bc88828901611e5c565b95505060206123cd88828901611e5c565b945050604086013567ffffffffffffffff8111156123ee576123ed611e0e565b5b6123fa888289016122c3565b935050606086013567ffffffffffffffff81111561241b5761241a611e0e565b5b612427888289016122c3565b925050608086013567ffffffffffffffff81111561244857612447611e0e565b5b61245488828901612364565b9150509295509295909350565b600067ffffffffffffffff82111561247c5761247b611fe7565b5b602082029050602081019050919050565b60006124a061249b84612461565b612047565b905080838252602082019050602084028301858111156124c3576124c2612255565b5b835b818110156124ec57806124d88882611e5c565b8452602084019350506020810190506124c5565b5050509392505050565b600082601f83011261250b5761250a611fcc565b5b813561251b84826020860161248d565b91505092915050565b6000806040838503121561253b5761253a611e09565b5b600083013567ffffffffffffffff81111561255957612558611e0e565b5b612565858286016124f6565b925050602083013567ffffffffffffffff81111561258657612585611e0e565b5b612592858286016122c3565b9150509250929050565b600081519050919050565b600082825260208201905092915050565b6000819050602082019050919050565b6125d181611e71565b82525050565b60006125e383836125c8565b60208301905092915050565b6000602082019050919050565b60006126078261259c565b61261181856125a7565b935061261c836125b8565b8060005b8381101561264d57815161263488826125d7565b975061263f836125ef565b925050600181019050612620565b5085935050505092915050565b6000602082019050818103600083015261267481846125fc565b905092915050565b60006020828403121561269257612691611e09565b5b60006126a084828501611e5c565b91505092915050565b600080600080608085870312156126c3576126c2611e09565b5b60006126d187828801611e5c565b94505060206126e287828801611e92565b93505060406126f387828801611e92565b925050606085013567ffffffffffffffff81111561271457612713611e0e565b5b61272087828801612364565b91505092959194509250565b61273581611e33565b82525050565b6000602082019050612750600083018461272c565b92915050565b61275f81611f96565b811461276a57600080fd5b50565b60008135905061277c81612756565b92915050565b6000806040838503121561279957612798611e09565b5b60006127a785828601611e5c565b92505060206127b88582860161276d565b9150509250929050565b600080604083850312156127d9576127d8611e09565b5b60006127e785828601611e5c565b92505060206127f885828601611e5c565b9150509250929050565b600080600080600060a0868803121561281e5761281d611e09565b5b600061282c88828901611e5c565b955050602061283d88828901611e5c565b945050604061284e88828901611e92565b935050606061285f88828901611e92565b925050608086013567ffffffffffffffff8111156128805761287f611e0e565b5b61288c88828901612364565b9150509295509295909350565b7f4e487b7100000000000000000000000000000000000000000000000000000000600052602260045260246000fd5b600060028204905060018216806128e057607f821691505b6020821081036128f3576128f2612899565b5b50919050565b600060408201905061290e600083018561272c565b61291b602083018461272c565b9392505050565b7f796f752063616e206a757374207769746864726177207a65726f200000000000600082015250565b6000612958601b83612193565b915061296382612922565b602082019050919050565b600060208201905081810360008301526129878161294b565b9050919050565b7f4e487b7100000000000000000000000000000000000000000000000000000000600052601160045260246000fd5b60006129c882611e71565b91506129d383611e71565b92508282026129e181611e71565b915082820484148315176129f8576129f761298e565b5b5092915050565b7f4e487b7100000000000000000000000000000000000000000000000000000000600052601260045260246000fd5b6000612a3982611e71565b9150612a4483611e71565b925082612a5457612a536129ff565b5b828204905092915050565b600081905092915050565b50565b6000612a7a600083612a5f565b9150612a8582612a6a565b600082019050919050565b6000612a9b82612a6d565b9150819050919050565b6000604082019050612aba6000830185611ee7565b612ac76020830184611ee7565b9392505050565b7f4e487b7100000000000000000000000000000000000000000000000000000000600052603260045260246000fd5b6000612b0882611e71565b91507fffffffffffffffffffffffffffffffffffffffffffffffffffffffffffffffff8203612b3a57612b3961298e565b5b600182019050919050565b7f796f752068617665206e6f7420656e6f756768207065726d6973736f6e000000600082015250565b6000612b7b601d83612193565b9150612b8682612b45565b602082019050919050565b60006020820190508181036000830152612baa81612b6e565b9050919050565b7f706c6561736520656e7465722072696768742073686172650000000000000000600082015250565b6000612be7601883612193565b9150612bf282612bb1565b602082019050919050565b60006020820190508181036000830152612c1681612bda565b9050919050565b6000612c2882611e71565b9150612c3383611e71565b9250828201905080821115612c4b57612c4a61298e565b5b92915050565b60008190508160005260206000209050919050565b60006020601f8301049050919050565b600082821b905092915050565b600060088302612cb37fffffffffffffffffffffffffffffffffffffffffffffffffffffffffffffffff82612c76565b612cbd8683612c76565b95508019841693508086168417925050509392505050565b6000819050919050565b6000612cfa612cf5612cf084611e71565b612cd5565b611e71565b9050919050565b6000819050919050565b612d1483612cdf565b612d28612d2082612d01565b848454612c83565b825550505050565b600090565b612d3d612d30565b612d48818484612d0b565b505050565b5b81811015612d6c57612d61600082612d35565b600181019050612d4e565b5050565b601f821115612db157612d8281612c51565b612d8b84612c66565b81016020851015612d9a578190505b612dae612da685612c66565b830182612d4d565b50505b505050565b600082821c905092915050565b6000612dd460001984600802612db6565b1980831691505092915050565b6000612ded8383612dc3565b9150826002028217905092915050565b612e0682612188565b67ffffffffffffffff811115612e1f57612e1e611fe7565b5b612e2982546128c8565b612e34828285612d70565b600060209050601f831160018114612e675760008415612e55578287015190505b612e5f8582612de1565b865550612ec7565b601f198416612e7586612c51565b60005b82811015612e9d57848901518255600182019150602085019450602081019050612e78565b86831015612eba5784890151612eb6601f891682612dc3565b8355505b6001600288020188555050505b505050505050565b600081519050919050565b600082825260208201905092915050565b6000612ef682612ecf565b612f008185612eda565b9350612f108185602086016121a4565b612f1981611fd6565b840191505092915050565b600060a082019050612f39600083018861272c565b612f46602083018761272c565b612f536040830186611ee7565b612f606060830185611ee7565b8181036080830152612f728184612eeb565b90509695505050505050565b600081519050612f8d81611f3d565b92915050565b600060208284031215612fa957612fa8611e09565b5b6000612fb784828501612f7e565b91505092915050565b600060a082019050612fd5600083018861272c565b612fe2602083018761272c565b8181036040830152612ff481866125fc565b9050818103606083015261300881856125fc565b9050818103608083015261301c8184612eeb565b90509695505050505050565b600060808201905061303d600083018761272c565b61304a6020830186611ee7565b6130576040830185611ee7565b6130646060830184611ee7565b95945050505050565b6000604082019050818103600083015261308781856125fc565b9050818103602083015261309b81846125fc565b9050939250505056fea26469706673582212202c068943768a5d10ac2d82c86139ef934aff8c835049815fcf6e2765474873b464736f6c63430008140033a26469706673582212204a6b5751198f773a25d2429285ff2f85d3529413878a42f61ce9c15adac1fe3864736f6c63430008140033",
  "linkReferences": {},
  "deployedLinkReferences": {}
}