{
  "_format": "hh-sol-artifact-1",
  "contractName": "NFTMarketplace",
  "sourceName": "contracts/Market.sol",
  "abi": [
    {
      "inputs": [],
      "stateMutability": "nonpayable",
      "type": "constructor"
    },
    {
      "inputs": [
        {
          "internalType": "address",
          "name": "owner",
          "type": "address"
        }
      ],
      "name": "OwnableInvalidOwner",
      "type": "error"
    },
    {
      "inputs": [
        {
          "internalType": "address",
          "name": "account",
          "type": "address"
        }
      ],
      "name": "OwnableUnauthorizedAccount",
      "type": "error"
    },
    {
      "inputs": [],
      "name": "ReentrancyGuardReentrantCall",
      "type": "error"
    },
    {
      "anonymous": false,
      "inputs": [
        {
          "indexed": true,
          "internalType": "address",
          "name": "previousOwner",
          "type": "address"
        },
        {
          "indexed": true,
          "internalType": "address",
          "name": "newOwner",
          "type": "address"
        }
      ],
      "name": "OwnershipTransferred",
      "type": "event"
    },
    {
      "anonymous": false,
      "inputs": [
        {
          "indexed": true,
          "internalType": "address",
          "name": "seller",
          "type": "address"
        },
        {
          "indexed": true,
          "internalType": "uint128",
          "name": "tokenId",
          "type": "uint128"
        },
        {
          "indexed": false,
          "internalType": "uint128",
          "name": "amount",
          "type": "uint128"
        },
        {
          "indexed": false,
          "internalType": "uint128",
          "name": "pricePerToken",
          "type": "uint128"
        },
        {
          "indexed": true,
          "internalType": "uint256",
          "name": "listingId",
          "type": "uint256"
        }
      ],
      "name": "TokenListed1155",
      "type": "event"
    },
    {
      "anonymous": false,
      "inputs": [
        {
          "indexed": false,
          "internalType": "address",
          "name": "seller",
          "type": "address"
        },
        {
          "indexed": false,
          "internalType": "address",
          "name": "buyer",
          "type": "address"
        },
        {
          "indexed": false,
          "internalType": "uint128",
          "name": "tokenId",
          "type": "uint128"
        },
        {
          "indexed": false,
          "internalType": "uint128",
          "name": "amount",
          "type": "uint128"
        },
        {
          "indexed": false,
          "internalType": "uint128",
          "name": "pricePerToken",
          "type": "uint128"
        }
      ],
      "name": "TokenSold1155",
      "type": "event"
    },
    {
      "inputs": [
        {
          "internalType": "address",
          "name": "",
          "type": "address"
        }
      ],
      "name": "NFTs",
      "outputs": [
        {
          "internalType": "address",
          "name": "nft",
          "type": "address"
        },
        {
          "internalType": "address",
          "name": "seller",
          "type": "address"
        },
        {
          "internalType": "uint128",
          "name": "tokenId",
          "type": "uint128"
        },
        {
          "internalType": "uint128",
          "name": "amount",
          "type": "uint128"
        },
        {
          "internalType": "uint128",
          "name": "price",
          "type": "uint128"
        }
      ],
      "stateMutability": "view",
      "type": "function"
    },
    {
      "inputs": [],
      "name": "_listingIds1155",
      "outputs": [
        {
          "internalType": "uint256",
          "name": "_value",
          "type": "uint256"
        }
      ],
      "stateMutability": "view",
      "type": "function"
    },
    {
      "inputs": [
        {
          "internalType": "address",
          "name": "nftAddress",
          "type": "address"
        },
        {
          "internalType": "uint128",
          "name": "tokenId",
          "type": "uint128"
        },
        {
          "internalType": "uint128",
          "name": "price",
          "type": "uint128"
        },
        {
          "internalType": "uint128",
          "name": "amount",
          "type": "uint128"
        }
      ],
      "name": "addNFT",
      "outputs": [],
      "stateMutability": "nonpayable",
      "type": "function"
    },
    {
      "inputs": [
        {
          "internalType": "address",
          "name": "userAddr",
          "type": "address"
        },
        {
          "internalType": "address",
          "name": "nftAddr",
          "type": "address"
        },
        {
          "internalType": "uint256",
          "name": "tokenId",
          "type": "uint256"
        }
      ],
      "name": "balanceOf",
      "outputs": [
        {
          "internalType": "uint256",
          "name": "",
          "type": "uint256"
        }
      ],
      "stateMutability": "view",
      "type": "function"
    },
    {
      "inputs": [
        {
          "internalType": "uint256",
          "name": "id",
          "type": "uint256"
        }
      ],
      "name": "getNFTAddress",
      "outputs": [
        {
          "internalType": "address",
          "name": "",
          "type": "address"
        }
      ],
      "stateMutability": "view",
      "type": "function"
    },
    {
      "inputs": [
        {
          "internalType": "uint256",
          "name": "",
          "type": "uint256"
        }
      ],
      "name": "listingNFT",
      "outputs": [
        {
          "internalType": "address",
          "name": "",
          "type": "address"
        }
      ],
      "stateMutability": "view",
      "type": "function"
    },
    {
      "inputs": [
        {
          "internalType": "string",
          "name": "uri",
          "type": "string"
        },
        {
          "internalType": "uint256",
          "name": "ownerContribution",
          "type": "uint256"
        },
        {
          "internalType": "uint128",
          "name": "tokenId",
          "type": "uint128"
        },
        {
          "internalType": "uint128",
          "name": "price",
          "type": "uint128"
        },
        {
          "internalType": "uint128",
          "name": "amount",
          "type": "uint128"
        }
      ],
      "name": "mintNFT",
      "outputs": [],
      "stateMutability": "nonpayable",
      "type": "function"
    },
    {
      "inputs": [],
      "name": "owner",
      "outputs": [
        {
          "internalType": "address",
          "name": "",
          "type": "address"
        }
      ],
      "stateMutability": "view",
      "type": "function"
    },
    {
      "inputs": [
        {
          "internalType": "address",
          "name": "nftAdd",
          "type": "address"
        },
        {
          "internalType": "uint128",
          "name": "amount",
          "type": "uint128"
        },
        {
          "internalType": "uint128",
          "name": "tokenId",
          "type": "uint128"
        }
      ],
      "name": "purchaseToken1155",
      "outputs": [],
      "stateMutability": "payable",
      "type": "function"
    },
    {
      "inputs": [],
      "name": "renounceOwnership",
      "outputs": [],
      "stateMutability": "nonpayable",
      "type": "function"
    },
    {
      "inputs": [
        {
          "internalType": "address",
          "name": "newOwner",
          "type": "address"
        }
      ],
      "name": "transferOwnership",
      "outputs": [],
      "stateMutability": "nonpayable",
      "type": "function"
    },
    {
      "inputs": [
        {
          "internalType": "address",
          "name": "nftAdd",
          "type": "address"
        }
      ],
      "name": "withDraw",
      "outputs": [],
      "stateMutability": "nonpayable",
      "type": "function"
    },
    {
      "stateMutability": "payable",
      "type": "receive"
    }
  ],
  "bytecode": "0x60806040523480156200001157600080fd5b5033600073ffffffffffffffffffffffffffffffffffffffff168173ffffffffffffffffffffffffffffffffffffffff1603620000885760006040517f1e4fbdf70000000000000000000000000000000000000000000000000000000081526004016200007f9190620001b0565b60405180910390fd5b6200009981620000a760201b60201c565b5060018081905550620001cd565b60008060009054906101000a900473ffffffffffffffffffffffffffffffffffffffff169050816000806101000a81548173ffffffffffffffffffffffffffffffffffffffff021916908373ffffffffffffffffffffffffffffffffffffffff1602179055508173ffffffffffffffffffffffffffffffffffffffff168173ffffffffffffffffffffffffffffffffffffffff167f8be0079c531659141344cd1fd0a4f28419497f9722a3daafe3b4186f6b6457e060405160405180910390a35050565b600073ffffffffffffffffffffffffffffffffffffffff82169050919050565b600062000198826200016b565b9050919050565b620001aa816200018b565b82525050565b6000602082019050620001c760008301846200019f565b92915050565b615b9d80620001dd6000396000f3fe608060405260043610620000bb5760003560e01c80638da5cb5b116200006d5780638da5cb5b14620001e05780639d18f7731462000210578063b4e63f691462000254578063e93119d9146200029c578063f2fde38b14620002e0578063f6023bca146200030e57620000c3565b80630613810714620000c85780630a67d2c714620000f65780631c513227146200012457806351ae04ed14620001685780636656bdb31462000196578063715018a614620001c657620000c3565b36620000c357005b600080fd5b348015620000d557600080fd5b50620000f46004803603810190620000ee919062001769565b6200032e565b005b3480156200010357600080fd5b506200012260048036038101906200011c9190620017db565b62000782565b005b3480156200013157600080fd5b506200015060048036038101906200014a919062001848565b62000849565b6040516200015f91906200188b565b60405180910390f35b3480156200017557600080fd5b506200019460048036038101906200018e919062001a0a565b6200087c565b005b348015620001a357600080fd5b50620001ae62000ca7565b604051620001bd919062001ac2565b60405180910390f35b348015620001d357600080fd5b50620001de62000cb3565b005b348015620001ed57600080fd5b50620001f862000ccb565b6040516200020791906200188b565b60405180910390f35b3480156200021d57600080fd5b506200023c600480360381019062000236919062001848565b62000cf4565b6040516200024b91906200188b565b60405180910390f35b3480156200026157600080fd5b506200028060048036038101906200027a9190620017db565b62000d31565b6040516200029395949392919062001af0565b60405180910390f35b348015620002a957600080fd5b50620002c86004803603810190620002c2919062001b4d565b62000dfb565b604051620002d7919062001ac2565b60405180910390f35b348015620002ed57600080fd5b506200030c6004803603810190620003069190620017db565b62000ee8565b005b6200032c600480360381019062000326919062001ba9565b62000f75565b005b3373ffffffffffffffffffffffffffffffffffffffff16600260008673ffffffffffffffffffffffffffffffffffffffff1673ffffffffffffffffffffffffffffffffffffffff16815260200190815260200160002060010160009054906101000a900473ffffffffffffffffffffffffffffffffffffffff1673ffffffffffffffffffffffffffffffffffffffff161462000401576040517f08c379a0000000000000000000000000000000000000000000000000000000008152600401620003f89062001c66565b60405180910390fd5b60008490508073ffffffffffffffffffffffffffffffffffffffff1663731133e93386856040518463ffffffff1660e01b8152600401620004459392919062001d06565b600060405180830381600087803b1580156200046057600080fd5b505af115801562000475573d6000803e3d6000fd5b505050506040518060a001604052808273ffffffffffffffffffffffffffffffffffffffff1681526020013373ffffffffffffffffffffffffffffffffffffffff168152602001856fffffffffffffffffffffffffffffffff168152602001846fffffffffffffffffffffffffffffffff168152602001836fffffffffffffffffffffffffffffffff16815250600260008373ffffffffffffffffffffffffffffffffffffffff1673ffffffffffffffffffffffffffffffffffffffff16815260200190815260200160002060008201518160000160006101000a81548173ffffffffffffffffffffffffffffffffffffffff021916908373ffffffffffffffffffffffffffffffffffffffff16021790555060208201518160010160006101000a81548173ffffffffffffffffffffffffffffffffffffffff021916908373ffffffffffffffffffffffffffffffffffffffff16021790555060408201518160020160006101000a8154816fffffffffffffffffffffffffffffffff02191690836fffffffffffffffffffffffffffffffff16021790555060608201518160020160106101000a8154816fffffffffffffffffffffffffffffffff02191690836fffffffffffffffffffffffffffffffff16021790555060808201518160030160006101000a8154816fffffffffffffffffffffffffffffffff02191690836fffffffffffffffffffffffffffffffff1602179055509050506200069b6004620014c5565b6fffffffffffffffffffffffffffffffff16846fffffffffffffffffffffffffffffffff163373ffffffffffffffffffffffffffffffffffffffff167f8905afc8fc3171b3f0b631202a7f2f08ca31aa05db9ccd9cc769bec2ed29168d86866040516200070a92919062001d58565b60405180910390a48060036000620007236004620014c5565b815260200190815260200160002060006101000a81548173ffffffffffffffffffffffffffffffffffffffff021916908373ffffffffffffffffffffffffffffffffffffffff1602179055506200077b6004620014d3565b5050505050565b600260008273ffffffffffffffffffffffffffffffffffffffff1673ffffffffffffffffffffffffffffffffffffffff16815260200190815260200160002060000160009054906101000a900473ffffffffffffffffffffffffffffffffffffffff1673ffffffffffffffffffffffffffffffffffffffff16633ccfd60b6040518163ffffffff1660e01b8152600401600060405180830381600087803b1580156200082d57600080fd5b505af115801562000842573d6000803e3d6000fd5b5050505050565b60036020528060005260406000206000915054906101000a900473ffffffffffffffffffffffffffffffffffffffff1681565b600084336040516200088e9062001695565b6200089b92919062001d85565b604051809103906000f080158015620008b8573d6000803e3d6000fd5b5090508073ffffffffffffffffffffffffffffffffffffffff166302fe5305876040518263ffffffff1660e01b8152600401620008f6919062001e2a565b600060405180830381600087803b1580156200091157600080fd5b505af115801562000926573d6000803e3d6000fd5b505050508073ffffffffffffffffffffffffffffffffffffffff1663731133e93386856040518463ffffffff1660e01b8152600401620009699392919062001d06565b600060405180830381600087803b1580156200098457600080fd5b505af115801562000999573d6000803e3d6000fd5b505050506040518060a001604052808273ffffffffffffffffffffffffffffffffffffffff1681526020013373ffffffffffffffffffffffffffffffffffffffff168152602001856fffffffffffffffffffffffffffffffff168152602001846fffffffffffffffffffffffffffffffff168152602001836fffffffffffffffffffffffffffffffff16815250600260008373ffffffffffffffffffffffffffffffffffffffff1673ffffffffffffffffffffffffffffffffffffffff16815260200190815260200160002060008201518160000160006101000a81548173ffffffffffffffffffffffffffffffffffffffff021916908373ffffffffffffffffffffffffffffffffffffffff16021790555060208201518160010160006101000a81548173ffffffffffffffffffffffffffffffffffffffff021916908373ffffffffffffffffffffffffffffffffffffffff16021790555060408201518160020160006101000a8154816fffffffffffffffffffffffffffffffff02191690836fffffffffffffffffffffffffffffffff16021790555060608201518160020160106101000a8154816fffffffffffffffffffffffffffffffff02191690836fffffffffffffffffffffffffffffffff16021790555060808201518160030160006101000a8154816fffffffffffffffffffffffffffffffff02191690836fffffffffffffffffffffffffffffffff16021790555090505062000bbf6004620014c5565b6fffffffffffffffffffffffffffffffff16846fffffffffffffffffffffffffffffffff163373ffffffffffffffffffffffffffffffffffffffff167f8905afc8fc3171b3f0b631202a7f2f08ca31aa05db9ccd9cc769bec2ed29168d868660405162000c2e92919062001d58565b60405180910390a4806003600062000c476004620014c5565b815260200190815260200160002060006101000a81548173ffffffffffffffffffffffffffffffffffffffff021916908373ffffffffffffffffffffffffffffffffffffffff16021790555062000c9f6004620014d3565b505050505050565b60048060000154905081565b62000cbd620014e9565b62000cc9600062001579565b565b60008060009054906101000a900473ffffffffffffffffffffffffffffffffffffffff16905090565b60006003600083815260200190815260200160002060009054906101000a900473ffffffffffffffffffffffffffffffffffffffff169050919050565b60026020528060005260406000206000915090508060000160009054906101000a900473ffffffffffffffffffffffffffffffffffffffff16908060010160009054906101000a900473ffffffffffffffffffffffffffffffffffffffff16908060020160009054906101000a90046fffffffffffffffffffffffffffffffff16908060020160109054906101000a90046fffffffffffffffffffffffffffffffff16908060030160009054906101000a90046fffffffffffffffffffffffffffffffff16905085565b6000600260008473ffffffffffffffffffffffffffffffffffffffff1673ffffffffffffffffffffffffffffffffffffffff16815260200190815260200160002060000160009054906101000a900473ffffffffffffffffffffffffffffffffffffffff1673ffffffffffffffffffffffffffffffffffffffff1662fdd58e85846040518363ffffffff1660e01b815260040162000e9b92919062001e4e565b602060405180830381865afa15801562000eb9573d6000803e3d6000fd5b505050506040513d601f19601f8201168201806040525081019062000edf919062001e92565b90509392505050565b62000ef2620014e9565b600073ffffffffffffffffffffffffffffffffffffffff168173ffffffffffffffffffffffffffffffffffffffff160362000f675760006040517f1e4fbdf700000000000000000000000000000000000000000000000000000000815260040162000f5e91906200188b565b60405180910390fd5b62000f728162001579565b50565b62000f7f6200163d565b6000600260008573ffffffffffffffffffffffffffffffffffffffff1673ffffffffffffffffffffffffffffffffffffffff1681526020019081526020016000206040518060a00160405290816000820160009054906101000a900473ffffffffffffffffffffffffffffffffffffffff1673ffffffffffffffffffffffffffffffffffffffff1673ffffffffffffffffffffffffffffffffffffffff1681526020016001820160009054906101000a900473ffffffffffffffffffffffffffffffffffffffff1673ffffffffffffffffffffffffffffffffffffffff1673ffffffffffffffffffffffffffffffffffffffff1681526020016002820160009054906101000a90046fffffffffffffffffffffffffffffffff166fffffffffffffffffffffffffffffffff166fffffffffffffffffffffffffffffffff1681526020016002820160109054906101000a90046fffffffffffffffffffffffffffffffff166fffffffffffffffffffffffffffffffff166fffffffffffffffffffffffffffffffff1681526020016003820160009054906101000a90046fffffffffffffffffffffffffffffffff166fffffffffffffffffffffffffffffffff166fffffffffffffffffffffffffffffffff16815250509050806020015173ffffffffffffffffffffffffffffffffffffffff163373ffffffffffffffffffffffffffffffffffffffff1603620011cc576040517f08c379a0000000000000000000000000000000000000000000000000000000008152600401620011c39062001f14565b60405180910390fd5b828160800151620011de919062001f65565b6fffffffffffffffffffffffffffffffff1634101562001235576040517f08c379a00000000000000000000000000000000000000000000000000000000081526004016200122c9062001ffb565b60405180910390fd5b826fffffffffffffffffffffffffffffffff16816000015173ffffffffffffffffffffffffffffffffffffffff1662fdd58e8360200151856040518363ffffffff1660e01b81526004016200128c9291906200201d565b602060405180830381865afa158015620012aa573d6000803e3d6000fd5b505050506040513d601f19601f82011682018060405250810190620012d0919062001e92565b101562001314576040517f08c379a00000000000000000000000000000000000000000000000000000000081526004016200130b90620020c0565b60405180910390fd5b6000816000015173ffffffffffffffffffffffffffffffffffffffff1684836080015162001343919062001f65565b6fffffffffffffffffffffffffffffffff16604051620013639062002114565b60006040518083038185875af1925050503d8060008114620013a2576040519150601f19603f3d011682016040523d82523d6000602084013e620013a7565b606091505b5050905080620013ee576040517f08c379a0000000000000000000000000000000000000000000000000000000008152600401620013e590620021a1565b60405180910390fd5b816000015173ffffffffffffffffffffffffffffffffffffffff1663f242432a83602001513386886040518563ffffffff1660e01b8152600401620014379493929190620021c3565b600060405180830381600087803b1580156200145257600080fd5b505af115801562001467573d6000803e3d6000fd5b505050507f41650d25ff3eafcbf7b9eae1b7c2321e7e05084252c78a45874789b2455ce24c82602001513385878660800151604051620014ac95949392919062001af0565b60405180910390a15050620014c062001684565b505050565b600081600001549050919050565b6001816000016000828254019250508190555050565b620014f36200168d565b73ffffffffffffffffffffffffffffffffffffffff166200151362000ccb565b73ffffffffffffffffffffffffffffffffffffffff16146200157757620015396200168d565b6040517f118cdaa70000000000000000000000000000000000000000000000000000000081526004016200156e91906200188b565b60405180910390fd5b565b60008060009054906101000a900473ffffffffffffffffffffffffffffffffffffffff169050816000806101000a81548173ffffffffffffffffffffffffffffffffffffffff021916908373ffffffffffffffffffffffffffffffffffffffff1602179055508173ffffffffffffffffffffffffffffffffffffffff168173ffffffffffffffffffffffffffffffffffffffff167f8be0079c531659141344cd1fd0a4f28419497f9722a3daafe3b4186f6b6457e060405160405180910390a35050565b6002600154036200167a576040517f3ee5aeb500000000000000000000000000000000000000000000000000000000815260040160405180910390fd5b6002600181905550565b60018081905550565b600033905090565b613942806200222683390190565b6000604051905090565b600080fd5b600080fd5b600073ffffffffffffffffffffffffffffffffffffffff82169050919050565b6000620016e482620016b7565b9050919050565b620016f681620016d7565b81146200170257600080fd5b50565b6000813590506200171681620016eb565b92915050565b60006fffffffffffffffffffffffffffffffff82169050919050565b62001743816200171c565b81146200174f57600080fd5b50565b600081359050620017638162001738565b92915050565b60008060008060808587031215620017865762001785620016ad565b5b6000620017968782880162001705565b9450506020620017a98782880162001752565b9350506040620017bc8782880162001752565b9250506060620017cf8782880162001752565b91505092959194509250565b600060208284031215620017f457620017f3620016ad565b5b6000620018048482850162001705565b91505092915050565b6000819050919050565b62001822816200180d565b81146200182e57600080fd5b50565b600081359050620018428162001817565b92915050565b600060208284031215620018615762001860620016ad565b5b6000620018718482850162001831565b91505092915050565b6200188581620016d7565b82525050565b6000602082019050620018a260008301846200187a565b92915050565b600080fd5b600080fd5b6000601f19601f8301169050919050565b7f4e487b7100000000000000000000000000000000000000000000000000000000600052604160045260246000fd5b620018fd82620018b2565b810181811067ffffffffffffffff821117156200191f576200191e620018c3565b5b80604052505050565b600062001934620016a3565b9050620019428282620018f2565b919050565b600067ffffffffffffffff821115620019655762001964620018c3565b5b6200197082620018b2565b9050602081019050919050565b82818337600083830152505050565b6000620019a36200199d8462001947565b62001928565b905082815260208101848484011115620019c257620019c1620018ad565b5b620019cf8482856200197d565b509392505050565b600082601f830112620019ef57620019ee620018a8565b5b813562001a018482602086016200198c565b91505092915050565b600080600080600060a0868803121562001a295762001a28620016ad565b5b600086013567ffffffffffffffff81111562001a4a5762001a49620016b2565b5b62001a5888828901620019d7565b955050602062001a6b8882890162001831565b945050604062001a7e8882890162001752565b935050606062001a918882890162001752565b925050608062001aa48882890162001752565b9150509295509295909350565b62001abc816200180d565b82525050565b600060208201905062001ad9600083018462001ab1565b92915050565b62001aea816200171c565b82525050565b600060a08201905062001b0760008301886200187a565b62001b1660208301876200187a565b62001b25604083018662001adf565b62001b34606083018562001adf565b62001b43608083018462001adf565b9695505050505050565b60008060006060848603121562001b695762001b68620016ad565b5b600062001b798682870162001705565b935050602062001b8c8682870162001705565b925050604062001b9f8682870162001831565b9150509250925092565b60008060006060848603121562001bc55762001bc4620016ad565b5b600062001bd58682870162001705565b935050602062001be88682870162001752565b925050604062001bfb8682870162001752565b9150509250925092565b600082825260208201905092915050565b7f6f6e6c79206f776e65722063616e206d696e74206e6577206e66740000000000600082015250565b600062001c4e601b8362001c05565b915062001c5b8262001c16565b602082019050919050565b6000602082019050818103600083015262001c818162001c3f565b9050919050565b6000819050919050565b600062001cb362001cad62001ca7846200171c565b62001c88565b6200180d565b9050919050565b62001cc58162001c92565b82525050565b600082825260208201905092915050565b50565b600062001cee60008362001ccb565b915062001cfb8262001cdc565b600082019050919050565b600060808201905062001d1d60008301866200187a565b62001d2c602083018562001cba565b62001d3b604083018462001cba565b818103606083015262001d4e8162001cdf565b9050949350505050565b600060408201905062001d6f600083018562001adf565b62001d7e602083018462001adf565b9392505050565b600060408201905062001d9c600083018562001ab1565b62001dab60208301846200187a565b9392505050565b600081519050919050565b60005b8381101562001ddd57808201518184015260208101905062001dc0565b60008484015250505050565b600062001df68262001db2565b62001e02818562001c05565b935062001e1481856020860162001dbd565b62001e1f81620018b2565b840191505092915050565b6000602082019050818103600083015262001e46818462001de9565b905092915050565b600060408201905062001e6560008301856200187a565b62001e74602083018462001ab1565b9392505050565b60008151905062001e8c8162001817565b92915050565b60006020828403121562001eab5762001eaa620016ad565b5b600062001ebb8482850162001e7b565b91505092915050565b7f43616e27742062757920796f7572206f776e20746f6b656e7321000000000000600082015250565b600062001efc601a8362001c05565b915062001f098262001ec4565b602082019050919050565b6000602082019050818103600083015262001f2f8162001eed565b9050919050565b7f4e487b7100000000000000000000000000000000000000000000000000000000600052601160045260246000fd5b600062001f72826200171c565b915062001f7f836200171c565b925082820262001f8f816200171c565b915080821462001fa45762001fa362001f36565b5b5092915050565b7f496e73756666696369656e742066756e64732100000000000000000000000000600082015250565b600062001fe360138362001c05565b915062001ff08262001fab565b602082019050919050565b60006020820190508181036000830152620020168162001fd4565b9050919050565b60006040820190506200203460008301856200187a565b62002043602083018462001cba565b9392505050565b7f53656c6c657220646f65736e2774206861766520656e6f75676820746f6b656e60008201527f7321000000000000000000000000000000000000000000000000000000000000602082015250565b6000620020a860228362001c05565b9150620020b5826200204a565b604082019050919050565b60006020820190508181036000830152620020db8162002099565b9050919050565b600081905092915050565b6000620020fc600083620020e2565b9150620021098262001cdc565b600082019050919050565b60006200212182620020ed565b9150819050919050565b7f556e61626c6520746f207472616e736665722066756e647320746f2073656c6c60008201527f6572000000000000000000000000000000000000000000000000000000000000602082015250565b60006200218960228362001c05565b915062002196826200212b565b604082019050919050565b60006020820190508181036000830152620021bc816200217a565b9050919050565b600060a082019050620021da60008301876200187a565b620021e960208301866200187a565b620021f8604083018562001cba565b62002207606083018462001cba565b81810360808301526200221a8162001cdf565b90509594505050505056fe6080604052607d6006553480156200001657600080fd5b50604051620039423803806200394283398181016040528101906200003c9190620002f7565b3333806040518060200160405280600081525062000060816200017760201b60201c565b50600073ffffffffffffffffffffffffffffffffffffffff168173ffffffffffffffffffffffffffffffffffffffff1603620000d65760006040517f1e4fbdf7000000000000000000000000000000000000000000000000000000008152600401620000cd91906200034f565b60405180910390fd5b620000e7816200018c60201b60201c565b50505033600a60006101000a81548173ffffffffffffffffffffffffffffffffffffffff021916908373ffffffffffffffffffffffffffffffffffffffff16021790555081600c60003373ffffffffffffffffffffffffffffffffffffffff1673ffffffffffffffffffffffffffffffffffffffff168152602001908152602001600020819055505050620006c3565b8060029081620001889190620005dc565b5050565b6000600560009054906101000a900473ffffffffffffffffffffffffffffffffffffffff16905081600560006101000a81548173ffffffffffffffffffffffffffffffffffffffff021916908373ffffffffffffffffffffffffffffffffffffffff1602179055508173ffffffffffffffffffffffffffffffffffffffff168173ffffffffffffffffffffffffffffffffffffffff167f8be0079c531659141344cd1fd0a4f28419497f9722a3daafe3b4186f6b6457e060405160405180910390a35050565b600080fd5b6000819050919050565b6200026c8162000257565b81146200027857600080fd5b50565b6000815190506200028c8162000261565b92915050565b600073ffffffffffffffffffffffffffffffffffffffff82169050919050565b6000620002bf8262000292565b9050919050565b620002d181620002b2565b8114620002dd57600080fd5b50565b600081519050620002f181620002c6565b92915050565b6000806040838503121562000311576200031062000252565b5b600062000321858286016200027b565b92505060206200033485828601620002e0565b9150509250929050565b6200034981620002b2565b82525050565b60006020820190506200036660008301846200033e565b92915050565b600081519050919050565b7f4e487b7100000000000000000000000000000000000000000000000000000000600052604160045260246000fd5b7f4e487b7100000000000000000000000000000000000000000000000000000000600052602260045260246000fd5b60006002820490506001821680620003ee57607f821691505b602082108103620004045762000403620003a6565b5b50919050565b60008190508160005260206000209050919050565b60006020601f8301049050919050565b600082821b905092915050565b6000600883026200046e7fffffffffffffffffffffffffffffffffffffffffffffffffffffffffffffffff826200042f565b6200047a86836200042f565b95508019841693508086168417925050509392505050565b6000819050919050565b6000620004bd620004b7620004b18462000257565b62000492565b62000257565b9050919050565b6000819050919050565b620004d9836200049c565b620004f1620004e882620004c4565b8484546200043c565b825550505050565b600090565b62000508620004f9565b62000515818484620004ce565b505050565b5b818110156200053d5762000531600082620004fe565b6001810190506200051b565b5050565b601f8211156200058c5762000556816200040a565b62000561846200041f565b8101602085101562000571578190505b6200058962000580856200041f565b8301826200051a565b50505b505050565b600082821c905092915050565b6000620005b16000198460080262000591565b1980831691505092915050565b6000620005cc83836200059e565b9150826002028217905092915050565b620005e7826200036c565b67ffffffffffffffff81111562000603576200060262000377565b5b6200060f8254620003d5565b6200061c82828562000541565b600060209050601f8311600181146200065457600084156200063f578287015190505b6200064b8582620005be565b865550620006bb565b601f19841662000664866200040a565b60005b828110156200068e5784890151825560018201915060208501945060208101905062000667565b86831015620006ae5784890151620006aa601f8916826200059e565b8355505b6001600288020188555050505b505050505050565b61326f80620006d36000396000f3fe6080604052600436106101385760003560e01c806368d7cc48116100ab578063a22cb4651161006f578063a22cb46514610442578063bd85b0391461046b578063cfd00a72146104a8578063e985e9c5146104d1578063f242432a1461050e578063f2fde38b146105375761013f565b806368d7cc481461035d578063715018a61461039a578063731133e9146103b1578063753dd464146103da5780638da5cb5b146104175761013f565b806318160ddd116100fd57806318160ddd1461024f5780631f7fdffa1461027a5780632eb2c2d6146102a35780633ccfd60b146102cc5780634e1273f4146102e35780634f558e79146103205761013f565b8062fdd58e1461014457806301ffc9a71461018157806302fe5305146101be5780630dcf4b8f146101e75780630e89341c146102125761013f565b3661013f57005b600080fd5b34801561015057600080fd5b5061016b60048036038101906101669190611f81565b610560565b6040516101789190611fd0565b60405180910390f35b34801561018d57600080fd5b506101a860048036038101906101a39190612043565b6105ba565b6040516101b5919061208b565b60405180910390f35b3480156101ca57600080fd5b506101e560048036038101906101e091906121ec565b6105cc565b005b3480156101f357600080fd5b506101fc6105e0565b6040516102099190611fd0565b60405180910390f35b34801561021e57600080fd5b5061023960048036038101906102349190612235565b6105e6565b60405161024691906122e1565b60405180910390f35b34801561025b57600080fd5b5061026461067a565b6040516102719190611fd0565b60405180910390f35b34801561028657600080fd5b506102a1600480360381019061029c919061246c565b610684565b005b3480156102af57600080fd5b506102ca60048036038101906102c59190612527565b61069e565b005b3480156102d857600080fd5b506102e1610746565b005b3480156102ef57600080fd5b5061030a600480360381019061030591906126b9565b6108a5565b60405161031791906127ef565b60405180910390f35b34801561032c57600080fd5b5061034760048036038101906103429190612235565b6109b4565b604051610354919061208b565b60405180910390f35b34801561036957600080fd5b50610384600480360381019061037f9190612811565b6109c8565b6040516103919190611fd0565b60405180910390f35b3480156103a657600080fd5b506103af6109e0565b005b3480156103bd57600080fd5b506103d860048036038101906103d3919061283e565b6109f4565b005b3480156103e657600080fd5b5061040160048036038101906103fc9190612811565b610a0e565b60405161040e9190611fd0565b60405180910390f35b34801561042357600080fd5b5061042c610a57565b60405161043991906128d0565b60405180910390f35b34801561044e57600080fd5b5061046960048036038101906104649190612917565b610a81565b005b34801561047757600080fd5b50610492600480360381019061048d9190612235565b610a97565b60405161049f9190611fd0565b60405180910390f35b3480156104b457600080fd5b506104cf60048036038101906104ca9190611f81565b610ab4565b005b3480156104dd57600080fd5b506104f860048036038101906104f39190612957565b610be8565b604051610505919061208b565b60405180910390f35b34801561051a57600080fd5b5061053560048036038101906105309190612997565b610c7c565b005b34801561054357600080fd5b5061055e60048036038101906105599190612811565b610d24565b005b600080600083815260200190815260200160002060008473ffffffffffffffffffffffffffffffffffffffff1673ffffffffffffffffffffffffffffffffffffffff16815260200190815260200160002054905092915050565b60006105c582610daa565b9050919050565b6105d4610e8c565b6105dd81610f13565b50565b600b5481565b6060600280546105f590612a5d565b80601f016020809104026020016040519081016040528092919081815260200182805461062190612a5d565b801561066e5780601f106106435761010080835404028352916020019161066e565b820191906000526020600020905b81548152906001019060200180831161065157829003601f168201915b50505050509050919050565b6000600454905090565b61068c610e8c565b61069884848484610f26565b50505050565b60006106a8610fac565b90508073ffffffffffffffffffffffffffffffffffffffff168673ffffffffffffffffffffffffffffffffffffffff16141580156106ed57506106eb8682610be8565b155b156107315780866040517fe237d922000000000000000000000000000000000000000000000000000000008152600401610728929190612a8e565b60405180910390fd5b61073e8686868686610fb4565b505050505050565b6000471161075357600080fd5b6000600c60003373ffffffffffffffffffffffffffffffffffffffff1673ffffffffffffffffffffffffffffffffffffffff16815260200190815260200160002054116107d5576040517f08c379a00000000000000000000000000000000000000000000000000000000081526004016107cc90612b03565b60405180910390fd5b60003373ffffffffffffffffffffffffffffffffffffffff16600b54600c60003373ffffffffffffffffffffffffffffffffffffffff1673ffffffffffffffffffffffffffffffffffffffff1681526020019081526020016000205461083b9190612b81565b476108469190612bb2565b60405161085290612c25565b60006040518083038185875af1925050503d806000811461088f576040519150601f19603f3d011682016040523d82523d6000602084013e610894565b606091505b50509050806108a257600080fd5b50565b606081518351146108f157815183516040517f5b0599910000000000000000000000000000000000000000000000000000000081526004016108e8929190612c3a565b60405180910390fd5b6000835167ffffffffffffffff81111561090e5761090d6120c1565b5b60405190808252806020026020018201604052801561093c5781602001602082028036833780820191505090505b50905060005b84518110156109a95761097961096182876110ac90919063ffffffff16565b61097483876110c090919063ffffffff16565b610560565b82828151811061098c5761098b612c63565b5b602002602001018181525050806109a290612c92565b9050610942565b508091505092915050565b6000806109c083610a97565b119050919050565b600c6020528060005260406000206000915090505481565b6109e8610e8c565b6109f260006110d4565b565b6109fc610e8c565b610a088484848461119a565b50505050565b6000600c60008373ffffffffffffffffffffffffffffffffffffffff1673ffffffffffffffffffffffffffffffffffffffff168152602001908152602001600020549050919050565b6000600560009054906101000a900473ffffffffffffffffffffffffffffffffffffffff16905090565b610a93610a8c610fac565b8383611233565b5050565b600060036000838152602001908152602001600020549050919050565b600a60009054906101000a900473ffffffffffffffffffffffffffffffffffffffff1673ffffffffffffffffffffffffffffffffffffffff163373ffffffffffffffffffffffffffffffffffffffff1614610b44576040517f08c379a0000000000000000000000000000000000000000000000000000000008152600401610b3b90612d26565b60405180910390fd5b60008111610b87576040517f08c379a0000000000000000000000000000000000000000000000000000000008152600401610b7e90612d92565b60405180910390fd5b80600c60008473ffffffffffffffffffffffffffffffffffffffff1673ffffffffffffffffffffffffffffffffffffffff1681526020019081526020016000208190555080600b6000828254610bdd9190612db2565b925050819055505050565b6000600160008473ffffffffffffffffffffffffffffffffffffffff1673ffffffffffffffffffffffffffffffffffffffff16815260200190815260200160002060008373ffffffffffffffffffffffffffffffffffffffff1673ffffffffffffffffffffffffffffffffffffffff16815260200190815260200160002060009054906101000a900460ff16905092915050565b6000610c86610fac565b90508073ffffffffffffffffffffffffffffffffffffffff168673ffffffffffffffffffffffffffffffffffffffff1614158015610ccb5750610cc98682610be8565b155b15610d0f5780866040517fe237d922000000000000000000000000000000000000000000000000000000008152600401610d06929190612a8e565b60405180910390fd5b610d1c86868686866113a3565b505050505050565b610d2c610e8c565b600073ffffffffffffffffffffffffffffffffffffffff168173ffffffffffffffffffffffffffffffffffffffff1603610d9e5760006040517f1e4fbdf7000000000000000000000000000000000000000000000000000000008152600401610d9591906128d0565b60405180910390fd5b610da7816110d4565b50565b60007fd9b67a26000000000000000000000000000000000000000000000000000000007bffffffffffffffffffffffffffffffffffffffffffffffffffffffff1916827bffffffffffffffffffffffffffffffffffffffffffffffffffffffff19161480610e7557507f0e89341c000000000000000000000000000000000000000000000000000000007bffffffffffffffffffffffffffffffffffffffffffffffffffffffff1916827bffffffffffffffffffffffffffffffffffffffffffffffffffffffff1916145b80610e855750610e84826114ae565b5b9050919050565b610e94610fac565b73ffffffffffffffffffffffffffffffffffffffff16610eb2610a57565b73ffffffffffffffffffffffffffffffffffffffff1614610f1157610ed5610fac565b6040517f118cdaa7000000000000000000000000000000000000000000000000000000008152600401610f0891906128d0565b60405180910390fd5b565b8060029081610f229190612f92565b5050565b600073ffffffffffffffffffffffffffffffffffffffff168473ffffffffffffffffffffffffffffffffffffffff1603610f985760006040517f57f447ce000000000000000000000000000000000000000000000000000000008152600401610f8f91906128d0565b60405180910390fd5b610fa6600085858585611518565b50505050565b600033905090565b600073ffffffffffffffffffffffffffffffffffffffff168473ffffffffffffffffffffffffffffffffffffffff16036110265760006040517f57f447ce00000000000000000000000000000000000000000000000000000000815260040161101d91906128d0565b60405180910390fd5b600073ffffffffffffffffffffffffffffffffffffffff168573ffffffffffffffffffffffffffffffffffffffff16036110985760006040517f01a8351400000000000000000000000000000000000000000000000000000000815260040161108f91906128d0565b60405180910390fd5b6110a58585858585611518565b5050505050565b600060208202602084010151905092915050565b600060208202602084010151905092915050565b6000600560009054906101000a900473ffffffffffffffffffffffffffffffffffffffff16905081600560006101000a81548173ffffffffffffffffffffffffffffffffffffffff021916908373ffffffffffffffffffffffffffffffffffffffff1602179055508173ffffffffffffffffffffffffffffffffffffffff168173ffffffffffffffffffffffffffffffffffffffff167f8be0079c531659141344cd1fd0a4f28419497f9722a3daafe3b4186f6b6457e060405160405180910390a35050565b600073ffffffffffffffffffffffffffffffffffffffff168473ffffffffffffffffffffffffffffffffffffffff160361120c5760006040517f57f447ce00000000000000000000000000000000000000000000000000000000815260040161120391906128d0565b60405180910390fd5b60008061121985856115ca565b9150915061122b600087848487611518565b505050505050565b600073ffffffffffffffffffffffffffffffffffffffff168273ffffffffffffffffffffffffffffffffffffffff16036112a55760006040517fced3e10000000000000000000000000000000000000000000000000000000000815260040161129c91906128d0565b60405180910390fd5b80600160008573ffffffffffffffffffffffffffffffffffffffff1673ffffffffffffffffffffffffffffffffffffffff16815260200190815260200160002060008473ffffffffffffffffffffffffffffffffffffffff1673ffffffffffffffffffffffffffffffffffffffff16815260200190815260200160002060006101000a81548160ff0219169083151502179055508173ffffffffffffffffffffffffffffffffffffffff168373ffffffffffffffffffffffffffffffffffffffff167f17307eab39ab6107e8899845ad3d59bd9653f200f220920489ca2b5937696c3183604051611396919061208b565b60405180910390a3505050565b600073ffffffffffffffffffffffffffffffffffffffff168473ffffffffffffffffffffffffffffffffffffffff16036114155760006040517f57f447ce00000000000000000000000000000000000000000000000000000000815260040161140c91906128d0565b60405180910390fd5b600073ffffffffffffffffffffffffffffffffffffffff168573ffffffffffffffffffffffffffffffffffffffff16036114875760006040517f01a8351400000000000000000000000000000000000000000000000000000000815260040161147e91906128d0565b60405180910390fd5b60008061149485856115ca565b915091506114a58787848487611518565b50505050505050565b60007f01ffc9a7000000000000000000000000000000000000000000000000000000007bffffffffffffffffffffffffffffffffffffffffffffffffffffffff1916827bffffffffffffffffffffffffffffffffffffffffffffffffffffffff1916149050919050565b611524858585856115fa565b600073ffffffffffffffffffffffffffffffffffffffff168473ffffffffffffffffffffffffffffffffffffffff16146115c3576000611562610fac565b905060018451036115b25760006115836000866110c090919063ffffffff16565b9050600061159b6000866110c090919063ffffffff16565b90506115ab83898985858961160c565b50506115c1565b6115c08187878787876117c0565b5b505b5050505050565b60608060405191506001825283602083015260408201905060018152826020820152604081016040529250929050565b61160684848484611974565b50505050565b60008473ffffffffffffffffffffffffffffffffffffffff163b11156117b8578373ffffffffffffffffffffffffffffffffffffffff1663f23a6e6187878686866040518663ffffffff1660e01b815260040161166d9594939291906130b9565b6020604051808303816000875af19250505080156116a957506040513d601f19601f820116820180604052508101906116a69190613128565b60015b61172d573d80600081146116d9576040519150601f19603f3d011682016040523d82523d6000602084013e6116de565b606091505b50600081510361172557846040517f57f447ce00000000000000000000000000000000000000000000000000000000815260040161171c91906128d0565b60405180910390fd5b805181602001fd5b63f23a6e6160e01b7bffffffffffffffffffffffffffffffffffffffffffffffffffffffff1916817bffffffffffffffffffffffffffffffffffffffffffffffffffffffff1916146117b657846040517f57f447ce0000000000000000000000000000000000000000000000000000000081526004016117ad91906128d0565b60405180910390fd5b505b505050505050565b60008473ffffffffffffffffffffffffffffffffffffffff163b111561196c578373ffffffffffffffffffffffffffffffffffffffff1663bc197c8187878686866040518663ffffffff1660e01b8152600401611821959493929190613155565b6020604051808303816000875af192505050801561185d57506040513d601f19601f8201168201806040525081019061185a9190613128565b60015b6118e1573d806000811461188d576040519150601f19603f3d011682016040523d82523d6000602084013e611892565b606091505b5060008151036118d957846040517f57f447ce0000000000000000000000000000000000000000000000000000000081526004016118d091906128d0565b60405180910390fd5b805181602001fd5b63bc197c8160e01b7bffffffffffffffffffffffffffffffffffffffffffffffffffffffff1916817bffffffffffffffffffffffffffffffffffffffffffffffffffffffff19161461196a57846040517f57f447ce00000000000000000000000000000000000000000000000000000000815260040161196191906128d0565b60405180910390fd5b505b505050505050565b61198084848484611b2b565b600073ffffffffffffffffffffffffffffffffffffffff168473ffffffffffffffffffffffffffffffffffffffff1603611a60576000805b8351811015611a445760008382815181106119d6576119d5612c63565b5b6020026020010151905080600360008785815181106119f8576119f7612c63565b5b602002602001015181526020019081526020016000206000828254611a1d9190612db2565b925050819055508083611a309190612db2565b92505080611a3d90612c92565b90506119b8565b508060046000828254611a579190612db2565b92505081905550505b600073ffffffffffffffffffffffffffffffffffffffff168373ffffffffffffffffffffffffffffffffffffffff1603611b25576000805b8351811015611b12576000838281518110611ab657611ab5612c63565b5b602002602001015190508060036000878581518110611ad857611ad7612c63565b5b602002602001015181526020019081526020016000206000828254039250508190555080830192505080611b0b90612c92565b9050611a98565b5080600460008282540392505081905550505b50505050565b8051825114611b7557815181516040517f5b059991000000000000000000000000000000000000000000000000000000008152600401611b6c929190612c3a565b60405180910390fd5b6000611b7f610fac565b905060005b8351811015611d94576000611ba282866110c090919063ffffffff16565b90506000611bb983866110c090919063ffffffff16565b9050600073ffffffffffffffffffffffffffffffffffffffff168873ffffffffffffffffffffffffffffffffffffffff1614611ce657600080600084815260200190815260200160002060008a73ffffffffffffffffffffffffffffffffffffffff1673ffffffffffffffffffffffffffffffffffffffff16815260200190815260200160002054905081811015611c8e57888183856040517f03dee4c5000000000000000000000000000000000000000000000000000000008152600401611c8594939291906131bd565b60405180910390fd5b81810360008085815260200190815260200160002060008b73ffffffffffffffffffffffffffffffffffffffff1673ffffffffffffffffffffffffffffffffffffffff16815260200190815260200160002081905550505b600073ffffffffffffffffffffffffffffffffffffffff168773ffffffffffffffffffffffffffffffffffffffff1614611d81578060008084815260200190815260200160002060008973ffffffffffffffffffffffffffffffffffffffff1673ffffffffffffffffffffffffffffffffffffffff1681526020019081526020016000206000828254611d799190612db2565b925050819055505b505080611d8d90612c92565b9050611b84565b506001835103611e53576000611db46000856110c090919063ffffffff16565b90506000611dcc6000856110c090919063ffffffff16565b90508573ffffffffffffffffffffffffffffffffffffffff168773ffffffffffffffffffffffffffffffffffffffff168473ffffffffffffffffffffffffffffffffffffffff167fc3d58168c5ae7397731d063d5bbf3d657854427343f4c083240f7aacaa2d0f628585604051611e44929190612c3a565b60405180910390a45050611ed2565b8373ffffffffffffffffffffffffffffffffffffffff168573ffffffffffffffffffffffffffffffffffffffff168273ffffffffffffffffffffffffffffffffffffffff167f4a39dc06d4c0dbc64b70af90fd698a233a518aa5d07e595d983b8c0526c8f7fb8686604051611ec9929190613202565b60405180910390a45b5050505050565b6000604051905090565b600080fd5b600080fd5b600073ffffffffffffffffffffffffffffffffffffffff82169050919050565b6000611f1882611eed565b9050919050565b611f2881611f0d565b8114611f3357600080fd5b50565b600081359050611f4581611f1f565b92915050565b6000819050919050565b611f5e81611f4b565b8114611f6957600080fd5b50565b600081359050611f7b81611f55565b92915050565b60008060408385031215611f9857611f97611ee3565b5b6000611fa685828601611f36565b9250506020611fb785828601611f6c565b9150509250929050565b611fca81611f4b565b82525050565b6000602082019050611fe56000830184611fc1565b92915050565b60007fffffffff0000000000000000000000000000000000000000000000000000000082169050919050565b61202081611feb565b811461202b57600080fd5b50565b60008135905061203d81612017565b92915050565b60006020828403121561205957612058611ee3565b5b60006120678482850161202e565b91505092915050565b60008115159050919050565b61208581612070565b82525050565b60006020820190506120a0600083018461207c565b92915050565b600080fd5b600080fd5b6000601f19601f8301169050919050565b7f4e487b7100000000000000000000000000000000000000000000000000000000600052604160045260246000fd5b6120f9826120b0565b810181811067ffffffffffffffff82111715612118576121176120c1565b5b80604052505050565b600061212b611ed9565b905061213782826120f0565b919050565b600067ffffffffffffffff821115612157576121566120c1565b5b612160826120b0565b9050602081019050919050565b82818337600083830152505050565b600061218f61218a8461213c565b612121565b9050828152602081018484840111156121ab576121aa6120ab565b5b6121b684828561216d565b509392505050565b600082601f8301126121d3576121d26120a6565b5b81356121e384826020860161217c565b91505092915050565b60006020828403121561220257612201611ee3565b5b600082013567ffffffffffffffff8111156122205761221f611ee8565b5b61222c848285016121be565b91505092915050565b60006020828403121561224b5761224a611ee3565b5b600061225984828501611f6c565b91505092915050565b600081519050919050565b600082825260208201905092915050565b60005b8381101561229c578082015181840152602081019050612281565b60008484015250505050565b60006122b382612262565b6122bd818561226d565b93506122cd81856020860161227e565b6122d6816120b0565b840191505092915050565b600060208201905081810360008301526122fb81846122a8565b905092915050565b600067ffffffffffffffff82111561231e5761231d6120c1565b5b602082029050602081019050919050565b600080fd5b600061234761234284612303565b612121565b9050808382526020820190506020840283018581111561236a5761236961232f565b5b835b81811015612393578061237f8882611f6c565b84526020840193505060208101905061236c565b5050509392505050565b600082601f8301126123b2576123b16120a6565b5b81356123c2848260208601612334565b91505092915050565b600067ffffffffffffffff8211156123e6576123e56120c1565b5b6123ef826120b0565b9050602081019050919050565b600061240f61240a846123cb565b612121565b90508281526020810184848401111561242b5761242a6120ab565b5b61243684828561216d565b509392505050565b600082601f830112612453576124526120a6565b5b81356124638482602086016123fc565b91505092915050565b6000806000806080858703121561248657612485611ee3565b5b600061249487828801611f36565b945050602085013567ffffffffffffffff8111156124b5576124b4611ee8565b5b6124c18782880161239d565b935050604085013567ffffffffffffffff8111156124e2576124e1611ee8565b5b6124ee8782880161239d565b925050606085013567ffffffffffffffff81111561250f5761250e611ee8565b5b61251b8782880161243e565b91505092959194509250565b600080600080600060a0868803121561254357612542611ee3565b5b600061255188828901611f36565b955050602061256288828901611f36565b945050604086013567ffffffffffffffff81111561258357612582611ee8565b5b61258f8882890161239d565b935050606086013567ffffffffffffffff8111156125b0576125af611ee8565b5b6125bc8882890161239d565b925050608086013567ffffffffffffffff8111156125dd576125dc611ee8565b5b6125e98882890161243e565b9150509295509295909350565b600067ffffffffffffffff821115612611576126106120c1565b5b602082029050602081019050919050565b6000612635612630846125f6565b612121565b905080838252602082019050602084028301858111156126585761265761232f565b5b835b81811015612681578061266d8882611f36565b84526020840193505060208101905061265a565b5050509392505050565b600082601f8301126126a05761269f6120a6565b5b81356126b0848260208601612622565b91505092915050565b600080604083850312156126d0576126cf611ee3565b5b600083013567ffffffffffffffff8111156126ee576126ed611ee8565b5b6126fa8582860161268b565b925050602083013567ffffffffffffffff81111561271b5761271a611ee8565b5b6127278582860161239d565b9150509250929050565b600081519050919050565b600082825260208201905092915050565b6000819050602082019050919050565b61276681611f4b565b82525050565b6000612778838361275d565b60208301905092915050565b6000602082019050919050565b600061279c82612731565b6127a6818561273c565b93506127b18361274d565b8060005b838110156127e25781516127c9888261276c565b97506127d483612784565b9250506001810190506127b5565b5085935050505092915050565b600060208201905081810360008301526128098184612791565b905092915050565b60006020828403121561282757612826611ee3565b5b600061283584828501611f36565b91505092915050565b6000806000806080858703121561285857612857611ee3565b5b600061286687828801611f36565b945050602061287787828801611f6c565b935050604061288887828801611f6c565b925050606085013567ffffffffffffffff8111156128a9576128a8611ee8565b5b6128b58782880161243e565b91505092959194509250565b6128ca81611f0d565b82525050565b60006020820190506128e560008301846128c1565b92915050565b6128f481612070565b81146128ff57600080fd5b50565b600081359050612911816128eb565b92915050565b6000806040838503121561292e5761292d611ee3565b5b600061293c85828601611f36565b925050602061294d85828601612902565b9150509250929050565b6000806040838503121561296e5761296d611ee3565b5b600061297c85828601611f36565b925050602061298d85828601611f36565b9150509250929050565b600080600080600060a086880312156129b3576129b2611ee3565b5b60006129c188828901611f36565b95505060206129d288828901611f36565b94505060406129e388828901611f6c565b93505060606129f488828901611f6c565b925050608086013567ffffffffffffffff811115612a1557612a14611ee8565b5b612a218882890161243e565b9150509295509295909350565b7f4e487b7100000000000000000000000000000000000000000000000000000000600052602260045260246000fd5b60006002820490506001821680612a7557607f821691505b602082108103612a8857612a87612a2e565b5b50919050565b6000604082019050612aa360008301856128c1565b612ab060208301846128c1565b9392505050565b7f796f752063616e206a757374207769746864726177207a65726f200000000000600082015250565b6000612aed601b8361226d565b9150612af882612ab7565b602082019050919050565b60006020820190508181036000830152612b1c81612ae0565b9050919050565b7f4e487b7100000000000000000000000000000000000000000000000000000000600052601260045260246000fd5b7f4e487b7100000000000000000000000000000000000000000000000000000000600052601160045260246000fd5b6000612b8c82611f4b565b9150612b9783611f4b565b925082612ba757612ba6612b23565b5b828204905092915050565b6000612bbd82611f4b565b9150612bc883611f4b565b9250828202612bd681611f4b565b91508282048414831517612bed57612bec612b52565b5b5092915050565b600081905092915050565b50565b6000612c0f600083612bf4565b9150612c1a82612bff565b600082019050919050565b6000612c3082612c02565b9150819050919050565b6000604082019050612c4f6000830185611fc1565b612c5c6020830184611fc1565b9392505050565b7f4e487b7100000000000000000000000000000000000000000000000000000000600052603260045260246000fd5b6000612c9d82611f4b565b91507fffffffffffffffffffffffffffffffffffffffffffffffffffffffffffffffff8203612ccf57612cce612b52565b5b600182019050919050565b7f796f752068617665206e6f7420656e6f756768207065726d6973736f6e000000600082015250565b6000612d10601d8361226d565b9150612d1b82612cda565b602082019050919050565b60006020820190508181036000830152612d3f81612d03565b9050919050565b7f706c6561736520656e7465722072696768742073686172650000000000000000600082015250565b6000612d7c60188361226d565b9150612d8782612d46565b602082019050919050565b60006020820190508181036000830152612dab81612d6f565b9050919050565b6000612dbd82611f4b565b9150612dc883611f4b565b9250828201905080821115612de057612ddf612b52565b5b92915050565b60008190508160005260206000209050919050565b60006020601f8301049050919050565b600082821b905092915050565b600060088302612e487fffffffffffffffffffffffffffffffffffffffffffffffffffffffffffffffff82612e0b565b612e528683612e0b565b95508019841693508086168417925050509392505050565b6000819050919050565b6000612e8f612e8a612e8584611f4b565b612e6a565b611f4b565b9050919050565b6000819050919050565b612ea983612e74565b612ebd612eb582612e96565b848454612e18565b825550505050565b600090565b612ed2612ec5565b612edd818484612ea0565b505050565b5b81811015612f0157612ef6600082612eca565b600181019050612ee3565b5050565b601f821115612f4657612f1781612de6565b612f2084612dfb565b81016020851015612f2f578190505b612f43612f3b85612dfb565b830182612ee2565b50505b505050565b600082821c905092915050565b6000612f6960001984600802612f4b565b1980831691505092915050565b6000612f828383612f58565b9150826002028217905092915050565b612f9b82612262565b67ffffffffffffffff811115612fb457612fb36120c1565b5b612fbe8254612a5d565b612fc9828285612f05565b600060209050601f831160018114612ffc5760008415612fea578287015190505b612ff48582612f76565b86555061305c565b601f19841661300a86612de6565b60005b828110156130325784890151825560018201915060208501945060208101905061300d565b8683101561304f578489015161304b601f891682612f58565b8355505b6001600288020188555050505b505050505050565b600081519050919050565b600082825260208201905092915050565b600061308b82613064565b613095818561306f565b93506130a581856020860161227e565b6130ae816120b0565b840191505092915050565b600060a0820190506130ce60008301886128c1565b6130db60208301876128c1565b6130e86040830186611fc1565b6130f56060830185611fc1565b81810360808301526131078184613080565b90509695505050505050565b60008151905061312281612017565b92915050565b60006020828403121561313e5761313d611ee3565b5b600061314c84828501613113565b91505092915050565b600060a08201905061316a60008301886128c1565b61317760208301876128c1565b81810360408301526131898186612791565b9050818103606083015261319d8185612791565b905081810360808301526131b18184613080565b90509695505050505050565b60006080820190506131d260008301876128c1565b6131df6020830186611fc1565b6131ec6040830185611fc1565b6131f96060830184611fc1565b95945050505050565b6000604082019050818103600083015261321c8185612791565b905081810360208301526132308184612791565b9050939250505056fea2646970667358221220015b4cb3ce37699c3e61c9d86c42ee21227fd1221437b7112f0cb1fb2fb39d7564736f6c63430008140033a2646970667358221220790ef90a1a2338f526855ad1ce613620ec2a46b96d7e73036c552239700d0d7464736f6c63430008140033",
  "linkReferences": {},
  "deployedLinkReferences": {}
}