{
  "_format": "hh-sol-artifact-1",
  "contractName": "NFTMarketplace",
  "sourceName": "contracts/Market.sol",
  "abi": [
    {
      "inputs": [],
      "stateMutability": "nonpayable",
      "type": "constructor"
    },
    {
      "inputs": [
        {
          "internalType": "address",
          "name": "owner",
          "type": "address"
        }
      ],
      "name": "OwnableInvalidOwner",
      "type": "error"
    },
    {
      "inputs": [
        {
          "internalType": "address",
          "name": "account",
          "type": "address"
        }
      ],
      "name": "OwnableUnauthorizedAccount",
      "type": "error"
    },
    {
      "inputs": [],
      "name": "ReentrancyGuardReentrantCall",
      "type": "error"
    },
    {
      "anonymous": false,
      "inputs": [
        {
          "indexed": true,
          "internalType": "address",
          "name": "previousOwner",
          "type": "address"
        },
        {
          "indexed": true,
          "internalType": "address",
          "name": "newOwner",
          "type": "address"
        }
      ],
      "name": "OwnershipTransferred",
      "type": "event"
    },
    {
      "anonymous": false,
      "inputs": [
        {
          "indexed": true,
          "internalType": "address",
          "name": "seller",
          "type": "address"
        },
        {
          "indexed": true,
          "internalType": "uint256",
          "name": "tokenId",
          "type": "uint256"
        },
        {
          "indexed": false,
          "internalType": "uint256",
          "name": "amount",
          "type": "uint256"
        },
        {
          "indexed": false,
          "internalType": "uint256",
          "name": "pricePerToken",
          "type": "uint256"
        },
        {
          "indexed": true,
          "internalType": "uint256",
          "name": "listingId",
          "type": "uint256"
        }
      ],
      "name": "TokenListed1155",
      "type": "event"
    },
    {
      "anonymous": false,
      "inputs": [
        {
          "indexed": false,
          "internalType": "address",
          "name": "buyer",
          "type": "address"
        },
        {
          "indexed": false,
          "internalType": "uint256",
          "name": "tokenId",
          "type": "uint256"
        },
        {
          "indexed": false,
          "internalType": "uint256",
          "name": "amount",
          "type": "uint256"
        },
        {
          "indexed": false,
          "internalType": "uint256",
          "name": "pricePerToken",
          "type": "uint256"
        }
      ],
      "name": "TokenSold1155",
      "type": "event"
    },
    {
      "anonymous": false,
      "inputs": [
        {
          "indexed": true,
          "internalType": "address",
          "name": "nftAddress",
          "type": "address"
        },
        {
          "indexed": true,
          "internalType": "address",
          "name": "contributerAddress",
          "type": "address"
        },
        {
          "indexed": false,
          "internalType": "uint256",
          "name": "contributionAmount",
          "type": "uint256"
        }
      ],
      "name": "newContributionAdded",
      "type": "event"
    },
    {
      "inputs": [
        {
          "internalType": "address",
          "name": "",
          "type": "address"
        }
      ],
      "name": "NFTs",
      "outputs": [
        {
          "internalType": "address",
          "name": "nftAddress",
          "type": "address"
        },
        {
          "internalType": "address",
          "name": "seller",
          "type": "address"
        },
        {
          "internalType": "uint256",
          "name": "tokenId",
          "type": "uint256"
        },
        {
          "internalType": "uint256",
          "name": "price",
          "type": "uint256"
        },
        {
          "internalType": "uint256",
          "name": "amount",
          "type": "uint256"
        }
      ],
      "stateMutability": "view",
      "type": "function"
    },
    {
      "inputs": [],
      "name": "_listingIds1155",
      "outputs": [
        {
          "internalType": "uint256",
          "name": "_value",
          "type": "uint256"
        }
      ],
      "stateMutability": "view",
      "type": "function"
    },
    {
      "inputs": [
        {
          "internalType": "address",
          "name": "nftAddress",
          "type": "address"
        },
        {
          "internalType": "uint128",
          "name": "tokenId",
          "type": "uint128"
        },
        {
          "internalType": "uint128",
          "name": "price",
          "type": "uint128"
        },
        {
          "internalType": "uint128",
          "name": "amount",
          "type": "uint128"
        }
      ],
      "name": "addNFT",
      "outputs": [],
      "stateMutability": "nonpayable",
      "type": "function"
    },
    {
      "inputs": [
        {
          "internalType": "address",
          "name": "nftAddress",
          "type": "address"
        },
        {
          "internalType": "address",
          "name": "userAddress",
          "type": "address"
        },
        {
          "internalType": "uint256",
          "name": "contribution",
          "type": "uint256"
        }
      ],
      "name": "addUsersContributions",
      "outputs": [],
      "stateMutability": "nonpayable",
      "type": "function"
    },
    {
      "inputs": [
        {
          "internalType": "uint256",
          "name": "id",
          "type": "uint256"
        }
      ],
      "name": "getNFTAddress",
      "outputs": [
        {
          "internalType": "address",
          "name": "",
          "type": "address"
        }
      ],
      "stateMutability": "view",
      "type": "function"
    },
    {
      "inputs": [
        {
          "internalType": "uint256",
          "name": "",
          "type": "uint256"
        }
      ],
      "name": "listingNFT",
      "outputs": [
        {
          "internalType": "address",
          "name": "",
          "type": "address"
        }
      ],
      "stateMutability": "view",
      "type": "function"
    },
    {
      "inputs": [
        {
          "internalType": "address",
          "name": "creator",
          "type": "address"
        },
        {
          "internalType": "string",
          "name": "uri",
          "type": "string"
        },
        {
          "internalType": "uint256",
          "name": "ownerContribution",
          "type": "uint256"
        },
        {
          "internalType": "uint256",
          "name": "tokenId",
          "type": "uint256"
        },
        {
          "internalType": "uint256",
          "name": "price",
          "type": "uint256"
        },
        {
          "internalType": "uint256",
          "name": "amount",
          "type": "uint256"
        }
      ],
      "name": "mintNFT",
      "outputs": [],
      "stateMutability": "nonpayable",
      "type": "function"
    },
    {
      "inputs": [],
      "name": "owner",
      "outputs": [
        {
          "internalType": "address",
          "name": "",
          "type": "address"
        }
      ],
      "stateMutability": "view",
      "type": "function"
    },
    {
      "inputs": [
        {
          "internalType": "address",
          "name": "nftAddress",
          "type": "address"
        },
        {
          "internalType": "uint256",
          "name": "tokenId",
          "type": "uint256"
        },
        {
          "internalType": "uint256",
          "name": "amount",
          "type": "uint256"
        }
      ],
      "name": "purchaseNFT",
      "outputs": [],
      "stateMutability": "payable",
      "type": "function"
    },
    {
      "inputs": [],
      "name": "renounceOwnership",
      "outputs": [],
      "stateMutability": "nonpayable",
      "type": "function"
    },
    {
      "inputs": [
        {
          "internalType": "address",
          "name": "nftAddress",
          "type": "address"
        },
        {
          "internalType": "address",
          "name": "to",
          "type": "address"
        },
        {
          "internalType": "uint256",
          "name": "tokenId",
          "type": "uint256"
        },
        {
          "internalType": "uint256",
          "name": "amount",
          "type": "uint256"
        }
      ],
      "name": "transferNFT",
      "outputs": [],
      "stateMutability": "nonpayable",
      "type": "function"
    },
    {
      "inputs": [
        {
          "internalType": "address",
          "name": "newOwner",
          "type": "address"
        }
      ],
      "name": "transferOwnership",
      "outputs": [],
      "stateMutability": "nonpayable",
      "type": "function"
    },
    {
      "stateMutability": "payable",
      "type": "receive"
    }
  ],
  "bytecode": "0x608060405234801561001057600080fd5b50338061003757604051631e4fbdf760e01b81526000600482015260240160405180910390fd5b6100408161004a565b506001805561009a565b600080546001600160a01b038381166001600160a01b0319831681178455604051919092169283917f8be0079c531659141344cd1fd0a4f28419497f9722a3daafe3b4186f6b6457e09190a35050565b61327a806100a96000396000f3fe608060405260043610620000b95760003560e01c8063890c3e81116200006c578063890c3e8114620001ce5780638da5cb5b14620001e55780639d18f7731462000205578063a460a4bb146200023f578063b4e63f691462000264578063f2fde38b14620002f357600080fd5b80630372fb3f14620000c657806303ff52b714620000ed5780630613810714620001125780631c51322714620001375780636656bdb3146200018e578063715018a614620001b657600080fd5b36620000c157005b600080fd5b348015620000d357600080fd5b50620000eb620000e536600462000f21565b62000318565b005b348015620000fa57600080fd5b50620000eb6200010c36600462000f62565b620003cf565b3480156200011f57600080fd5b50620000eb6200013136600462000fc1565b62000503565b3480156200014457600080fd5b5062000171620001563660046200101e565b6003602052600090815260409020546001600160a01b031681565b6040516001600160a01b0390911681526020015b60405180910390f35b3480156200019b57600080fd5b50600454620001a79081565b60405190815260200162000185565b348015620001c357600080fd5b50620000eb62000736565b620000eb620001df36600462001038565b6200074e565b348015620001f257600080fd5b506000546001600160a01b031662000171565b3480156200021257600080fd5b5062000171620002243660046200101e565b6000908152600360205260409020546001600160a01b031690565b3480156200024c57600080fd5b50620000eb6200025e36600462001084565b62000ad6565b3480156200027157600080fd5b50620002bf6200028336600462001175565b6002602081905260009182526040909120805460018201549282015460038301546004909301546001600160a01b039283169490921692909185565b604080516001600160a01b039687168152959094166020860152928401919091526060830152608082015260a00162000185565b3480156200030057600080fd5b50620000eb6200031236600462001175565b62000d3e565b6040516367e8053960e11b81526001600160a01b0383811660048301526024820183905284169063cfd00a7290604401600060405180830381600087803b1580156200036357600080fd5b505af115801562000378573d6000803e3d6000fd5b50505050816001600160a01b0316836001600160a01b03167f34d7c16374970ff7687c53d0d286619dab245ae88504cc395ed4d40572387f0483604051620003c291815260200190565b60405180910390a3505050565b604051627eeac760e11b81523360048201526024810183905281906001600160a01b0386169062fdd58e90604401602060405180830381865afa1580156200041b573d6000803e3d6000fd5b505050506040513d601f19601f820116820180604052508101906200044191906200119a565b1015620004955760405162461bcd60e51b815260206004820152601e60248201527f796f7520646f6e742774206861766520656e6f75676820746f6b656e7321000060448201526064015b60405180910390fd5b604051637921219560e11b81526001600160a01b0385169063f242432a90620004c9903390879087908790600401620011b4565b600060405180830381600087803b158015620004e457600080fd5b505af1158015620004f9573d6000803e3d6000fd5b5050505050505050565b6001600160a01b03848116600090815260026020526040902060010154163314620005715760405162461bcd60e51b815260206004820152601b60248201527f6f6e6c79206f776e65722063616e206d696e74206e6577206e6674000000000060448201526064016200048c565b60405163731133e960e01b81523360048201526001600160801b03808516602483015282166044820152608060648201526000608482015284906001600160a01b0382169063731133e99060a401600060405180830381600087803b158015620005da57600080fd5b505af1158015620005ef573d6000803e3d6000fd5b50506040805160a0810182526001600160a01b038581168083523360208085019182526001600160801b038c81168688019081528c821660608801908152918c1660808801908152600095865260029384905297909420955186546001600160a01b031990811691871691909117875592516001870180549094169516949094179091559051908301555160038201559051600491820155549150620006929050565b604080516001600160801b03868116825285811660208301529283169287169133917fc851cf80c9adac1532315b66d8d25a95a13f68c9759a3a57ed5cdb74100fc461910160405180910390a48060036000620006ee60045490565b815260200190815260200160002060006101000a8154816001600160a01b0302191690836001600160a01b031602179055506200072f600480546001019055565b5050505050565b6200074062000d82565b6200074c600062000db1565b565b6200075862000e01565b6001600160a01b038316620007b05760405162461bcd60e51b815260206004820152601c60248201527f706c6561736520656e74657220636f727265637420616464726573730000000060448201526064016200048c565b6001600160a01b03808416600090815260026020818152604092839020835160a08101855281548616815260018201549095169185018290529182015492840192909252600381015460608401526004015460808301523303620008575760405162461bcd60e51b815260206004820152601a60248201527f43616e27742062757920796f7572206f776e20746f6b656e732100000000000060448201526064016200048c565b818160600151670de0b6b3a7640000620008729190620011ec565b6200087e9190620011ec565b341015620008c55760405162461bcd60e51b8152602060048201526013602482015272496e73756666696369656e742066756e64732160681b60448201526064016200048c565b80516020820151604051627eeac760e11b81526001600160a01b039182166004820152602481018690528492919091169062fdd58e90604401602060405180830381865afa1580156200091c573d6000803e3d6000fd5b505050506040513d601f19601f820116820180604052508101906200094291906200119a565b10156200099d5760405162461bcd60e51b815260206004820152602260248201527f53656c6c657220646f65736e2774206861766520656e6f75676820746f6b656e604482015261732160f01b60648201526084016200048c565b80516000906001600160a01b0316620009b860643462001218565b620009c5906062620011ec565b604051600081818185875af1925050503d806000811462000a03576040519150601f19603f3d011682016040523d82523d6000602084013e62000a08565b606091505b505090508062000a675760405162461bcd60e51b8152602060048201526024808201527f556e61626c6520746f207472616e736665722066756e647320746f207265636960448201526332bb32b960e11b60648201526084016200048c565b62000a7a85836020015133878762000e2c565b6060808301516040805133815260208101889052908101869052918201527f096529233583f455cd83dd143673cb9355f55b1f4946a34934970695ddda99529060800160405180910390a1505062000ad160018055565b505050565b600084308860405162000ae99062000ef6565b9283526001600160a01b039182166020840152166040820152606001604051809103906000f08015801562000b22573d6000803e3d6000fd5b506040516302fe530560e01b81529091506001600160a01b038216906302fe53059062000b549089906004016200123b565b600060405180830381600087803b15801562000b6f57600080fd5b505af115801562000b84573d6000803e3d6000fd5b505060405163731133e960e01b8152336004820152602481018790526044810185905260806064820152600060848201526001600160a01b038416925063731133e9915060a401600060405180830381600087803b15801562000be657600080fd5b505af115801562000bfb573d6000803e3d6000fd5b50506040805160a0810182526001600160a01b038086168083523360208085019182528486018c8152606086018c8152608087018c8152600095865260029384905297909420955186549086166001600160a01b03199182161787559251600187018054919096169316929092179093555191830191909155516003820155905160049182015562000c8e925090505490565b6001600160801b031684336001600160a01b03167fc851cf80c9adac1532315b66d8d25a95a13f68c9759a3a57ed5cdb74100fc461868660405162000cdd929190918252602082015260400190565b60405180910390a4806003600062000cf460045490565b815260200190815260200160002060006101000a8154816001600160a01b0302191690836001600160a01b0316021790555062000d35600480546001019055565b50505050505050565b62000d4862000d82565b6001600160a01b03811662000d7457604051631e4fbdf760e01b8152600060048201526024016200048c565b62000d7f8162000db1565b50565b6000546001600160a01b031633146200074c5760405163118cdaa760e01b81523360048201526024016200048c565b600080546001600160a01b038381166001600160a01b0319831681178455604051919092169283917f8be0079c531659141344cd1fd0a4f28419497f9722a3daafe3b4186f6b6457e09190a35050565b60026001540362000e2557604051633ee5aeb560e01b815260040160405180910390fd5b6002600155565b6001600160a01b03851662000e845760405162461bcd60e51b815260206004820152601c60248201527f706c6561736520656e74657220636f727265637420616464726573730000000060448201526064016200048c565b604051637921219560e11b815285906001600160a01b0382169063f242432a9062000eba908890889088908890600401620011b4565b600060405180830381600087803b15801562000ed557600080fd5b505af115801562000eea573d6000803e3d6000fd5b50505050505050505050565b611fb9806200128c83390190565b80356001600160a01b038116811462000f1c57600080fd5b919050565b60008060006060848603121562000f3757600080fd5b62000f428462000f04565b925062000f526020850162000f04565b9150604084013590509250925092565b6000806000806080858703121562000f7957600080fd5b62000f848562000f04565b935062000f946020860162000f04565b93969395505050506040820135916060013590565b80356001600160801b038116811462000f1c57600080fd5b6000806000806080858703121562000fd857600080fd5b62000fe38562000f04565b935062000ff36020860162000fa9565b9250620010036040860162000fa9565b9150620010136060860162000fa9565b905092959194509250565b6000602082840312156200103157600080fd5b5035919050565b6000806000606084860312156200104e57600080fd5b620010598462000f04565b95602085013595506040909401359392505050565b634e487b7160e01b600052604160045260246000fd5b60008060008060008060c087890312156200109e57600080fd5b620010a98762000f04565b9550602087013567ffffffffffffffff80821115620010c757600080fd5b818901915089601f830112620010dc57600080fd5b813581811115620010f157620010f16200106e565b604051601f8201601f19908116603f011681019083821181831017156200111c576200111c6200106e565b816040528281528c60208487010111156200113657600080fd5b8260208601602083013760009281016020019290925250979a9799505050506040860135956060810135956080820135955060a0909101359350915050565b6000602082840312156200118857600080fd5b620011938262000f04565b9392505050565b600060208284031215620011ad57600080fd5b5051919050565b6001600160a01b0394851681529290931660208301526040820152606081019190915260a06080820181905260009082015260c00190565b80820281158282048414176200121257634e487b7160e01b600052601160045260246000fd5b92915050565b6000826200123657634e487b7160e01b600052601260045260246000fd5b500490565b600060208083528351808285015260005b818110156200126a578581018301518582016040015282016200124c565b506000604082860101526040601f19601f830116850101925050509291505056fe6080604052607d6006553480156200001657600080fd5b5060405162001fb938038062001fb9833981016040819052620000399162000233565b818280604051806020016040528060008152506200005d81620000fe60201b60201c565b506001600160a01b0381166200008e57604051631e4fbdf760e01b8152600060048201526024015b60405180910390fd5b620000998162000110565b5050600a80546001600160a01b0319166001600160a01b038581169190911790915582166000908152600c60205260408120859055600b8054869350909190620000e590849062000274565b90915550620000f5905062000162565b5050506200040d565b60026200010c828262000341565b5050565b600580546001600160a01b038381166001600160a01b0319831681179093556040519116919082907f8be0079c531659141344cd1fd0a4f28419497f9722a3daafe3b4186f6b6457e090600090a35050565b600a546200017c906001600160a01b03168060016200017e565b565b6001600160a01b038216620001a95760405162ced3e160e81b81526000600482015260240162000085565b6001600160a01b03838116600081815260016020908152604080832094871680845294825291829020805460ff191686151590811790915591519182527f17307eab39ab6107e8899845ad3d59bd9653f200f220920489ca2b5937696c31910160405180910390a3505050565b80516001600160a01b03811681146200022e57600080fd5b919050565b6000806000606084860312156200024957600080fd5b835192506200025b6020850162000216565b91506200026b6040850162000216565b90509250925092565b808201808211156200029657634e487b7160e01b600052601160045260246000fd5b92915050565b634e487b7160e01b600052604160045260246000fd5b600181811c90821680620002c757607f821691505b602082108103620002e857634e487b7160e01b600052602260045260246000fd5b50919050565b601f8211156200033c57600081815260208120601f850160051c81016020861015620003175750805b601f850160051c820191505b81811015620003385782815560010162000323565b5050505b505050565b81516001600160401b038111156200035d576200035d6200029c565b62000375816200036e8454620002b2565b84620002ee565b602080601f831160018114620003ad5760008415620003945750858301515b600019600386901b1c1916600185901b17855562000338565b600085815260208120601f198616915b82811015620003de57888601518255948401946001909101908401620003bd565b5085821015620003fd5787850151600019600388901b60f8161c191681555b5050505050600190811b01905550565b611b9c806200041d6000396000f3fe60806040526004361061012d5760003560e01c806368d7cc48116100ab578063a22cb4651161006f578063a22cb46514610367578063bd85b03914610387578063cfd00a72146103b4578063e985e9c5146103d4578063f242432a146103f4578063f2fde38b1461041457600080fd5b806368d7cc48146102a7578063715018a6146102d4578063731133e9146102e9578063753dd464146103095780638da5cb5b1461033f57600080fd5b806318160ddd116100f257806318160ddd146102015780632eb2c2d6146102165780633ccfd60b146102365780634e1273f41461024b5780634f558e791461027857600080fd5b8062fdd58e1461013957806301ffc9a71461016c57806302fe53051461019c5780630dcf4b8f146101be5780630e89341c146101d457600080fd5b3661013457005b600080fd5b34801561014557600080fd5b50610159610154366004611325565b610434565b6040519081526020015b60405180910390f35b34801561017857600080fd5b5061018c610187366004611365565b61045c565b6040519015158152602001610163565b3480156101a857600080fd5b506101bc6101b7366004611428565b6104ac565b005b3480156101ca57600080fd5b50610159600b5481565b3480156101e057600080fd5b506101f46101ef366004611479565b6104c0565b60405161016391906114d8565b34801561020d57600080fd5b50600454610159565b34801561022257600080fd5b506101bc61023136600461159a565b610554565b34801561024257600080fd5b506101bc6105c0565b34801561025757600080fd5b5061026b610266366004611644565b6106af565b604051610163919061173f565b34801561028457600080fd5b5061018c610293366004611479565b600090815260036020526040902054151590565b3480156102b357600080fd5b506101596102c2366004611752565b600c6020526000908152604090205481565b3480156102e057600080fd5b506101bc610784565b3480156102f557600080fd5b506101bc61030436600461176d565b610798565b34801561031557600080fd5b50610159610324366004611752565b6001600160a01b03166000908152600c602052604090205490565b34801561034b57600080fd5b506005546040516001600160a01b039091168152602001610163565b34801561037357600080fd5b506101bc6103823660046117ce565b6107b2565b34801561039357600080fd5b506101596103a2366004611479565b60009081526003602052604090205490565b3480156103c057600080fd5b506101bc6103cf366004611325565b6107fc565b3480156103e057600080fd5b5061018c6103ef36600461180a565b6108dc565b34801561040057600080fd5b506101bc61040f36600461183d565b61090a565b34801561042057600080fd5b506101bc61042f366004611752565b6109c3565b6000818152602081815260408083206001600160a01b03861684529091529020545b92915050565b60006001600160e01b03198216636cdb3d1360e11b148061048d57506001600160e01b031982166303a24d0760e21b145b8061045657506301ffc9a760e01b6001600160e01b0319831614610456565b6104b46109fe565b6104bd81610a2b565b50565b6060600280546104cf906118a2565b80601f01602080910402602001604051908101604052809291908181526020018280546104fb906118a2565b80156105485780601f1061051d57610100808354040283529160200191610548565b820191906000526020600020905b81548152906001019060200180831161052b57829003601f168201915b50505050509050919050565b336001600160a01b0386168114801590610575575061057386826108dc565b155b156105ab5760405163711bec9160e11b81526001600160a01b038083166004830152871660248201526044015b60405180910390fd5b6105b88686868686610a37565b505050505050565b600047116105cd57600080fd5b336000908152600c60205260409020546106295760405162461bcd60e51b815260206004820152601b60248201527f796f752063616e206a757374207769746864726177207a65726f20000000000060448201526064016105a2565b600b54600090339061063c9060646118f2565b336000908152600c602052604090205461065690476118f2565b6106609190611909565b604051600081818185875af1925050503d806000811461069c576040519150601f19603f3d011682016040523d82523d6000602084013e6106a1565b606091505b50509050806104bd57600080fd5b606081518351146106e05781518351604051635b05999160e01b8152600481019290925260248201526044016105a2565b6000835167ffffffffffffffff8111156106fc576106fc611389565b604051908082528060200260200182016040528015610725578160200160208202803683370190505b50905060005b845181101561077c5760208082028601015161074f90602080840287010151610434565b8282815181106107615761076161192b565b602090810291909101015261077581611941565b905061072b565b509392505050565b61078c6109fe565b6107966000610a9e565b565b6107a06109fe565b6107ac84848484610af0565b50505050565b6107e4604051806040016040528060118152602001701cd95d105c1c1c9bdd985b119bdc905b1b607a1b815250610b4d565b6107ed33610b90565b6107f8338383610bd8565b5050565b600a546001600160a01b031633146108565760405162461bcd60e51b815260206004820152601d60248201527f796f752068617665206e6f7420656e6f756768207065726d6973736f6e00000060448201526064016105a2565b600081116108a65760405162461bcd60e51b815260206004820152601860248201527f706c6561736520656e746572207269676874207368617265000000000000000060448201526064016105a2565b6001600160a01b0382166000908152600c60205260408120829055600b80548392906108d390849061195a565b90915550505050565b6001600160a01b03918216600090815260016020908152604080832093909416825291909152205460ff1690565b600a546001600160a01b031633146109645760405162461bcd60e51b815260206004820152601f60248201527f796f7520646f6e74206861766520656e6f756768207065726d697373696f6e0060448201526064016105a2565b336001600160a01b0386168114801590610985575061098381826108dc565b155b156109b65760405163711bec9160e11b81526001600160a01b038083166004830152871660248201526044016105a2565b6105b88686868686610c6e565b6109cb6109fe565b6001600160a01b0381166109f557604051631e4fbdf760e01b8152600060048201526024016105a2565b6104bd81610a9e565b6005546001600160a01b031633146107965760405163118cdaa760e01b81523360048201526024016105a2565b60026107f882826119b8565b6001600160a01b038416610a6157604051632bfa23e760e11b8152600060048201526024016105a2565b6001600160a01b038516610a8a57604051626a0d4560e21b8152600060048201526024016105a2565b610a978585858585610cfc565b5050505050565b600580546001600160a01b038381166001600160a01b0319831681179093556040519116919082907f8be0079c531659141344cd1fd0a4f28419497f9722a3daafe3b4186f6b6457e090600090a35050565b6001600160a01b038416610b1a57604051632bfa23e760e11b8152600060048201526024016105a2565b604080516001808252602082018690528183019081526060820185905260808201909252906105b8600087848487610cfc565b6104bd81604051602401610b6191906114d8565b60408051601f198184030181529190526020810180516001600160e01b031663104c13eb60e21b179052610d4f565b6040516001600160a01b03821660248201526104bd9060440160408051601f198184030181529190526020810180516001600160e01b031663161765e160e11b179052610d4f565b6001600160a01b038216610c015760405162ced3e160e81b8152600060048201526024016105a2565b6001600160a01b03838116600081815260016020908152604080832094871680845294825291829020805460ff191686151590811790915591519182527f17307eab39ab6107e8899845ad3d59bd9653f200f220920489ca2b5937696c31910160405180910390a3505050565b6001600160a01b038416610c9857604051632bfa23e760e11b8152600060048201526024016105a2565b6001600160a01b038516610cc157604051626a0d4560e21b8152600060048201526024016105a2565b60408051600180825260208201869052818301908152606082018590526080820190925290610cf38787848487610cfc565b50505050505050565b610d0885858585610d58565b6001600160a01b03841615610a975782513390600103610d415760208481015190840151610d3a838989858589610d64565b50506105b8565b6105b8818787878787610e88565b6104bd81610f71565b6107ac84848484610f92565b6001600160a01b0384163b156105b85760405163f23a6e6160e01b81526001600160a01b0385169063f23a6e6190610da89089908990889088908890600401611a78565b6020604051808303816000875af1925050508015610de3575060408051601f3d908101601f19168201909252610de091810190611abd565b60015b610e4c573d808015610e11576040519150601f19603f3d011682016040523d82523d6000602084013e610e16565b606091505b508051600003610e4457604051632bfa23e760e11b81526001600160a01b03861660048201526024016105a2565b805181602001fd5b6001600160e01b0319811663f23a6e6160e01b14610cf357604051632bfa23e760e11b81526001600160a01b03861660048201526024016105a2565b6001600160a01b0384163b156105b85760405163bc197c8160e01b81526001600160a01b0385169063bc197c8190610ecc9089908990889088908890600401611ada565b6020604051808303816000875af1925050508015610f07575060408051601f3d908101601f19168201909252610f0491810190611abd565b60015b610f35573d808015610e11576040519150601f19603f3d011682016040523d82523d6000602084013e610e16565b6001600160e01b0319811663bc197c8160e01b14610cf357604051632bfa23e760e11b81526001600160a01b03861660048201526024016105a2565b60006a636f6e736f6c652e6c6f679050600080835160208501845afa505050565b610f9e848484846110ec565b6001600160a01b038416611051576000805b8351811015611037576000838281518110610fcd57610fcd61192b565b602002602001015190508060036000878581518110610fee57610fee61192b565b602002602001015181526020019081526020016000206000828254611013919061195a565b909155506110239050818461195a565b9250508061103090611941565b9050610fb0565b50806004600082825461104a919061195a565b9091555050505b6001600160a01b0383166107ac576000805b83518110156110db5760008382815181106110805761108061192b565b6020026020010151905080600360008785815181106110a1576110a161192b565b6020026020010151815260200190815260200160002060008282540392505081905550808301925050806110d490611941565b9050611063565b506004805491909103905550505050565b805182511461111b5781518151604051635b05999160e01b8152600481019290925260248201526044016105a2565b3360005b835181101561122a576020818102858101820151908501909101516001600160a01b038816156111d2576000828152602081815260408083206001600160a01b038c168452909152902054818110156111ab576040516303dee4c560e01b81526001600160a01b038a1660048201526024810182905260448101839052606481018490526084016105a2565b6000838152602081815260408083206001600160a01b038d16845290915290209082900390555b6001600160a01b03871615611217576000828152602081815260408083206001600160a01b038b1684529091528120805483929061121190849061195a565b90915550505b50508061122390611941565b905061111f565b5082516001036112ab5760208301516000906020840151909150856001600160a01b0316876001600160a01b0316846001600160a01b03167fc3d58168c5ae7397731d063d5bbf3d657854427343f4c083240f7aacaa2d0f62858560405161129c929190918252602082015260400190565b60405180910390a45050610a97565b836001600160a01b0316856001600160a01b0316826001600160a01b03167f4a39dc06d4c0dbc64b70af90fd698a233a518aa5d07e595d983b8c0526c8f7fb86866040516112fa929190611b38565b60405180910390a45050505050565b80356001600160a01b038116811461132057600080fd5b919050565b6000806040838503121561133857600080fd5b61134183611309565b946020939093013593505050565b6001600160e01b0319811681146104bd57600080fd5b60006020828403121561137757600080fd5b81356113828161134f565b9392505050565b634e487b7160e01b600052604160045260246000fd5b604051601f8201601f1916810167ffffffffffffffff811182821017156113c8576113c8611389565b604052919050565b600067ffffffffffffffff8311156113ea576113ea611389565b6113fd601f8401601f191660200161139f565b905082815283838301111561141157600080fd5b828260208301376000602084830101529392505050565b60006020828403121561143a57600080fd5b813567ffffffffffffffff81111561145157600080fd5b8201601f8101841361146257600080fd5b611471848235602084016113d0565b949350505050565b60006020828403121561148b57600080fd5b5035919050565b6000815180845260005b818110156114b85760208185018101518683018201520161149c565b506000602082860101526020601f19601f83011685010191505092915050565b6020815260006113826020830184611492565b600067ffffffffffffffff82111561150557611505611389565b5060051b60200190565b600082601f83011261152057600080fd5b81356020611535611530836114eb565b61139f565b82815260059290921b8401810191818101908684111561155457600080fd5b8286015b8481101561156f5780358352918301918301611558565b509695505050505050565b600082601f83011261158b57600080fd5b611382838335602085016113d0565b600080600080600060a086880312156115b257600080fd5b6115bb86611309565b94506115c960208701611309565b9350604086013567ffffffffffffffff808211156115e657600080fd5b6115f289838a0161150f565b9450606088013591508082111561160857600080fd5b61161489838a0161150f565b9350608088013591508082111561162a57600080fd5b506116378882890161157a565b9150509295509295909350565b6000806040838503121561165757600080fd5b823567ffffffffffffffff8082111561166f57600080fd5b818501915085601f83011261168357600080fd5b81356020611693611530836114eb565b82815260059290921b840181019181810190898411156116b257600080fd5b948201945b838610156116d7576116c886611309565b825294820194908201906116b7565b965050860135925050808211156116ed57600080fd5b506116fa8582860161150f565b9150509250929050565b600081518084526020808501945080840160005b8381101561173457815187529582019590820190600101611718565b509495945050505050565b6020815260006113826020830184611704565b60006020828403121561176457600080fd5b61138282611309565b6000806000806080858703121561178357600080fd5b61178c85611309565b93506020850135925060408501359150606085013567ffffffffffffffff8111156117b657600080fd5b6117c28782880161157a565b91505092959194509250565b600080604083850312156117e157600080fd5b6117ea83611309565b9150602083013580151581146117ff57600080fd5b809150509250929050565b6000806040838503121561181d57600080fd5b61182683611309565b915061183460208401611309565b90509250929050565b600080600080600060a0868803121561185557600080fd5b61185e86611309565b945061186c60208701611309565b93506040860135925060608601359150608086013567ffffffffffffffff81111561189657600080fd5b6116378882890161157a565b600181811c908216806118b657607f821691505b6020821081036118d657634e487b7160e01b600052602260045260246000fd5b50919050565b634e487b7160e01b600052601160045260246000fd5b8082028115828204841417610456576104566118dc565b60008261192657634e487b7160e01b600052601260045260246000fd5b500490565b634e487b7160e01b600052603260045260246000fd5b600060018201611953576119536118dc565b5060010190565b80820180821115610456576104566118dc565b601f8211156119b357600081815260208120601f850160051c810160208610156119945750805b601f850160051c820191505b818110156105b8578281556001016119a0565b505050565b815167ffffffffffffffff8111156119d2576119d2611389565b6119e6816119e084546118a2565b8461196d565b602080601f831160018114611a1b5760008415611a035750858301515b600019600386901b1c1916600185901b1785556105b8565b600085815260208120601f198616915b82811015611a4a57888601518255948401946001909101908401611a2b565b5085821015611a685787850151600019600388901b60f8161c191681555b5050505050600190811b01905550565b6001600160a01b03868116825285166020820152604081018490526060810183905260a060808201819052600090611ab290830184611492565b979650505050505050565b600060208284031215611acf57600080fd5b81516113828161134f565b6001600160a01b0386811682528516602082015260a060408201819052600090611b0690830186611704565b8281036060840152611b188186611704565b90508281036080840152611b2c8185611492565b98975050505050505050565b604081526000611b4b6040830185611704565b8281036020840152611b5d8185611704565b9594505050505056fea2646970667358221220382c7223239a1cebdd58aa3f4c6e0a04aa475a57c44512c3b79ecdcea811ba2164736f6c63430008140033a26469706673582212202924ad2c9a5df8cf773ffa1ef27e22d78695732ed1863dbcc02d9cc20e835d9064736f6c63430008140033",
  "linkReferences": {},
  "deployedLinkReferences": {}
}