{
  "_format": "hh-sol-artifact-1",
  "contractName": "NFTMarketplace",
  "sourceName": "contracts/Market.sol",
  "abi": [
    {
      "inputs": [],
      "stateMutability": "nonpayable",
      "type": "constructor"
    },
    {
      "inputs": [
        {
          "internalType": "address",
          "name": "owner",
          "type": "address"
        }
      ],
      "name": "OwnableInvalidOwner",
      "type": "error"
    },
    {
      "inputs": [
        {
          "internalType": "address",
          "name": "account",
          "type": "address"
        }
      ],
      "name": "OwnableUnauthorizedAccount",
      "type": "error"
    },
    {
      "inputs": [],
      "name": "ReentrancyGuardReentrantCall",
      "type": "error"
    },
    {
      "anonymous": false,
      "inputs": [
        {
          "indexed": true,
          "internalType": "address",
          "name": "previousOwner",
          "type": "address"
        },
        {
          "indexed": true,
          "internalType": "address",
          "name": "newOwner",
          "type": "address"
        }
      ],
      "name": "OwnershipTransferred",
      "type": "event"
    },
    {
      "anonymous": false,
      "inputs": [
        {
          "indexed": true,
          "internalType": "address",
          "name": "nftAddress",
          "type": "address"
        },
        {
          "indexed": true,
          "internalType": "address",
          "name": "seller",
          "type": "address"
        },
        {
          "indexed": true,
          "internalType": "uint256",
          "name": "tokenId",
          "type": "uint256"
        },
        {
          "indexed": false,
          "internalType": "uint256",
          "name": "amount",
          "type": "uint256"
        },
        {
          "indexed": false,
          "internalType": "uint256",
          "name": "pricePerToken",
          "type": "uint256"
        }
      ],
      "name": "TokenListed1155",
      "type": "event"
    },
    {
      "anonymous": false,
      "inputs": [
        {
          "indexed": false,
          "internalType": "address",
          "name": "buyer",
          "type": "address"
        },
        {
          "indexed": false,
          "internalType": "uint256",
          "name": "tokenId",
          "type": "uint256"
        },
        {
          "indexed": false,
          "internalType": "uint256",
          "name": "amount",
          "type": "uint256"
        },
        {
          "indexed": false,
          "internalType": "uint256",
          "name": "pricePerToken",
          "type": "uint256"
        }
      ],
      "name": "TokenSold1155",
      "type": "event"
    },
    {
      "anonymous": false,
      "inputs": [
        {
          "indexed": true,
          "internalType": "address",
          "name": "nftAddress",
          "type": "address"
        },
        {
          "indexed": true,
          "internalType": "address",
          "name": "contributerAddress",
          "type": "address"
        },
        {
          "indexed": false,
          "internalType": "uint256",
          "name": "contributionAmount",
          "type": "uint256"
        }
      ],
      "name": "newContributionAdded",
      "type": "event"
    },
    {
      "inputs": [
        {
          "internalType": "address",
          "name": "",
          "type": "address"
        },
        {
          "internalType": "uint256",
          "name": "",
          "type": "uint256"
        }
      ],
      "name": "NFTs",
      "outputs": [
        {
          "internalType": "address",
          "name": "nftAddress",
          "type": "address"
        },
        {
          "internalType": "address",
          "name": "seller",
          "type": "address"
        },
        {
          "internalType": "uint256",
          "name": "tokenId",
          "type": "uint256"
        },
        {
          "internalType": "uint256",
          "name": "price",
          "type": "uint256"
        },
        {
          "internalType": "uint256",
          "name": "amount",
          "type": "uint256"
        }
      ],
      "stateMutability": "view",
      "type": "function"
    },
    {
      "inputs": [],
      "name": "_listingIds1155",
      "outputs": [
        {
          "internalType": "uint256",
          "name": "_value",
          "type": "uint256"
        }
      ],
      "stateMutability": "view",
      "type": "function"
    },
    {
      "inputs": [
        {
          "internalType": "address",
          "name": "nftAddress",
          "type": "address"
        },
        {
          "internalType": "uint128",
          "name": "price",
          "type": "uint128"
        },
        {
          "internalType": "uint128",
          "name": "amount",
          "type": "uint128"
        }
      ],
      "name": "addNFT",
      "outputs": [],
      "stateMutability": "nonpayable",
      "type": "function"
    },
    {
      "inputs": [
        {
          "internalType": "address",
          "name": "nftAddress",
          "type": "address"
        },
        {
          "internalType": "address",
          "name": "userAddress",
          "type": "address"
        },
        {
          "internalType": "uint256",
          "name": "contribution",
          "type": "uint256"
        }
      ],
      "name": "addUsersContributions",
      "outputs": [],
      "stateMutability": "nonpayable",
      "type": "function"
    },
    {
      "inputs": [
        {
          "internalType": "address",
          "name": "",
          "type": "address"
        }
      ],
      "name": "listingNFT",
      "outputs": [
        {
          "internalType": "uint256",
          "name": "",
          "type": "uint256"
        }
      ],
      "stateMutability": "view",
      "type": "function"
    },
    {
      "inputs": [
        {
          "internalType": "uint256",
          "name": "",
          "type": "uint256"
        }
      ],
      "name": "listingNFTAddress",
      "outputs": [
        {
          "internalType": "address",
          "name": "",
          "type": "address"
        }
      ],
      "stateMutability": "view",
      "type": "function"
    },
    {
      "inputs": [
        {
          "internalType": "string",
          "name": "uri",
          "type": "string"
        },
        {
          "internalType": "uint256",
          "name": "ownerContribution",
          "type": "uint256"
        },
        {
          "internalType": "uint256",
          "name": "price",
          "type": "uint256"
        },
        {
          "internalType": "uint256",
          "name": "amount",
          "type": "uint256"
        }
      ],
      "name": "mintNFT",
      "outputs": [],
      "stateMutability": "nonpayable",
      "type": "function"
    },
    {
      "inputs": [],
      "name": "owner",
      "outputs": [
        {
          "internalType": "address",
          "name": "",
          "type": "address"
        }
      ],
      "stateMutability": "view",
      "type": "function"
    },
    {
      "inputs": [
        {
          "internalType": "address",
          "name": "nftAddress",
          "type": "address"
        },
        {
          "internalType": "uint256",
          "name": "tokenId",
          "type": "uint256"
        },
        {
          "internalType": "uint256",
          "name": "amount",
          "type": "uint256"
        }
      ],
      "name": "purchaseNFT",
      "outputs": [],
      "stateMutability": "payable",
      "type": "function"
    },
    {
      "inputs": [],
      "name": "renounceOwnership",
      "outputs": [],
      "stateMutability": "nonpayable",
      "type": "function"
    },
    {
      "inputs": [
        {
          "internalType": "address",
          "name": "nftAddress",
          "type": "address"
        },
        {
          "internalType": "address",
          "name": "to",
          "type": "address"
        },
        {
          "internalType": "uint256",
          "name": "tokenId",
          "type": "uint256"
        },
        {
          "internalType": "uint256",
          "name": "amount",
          "type": "uint256"
        }
      ],
      "name": "transferNFT",
      "outputs": [],
      "stateMutability": "nonpayable",
      "type": "function"
    },
    {
      "inputs": [
        {
          "internalType": "address",
          "name": "newOwner",
          "type": "address"
        }
      ],
      "name": "transferOwnership",
      "outputs": [],
      "stateMutability": "nonpayable",
      "type": "function"
    },
    {
      "inputs": [],
      "name": "withdraw",
      "outputs": [],
      "stateMutability": "nonpayable",
      "type": "function"
    },
    {
      "stateMutability": "payable",
      "type": "receive"
    }
  ],
  "bytecode": "0x608060405234801561001057600080fd5b50338061003757604051631e4fbdf760e01b81526000600482015260240160405180910390fd5b6100408161004a565b506001805561009a565b600080546001600160a01b038381166001600160a01b0319831681178455604051919092169283917f8be0079c531659141344cd1fd0a4f28419497f9722a3daafe3b4186f6b6457e09190a35050565b613272806100a96000396000f3fe608060405260043610620000d65760003560e01c80636656bdb3116200008957806385a9fd59116200006057806385a9fd59146200029d578063890c3e8114620002f05780638da5cb5b1462000307578063f2fde38b146200032757600080fd5b80636656bdb31462000247578063715018a6146200026057806371950477146200027857600080fd5b80630372fb3f14620000e357806303ff52b7146200010a5780632c08abab146200012f57806339a3f4a114620001ca5780633ccfd60b14620001ef5780634524cea2146200020757600080fd5b36620000de57005b600080fd5b348015620000f057600080fd5b50620001086200010236600462000ff1565b6200034c565b005b3480156200011757600080fd5b50620001086200012936600462001032565b62000403565b3480156200013c57600080fd5b50620001926200014e36600462001079565b60026020818152600093845260408085209091529183529120805460018201549282015460038301546004909301546001600160a01b039283169490921692909185565b604080516001600160a01b039687168152959094166020860152928401919091526060830152608082015260a0015b60405180910390f35b348015620001d757600080fd5b5062000108620001e9366004620010bc565b62000537565b348015620001fc57600080fd5b506200010862000778565b3480156200021457600080fd5b5062000238620002263660046200118b565b60036020526000908152604090205481565b604051908152602001620001c1565b3480156200025457600080fd5b50600554620002389081565b3480156200026d57600080fd5b506200010862000843565b3480156200028557600080fd5b506200010862000297366004620011c8565b62000859565b348015620002aa57600080fd5b50620002d7620002bc36600462001212565b6004602052600090815260409020546001600160a01b031681565b6040516001600160a01b039091168152602001620001c1565b62000108620003013660046200122c565b62000a7e565b3480156200031457600080fd5b506000546001600160a01b0316620002d7565b3480156200033457600080fd5b5062000108620003463660046200118b565b62000e0e565b6040516367e8053960e11b81526001600160a01b0383811660048301526024820183905284169063cfd00a7290604401600060405180830381600087803b1580156200039757600080fd5b505af1158015620003ac573d6000803e3d6000fd5b50505050816001600160a01b0316836001600160a01b03167f34d7c16374970ff7687c53d0d286619dab245ae88504cc395ed4d40572387f0483604051620003f691815260200190565b60405180910390a3505050565b604051627eeac760e11b81523360048201526024810183905281906001600160a01b0386169062fdd58e90604401602060405180830381865afa1580156200044f573d6000803e3d6000fd5b505050506040513d601f19601f8201168201806040525081019062000475919062001262565b1015620004c95760405162461bcd60e51b815260206004820152601e60248201527f796f7520646f6e742774206861766520656e6f75676820746f6b656e7321000060448201526064015b60405180910390fd5b604051637921219560e11b81526001600160a01b0385169063f242432a90620004fd9033908790879087906004016200127c565b600060405180830381600087803b1580156200051857600080fd5b505af11580156200052d573d6000803e3d6000fd5b5050505050505050565b60008330336040516200054a9062000fc6565b9283526001600160a01b039182166020840152166040820152606001604051809103906000f08015801562000583573d6000803e3d6000fd5b506040516302fe530560e01b81529091506001600160a01b038216906302fe530590620005b5908890600401620012b4565b600060405180830381600087803b158015620005d057600080fd5b505af1158015620005e5573d6000803e3d6000fd5b505060405163731133e960e01b8152336004820152600060248201819052604482018690526080606483015260848201526001600160a01b038416925063731133e9915060a401600060405180830381600087803b1580156200064757600080fd5b505af11580156200065c573d6000803e3d6000fd5b50506040805160a0810182526001600160a01b038581168083523360208085018281526000868801818152606088018e8152608089018e815287845260028087528b852085805287528b85209a518b54908b166001600160a01b0319918216178c55955160018c01805491909b1696169590951790985590519288019290925590516003870155935160049095019490945584518a8152938401899052919550909350917f34fd558d0100851fb5598450c87f91912754be5e15ee4c7c85bc31c2fdd5ab28910160405180910390a46001600160a01b0381166000818152600360209081526040808320839055600580548452600490925290912080546001600160a01b031916909217909155805460010190555b5050505050565b6200078262000e52565b6200078c62000e81565b60004711620007de5760405162461bcd60e51b815260206004820152601760248201527f796f7520686176656e277420616e792062616c616e63650000000000000000006044820152606401620004c0565b604051600090339047908381818185875af1925050503d806000811462000822576040519150601f19603f3d011682016040523d82523d6000602084013e62000827565b606091505b50509050806200083657600080fd5b506200084160018055565b565b6200084d62000e52565b62000841600062000eac565b6001600160a01b038381166000908152600260209081526040808320838052909152902060010154163314620008d25760405162461bcd60e51b815260206004820152601b60248201527f6f6e6c79206f776e65722063616e206d696e74206e6577206e667400000000006044820152606401620004c0565b6001600160a01b038316600090815260036020526040812054849190620008fb9060016200131a565b60405163731133e960e01b8152336004820152602481018290526001600160801b038516604482015260806064820152600060848201529091506001600160a01b0383169063731133e99060a401600060405180830381600087803b1580156200096457600080fd5b505af115801562000979573d6000803e3d6000fd5b50506040805160a0810182526001600160a01b038087168083523360208085018281528587018a81526001600160801b03808f1660608901908152908e1660808901908152600087815260028087528b82208f83529096528a9020985189549089166001600160a01b0319918216178a55935160018a0180549190991694169390931790965551918601919091559251600385015591516004909301929092559151859450919250907f34fd558d0100851fb5598450c87f91912754be5e15ee4c7c85bc31c2fdd5ab289062000a6790899089906001600160801b0392831681529116602082015260400190565b60405180910390a462000771600580546001019055565b62000a8862000e81565b6001600160a01b03831662000ae05760405162461bcd60e51b815260206004820152601c60248201527f706c6561736520656e74657220636f72726563742061646472657373000000006044820152606401620004c0565b6001600160a01b038084166000908152600260208181526040808420878552825292839020835160a0810185528154861681526001820154909516918501829052918201549284019290925260038101546060840152600401546080830152330362000b8f5760405162461bcd60e51b815260206004820152601a60248201527f43616e27742062757920796f7572206f776e20746f6b656e73210000000000006044820152606401620004c0565b818160600151670de0b6b3a764000062000baa919062001336565b62000bb6919062001336565b34101562000bfd5760405162461bcd60e51b8152602060048201526013602482015272496e73756666696369656e742066756e64732160681b6044820152606401620004c0565b80516020820151604051627eeac760e11b81526001600160a01b039182166004820152602481018690528492919091169062fdd58e90604401602060405180830381865afa15801562000c54573d6000803e3d6000fd5b505050506040513d601f19601f8201168201806040525081019062000c7a919062001262565b101562000cd55760405162461bcd60e51b815260206004820152602260248201527f53656c6c657220646f65736e2774206861766520656e6f75676820746f6b656e604482015261732160f01b6064820152608401620004c0565b80516000906001600160a01b031662000cf060643462001350565b62000cfd90606262001336565b604051600081818185875af1925050503d806000811462000d3b576040519150601f19603f3d011682016040523d82523d6000602084013e62000d40565b606091505b505090508062000d9f5760405162461bcd60e51b8152602060048201526024808201527f556e61626c6520746f207472616e736665722066756e647320746f207265636960448201526332bb32b960e11b6064820152608401620004c0565b62000db285836020015133878762000efc565b6060808301516040805133815260208101889052908101869052918201527f096529233583f455cd83dd143673cb9355f55b1f4946a34934970695ddda99529060800160405180910390a1505062000e0960018055565b505050565b62000e1862000e52565b6001600160a01b03811662000e4457604051631e4fbdf760e01b815260006004820152602401620004c0565b62000e4f8162000eac565b50565b6000546001600160a01b03163314620008415760405163118cdaa760e01b8152336004820152602401620004c0565b60026001540362000ea557604051633ee5aeb560e01b815260040160405180910390fd5b6002600155565b600080546001600160a01b038381166001600160a01b0319831681178455604051919092169283917f8be0079c531659141344cd1fd0a4f28419497f9722a3daafe3b4186f6b6457e09190a35050565b6001600160a01b03851662000f545760405162461bcd60e51b815260206004820152601c60248201527f706c6561736520656e74657220636f72726563742061646472657373000000006044820152606401620004c0565b604051637921219560e11b815285906001600160a01b0382169063f242432a9062000f8a9088908890889088906004016200127c565b600060405180830381600087803b15801562000fa557600080fd5b505af115801562000fba573d6000803e3d6000fd5b50505050505050505050565b611ec9806200137483390190565b80356001600160a01b038116811462000fec57600080fd5b919050565b6000806000606084860312156200100757600080fd5b620010128462000fd4565b9250620010226020850162000fd4565b9150604084013590509250925092565b600080600080608085870312156200104957600080fd5b620010548562000fd4565b9350620010646020860162000fd4565b93969395505050506040820135916060013590565b600080604083850312156200108d57600080fd5b620010988362000fd4565b946020939093013593505050565b634e487b7160e01b600052604160045260246000fd5b60008060008060808587031215620010d357600080fd5b843567ffffffffffffffff80821115620010ec57600080fd5b818701915087601f8301126200110157600080fd5b813581811115620011165762001116620010a6565b604051601f8201601f19908116603f01168101908382118183101715620011415762001141620010a6565b816040528281528a60208487010111156200115b57600080fd5b82602086016020830137600060209382018401529a91890135995050604088013597606001359650945050505050565b6000602082840312156200119e57600080fd5b620011a98262000fd4565b9392505050565b80356001600160801b038116811462000fec57600080fd5b600080600060608486031215620011de57600080fd5b620011e98462000fd4565b9250620011f960208501620011b0565b91506200120960408501620011b0565b90509250925092565b6000602082840312156200122557600080fd5b5035919050565b6000806000606084860312156200124257600080fd5b6200124d8462000fd4565b95602085013595506040909401359392505050565b6000602082840312156200127557600080fd5b5051919050565b6001600160a01b0394851681529290931660208301526040820152606081019190915260a06080820181905260009082015260c00190565b600060208083528351808285015260005b81811015620012e357858101830151858201604001528201620012c5565b506000604082860101526040601f19601f8301168501019250505092915050565b634e487b7160e01b600052601160045260246000fd5b8082018082111562001330576200133062001304565b92915050565b808202811582820484141762001330576200133062001304565b6000826200136e57634e487b7160e01b600052601260045260246000fd5b50049056fe6080604052607d6006553480156200001657600080fd5b5060405162001ec938038062001ec9833981016040819052620000399162000233565b818280604051806020016040528060008152506200005d81620000fe60201b60201c565b506001600160a01b0381166200008e57604051631e4fbdf760e01b8152600060048201526024015b60405180910390fd5b620000998162000110565b5050600a80546001600160a01b0319166001600160a01b038581169190911790915582166000908152600c60205260408120859055600b8054869350909190620000e590849062000274565b90915550620000f5905062000162565b5050506200040d565b60026200010c828262000341565b5050565b600580546001600160a01b038381166001600160a01b0319831681179093556040519116919082907f8be0079c531659141344cd1fd0a4f28419497f9722a3daafe3b4186f6b6457e090600090a35050565b600a546200017c906001600160a01b03168060016200017e565b565b6001600160a01b038216620001a95760405162ced3e160e81b81526000600482015260240162000085565b6001600160a01b03838116600081815260016020908152604080832094871680845294825291829020805460ff191686151590811790915591519182527f17307eab39ab6107e8899845ad3d59bd9653f200f220920489ca2b5937696c31910160405180910390a3505050565b80516001600160a01b03811681146200022e57600080fd5b919050565b6000806000606084860312156200024957600080fd5b835192506200025b6020850162000216565b91506200026b6040850162000216565b90509250925092565b808201808211156200029657634e487b7160e01b600052601160045260246000fd5b92915050565b634e487b7160e01b600052604160045260246000fd5b600181811c90821680620002c757607f821691505b602082108103620002e857634e487b7160e01b600052602260045260246000fd5b50919050565b601f8211156200033c57600081815260208120601f850160051c81016020861015620003175750805b601f850160051c820191505b81811015620003385782815560010162000323565b5050505b505050565b81516001600160401b038111156200035d576200035d6200029c565b62000375816200036e8454620002b2565b84620002ee565b602080601f831160018114620003ad5760008415620003945750858301515b600019600386901b1c1916600185901b17855562000338565b600085815260208120601f198616915b82811015620003de57888601518255948401946001909101908401620003bd565b5085821015620003fd5787850151600019600388901b60f8161c191681555b5050505050600190811b01905550565b611aac806200041d6000396000f3fe60806040526004361061012d5760003560e01c806368d7cc48116100ab578063a22cb4651161006f578063a22cb46514610367578063bd85b03914610387578063cfd00a72146103b4578063e985e9c5146103d4578063f242432a146103f4578063f2fde38b1461041457600080fd5b806368d7cc48146102a7578063715018a6146102d4578063731133e9146102e9578063753dd464146103095780638da5cb5b1461033f57600080fd5b806318160ddd116100f257806318160ddd146102015780632eb2c2d6146102165780633ccfd60b146102365780634e1273f41461024b5780634f558e791461027857600080fd5b8062fdd58e1461013957806301ffc9a71461016c57806302fe53051461019c5780630dcf4b8f146101be5780630e89341c146101d457600080fd5b3661013457005b600080fd5b34801561014557600080fd5b50610159610154366004611235565b610434565b6040519081526020015b60405180910390f35b34801561017857600080fd5b5061018c610187366004611275565b61045c565b6040519015158152602001610163565b3480156101a857600080fd5b506101bc6101b7366004611338565b6104ac565b005b3480156101ca57600080fd5b50610159600b5481565b3480156101e057600080fd5b506101f46101ef366004611389565b6104c0565b60405161016391906113e8565b34801561020d57600080fd5b50600454610159565b34801561022257600080fd5b506101bc6102313660046114aa565b610554565b34801561024257600080fd5b506101bc6105c0565b34801561025757600080fd5b5061026b610266366004611554565b6106af565b604051610163919061164f565b34801561028457600080fd5b5061018c610293366004611389565b600090815260036020526040902054151590565b3480156102b357600080fd5b506101596102c2366004611662565b600c6020526000908152604090205481565b3480156102e057600080fd5b506101bc610784565b3480156102f557600080fd5b506101bc61030436600461167d565b610798565b34801561031557600080fd5b50610159610324366004611662565b6001600160a01b03166000908152600c602052604090205490565b34801561034b57600080fd5b506005546040516001600160a01b039091168152602001610163565b34801561037357600080fd5b506101bc6103823660046116de565b6107b2565b34801561039357600080fd5b506101596103a2366004611389565b60009081526003602052604090205490565b3480156103c057600080fd5b506101bc6103cf366004611235565b6107c1565b3480156103e057600080fd5b5061018c6103ef36600461171a565b6108a1565b34801561040057600080fd5b506101bc61040f36600461174d565b6108cf565b34801561042057600080fd5b506101bc61042f366004611662565b610988565b6000818152602081815260408083206001600160a01b03861684529091529020545b92915050565b60006001600160e01b03198216636cdb3d1360e11b148061048d57506001600160e01b031982166303a24d0760e21b145b8061045657506301ffc9a760e01b6001600160e01b0319831614610456565b6104b46109c3565b6104bd816109f0565b50565b6060600280546104cf906117b2565b80601f01602080910402602001604051908101604052809291908181526020018280546104fb906117b2565b80156105485780601f1061051d57610100808354040283529160200191610548565b820191906000526020600020905b81548152906001019060200180831161052b57829003601f168201915b50505050509050919050565b336001600160a01b0386168114801590610575575061057386826108a1565b155b156105ab5760405163711bec9160e11b81526001600160a01b038083166004830152871660248201526044015b60405180910390fd5b6105b886868686866109fc565b505050505050565b600047116105cd57600080fd5b336000908152600c60205260409020546106295760405162461bcd60e51b815260206004820152601b60248201527f796f752063616e206a757374207769746864726177207a65726f20000000000060448201526064016105a2565b600b54600090339061063c906064611802565b336000908152600c60205260409020546106569047611802565b6106609190611819565b604051600081818185875af1925050503d806000811461069c576040519150601f19603f3d011682016040523d82523d6000602084013e6106a1565b606091505b50509050806104bd57600080fd5b606081518351146106e05781518351604051635b05999160e01b8152600481019290925260248201526044016105a2565b6000835167ffffffffffffffff8111156106fc576106fc611299565b604051908082528060200260200182016040528015610725578160200160208202803683370190505b50905060005b845181101561077c5760208082028601015161074f90602080840287010151610434565b8282815181106107615761076161183b565b602090810291909101015261077581611851565b905061072b565b509392505050565b61078c6109c3565b6107966000610a63565b565b6107a06109c3565b6107ac84848484610ab5565b50505050565b6107bd338383610b12565b5050565b600a546001600160a01b0316331461081b5760405162461bcd60e51b815260206004820152601d60248201527f796f752068617665206e6f7420656e6f756768207065726d6973736f6e00000060448201526064016105a2565b6000811161086b5760405162461bcd60e51b815260206004820152601860248201527f706c6561736520656e746572207269676874207368617265000000000000000060448201526064016105a2565b6001600160a01b0382166000908152600c60205260408120829055600b805483929061089890849061186a565b90915550505050565b6001600160a01b03918216600090815260016020908152604080832093909416825291909152205460ff1690565b600a546001600160a01b031633146109295760405162461bcd60e51b815260206004820152601f60248201527f796f7520646f6e74206861766520656e6f756768207065726d697373696f6e0060448201526064016105a2565b336001600160a01b038616811480159061094a575061094881826108a1565b155b1561097b5760405163711bec9160e11b81526001600160a01b038083166004830152871660248201526044016105a2565b6105b88686868686610ba8565b6109906109c3565b6001600160a01b0381166109ba57604051631e4fbdf760e01b8152600060048201526024016105a2565b6104bd81610a63565b6005546001600160a01b031633146107965760405163118cdaa760e01b81523360048201526024016105a2565b60026107bd82826118c8565b6001600160a01b038416610a2657604051632bfa23e760e11b8152600060048201526024016105a2565b6001600160a01b038516610a4f57604051626a0d4560e21b8152600060048201526024016105a2565b610a5c8585858585610c36565b5050505050565b600580546001600160a01b038381166001600160a01b0319831681179093556040519116919082907f8be0079c531659141344cd1fd0a4f28419497f9722a3daafe3b4186f6b6457e090600090a35050565b6001600160a01b038416610adf57604051632bfa23e760e11b8152600060048201526024016105a2565b604080516001808252602082018690528183019081526060820185905260808201909252906105b8600087848487610c36565b6001600160a01b038216610b3b5760405162ced3e160e81b8152600060048201526024016105a2565b6001600160a01b03838116600081815260016020908152604080832094871680845294825291829020805460ff191686151590811790915591519182527f17307eab39ab6107e8899845ad3d59bd9653f200f220920489ca2b5937696c31910160405180910390a3505050565b6001600160a01b038416610bd257604051632bfa23e760e11b8152600060048201526024016105a2565b6001600160a01b038516610bfb57604051626a0d4560e21b8152600060048201526024016105a2565b60408051600180825260208201869052818301908152606082018590526080820190925290610c2d8787848487610c36565b50505050505050565b610c4285858585610c89565b6001600160a01b03841615610a5c5782513390600103610c7b5760208481015190840151610c74838989858589610c95565b50506105b8565b6105b8818787878787610db9565b6107ac84848484610ea2565b6001600160a01b0384163b156105b85760405163f23a6e6160e01b81526001600160a01b0385169063f23a6e6190610cd99089908990889088908890600401611988565b6020604051808303816000875af1925050508015610d14575060408051601f3d908101601f19168201909252610d11918101906119cd565b60015b610d7d573d808015610d42576040519150601f19603f3d011682016040523d82523d6000602084013e610d47565b606091505b508051600003610d7557604051632bfa23e760e11b81526001600160a01b03861660048201526024016105a2565b805181602001fd5b6001600160e01b0319811663f23a6e6160e01b14610c2d57604051632bfa23e760e11b81526001600160a01b03861660048201526024016105a2565b6001600160a01b0384163b156105b85760405163bc197c8160e01b81526001600160a01b0385169063bc197c8190610dfd90899089908890889088906004016119ea565b6020604051808303816000875af1925050508015610e38575060408051601f3d908101601f19168201909252610e35918101906119cd565b60015b610e66573d808015610d42576040519150601f19603f3d011682016040523d82523d6000602084013e610d47565b6001600160e01b0319811663bc197c8160e01b14610c2d57604051632bfa23e760e11b81526001600160a01b03861660048201526024016105a2565b610eae84848484610ffc565b6001600160a01b038416610f61576000805b8351811015610f47576000838281518110610edd57610edd61183b565b602002602001015190508060036000878581518110610efe57610efe61183b565b602002602001015181526020019081526020016000206000828254610f23919061186a565b90915550610f339050818461186a565b92505080610f4090611851565b9050610ec0565b508060046000828254610f5a919061186a565b9091555050505b6001600160a01b0383166107ac576000805b8351811015610feb576000838281518110610f9057610f9061183b565b602002602001015190508060036000878581518110610fb157610fb161183b565b602002602001015181526020019081526020016000206000828254039250508190555080830192505080610fe490611851565b9050610f73565b506004805491909103905550505050565b805182511461102b5781518151604051635b05999160e01b8152600481019290925260248201526044016105a2565b3360005b835181101561113a576020818102858101820151908501909101516001600160a01b038816156110e2576000828152602081815260408083206001600160a01b038c168452909152902054818110156110bb576040516303dee4c560e01b81526001600160a01b038a1660048201526024810182905260448101839052606481018490526084016105a2565b6000838152602081815260408083206001600160a01b038d16845290915290209082900390555b6001600160a01b03871615611127576000828152602081815260408083206001600160a01b038b1684529091528120805483929061112190849061186a565b90915550505b50508061113390611851565b905061102f565b5082516001036111bb5760208301516000906020840151909150856001600160a01b0316876001600160a01b0316846001600160a01b03167fc3d58168c5ae7397731d063d5bbf3d657854427343f4c083240f7aacaa2d0f6285856040516111ac929190918252602082015260400190565b60405180910390a45050610a5c565b836001600160a01b0316856001600160a01b0316826001600160a01b03167f4a39dc06d4c0dbc64b70af90fd698a233a518aa5d07e595d983b8c0526c8f7fb868660405161120a929190611a48565b60405180910390a45050505050565b80356001600160a01b038116811461123057600080fd5b919050565b6000806040838503121561124857600080fd5b61125183611219565b946020939093013593505050565b6001600160e01b0319811681146104bd57600080fd5b60006020828403121561128757600080fd5b81356112928161125f565b9392505050565b634e487b7160e01b600052604160045260246000fd5b604051601f8201601f1916810167ffffffffffffffff811182821017156112d8576112d8611299565b604052919050565b600067ffffffffffffffff8311156112fa576112fa611299565b61130d601f8401601f19166020016112af565b905082815283838301111561132157600080fd5b828260208301376000602084830101529392505050565b60006020828403121561134a57600080fd5b813567ffffffffffffffff81111561136157600080fd5b8201601f8101841361137257600080fd5b611381848235602084016112e0565b949350505050565b60006020828403121561139b57600080fd5b5035919050565b6000815180845260005b818110156113c8576020818501810151868301820152016113ac565b506000602082860101526020601f19601f83011685010191505092915050565b60208152600061129260208301846113a2565b600067ffffffffffffffff82111561141557611415611299565b5060051b60200190565b600082601f83011261143057600080fd5b81356020611445611440836113fb565b6112af565b82815260059290921b8401810191818101908684111561146457600080fd5b8286015b8481101561147f5780358352918301918301611468565b509695505050505050565b600082601f83011261149b57600080fd5b611292838335602085016112e0565b600080600080600060a086880312156114c257600080fd5b6114cb86611219565b94506114d960208701611219565b9350604086013567ffffffffffffffff808211156114f657600080fd5b61150289838a0161141f565b9450606088013591508082111561151857600080fd5b61152489838a0161141f565b9350608088013591508082111561153a57600080fd5b506115478882890161148a565b9150509295509295909350565b6000806040838503121561156757600080fd5b823567ffffffffffffffff8082111561157f57600080fd5b818501915085601f83011261159357600080fd5b813560206115a3611440836113fb565b82815260059290921b840181019181810190898411156115c257600080fd5b948201945b838610156115e7576115d886611219565b825294820194908201906115c7565b965050860135925050808211156115fd57600080fd5b5061160a8582860161141f565b9150509250929050565b600081518084526020808501945080840160005b8381101561164457815187529582019590820190600101611628565b509495945050505050565b6020815260006112926020830184611614565b60006020828403121561167457600080fd5b61129282611219565b6000806000806080858703121561169357600080fd5b61169c85611219565b93506020850135925060408501359150606085013567ffffffffffffffff8111156116c657600080fd5b6116d28782880161148a565b91505092959194509250565b600080604083850312156116f157600080fd5b6116fa83611219565b91506020830135801515811461170f57600080fd5b809150509250929050565b6000806040838503121561172d57600080fd5b61173683611219565b915061174460208401611219565b90509250929050565b600080600080600060a0868803121561176557600080fd5b61176e86611219565b945061177c60208701611219565b93506040860135925060608601359150608086013567ffffffffffffffff8111156117a657600080fd5b6115478882890161148a565b600181811c908216806117c657607f821691505b6020821081036117e657634e487b7160e01b600052602260045260246000fd5b50919050565b634e487b7160e01b600052601160045260246000fd5b8082028115828204841417610456576104566117ec565b60008261183657634e487b7160e01b600052601260045260246000fd5b500490565b634e487b7160e01b600052603260045260246000fd5b600060018201611863576118636117ec565b5060010190565b80820180821115610456576104566117ec565b601f8211156118c357600081815260208120601f850160051c810160208610156118a45750805b601f850160051c820191505b818110156105b8578281556001016118b0565b505050565b815167ffffffffffffffff8111156118e2576118e2611299565b6118f6816118f084546117b2565b8461187d565b602080601f83116001811461192b57600084156119135750858301515b600019600386901b1c1916600185901b1785556105b8565b600085815260208120601f198616915b8281101561195a5788860151825594840194600190910190840161193b565b50858210156119785787850151600019600388901b60f8161c191681555b5050505050600190811b01905550565b6001600160a01b03868116825285166020820152604081018490526060810183905260a0608082018190526000906119c2908301846113a2565b979650505050505050565b6000602082840312156119df57600080fd5b81516112928161125f565b6001600160a01b0386811682528516602082015260a060408201819052600090611a1690830186611614565b8281036060840152611a288186611614565b90508281036080840152611a3c81856113a2565b98975050505050505050565b604081526000611a5b6040830185611614565b8281036020840152611a6d8185611614565b9594505050505056fea26469706673582212200c4a7550a10b9f9563271b3906bae12ad70191750cccea19014a094c14433bcb64736f6c63430008140033a2646970667358221220e70be38adfb3d4e4b3f3350ac9d00f010c48d0997c98ea223989f9e01a62fd9264736f6c63430008140033",
  "linkReferences": {},
  "deployedLinkReferences": {}
}