{
  "_format": "hh-sol-artifact-1",
  "contractName": "BAFC_NFT",
  "sourceName": "contracts/BAFC_NFT.sol",
  "abi": [
    {
      "inputs": [
        {
          "internalType": "uint256",
          "name": "ownerContribution",
          "type": "uint256"
        },
        {
          "internalType": "address",
          "name": "marketPlace",
          "type": "address"
        },
        {
          "internalType": "address",
          "name": "creator",
          "type": "address"
        }
      ],
      "stateMutability": "nonpayable",
      "type": "constructor"
    },
    {
      "inputs": [
        {
          "internalType": "address",
          "name": "sender",
          "type": "address"
        },
        {
          "internalType": "uint256",
          "name": "balance",
          "type": "uint256"
        },
        {
          "internalType": "uint256",
          "name": "needed",
          "type": "uint256"
        },
        {
          "internalType": "uint256",
          "name": "tokenId",
          "type": "uint256"
        }
      ],
      "name": "ERC1155InsufficientBalance",
      "type": "error"
    },
    {
      "inputs": [
        {
          "internalType": "address",
          "name": "approver",
          "type": "address"
        }
      ],
      "name": "ERC1155InvalidApprover",
      "type": "error"
    },
    {
      "inputs": [
        {
          "internalType": "uint256",
          "name": "idsLength",
          "type": "uint256"
        },
        {
          "internalType": "uint256",
          "name": "valuesLength",
          "type": "uint256"
        }
      ],
      "name": "ERC1155InvalidArrayLength",
      "type": "error"
    },
    {
      "inputs": [
        {
          "internalType": "address",
          "name": "operator",
          "type": "address"
        }
      ],
      "name": "ERC1155InvalidOperator",
      "type": "error"
    },
    {
      "inputs": [
        {
          "internalType": "address",
          "name": "receiver",
          "type": "address"
        }
      ],
      "name": "ERC1155InvalidReceiver",
      "type": "error"
    },
    {
      "inputs": [
        {
          "internalType": "address",
          "name": "sender",
          "type": "address"
        }
      ],
      "name": "ERC1155InvalidSender",
      "type": "error"
    },
    {
      "inputs": [
        {
          "internalType": "address",
          "name": "operator",
          "type": "address"
        },
        {
          "internalType": "address",
          "name": "owner",
          "type": "address"
        }
      ],
      "name": "ERC1155MissingApprovalForAll",
      "type": "error"
    },
    {
      "inputs": [
        {
          "internalType": "address",
          "name": "owner",
          "type": "address"
        }
      ],
      "name": "OwnableInvalidOwner",
      "type": "error"
    },
    {
      "inputs": [
        {
          "internalType": "address",
          "name": "account",
          "type": "address"
        }
      ],
      "name": "OwnableUnauthorizedAccount",
      "type": "error"
    },
    {
      "anonymous": false,
      "inputs": [
        {
          "indexed": true,
          "internalType": "address",
          "name": "account",
          "type": "address"
        },
        {
          "indexed": true,
          "internalType": "address",
          "name": "operator",
          "type": "address"
        },
        {
          "indexed": false,
          "internalType": "bool",
          "name": "approved",
          "type": "bool"
        }
      ],
      "name": "ApprovalForAll",
      "type": "event"
    },
    {
      "anonymous": false,
      "inputs": [
        {
          "indexed": true,
          "internalType": "address",
          "name": "previousOwner",
          "type": "address"
        },
        {
          "indexed": true,
          "internalType": "address",
          "name": "newOwner",
          "type": "address"
        }
      ],
      "name": "OwnershipTransferred",
      "type": "event"
    },
    {
      "anonymous": false,
      "inputs": [
        {
          "indexed": true,
          "internalType": "address",
          "name": "operator",
          "type": "address"
        },
        {
          "indexed": true,
          "internalType": "address",
          "name": "from",
          "type": "address"
        },
        {
          "indexed": true,
          "internalType": "address",
          "name": "to",
          "type": "address"
        },
        {
          "indexed": false,
          "internalType": "uint256[]",
          "name": "ids",
          "type": "uint256[]"
        },
        {
          "indexed": false,
          "internalType": "uint256[]",
          "name": "values",
          "type": "uint256[]"
        }
      ],
      "name": "TransferBatch",
      "type": "event"
    },
    {
      "anonymous": false,
      "inputs": [
        {
          "indexed": true,
          "internalType": "address",
          "name": "operator",
          "type": "address"
        },
        {
          "indexed": true,
          "internalType": "address",
          "name": "from",
          "type": "address"
        },
        {
          "indexed": true,
          "internalType": "address",
          "name": "to",
          "type": "address"
        },
        {
          "indexed": false,
          "internalType": "uint256",
          "name": "id",
          "type": "uint256"
        },
        {
          "indexed": false,
          "internalType": "uint256",
          "name": "value",
          "type": "uint256"
        }
      ],
      "name": "TransferSingle",
      "type": "event"
    },
    {
      "anonymous": false,
      "inputs": [
        {
          "indexed": false,
          "internalType": "string",
          "name": "value",
          "type": "string"
        },
        {
          "indexed": true,
          "internalType": "uint256",
          "name": "id",
          "type": "uint256"
        }
      ],
      "name": "URI",
      "type": "event"
    },
    {
      "inputs": [
        {
          "internalType": "address",
          "name": "userAddress",
          "type": "address"
        },
        {
          "internalType": "uint256",
          "name": "contribution",
          "type": "uint256"
        }
      ],
      "name": "addUsersContributions",
      "outputs": [],
      "stateMutability": "nonpayable",
      "type": "function"
    },
    {
      "inputs": [
        {
          "internalType": "address",
          "name": "account",
          "type": "address"
        },
        {
          "internalType": "uint256",
          "name": "id",
          "type": "uint256"
        }
      ],
      "name": "balanceOf",
      "outputs": [
        {
          "internalType": "uint256",
          "name": "",
          "type": "uint256"
        }
      ],
      "stateMutability": "view",
      "type": "function"
    },
    {
      "inputs": [
        {
          "internalType": "address[]",
          "name": "accounts",
          "type": "address[]"
        },
        {
          "internalType": "uint256[]",
          "name": "ids",
          "type": "uint256[]"
        }
      ],
      "name": "balanceOfBatch",
      "outputs": [
        {
          "internalType": "uint256[]",
          "name": "",
          "type": "uint256[]"
        }
      ],
      "stateMutability": "view",
      "type": "function"
    },
    {
      "inputs": [
        {
          "internalType": "uint256",
          "name": "id",
          "type": "uint256"
        }
      ],
      "name": "exists",
      "outputs": [
        {
          "internalType": "bool",
          "name": "",
          "type": "bool"
        }
      ],
      "stateMutability": "view",
      "type": "function"
    },
    {
      "inputs": [
        {
          "internalType": "address",
          "name": "userAddress",
          "type": "address"
        }
      ],
      "name": "getUsersContributions",
      "outputs": [
        {
          "internalType": "uint256",
          "name": "",
          "type": "uint256"
        }
      ],
      "stateMutability": "view",
      "type": "function"
    },
    {
      "inputs": [
        {
          "internalType": "address",
          "name": "account",
          "type": "address"
        },
        {
          "internalType": "address",
          "name": "operator",
          "type": "address"
        }
      ],
      "name": "isApprovedForAll",
      "outputs": [
        {
          "internalType": "bool",
          "name": "",
          "type": "bool"
        }
      ],
      "stateMutability": "view",
      "type": "function"
    },
    {
      "inputs": [
        {
          "internalType": "address",
          "name": "account",
          "type": "address"
        },
        {
          "internalType": "uint256",
          "name": "id",
          "type": "uint256"
        },
        {
          "internalType": "uint256",
          "name": "amount",
          "type": "uint256"
        },
        {
          "internalType": "bytes",
          "name": "data",
          "type": "bytes"
        }
      ],
      "name": "mint",
      "outputs": [],
      "stateMutability": "nonpayable",
      "type": "function"
    },
    {
      "inputs": [
        {
          "internalType": "address",
          "name": "to",
          "type": "address"
        },
        {
          "internalType": "uint256[]",
          "name": "ids",
          "type": "uint256[]"
        },
        {
          "internalType": "uint256[]",
          "name": "amounts",
          "type": "uint256[]"
        },
        {
          "internalType": "bytes",
          "name": "data",
          "type": "bytes"
        }
      ],
      "name": "mintBatch",
      "outputs": [],
      "stateMutability": "nonpayable",
      "type": "function"
    },
    {
      "inputs": [],
      "name": "owner",
      "outputs": [
        {
          "internalType": "address",
          "name": "",
          "type": "address"
        }
      ],
      "stateMutability": "view",
      "type": "function"
    },
    {
      "inputs": [],
      "name": "renounceOwnership",
      "outputs": [],
      "stateMutability": "nonpayable",
      "type": "function"
    },
    {
      "inputs": [
        {
          "internalType": "address",
          "name": "from",
          "type": "address"
        },
        {
          "internalType": "address",
          "name": "to",
          "type": "address"
        },
        {
          "internalType": "uint256[]",
          "name": "ids",
          "type": "uint256[]"
        },
        {
          "internalType": "uint256[]",
          "name": "values",
          "type": "uint256[]"
        },
        {
          "internalType": "bytes",
          "name": "data",
          "type": "bytes"
        }
      ],
      "name": "safeBatchTransferFrom",
      "outputs": [],
      "stateMutability": "nonpayable",
      "type": "function"
    },
    {
      "inputs": [
        {
          "internalType": "address",
          "name": "from",
          "type": "address"
        },
        {
          "internalType": "address",
          "name": "to",
          "type": "address"
        },
        {
          "internalType": "uint256",
          "name": "id",
          "type": "uint256"
        },
        {
          "internalType": "uint256",
          "name": "amount",
          "type": "uint256"
        },
        {
          "internalType": "bytes",
          "name": "data",
          "type": "bytes"
        }
      ],
      "name": "safeTransferFrom",
      "outputs": [],
      "stateMutability": "nonpayable",
      "type": "function"
    },
    {
      "inputs": [
        {
          "internalType": "address",
          "name": "operator",
          "type": "address"
        },
        {
          "internalType": "bool",
          "name": "approved",
          "type": "bool"
        }
      ],
      "name": "setApprovalForAll",
      "outputs": [],
      "stateMutability": "nonpayable",
      "type": "function"
    },
    {
      "inputs": [
        {
          "internalType": "string",
          "name": "newuri",
          "type": "string"
        }
      ],
      "name": "setURI",
      "outputs": [],
      "stateMutability": "nonpayable",
      "type": "function"
    },
    {
      "inputs": [
        {
          "internalType": "bytes4",
          "name": "interfaceId",
          "type": "bytes4"
        }
      ],
      "name": "supportsInterface",
      "outputs": [
        {
          "internalType": "bool",
          "name": "",
          "type": "bool"
        }
      ],
      "stateMutability": "view",
      "type": "function"
    },
    {
      "inputs": [],
      "name": "totalContribution",
      "outputs": [
        {
          "internalType": "uint256",
          "name": "",
          "type": "uint256"
        }
      ],
      "stateMutability": "view",
      "type": "function"
    },
    {
      "inputs": [],
      "name": "totalSupply",
      "outputs": [
        {
          "internalType": "uint256",
          "name": "",
          "type": "uint256"
        }
      ],
      "stateMutability": "view",
      "type": "function"
    },
    {
      "inputs": [
        {
          "internalType": "uint256",
          "name": "id",
          "type": "uint256"
        }
      ],
      "name": "totalSupply",
      "outputs": [
        {
          "internalType": "uint256",
          "name": "",
          "type": "uint256"
        }
      ],
      "stateMutability": "view",
      "type": "function"
    },
    {
      "inputs": [
        {
          "internalType": "address",
          "name": "newOwner",
          "type": "address"
        }
      ],
      "name": "transferOwnership",
      "outputs": [],
      "stateMutability": "nonpayable",
      "type": "function"
    },
    {
      "inputs": [
        {
          "internalType": "uint256",
          "name": "",
          "type": "uint256"
        }
      ],
      "name": "uri",
      "outputs": [
        {
          "internalType": "string",
          "name": "",
          "type": "string"
        }
      ],
      "stateMutability": "view",
      "type": "function"
    },
    {
      "inputs": [
        {
          "internalType": "address",
          "name": "",
          "type": "address"
        }
      ],
      "name": "usersContributions",
      "outputs": [
        {
          "internalType": "uint256",
          "name": "",
          "type": "uint256"
        }
      ],
      "stateMutability": "view",
      "type": "function"
    },
    {
      "inputs": [],
      "name": "withdraw",
      "outputs": [],
      "stateMutability": "nonpayable",
      "type": "function"
    },
    {
      "stateMutability": "payable",
      "type": "receive"
    }
  ],
  "bytecode": "0x6080604052607d6006553480156200001657600080fd5b506040516200391e3803806200391e83398181016040528101906200003c9190620002f8565b8182806040518060200160405280600081525062000060816200017860201b60201c565b50600073ffffffffffffffffffffffffffffffffffffffff168173ffffffffffffffffffffffffffffffffffffffff1603620000d65760006040517f1e4fbdf7000000000000000000000000000000000000000000000000000000008152600401620000cd919062000365565b60405180910390fd5b620000e7816200018d60201b60201c565b50505081600a60006101000a81548173ffffffffffffffffffffffffffffffffffffffff021916908373ffffffffffffffffffffffffffffffffffffffff16021790555082600c60008373ffffffffffffffffffffffffffffffffffffffff1673ffffffffffffffffffffffffffffffffffffffff16815260200190815260200160002081905550505050620006d9565b8060029081620001899190620005f2565b5050565b6000600560009054906101000a900473ffffffffffffffffffffffffffffffffffffffff16905081600560006101000a81548173ffffffffffffffffffffffffffffffffffffffff021916908373ffffffffffffffffffffffffffffffffffffffff1602179055508173ffffffffffffffffffffffffffffffffffffffff168173ffffffffffffffffffffffffffffffffffffffff167f8be0079c531659141344cd1fd0a4f28419497f9722a3daafe3b4186f6b6457e060405160405180910390a35050565b600080fd5b6000819050919050565b6200026d8162000258565b81146200027957600080fd5b50565b6000815190506200028d8162000262565b92915050565b600073ffffffffffffffffffffffffffffffffffffffff82169050919050565b6000620002c08262000293565b9050919050565b620002d281620002b3565b8114620002de57600080fd5b50565b600081519050620002f281620002c7565b92915050565b60008060006060848603121562000314576200031362000253565b5b600062000324868287016200027c565b93505060206200033786828701620002e1565b92505060406200034a86828701620002e1565b9150509250925092565b6200035f81620002b3565b82525050565b60006020820190506200037c600083018462000354565b92915050565b600081519050919050565b7f4e487b7100000000000000000000000000000000000000000000000000000000600052604160045260246000fd5b7f4e487b7100000000000000000000000000000000000000000000000000000000600052602260045260246000fd5b600060028204905060018216806200040457607f821691505b6020821081036200041a5762000419620003bc565b5b50919050565b60008190508160005260206000209050919050565b60006020601f8301049050919050565b600082821b905092915050565b600060088302620004847fffffffffffffffffffffffffffffffffffffffffffffffffffffffffffffffff8262000445565b62000490868362000445565b95508019841693508086168417925050509392505050565b6000819050919050565b6000620004d3620004cd620004c78462000258565b620004a8565b62000258565b9050919050565b6000819050919050565b620004ef83620004b2565b62000507620004fe82620004da565b84845462000452565b825550505050565b600090565b6200051e6200050f565b6200052b818484620004e4565b505050565b5b8181101562000553576200054760008262000514565b60018101905062000531565b5050565b601f821115620005a2576200056c8162000420565b620005778462000435565b8101602085101562000587578190505b6200059f620005968562000435565b83018262000530565b50505b505050565b600082821c905092915050565b6000620005c760001984600802620005a7565b1980831691505092915050565b6000620005e28383620005b4565b9150826002028217905092915050565b620005fd8262000382565b67ffffffffffffffff8111156200061957620006186200038d565b5b620006258254620003eb565b6200063282828562000557565b600060209050601f8311600181146200066a576000841562000655578287015190505b620006618582620005d4565b865550620006d1565b601f1984166200067a8662000420565b60005b82811015620006a4578489015182556001820191506020850194506020810190506200067d565b86831015620006c45784890151620006c0601f891682620005b4565b8355505b6001600288020188555050505b505050505050565b61323580620006e96000396000f3fe6080604052600436106101385760003560e01c806368d7cc48116100ab578063a22cb4651161006f578063a22cb46514610442578063bd85b0391461046b578063cfd00a72146104a8578063e985e9c5146104d1578063f242432a1461050e578063f2fde38b146105375761013f565b806368d7cc481461035d578063715018a61461039a578063731133e9146103b1578063753dd464146103da5780638da5cb5b146104175761013f565b806318160ddd116100fd57806318160ddd1461024f5780631f7fdffa1461027a5780632eb2c2d6146102a35780633ccfd60b146102cc5780634e1273f4146102e35780634f558e79146103205761013f565b8062fdd58e1461014457806301ffc9a71461018157806302fe5305146101be5780630dcf4b8f146101e75780630e89341c146102125761013f565b3661013f57005b600080fd5b34801561015057600080fd5b5061016b60048036038101906101669190611f47565b610560565b6040516101789190611f96565b60405180910390f35b34801561018d57600080fd5b506101a860048036038101906101a39190612009565b6105ba565b6040516101b59190612051565b60405180910390f35b3480156101ca57600080fd5b506101e560048036038101906101e091906121b2565b6105cc565b005b3480156101f357600080fd5b506101fc6105e0565b6040516102099190611f96565b60405180910390f35b34801561021e57600080fd5b50610239600480360381019061023491906121fb565b6105e6565b60405161024691906122a7565b60405180910390f35b34801561025b57600080fd5b5061026461067a565b6040516102719190611f96565b60405180910390f35b34801561028657600080fd5b506102a1600480360381019061029c9190612432565b610684565b005b3480156102af57600080fd5b506102ca60048036038101906102c591906124ed565b61069e565b005b3480156102d857600080fd5b506102e1610746565b005b3480156102ef57600080fd5b5061030a6004803603810190610305919061267f565b6108a5565b60405161031791906127b5565b60405180910390f35b34801561032c57600080fd5b50610347600480360381019061034291906121fb565b6109b4565b6040516103549190612051565b60405180910390f35b34801561036957600080fd5b50610384600480360381019061037f91906127d7565b6109c8565b6040516103919190611f96565b60405180910390f35b3480156103a657600080fd5b506103af6109e0565b005b3480156103bd57600080fd5b506103d860048036038101906103d39190612804565b6109f4565b005b3480156103e657600080fd5b5061040160048036038101906103fc91906127d7565b610a0e565b60405161040e9190611f96565b60405180910390f35b34801561042357600080fd5b5061042c610a57565b6040516104399190612896565b60405180910390f35b34801561044e57600080fd5b50610469600480360381019061046491906128dd565b610a81565b005b34801561047757600080fd5b50610492600480360381019061048d91906121fb565b610a97565b60405161049f9190611f96565b60405180910390f35b3480156104b457600080fd5b506104cf60048036038101906104ca9190611f47565b610ab4565b005b3480156104dd57600080fd5b506104f860048036038101906104f3919061291d565b610be8565b6040516105059190612051565b60405180910390f35b34801561051a57600080fd5b506105356004803603810190610530919061295d565b610c7c565b005b34801561054357600080fd5b5061055e600480360381019061055991906127d7565b610cea565b005b600080600083815260200190815260200160002060008473ffffffffffffffffffffffffffffffffffffffff1673ffffffffffffffffffffffffffffffffffffffff16815260200190815260200160002054905092915050565b60006105c582610d70565b9050919050565b6105d4610e52565b6105dd81610ed9565b50565b600b5481565b6060600280546105f590612a23565b80601f016020809104026020016040519081016040528092919081815260200182805461062190612a23565b801561066e5780601f106106435761010080835404028352916020019161066e565b820191906000526020600020905b81548152906001019060200180831161065157829003601f168201915b50505050509050919050565b6000600454905090565b61068c610e52565b61069884848484610eec565b50505050565b60006106a8610f72565b90508073ffffffffffffffffffffffffffffffffffffffff168673ffffffffffffffffffffffffffffffffffffffff16141580156106ed57506106eb8682610be8565b155b156107315780866040517fe237d922000000000000000000000000000000000000000000000000000000008152600401610728929190612a54565b60405180910390fd5b61073e8686868686610f7a565b505050505050565b6000471161075357600080fd5b6000600c60003373ffffffffffffffffffffffffffffffffffffffff1673ffffffffffffffffffffffffffffffffffffffff16815260200190815260200160002054116107d5576040517f08c379a00000000000000000000000000000000000000000000000000000000081526004016107cc90612ac9565b60405180910390fd5b60003373ffffffffffffffffffffffffffffffffffffffff16600b54600c60003373ffffffffffffffffffffffffffffffffffffffff1673ffffffffffffffffffffffffffffffffffffffff1681526020019081526020016000205461083b9190612b47565b476108469190612b78565b60405161085290612beb565b60006040518083038185875af1925050503d806000811461088f576040519150601f19603f3d011682016040523d82523d6000602084013e610894565b606091505b50509050806108a257600080fd5b50565b606081518351146108f157815183516040517f5b0599910000000000000000000000000000000000000000000000000000000081526004016108e8929190612c00565b60405180910390fd5b6000835167ffffffffffffffff81111561090e5761090d612087565b5b60405190808252806020026020018201604052801561093c5781602001602082028036833780820191505090505b50905060005b84518110156109a957610979610961828761107290919063ffffffff16565b610974838761108690919063ffffffff16565b610560565b82828151811061098c5761098b612c29565b5b602002602001018181525050806109a290612c58565b9050610942565b508091505092915050565b6000806109c083610a97565b119050919050565b600c6020528060005260406000206000915090505481565b6109e8610e52565b6109f2600061109a565b565b6109fc610e52565b610a0884848484611160565b50505050565b6000600c60008373ffffffffffffffffffffffffffffffffffffffff1673ffffffffffffffffffffffffffffffffffffffff168152602001908152602001600020549050919050565b6000600560009054906101000a900473ffffffffffffffffffffffffffffffffffffffff16905090565b610a93610a8c610f72565b83836111f9565b5050565b600060036000838152602001908152602001600020549050919050565b600a60009054906101000a900473ffffffffffffffffffffffffffffffffffffffff1673ffffffffffffffffffffffffffffffffffffffff163373ffffffffffffffffffffffffffffffffffffffff1614610b44576040517f08c379a0000000000000000000000000000000000000000000000000000000008152600401610b3b90612cec565b60405180910390fd5b60008111610b87576040517f08c379a0000000000000000000000000000000000000000000000000000000008152600401610b7e90612d58565b60405180910390fd5b80600c60008473ffffffffffffffffffffffffffffffffffffffff1673ffffffffffffffffffffffffffffffffffffffff1681526020019081526020016000208190555080600b6000828254610bdd9190612d78565b925050819055505050565b6000600160008473ffffffffffffffffffffffffffffffffffffffff1673ffffffffffffffffffffffffffffffffffffffff16815260200190815260200160002060008373ffffffffffffffffffffffffffffffffffffffff1673ffffffffffffffffffffffffffffffffffffffff16815260200190815260200160002060009054906101000a900460ff16905092915050565b6000610c86610f72565b90508073ffffffffffffffffffffffffffffffffffffffff168673ffffffffffffffffffffffffffffffffffffffff1614158015610ccb5750610cc98682610be8565b155b15610cd557600080fd5b610ce28686868686611369565b505050505050565b610cf2610e52565b600073ffffffffffffffffffffffffffffffffffffffff168173ffffffffffffffffffffffffffffffffffffffff1603610d645760006040517f1e4fbdf7000000000000000000000000000000000000000000000000000000008152600401610d5b9190612896565b60405180910390fd5b610d6d8161109a565b50565b60007fd9b67a26000000000000000000000000000000000000000000000000000000007bffffffffffffffffffffffffffffffffffffffffffffffffffffffff1916827bffffffffffffffffffffffffffffffffffffffffffffffffffffffff19161480610e3b57507f0e89341c000000000000000000000000000000000000000000000000000000007bffffffffffffffffffffffffffffffffffffffffffffffffffffffff1916827bffffffffffffffffffffffffffffffffffffffffffffffffffffffff1916145b80610e4b5750610e4a82611474565b5b9050919050565b610e5a610f72565b73ffffffffffffffffffffffffffffffffffffffff16610e78610a57565b73ffffffffffffffffffffffffffffffffffffffff1614610ed757610e9b610f72565b6040517f118cdaa7000000000000000000000000000000000000000000000000000000008152600401610ece9190612896565b60405180910390fd5b565b8060029081610ee89190612f58565b5050565b600073ffffffffffffffffffffffffffffffffffffffff168473ffffffffffffffffffffffffffffffffffffffff1603610f5e5760006040517f57f447ce000000000000000000000000000000000000000000000000000000008152600401610f559190612896565b60405180910390fd5b610f6c6000858585856114de565b50505050565b600033905090565b600073ffffffffffffffffffffffffffffffffffffffff168473ffffffffffffffffffffffffffffffffffffffff1603610fec5760006040517f57f447ce000000000000000000000000000000000000000000000000000000008152600401610fe39190612896565b60405180910390fd5b600073ffffffffffffffffffffffffffffffffffffffff168573ffffffffffffffffffffffffffffffffffffffff160361105e5760006040517f01a835140000000000000000000000000000000000000000000000000000000081526004016110559190612896565b60405180910390fd5b61106b85858585856114de565b5050505050565b600060208202602084010151905092915050565b600060208202602084010151905092915050565b6000600560009054906101000a900473ffffffffffffffffffffffffffffffffffffffff16905081600560006101000a81548173ffffffffffffffffffffffffffffffffffffffff021916908373ffffffffffffffffffffffffffffffffffffffff1602179055508173ffffffffffffffffffffffffffffffffffffffff168173ffffffffffffffffffffffffffffffffffffffff167f8be0079c531659141344cd1fd0a4f28419497f9722a3daafe3b4186f6b6457e060405160405180910390a35050565b600073ffffffffffffffffffffffffffffffffffffffff168473ffffffffffffffffffffffffffffffffffffffff16036111d25760006040517f57f447ce0000000000000000000000000000000000000000000000000000000081526004016111c99190612896565b60405180910390fd5b6000806111df8585611590565b915091506111f16000878484876114de565b505050505050565b600073ffffffffffffffffffffffffffffffffffffffff168273ffffffffffffffffffffffffffffffffffffffff160361126b5760006040517fced3e1000000000000000000000000000000000000000000000000000000000081526004016112629190612896565b60405180910390fd5b80600160008573ffffffffffffffffffffffffffffffffffffffff1673ffffffffffffffffffffffffffffffffffffffff16815260200190815260200160002060008473ffffffffffffffffffffffffffffffffffffffff1673ffffffffffffffffffffffffffffffffffffffff16815260200190815260200160002060006101000a81548160ff0219169083151502179055508173ffffffffffffffffffffffffffffffffffffffff168373ffffffffffffffffffffffffffffffffffffffff167f17307eab39ab6107e8899845ad3d59bd9653f200f220920489ca2b5937696c318360405161135c9190612051565b60405180910390a3505050565b600073ffffffffffffffffffffffffffffffffffffffff168473ffffffffffffffffffffffffffffffffffffffff16036113db5760006040517f57f447ce0000000000000000000000000000000000000000000000000000000081526004016113d29190612896565b60405180910390fd5b600073ffffffffffffffffffffffffffffffffffffffff168573ffffffffffffffffffffffffffffffffffffffff160361144d5760006040517f01a835140000000000000000000000000000000000000000000000000000000081526004016114449190612896565b60405180910390fd5b60008061145a8585611590565b9150915061146b87878484876114de565b50505050505050565b60007f01ffc9a7000000000000000000000000000000000000000000000000000000007bffffffffffffffffffffffffffffffffffffffffffffffffffffffff1916827bffffffffffffffffffffffffffffffffffffffffffffffffffffffff1916149050919050565b6114ea858585856115c0565b600073ffffffffffffffffffffffffffffffffffffffff168473ffffffffffffffffffffffffffffffffffffffff1614611589576000611528610f72565b9050600184510361157857600061154960008661108690919063ffffffff16565b9050600061156160008661108690919063ffffffff16565b90506115718389898585896115d2565b5050611587565b611586818787878787611786565b5b505b5050505050565b60608060405191506001825283602083015260408201905060018152826020820152604081016040529250929050565b6115cc8484848461193a565b50505050565b60008473ffffffffffffffffffffffffffffffffffffffff163b111561177e578373ffffffffffffffffffffffffffffffffffffffff1663f23a6e6187878686866040518663ffffffff1660e01b815260040161163395949392919061307f565b6020604051808303816000875af192505050801561166f57506040513d601f19601f8201168201806040525081019061166c91906130ee565b60015b6116f3573d806000811461169f576040519150601f19603f3d011682016040523d82523d6000602084013e6116a4565b606091505b5060008151036116eb57846040517f57f447ce0000000000000000000000000000000000000000000000000000000081526004016116e29190612896565b60405180910390fd5b805181602001fd5b63f23a6e6160e01b7bffffffffffffffffffffffffffffffffffffffffffffffffffffffff1916817bffffffffffffffffffffffffffffffffffffffffffffffffffffffff19161461177c57846040517f57f447ce0000000000000000000000000000000000000000000000000000000081526004016117739190612896565b60405180910390fd5b505b505050505050565b60008473ffffffffffffffffffffffffffffffffffffffff163b1115611932578373ffffffffffffffffffffffffffffffffffffffff1663bc197c8187878686866040518663ffffffff1660e01b81526004016117e795949392919061311b565b6020604051808303816000875af192505050801561182357506040513d601f19601f8201168201806040525081019061182091906130ee565b60015b6118a7573d8060008114611853576040519150601f19603f3d011682016040523d82523d6000602084013e611858565b606091505b50600081510361189f57846040517f57f447ce0000000000000000000000000000000000000000000000000000000081526004016118969190612896565b60405180910390fd5b805181602001fd5b63bc197c8160e01b7bffffffffffffffffffffffffffffffffffffffffffffffffffffffff1916817bffffffffffffffffffffffffffffffffffffffffffffffffffffffff19161461193057846040517f57f447ce0000000000000000000000000000000000000000000000000000000081526004016119279190612896565b60405180910390fd5b505b505050505050565b61194684848484611af1565b600073ffffffffffffffffffffffffffffffffffffffff168473ffffffffffffffffffffffffffffffffffffffff1603611a26576000805b8351811015611a0a57600083828151811061199c5761199b612c29565b5b6020026020010151905080600360008785815181106119be576119bd612c29565b5b6020026020010151815260200190815260200160002060008282546119e39190612d78565b9250508190555080836119f69190612d78565b92505080611a0390612c58565b905061197e565b508060046000828254611a1d9190612d78565b92505081905550505b600073ffffffffffffffffffffffffffffffffffffffff168373ffffffffffffffffffffffffffffffffffffffff1603611aeb576000805b8351811015611ad8576000838281518110611a7c57611a7b612c29565b5b602002602001015190508060036000878581518110611a9e57611a9d612c29565b5b602002602001015181526020019081526020016000206000828254039250508190555080830192505080611ad190612c58565b9050611a5e565b5080600460008282540392505081905550505b50505050565b8051825114611b3b57815181516040517f5b059991000000000000000000000000000000000000000000000000000000008152600401611b32929190612c00565b60405180910390fd5b6000611b45610f72565b905060005b8351811015611d5a576000611b68828661108690919063ffffffff16565b90506000611b7f838661108690919063ffffffff16565b9050600073ffffffffffffffffffffffffffffffffffffffff168873ffffffffffffffffffffffffffffffffffffffff1614611cac57600080600084815260200190815260200160002060008a73ffffffffffffffffffffffffffffffffffffffff1673ffffffffffffffffffffffffffffffffffffffff16815260200190815260200160002054905081811015611c5457888183856040517f03dee4c5000000000000000000000000000000000000000000000000000000008152600401611c4b9493929190613183565b60405180910390fd5b81810360008085815260200190815260200160002060008b73ffffffffffffffffffffffffffffffffffffffff1673ffffffffffffffffffffffffffffffffffffffff16815260200190815260200160002081905550505b600073ffffffffffffffffffffffffffffffffffffffff168773ffffffffffffffffffffffffffffffffffffffff1614611d47578060008084815260200190815260200160002060008973ffffffffffffffffffffffffffffffffffffffff1673ffffffffffffffffffffffffffffffffffffffff1681526020019081526020016000206000828254611d3f9190612d78565b925050819055505b505080611d5390612c58565b9050611b4a565b506001835103611e19576000611d7a60008561108690919063ffffffff16565b90506000611d9260008561108690919063ffffffff16565b90508573ffffffffffffffffffffffffffffffffffffffff168773ffffffffffffffffffffffffffffffffffffffff168473ffffffffffffffffffffffffffffffffffffffff167fc3d58168c5ae7397731d063d5bbf3d657854427343f4c083240f7aacaa2d0f628585604051611e0a929190612c00565b60405180910390a45050611e98565b8373ffffffffffffffffffffffffffffffffffffffff168573ffffffffffffffffffffffffffffffffffffffff168273ffffffffffffffffffffffffffffffffffffffff167f4a39dc06d4c0dbc64b70af90fd698a233a518aa5d07e595d983b8c0526c8f7fb8686604051611e8f9291906131c8565b60405180910390a45b5050505050565b6000604051905090565b600080fd5b600080fd5b600073ffffffffffffffffffffffffffffffffffffffff82169050919050565b6000611ede82611eb3565b9050919050565b611eee81611ed3565b8114611ef957600080fd5b50565b600081359050611f0b81611ee5565b92915050565b6000819050919050565b611f2481611f11565b8114611f2f57600080fd5b50565b600081359050611f4181611f1b565b92915050565b60008060408385031215611f5e57611f5d611ea9565b5b6000611f6c85828601611efc565b9250506020611f7d85828601611f32565b9150509250929050565b611f9081611f11565b82525050565b6000602082019050611fab6000830184611f87565b92915050565b60007fffffffff0000000000000000000000000000000000000000000000000000000082169050919050565b611fe681611fb1565b8114611ff157600080fd5b50565b60008135905061200381611fdd565b92915050565b60006020828403121561201f5761201e611ea9565b5b600061202d84828501611ff4565b91505092915050565b60008115159050919050565b61204b81612036565b82525050565b60006020820190506120666000830184612042565b92915050565b600080fd5b600080fd5b6000601f19601f8301169050919050565b7f4e487b7100000000000000000000000000000000000000000000000000000000600052604160045260246000fd5b6120bf82612076565b810181811067ffffffffffffffff821117156120de576120dd612087565b5b80604052505050565b60006120f1611e9f565b90506120fd82826120b6565b919050565b600067ffffffffffffffff82111561211d5761211c612087565b5b61212682612076565b9050602081019050919050565b82818337600083830152505050565b600061215561215084612102565b6120e7565b90508281526020810184848401111561217157612170612071565b5b61217c848285612133565b509392505050565b600082601f8301126121995761219861206c565b5b81356121a9848260208601612142565b91505092915050565b6000602082840312156121c8576121c7611ea9565b5b600082013567ffffffffffffffff8111156121e6576121e5611eae565b5b6121f284828501612184565b91505092915050565b60006020828403121561221157612210611ea9565b5b600061221f84828501611f32565b91505092915050565b600081519050919050565b600082825260208201905092915050565b60005b83811015612262578082015181840152602081019050612247565b60008484015250505050565b600061227982612228565b6122838185612233565b9350612293818560208601612244565b61229c81612076565b840191505092915050565b600060208201905081810360008301526122c1818461226e565b905092915050565b600067ffffffffffffffff8211156122e4576122e3612087565b5b602082029050602081019050919050565b600080fd5b600061230d612308846122c9565b6120e7565b905080838252602082019050602084028301858111156123305761232f6122f5565b5b835b8181101561235957806123458882611f32565b845260208401935050602081019050612332565b5050509392505050565b600082601f8301126123785761237761206c565b5b81356123888482602086016122fa565b91505092915050565b600067ffffffffffffffff8211156123ac576123ab612087565b5b6123b582612076565b9050602081019050919050565b60006123d56123d084612391565b6120e7565b9050828152602081018484840111156123f1576123f0612071565b5b6123fc848285612133565b509392505050565b600082601f8301126124195761241861206c565b5b81356124298482602086016123c2565b91505092915050565b6000806000806080858703121561244c5761244b611ea9565b5b600061245a87828801611efc565b945050602085013567ffffffffffffffff81111561247b5761247a611eae565b5b61248787828801612363565b935050604085013567ffffffffffffffff8111156124a8576124a7611eae565b5b6124b487828801612363565b925050606085013567ffffffffffffffff8111156124d5576124d4611eae565b5b6124e187828801612404565b91505092959194509250565b600080600080600060a0868803121561250957612508611ea9565b5b600061251788828901611efc565b955050602061252888828901611efc565b945050604086013567ffffffffffffffff81111561254957612548611eae565b5b61255588828901612363565b935050606086013567ffffffffffffffff81111561257657612575611eae565b5b61258288828901612363565b925050608086013567ffffffffffffffff8111156125a3576125a2611eae565b5b6125af88828901612404565b9150509295509295909350565b600067ffffffffffffffff8211156125d7576125d6612087565b5b602082029050602081019050919050565b60006125fb6125f6846125bc565b6120e7565b9050808382526020820190506020840283018581111561261e5761261d6122f5565b5b835b8181101561264757806126338882611efc565b845260208401935050602081019050612620565b5050509392505050565b600082601f8301126126665761266561206c565b5b81356126768482602086016125e8565b91505092915050565b6000806040838503121561269657612695611ea9565b5b600083013567ffffffffffffffff8111156126b4576126b3611eae565b5b6126c085828601612651565b925050602083013567ffffffffffffffff8111156126e1576126e0611eae565b5b6126ed85828601612363565b9150509250929050565b600081519050919050565b600082825260208201905092915050565b6000819050602082019050919050565b61272c81611f11565b82525050565b600061273e8383612723565b60208301905092915050565b6000602082019050919050565b6000612762826126f7565b61276c8185612702565b935061277783612713565b8060005b838110156127a857815161278f8882612732565b975061279a8361274a565b92505060018101905061277b565b5085935050505092915050565b600060208201905081810360008301526127cf8184612757565b905092915050565b6000602082840312156127ed576127ec611ea9565b5b60006127fb84828501611efc565b91505092915050565b6000806000806080858703121561281e5761281d611ea9565b5b600061282c87828801611efc565b945050602061283d87828801611f32565b935050604061284e87828801611f32565b925050606085013567ffffffffffffffff81111561286f5761286e611eae565b5b61287b87828801612404565b91505092959194509250565b61289081611ed3565b82525050565b60006020820190506128ab6000830184612887565b92915050565b6128ba81612036565b81146128c557600080fd5b50565b6000813590506128d7816128b1565b92915050565b600080604083850312156128f4576128f3611ea9565b5b600061290285828601611efc565b9250506020612913858286016128c8565b9150509250929050565b6000806040838503121561293457612933611ea9565b5b600061294285828601611efc565b925050602061295385828601611efc565b9150509250929050565b600080600080600060a0868803121561297957612978611ea9565b5b600061298788828901611efc565b955050602061299888828901611efc565b94505060406129a988828901611f32565b93505060606129ba88828901611f32565b925050608086013567ffffffffffffffff8111156129db576129da611eae565b5b6129e788828901612404565b9150509295509295909350565b7f4e487b7100000000000000000000000000000000000000000000000000000000600052602260045260246000fd5b60006002820490506001821680612a3b57607f821691505b602082108103612a4e57612a4d6129f4565b5b50919050565b6000604082019050612a696000830185612887565b612a766020830184612887565b9392505050565b7f796f752063616e206a757374207769746864726177207a65726f200000000000600082015250565b6000612ab3601b83612233565b9150612abe82612a7d565b602082019050919050565b60006020820190508181036000830152612ae281612aa6565b9050919050565b7f4e487b7100000000000000000000000000000000000000000000000000000000600052601260045260246000fd5b7f4e487b7100000000000000000000000000000000000000000000000000000000600052601160045260246000fd5b6000612b5282611f11565b9150612b5d83611f11565b925082612b6d57612b6c612ae9565b5b828204905092915050565b6000612b8382611f11565b9150612b8e83611f11565b9250828202612b9c81611f11565b91508282048414831517612bb357612bb2612b18565b5b5092915050565b600081905092915050565b50565b6000612bd5600083612bba565b9150612be082612bc5565b600082019050919050565b6000612bf682612bc8565b9150819050919050565b6000604082019050612c156000830185611f87565b612c226020830184611f87565b9392505050565b7f4e487b7100000000000000000000000000000000000000000000000000000000600052603260045260246000fd5b6000612c6382611f11565b91507fffffffffffffffffffffffffffffffffffffffffffffffffffffffffffffffff8203612c9557612c94612b18565b5b600182019050919050565b7f796f752068617665206e6f7420656e6f756768207065726d6973736f6e000000600082015250565b6000612cd6601d83612233565b9150612ce182612ca0565b602082019050919050565b60006020820190508181036000830152612d0581612cc9565b9050919050565b7f706c6561736520656e7465722072696768742073686172650000000000000000600082015250565b6000612d42601883612233565b9150612d4d82612d0c565b602082019050919050565b60006020820190508181036000830152612d7181612d35565b9050919050565b6000612d8382611f11565b9150612d8e83611f11565b9250828201905080821115612da657612da5612b18565b5b92915050565b60008190508160005260206000209050919050565b60006020601f8301049050919050565b600082821b905092915050565b600060088302612e0e7fffffffffffffffffffffffffffffffffffffffffffffffffffffffffffffffff82612dd1565b612e188683612dd1565b95508019841693508086168417925050509392505050565b6000819050919050565b6000612e55612e50612e4b84611f11565b612e30565b611f11565b9050919050565b6000819050919050565b612e6f83612e3a565b612e83612e7b82612e5c565b848454612dde565b825550505050565b600090565b612e98612e8b565b612ea3818484612e66565b505050565b5b81811015612ec757612ebc600082612e90565b600181019050612ea9565b5050565b601f821115612f0c57612edd81612dac565b612ee684612dc1565b81016020851015612ef5578190505b612f09612f0185612dc1565b830182612ea8565b50505b505050565b600082821c905092915050565b6000612f2f60001984600802612f11565b1980831691505092915050565b6000612f488383612f1e565b9150826002028217905092915050565b612f6182612228565b67ffffffffffffffff811115612f7a57612f79612087565b5b612f848254612a23565b612f8f828285612ecb565b600060209050601f831160018114612fc25760008415612fb0578287015190505b612fba8582612f3c565b865550613022565b601f198416612fd086612dac565b60005b82811015612ff857848901518255600182019150602085019450602081019050612fd3565b868310156130155784890151613011601f891682612f1e565b8355505b6001600288020188555050505b505050505050565b600081519050919050565b600082825260208201905092915050565b60006130518261302a565b61305b8185613035565b935061306b818560208601612244565b61307481612076565b840191505092915050565b600060a0820190506130946000830188612887565b6130a16020830187612887565b6130ae6040830186611f87565b6130bb6060830185611f87565b81810360808301526130cd8184613046565b90509695505050505050565b6000815190506130e881611fdd565b92915050565b60006020828403121561310457613103611ea9565b5b6000613112848285016130d9565b91505092915050565b600060a0820190506131306000830188612887565b61313d6020830187612887565b818103604083015261314f8186612757565b905081810360608301526131638185612757565b905081810360808301526131778184613046565b90509695505050505050565b60006080820190506131986000830187612887565b6131a56020830186611f87565b6131b26040830185611f87565b6131bf6060830184611f87565b95945050505050565b600060408201905081810360008301526131e28185612757565b905081810360208301526131f68184612757565b9050939250505056fea26469706673582212209cac9c15f2776a3e707dbb3204249b6c8a4053830e5d619d35ef4f18b7a5157f64736f6c63430008140033",
  "linkReferences": {},
  "deployedLinkReferences": {}
}