{
  "_format": "hh-sol-artifact-1",
  "contractName": "BAFC_NFT",
  "sourceName": "contracts/BAFC_NFT.sol",
  "abi": [
    {
      "inputs": [
        {
          "internalType": "uint256",
          "name": "ownerContribution",
          "type": "uint256"
        },
        {
          "internalType": "address",
          "name": "marketPlace",
          "type": "address"
        },
        {
          "internalType": "address",
          "name": "creator",
          "type": "address"
        }
      ],
      "stateMutability": "nonpayable",
      "type": "constructor"
    },
    {
      "inputs": [
        {
          "internalType": "address",
          "name": "sender",
          "type": "address"
        },
        {
          "internalType": "uint256",
          "name": "balance",
          "type": "uint256"
        },
        {
          "internalType": "uint256",
          "name": "needed",
          "type": "uint256"
        },
        {
          "internalType": "uint256",
          "name": "tokenId",
          "type": "uint256"
        }
      ],
      "name": "ERC1155InsufficientBalance",
      "type": "error"
    },
    {
      "inputs": [
        {
          "internalType": "address",
          "name": "approver",
          "type": "address"
        }
      ],
      "name": "ERC1155InvalidApprover",
      "type": "error"
    },
    {
      "inputs": [
        {
          "internalType": "uint256",
          "name": "idsLength",
          "type": "uint256"
        },
        {
          "internalType": "uint256",
          "name": "valuesLength",
          "type": "uint256"
        }
      ],
      "name": "ERC1155InvalidArrayLength",
      "type": "error"
    },
    {
      "inputs": [
        {
          "internalType": "address",
          "name": "operator",
          "type": "address"
        }
      ],
      "name": "ERC1155InvalidOperator",
      "type": "error"
    },
    {
      "inputs": [
        {
          "internalType": "address",
          "name": "receiver",
          "type": "address"
        }
      ],
      "name": "ERC1155InvalidReceiver",
      "type": "error"
    },
    {
      "inputs": [
        {
          "internalType": "address",
          "name": "sender",
          "type": "address"
        }
      ],
      "name": "ERC1155InvalidSender",
      "type": "error"
    },
    {
      "inputs": [
        {
          "internalType": "address",
          "name": "operator",
          "type": "address"
        },
        {
          "internalType": "address",
          "name": "owner",
          "type": "address"
        }
      ],
      "name": "ERC1155MissingApprovalForAll",
      "type": "error"
    },
    {
      "inputs": [
        {
          "internalType": "address",
          "name": "owner",
          "type": "address"
        }
      ],
      "name": "OwnableInvalidOwner",
      "type": "error"
    },
    {
      "inputs": [
        {
          "internalType": "address",
          "name": "account",
          "type": "address"
        }
      ],
      "name": "OwnableUnauthorizedAccount",
      "type": "error"
    },
    {
      "anonymous": false,
      "inputs": [
        {
          "indexed": true,
          "internalType": "address",
          "name": "account",
          "type": "address"
        },
        {
          "indexed": true,
          "internalType": "address",
          "name": "operator",
          "type": "address"
        },
        {
          "indexed": false,
          "internalType": "bool",
          "name": "approved",
          "type": "bool"
        }
      ],
      "name": "ApprovalForAll",
      "type": "event"
    },
    {
      "anonymous": false,
      "inputs": [
        {
          "indexed": true,
          "internalType": "address",
          "name": "previousOwner",
          "type": "address"
        },
        {
          "indexed": true,
          "internalType": "address",
          "name": "newOwner",
          "type": "address"
        }
      ],
      "name": "OwnershipTransferred",
      "type": "event"
    },
    {
      "anonymous": false,
      "inputs": [
        {
          "indexed": true,
          "internalType": "address",
          "name": "operator",
          "type": "address"
        },
        {
          "indexed": true,
          "internalType": "address",
          "name": "from",
          "type": "address"
        },
        {
          "indexed": true,
          "internalType": "address",
          "name": "to",
          "type": "address"
        },
        {
          "indexed": false,
          "internalType": "uint256[]",
          "name": "ids",
          "type": "uint256[]"
        },
        {
          "indexed": false,
          "internalType": "uint256[]",
          "name": "values",
          "type": "uint256[]"
        }
      ],
      "name": "TransferBatch",
      "type": "event"
    },
    {
      "anonymous": false,
      "inputs": [
        {
          "indexed": true,
          "internalType": "address",
          "name": "operator",
          "type": "address"
        },
        {
          "indexed": true,
          "internalType": "address",
          "name": "from",
          "type": "address"
        },
        {
          "indexed": true,
          "internalType": "address",
          "name": "to",
          "type": "address"
        },
        {
          "indexed": false,
          "internalType": "uint256",
          "name": "id",
          "type": "uint256"
        },
        {
          "indexed": false,
          "internalType": "uint256",
          "name": "value",
          "type": "uint256"
        }
      ],
      "name": "TransferSingle",
      "type": "event"
    },
    {
      "anonymous": false,
      "inputs": [
        {
          "indexed": false,
          "internalType": "string",
          "name": "value",
          "type": "string"
        },
        {
          "indexed": true,
          "internalType": "uint256",
          "name": "id",
          "type": "uint256"
        }
      ],
      "name": "URI",
      "type": "event"
    },
    {
      "inputs": [
        {
          "internalType": "address",
          "name": "userAddress",
          "type": "address"
        },
        {
          "internalType": "uint256",
          "name": "contribution",
          "type": "uint256"
        }
      ],
      "name": "addUsersContributions",
      "outputs": [],
      "stateMutability": "nonpayable",
      "type": "function"
    },
    {
      "inputs": [
        {
          "internalType": "address",
          "name": "account",
          "type": "address"
        },
        {
          "internalType": "uint256",
          "name": "id",
          "type": "uint256"
        }
      ],
      "name": "balanceOf",
      "outputs": [
        {
          "internalType": "uint256",
          "name": "",
          "type": "uint256"
        }
      ],
      "stateMutability": "view",
      "type": "function"
    },
    {
      "inputs": [
        {
          "internalType": "address[]",
          "name": "accounts",
          "type": "address[]"
        },
        {
          "internalType": "uint256[]",
          "name": "ids",
          "type": "uint256[]"
        }
      ],
      "name": "balanceOfBatch",
      "outputs": [
        {
          "internalType": "uint256[]",
          "name": "",
          "type": "uint256[]"
        }
      ],
      "stateMutability": "view",
      "type": "function"
    },
    {
      "inputs": [
        {
          "internalType": "uint256",
          "name": "id",
          "type": "uint256"
        }
      ],
      "name": "exists",
      "outputs": [
        {
          "internalType": "bool",
          "name": "",
          "type": "bool"
        }
      ],
      "stateMutability": "view",
      "type": "function"
    },
    {
      "inputs": [
        {
          "internalType": "address",
          "name": "userAddress",
          "type": "address"
        }
      ],
      "name": "getUsersContributions",
      "outputs": [
        {
          "internalType": "uint256",
          "name": "",
          "type": "uint256"
        }
      ],
      "stateMutability": "view",
      "type": "function"
    },
    {
      "inputs": [
        {
          "internalType": "address",
          "name": "account",
          "type": "address"
        },
        {
          "internalType": "address",
          "name": "operator",
          "type": "address"
        }
      ],
      "name": "isApprovedForAll",
      "outputs": [
        {
          "internalType": "bool",
          "name": "",
          "type": "bool"
        }
      ],
      "stateMutability": "view",
      "type": "function"
    },
    {
      "inputs": [
        {
          "internalType": "address",
          "name": "account",
          "type": "address"
        },
        {
          "internalType": "uint256",
          "name": "id",
          "type": "uint256"
        },
        {
          "internalType": "uint256",
          "name": "amount",
          "type": "uint256"
        },
        {
          "internalType": "bytes",
          "name": "data",
          "type": "bytes"
        }
      ],
      "name": "mint",
      "outputs": [],
      "stateMutability": "nonpayable",
      "type": "function"
    },
    {
      "inputs": [],
      "name": "owner",
      "outputs": [
        {
          "internalType": "address",
          "name": "",
          "type": "address"
        }
      ],
      "stateMutability": "view",
      "type": "function"
    },
    {
      "inputs": [],
      "name": "renounceOwnership",
      "outputs": [],
      "stateMutability": "nonpayable",
      "type": "function"
    },
    {
      "inputs": [
        {
          "internalType": "address",
          "name": "from",
          "type": "address"
        },
        {
          "internalType": "address",
          "name": "to",
          "type": "address"
        },
        {
          "internalType": "uint256[]",
          "name": "ids",
          "type": "uint256[]"
        },
        {
          "internalType": "uint256[]",
          "name": "values",
          "type": "uint256[]"
        },
        {
          "internalType": "bytes",
          "name": "data",
          "type": "bytes"
        }
      ],
      "name": "safeBatchTransferFrom",
      "outputs": [],
      "stateMutability": "nonpayable",
      "type": "function"
    },
    {
      "inputs": [
        {
          "internalType": "address",
          "name": "from",
          "type": "address"
        },
        {
          "internalType": "address",
          "name": "to",
          "type": "address"
        },
        {
          "internalType": "uint256",
          "name": "id",
          "type": "uint256"
        },
        {
          "internalType": "uint256",
          "name": "value",
          "type": "uint256"
        },
        {
          "internalType": "bytes",
          "name": "data",
          "type": "bytes"
        }
      ],
      "name": "safeTransferFrom",
      "outputs": [],
      "stateMutability": "nonpayable",
      "type": "function"
    },
    {
      "inputs": [
        {
          "internalType": "address",
          "name": "operator",
          "type": "address"
        },
        {
          "internalType": "bool",
          "name": "approved",
          "type": "bool"
        }
      ],
      "name": "setApprovalForAll",
      "outputs": [],
      "stateMutability": "nonpayable",
      "type": "function"
    },
    {
      "inputs": [
        {
          "internalType": "string",
          "name": "newuri",
          "type": "string"
        }
      ],
      "name": "setURI",
      "outputs": [],
      "stateMutability": "nonpayable",
      "type": "function"
    },
    {
      "inputs": [
        {
          "internalType": "bytes4",
          "name": "interfaceId",
          "type": "bytes4"
        }
      ],
      "name": "supportsInterface",
      "outputs": [
        {
          "internalType": "bool",
          "name": "",
          "type": "bool"
        }
      ],
      "stateMutability": "view",
      "type": "function"
    },
    {
      "inputs": [],
      "name": "totalContribution",
      "outputs": [
        {
          "internalType": "uint256",
          "name": "",
          "type": "uint256"
        }
      ],
      "stateMutability": "view",
      "type": "function"
    },
    {
      "inputs": [],
      "name": "totalSupply",
      "outputs": [
        {
          "internalType": "uint256",
          "name": "",
          "type": "uint256"
        }
      ],
      "stateMutability": "view",
      "type": "function"
    },
    {
      "inputs": [
        {
          "internalType": "uint256",
          "name": "id",
          "type": "uint256"
        }
      ],
      "name": "totalSupply",
      "outputs": [
        {
          "internalType": "uint256",
          "name": "",
          "type": "uint256"
        }
      ],
      "stateMutability": "view",
      "type": "function"
    },
    {
      "inputs": [
        {
          "internalType": "address",
          "name": "newOwner",
          "type": "address"
        }
      ],
      "name": "transferOwnership",
      "outputs": [],
      "stateMutability": "nonpayable",
      "type": "function"
    },
    {
      "inputs": [
        {
          "internalType": "uint256",
          "name": "",
          "type": "uint256"
        }
      ],
      "name": "uri",
      "outputs": [
        {
          "internalType": "string",
          "name": "",
          "type": "string"
        }
      ],
      "stateMutability": "view",
      "type": "function"
    },
    {
      "inputs": [
        {
          "internalType": "address",
          "name": "",
          "type": "address"
        }
      ],
      "name": "usersContributions",
      "outputs": [
        {
          "internalType": "uint256",
          "name": "",
          "type": "uint256"
        }
      ],
      "stateMutability": "view",
      "type": "function"
    },
    {
      "inputs": [],
      "name": "withdraw",
      "outputs": [],
      "stateMutability": "nonpayable",
      "type": "function"
    },
    {
      "stateMutability": "payable",
      "type": "receive"
    }
  ],
  "bytecode": "0x6080604052607d6006553480156200001657600080fd5b5060405162003c2838038062003c2883398181016040528101906200003c9190620003a5565b8182806040518060200160405280600081525062000060816200021f60201b60201c565b50600073ffffffffffffffffffffffffffffffffffffffff168173ffffffffffffffffffffffffffffffffffffffff1603620000d65760006040517f1e4fbdf7000000000000000000000000000000000000000000000000000000008152600401620000cd919062000412565b60405180910390fd5b620000e7816200023460201b60201c565b506200010467b5ca633e5cedd3de60c01b620002fa60201b60201c565b505062000122673494fd0f16e7170460c01b620002fd60201b60201c565b6200013e67a786044943dde2d560c01b620002fd60201b60201c565b81600a60006101000a81548173ffffffffffffffffffffffffffffffffffffffff021916908373ffffffffffffffffffffffffffffffffffffffff1602179055506200019b67182d4712fe01b78160c01b620002fd60201b60201c565b82600c60008373ffffffffffffffffffffffffffffffffffffffff1673ffffffffffffffffffffffffffffffffffffffff16815260200190815260200160002081905550620001fb679a53a9004955e57b60c01b620002fd60201b60201c565b82600b60008282546200020f91906200045e565b92505081905550505050620007f0565b806002908162000230919062000709565b5050565b6000600560009054906101000a900473ffffffffffffffffffffffffffffffffffffffff16905081600560006101000a81548173ffffffffffffffffffffffffffffffffffffffff021916908373ffffffffffffffffffffffffffffffffffffffff1602179055508173ffffffffffffffffffffffffffffffffffffffff168173ffffffffffffffffffffffffffffffffffffffff167f8be0079c531659141344cd1fd0a4f28419497f9722a3daafe3b4186f6b6457e060405160405180910390a35050565b50565b50565b600080fd5b6000819050919050565b6200031a8162000305565b81146200032657600080fd5b50565b6000815190506200033a816200030f565b92915050565b600073ffffffffffffffffffffffffffffffffffffffff82169050919050565b60006200036d8262000340565b9050919050565b6200037f8162000360565b81146200038b57600080fd5b50565b6000815190506200039f8162000374565b92915050565b600080600060608486031215620003c157620003c062000300565b5b6000620003d18682870162000329565b9350506020620003e4868287016200038e565b9250506040620003f7868287016200038e565b9150509250925092565b6200040c8162000360565b82525050565b600060208201905062000429600083018462000401565b92915050565b7f4e487b7100000000000000000000000000000000000000000000000000000000600052601160045260246000fd5b60006200046b8262000305565b9150620004788362000305565b92508282019050808211156200049357620004926200042f565b5b92915050565b600081519050919050565b7f4e487b7100000000000000000000000000000000000000000000000000000000600052604160045260246000fd5b7f4e487b7100000000000000000000000000000000000000000000000000000000600052602260045260246000fd5b600060028204905060018216806200051b57607f821691505b602082108103620005315762000530620004d3565b5b50919050565b60008190508160005260206000209050919050565b60006020601f8301049050919050565b600082821b905092915050565b6000600883026200059b7fffffffffffffffffffffffffffffffffffffffffffffffffffffffffffffffff826200055c565b620005a786836200055c565b95508019841693508086168417925050509392505050565b6000819050919050565b6000620005ea620005e4620005de8462000305565b620005bf565b62000305565b9050919050565b6000819050919050565b6200060683620005c9565b6200061e6200061582620005f1565b84845462000569565b825550505050565b600090565b6200063562000626565b62000642818484620005fb565b505050565b5b818110156200066a576200065e6000826200062b565b60018101905062000648565b5050565b601f821115620006b957620006838162000537565b6200068e846200054c565b810160208510156200069e578190505b620006b6620006ad856200054c565b83018262000647565b50505b505050565b600082821c905092915050565b6000620006de60001984600802620006be565b1980831691505092915050565b6000620006f98383620006cb565b9150826002028217905092915050565b620007148262000499565b67ffffffffffffffff81111562000730576200072f620004a4565b5b6200073c825462000502565b620007498282856200066e565b600060209050601f8311600181146200078157600084156200076c578287015190505b620007788582620006eb565b865550620007e8565b601f198416620007918662000537565b60005b82811015620007bb5784890151825560018201915060208501945060208101905062000794565b86831015620007db5784890151620007d7601f891682620006cb565b8355505b6001600288020188555050505b505050505050565b61342880620008006000396000f3fe60806040526004361061012d5760003560e01c806368d7cc48116100ab578063a22cb4651161006f578063a22cb4651461040e578063bd85b03914610437578063cfd00a7214610474578063e985e9c51461049d578063f242432a146104da578063f2fde38b1461050357610134565b806368d7cc4814610329578063715018a614610366578063731133e91461037d578063753dd464146103a65780638da5cb5b146103e357610134565b806318160ddd116100f257806318160ddd146102445780632eb2c2d61461026f5780633ccfd60b146102985780634e1273f4146102af5780634f558e79146102ec57610134565b8062fdd58e1461013957806301ffc9a71461017657806302fe5305146101b35780630dcf4b8f146101dc5780630e89341c1461020757610134565b3661013457005b600080fd5b34801561014557600080fd5b50610160600480360381019061015b91906121f5565b61052c565b60405161016d9190612244565b60405180910390f35b34801561018257600080fd5b5061019d600480360381019061019891906122b7565b610586565b6040516101aa91906122ff565b60405180910390f35b3480156101bf57600080fd5b506101da60048036038101906101d59190612460565b610668565b005b3480156101e857600080fd5b506101f16106e0565b6040516101fe9190612244565b60405180910390f35b34801561021357600080fd5b5061022e600480360381019061022991906124a9565b6106e6565b60405161023b9190612555565b60405180910390f35b34801561025057600080fd5b5061025961077a565b6040516102669190612244565b60405180910390f35b34801561027b57600080fd5b50610296600480360381019061029191906126e0565b610784565b005b3480156102a457600080fd5b506102ad61082c565b005b3480156102bb57600080fd5b506102d660048036038101906102d19190612872565b610ac3565b6040516102e391906129a8565b60405180910390f35b3480156102f857600080fd5b50610313600480360381019061030e91906124a9565b610bd2565b60405161032091906122ff565b60405180910390f35b34801561033557600080fd5b50610350600480360381019061034b91906129ca565b610be6565b60405161035d9190612244565b60405180910390f35b34801561037257600080fd5b5061037b610bfe565b005b34801561038957600080fd5b506103a4600480360381019061039f91906129f7565b610c12565b005b3480156103b257600080fd5b506103cd60048036038101906103c891906129ca565b610c90565b6040516103da9190612244565b60405180910390f35b3480156103ef57600080fd5b506103f8610d15565b6040516104059190612a89565b60405180910390f35b34801561041a57600080fd5b5061043560048036038101906104309190612ad0565b610d3f565b005b34801561044357600080fd5b5061045e600480360381019061045991906124a9565b610d55565b60405161046b9190612244565b60405180910390f35b34801561048057600080fd5b5061049b600480360381019061049691906121f5565b610d72565b005b3480156104a957600080fd5b506104c460048036038101906104bf9190612b10565b610f82565b6040516104d191906122ff565b60405180910390f35b3480156104e657600080fd5b5061050160048036038101906104fc9190612b50565b611016565b005b34801561050f57600080fd5b5061052a600480360381019061052591906129ca565b6110be565b005b600080600083815260200190815260200160002060008473ffffffffffffffffffffffffffffffffffffffff1673ffffffffffffffffffffffffffffffffffffffff16815260200190815260200160002054905092915050565b60007fd9b67a26000000000000000000000000000000000000000000000000000000007bffffffffffffffffffffffffffffffffffffffffffffffffffffffff1916827bffffffffffffffffffffffffffffffffffffffffffffffffffffffff1916148061065157507f0e89341c000000000000000000000000000000000000000000000000000000007bffffffffffffffffffffffffffffffffffffffffffffffffffffffff1916827bffffffffffffffffffffffffffffffffffffffffffffffffffffffff1916145b80610661575061066082611144565b5b9050919050565b61067c67a48f20054f84036860c01b6111ae565b6106846111b1565b610698674ab1ac1df876616a60c01b6111ae565b6106ac67aed7654c6da4b0ae60c01b6111ae565b6106c067413a10bbbc15247260c01b6111ae565b6106d46730891531e40c7c1e60c01b6111ae565b6106dd81611238565b50565b600b5481565b6060600280546106f590612c16565b80601f016020809104026020016040519081016040528092919081815260200182805461072190612c16565b801561076e5780601f106107435761010080835404028352916020019161076e565b820191906000526020600020905b81548152906001019060200180831161075157829003601f168201915b50505050509050919050565b6000600454905090565b600061078e61124b565b90508073ffffffffffffffffffffffffffffffffffffffff168673ffffffffffffffffffffffffffffffffffffffff16141580156107d357506107d18682610f82565b155b156108175780866040517fe237d92200000000000000000000000000000000000000000000000000000000815260040161080e929190612c47565b60405180910390fd5b6108248686868686611253565b505050505050565b61084067c8cc2ce3128b7c5560c01b61134b565b61085467a969aa7e1286208e60c01b61134b565b61086867cd2f1bb9f25f06e560c01b61134b565b61087c672ec72f101e57a0d960c01b61134b565b6000471161088957600080fd5b61089d67a8b0c85d08d463f560c01b61134b565b6108b16775124e5f929a707360c01b61134b565b6108c567ce43a9e4cc17ffcb60c01b61134b565b6108d96711575dfcada071ac60c01b61134b565b6000600c60003373ffffffffffffffffffffffffffffffffffffffff1673ffffffffffffffffffffffffffffffffffffffff168152602001908152602001600020541161095b576040517f08c379a000000000000000000000000000000000000000000000000000000000815260040161095290612cbc565b60405180910390fd5b61096f67e6d8fd3ed62a647660c01b61134b565b61098367e431af1673b1035160c01b61134b565b61099767225d64a04aa139c260c01b61134b565b60003373ffffffffffffffffffffffffffffffffffffffff166064600b546109bf9190612d0b565b600c60003373ffffffffffffffffffffffffffffffffffffffff1673ffffffffffffffffffffffffffffffffffffffff1681526020019081526020016000205447610a0a9190612d0b565b610a149190612d7c565b604051610a2090612dde565b60006040518083038185875af1925050503d8060008114610a5d576040519150601f19603f3d011682016040523d82523d6000602084013e610a62565b606091505b50509050610a7a674249fc2d381ef0c460c01b61134b565b610a8e6781e99a8cc83db7e960c01b61134b565b610aa267a8368fe5d9d9928660c01b61134b565b80610aac57600080fd5b610ac0679b0e38844f5ef9d760c01b61134b565b50565b60608151835114610b0f57815183516040517f5b059991000000000000000000000000000000000000000000000000000000008152600401610b06929190612df3565b60405180910390fd5b6000835167ffffffffffffffff811115610b2c57610b2b612335565b5b604051908082528060200260200182016040528015610b5a5781602001602082028036833780820191505090505b50905060005b8451811015610bc757610b97610b7f828761134e90919063ffffffff16565b610b92838761136290919063ffffffff16565b61052c565b828281518110610baa57610ba9612e1c565b5b60200260200101818152505080610bc090612e4b565b9050610b60565b508091505092915050565b600080610bde83610d55565b119050919050565b600c6020528060005260406000206000915090505481565b610c066111b1565b610c106000611376565b565b610c2667b1fd3c5bcfefeb1f60c01b6111ae565b610c2e6111b1565b610c42672877b02ca033848e60c01b6111ae565b610c5667c7ae3cbc26a1277d60c01b6111ae565b610c6a673d0568faee83888060c01b6111ae565b610c7e671a4dbff411d4943a60c01b6111ae565b610c8a8484848461143c565b50505050565b6000610ca66709b3875020a701bc60c01b61134b565b610cba67b9aacdebf2f00d8860c01b61134b565b610cce67a814c0571549f93e60c01b61134b565b600c60008373ffffffffffffffffffffffffffffffffffffffff1673ffffffffffffffffffffffffffffffffffffffff168152602001908152602001600020549050919050565b6000600560009054906101000a900473ffffffffffffffffffffffffffffffffffffffff16905090565b610d51610d4a61124b565b83836114d5565b5050565b600060036000838152602001908152602001600020549050919050565b610d8667e0d3f5ab3bb9711b60c01b61134b565b610d9a67a4f4f4d81829742a60c01b61134b565b610dae67aff83f79776fd0d060c01b61134b565b610dc267d3b4d8723669f8bc60c01b61134b565b600a60009054906101000a900473ffffffffffffffffffffffffffffffffffffffff1673ffffffffffffffffffffffffffffffffffffffff163373ffffffffffffffffffffffffffffffffffffffff1614610e52576040517f08c379a0000000000000000000000000000000000000000000000000000000008152600401610e4990612edf565b60405180910390fd5b610e6667414dbd0373b7296260c01b61134b565b610e7a67e16ba13fcce7267660c01b61134b565b610e8e677f00882943ba8a4960c01b61134b565b610ea26754692b8006fb5de060c01b61134b565b60008111610ee5576040517f08c379a0000000000000000000000000000000000000000000000000000000008152600401610edc90612f4b565b60405180910390fd5b610ef96744471fc30db80afc60c01b61134b565b610f0d675ad8140d5fc8ee2b60c01b61134b565b80600c60008473ffffffffffffffffffffffffffffffffffffffff1673ffffffffffffffffffffffffffffffffffffffff16815260200190815260200160002081905550610f6567be2a77f76e27e4ca60c01b61134b565b80600b6000828254610f779190612f6b565b925050819055505050565b6000600160008473ffffffffffffffffffffffffffffffffffffffff1673ffffffffffffffffffffffffffffffffffffffff16815260200190815260200160002060008373ffffffffffffffffffffffffffffffffffffffff1673ffffffffffffffffffffffffffffffffffffffff16815260200190815260200160002060009054906101000a900460ff16905092915050565b600061102061124b565b90508073ffffffffffffffffffffffffffffffffffffffff168673ffffffffffffffffffffffffffffffffffffffff161415801561106557506110638682610f82565b155b156110a95780866040517fe237d9220000000000000000000000000000000000000000000000000000000081526004016110a0929190612c47565b60405180910390fd5b6110b68686868686611645565b505050505050565b6110c66111b1565b600073ffffffffffffffffffffffffffffffffffffffff168173ffffffffffffffffffffffffffffffffffffffff16036111385760006040517f1e4fbdf700000000000000000000000000000000000000000000000000000000815260040161112f9190612a89565b60405180910390fd5b61114181611376565b50565b60007f01ffc9a7000000000000000000000000000000000000000000000000000000007bffffffffffffffffffffffffffffffffffffffffffffffffffffffff1916827bffffffffffffffffffffffffffffffffffffffffffffffffffffffff1916149050919050565b50565b6111b961124b565b73ffffffffffffffffffffffffffffffffffffffff166111d7610d15565b73ffffffffffffffffffffffffffffffffffffffff1614611236576111fa61124b565b6040517f118cdaa700000000000000000000000000000000000000000000000000000000815260040161122d9190612a89565b60405180910390fd5b565b8060029081611247919061314b565b5050565b600033905090565b600073ffffffffffffffffffffffffffffffffffffffff168473ffffffffffffffffffffffffffffffffffffffff16036112c55760006040517f57f447ce0000000000000000000000000000000000000000000000000000000081526004016112bc9190612a89565b60405180910390fd5b600073ffffffffffffffffffffffffffffffffffffffff168573ffffffffffffffffffffffffffffffffffffffff16036113375760006040517f01a8351400000000000000000000000000000000000000000000000000000000815260040161132e9190612a89565b60405180910390fd5b6113448585858585611750565b5050505050565b50565b600060208202602084010151905092915050565b600060208202602084010151905092915050565b6000600560009054906101000a900473ffffffffffffffffffffffffffffffffffffffff16905081600560006101000a81548173ffffffffffffffffffffffffffffffffffffffff021916908373ffffffffffffffffffffffffffffffffffffffff1602179055508173ffffffffffffffffffffffffffffffffffffffff168173ffffffffffffffffffffffffffffffffffffffff167f8be0079c531659141344cd1fd0a4f28419497f9722a3daafe3b4186f6b6457e060405160405180910390a35050565b600073ffffffffffffffffffffffffffffffffffffffff168473ffffffffffffffffffffffffffffffffffffffff16036114ae5760006040517f57f447ce0000000000000000000000000000000000000000000000000000000081526004016114a59190612a89565b60405180910390fd5b6000806114bb8585611802565b915091506114cd600087848487611750565b505050505050565b600073ffffffffffffffffffffffffffffffffffffffff168273ffffffffffffffffffffffffffffffffffffffff16036115475760006040517fced3e10000000000000000000000000000000000000000000000000000000000815260040161153e9190612a89565b60405180910390fd5b80600160008573ffffffffffffffffffffffffffffffffffffffff1673ffffffffffffffffffffffffffffffffffffffff16815260200190815260200160002060008473ffffffffffffffffffffffffffffffffffffffff1673ffffffffffffffffffffffffffffffffffffffff16815260200190815260200160002060006101000a81548160ff0219169083151502179055508173ffffffffffffffffffffffffffffffffffffffff168373ffffffffffffffffffffffffffffffffffffffff167f17307eab39ab6107e8899845ad3d59bd9653f200f220920489ca2b5937696c318360405161163891906122ff565b60405180910390a3505050565b600073ffffffffffffffffffffffffffffffffffffffff168473ffffffffffffffffffffffffffffffffffffffff16036116b75760006040517f57f447ce0000000000000000000000000000000000000000000000000000000081526004016116ae9190612a89565b60405180910390fd5b600073ffffffffffffffffffffffffffffffffffffffff168573ffffffffffffffffffffffffffffffffffffffff16036117295760006040517f01a835140000000000000000000000000000000000000000000000000000000081526004016117209190612a89565b60405180910390fd5b6000806117368585611802565b915091506117478787848487611750565b50505050505050565b61175c85858585611832565b600073ffffffffffffffffffffffffffffffffffffffff168473ffffffffffffffffffffffffffffffffffffffff16146117fb57600061179a61124b565b905060018451036117ea5760006117bb60008661136290919063ffffffff16565b905060006117d360008661136290919063ffffffff16565b90506117e3838989858589611880565b50506117f9565b6117f8818787878787611a34565b5b505b5050505050565b60608060405191506001825283602083015260408201905060018152826020820152604081016040529250929050565b61184667fc6b1c127696de9760c01b6111ae565b61185a677947b6af36eb360760c01b6111ae565b61186e67b31b5885c565616460c01b6111ae565b61187a84848484611be8565b50505050565b60008473ffffffffffffffffffffffffffffffffffffffff163b1115611a2c578373ffffffffffffffffffffffffffffffffffffffff1663f23a6e6187878686866040518663ffffffff1660e01b81526004016118e1959493929190613272565b6020604051808303816000875af192505050801561191d57506040513d601f19601f8201168201806040525081019061191a91906132e1565b60015b6119a1573d806000811461194d576040519150601f19603f3d011682016040523d82523d6000602084013e611952565b606091505b50600081510361199957846040517f57f447ce0000000000000000000000000000000000000000000000000000000081526004016119909190612a89565b60405180910390fd5b805181602001fd5b63f23a6e6160e01b7bffffffffffffffffffffffffffffffffffffffffffffffffffffffff1916817bffffffffffffffffffffffffffffffffffffffffffffffffffffffff191614611a2a57846040517f57f447ce000000000000000000000000000000000000000000000000000000008152600401611a219190612a89565b60405180910390fd5b505b505050505050565b60008473ffffffffffffffffffffffffffffffffffffffff163b1115611be0578373ffffffffffffffffffffffffffffffffffffffff1663bc197c8187878686866040518663ffffffff1660e01b8152600401611a9595949392919061330e565b6020604051808303816000875af1925050508015611ad157506040513d601f19601f82011682018060405250810190611ace91906132e1565b60015b611b55573d8060008114611b01576040519150601f19603f3d011682016040523d82523d6000602084013e611b06565b606091505b506000815103611b4d57846040517f57f447ce000000000000000000000000000000000000000000000000000000008152600401611b449190612a89565b60405180910390fd5b805181602001fd5b63bc197c8160e01b7bffffffffffffffffffffffffffffffffffffffffffffffffffffffff1916817bffffffffffffffffffffffffffffffffffffffffffffffffffffffff191614611bde57846040517f57f447ce000000000000000000000000000000000000000000000000000000008152600401611bd59190612a89565b60405180910390fd5b505b505050505050565b611bf484848484611d9f565b600073ffffffffffffffffffffffffffffffffffffffff168473ffffffffffffffffffffffffffffffffffffffff1603611cd4576000805b8351811015611cb8576000838281518110611c4a57611c49612e1c565b5b602002602001015190508060036000878581518110611c6c57611c6b612e1c565b5b602002602001015181526020019081526020016000206000828254611c919190612f6b565b925050819055508083611ca49190612f6b565b92505080611cb190612e4b565b9050611c2c565b508060046000828254611ccb9190612f6b565b92505081905550505b600073ffffffffffffffffffffffffffffffffffffffff168373ffffffffffffffffffffffffffffffffffffffff1603611d99576000805b8351811015611d86576000838281518110611d2a57611d29612e1c565b5b602002602001015190508060036000878581518110611d4c57611d4b612e1c565b5b602002602001015181526020019081526020016000206000828254039250508190555080830192505080611d7f90612e4b565b9050611d0c565b5080600460008282540392505081905550505b50505050565b8051825114611de957815181516040517f5b059991000000000000000000000000000000000000000000000000000000008152600401611de0929190612df3565b60405180910390fd5b6000611df361124b565b905060005b8351811015612008576000611e16828661136290919063ffffffff16565b90506000611e2d838661136290919063ffffffff16565b9050600073ffffffffffffffffffffffffffffffffffffffff168873ffffffffffffffffffffffffffffffffffffffff1614611f5a57600080600084815260200190815260200160002060008a73ffffffffffffffffffffffffffffffffffffffff1673ffffffffffffffffffffffffffffffffffffffff16815260200190815260200160002054905081811015611f0257888183856040517f03dee4c5000000000000000000000000000000000000000000000000000000008152600401611ef99493929190613376565b60405180910390fd5b81810360008085815260200190815260200160002060008b73ffffffffffffffffffffffffffffffffffffffff1673ffffffffffffffffffffffffffffffffffffffff16815260200190815260200160002081905550505b600073ffffffffffffffffffffffffffffffffffffffff168773ffffffffffffffffffffffffffffffffffffffff1614611ff5578060008084815260200190815260200160002060008973ffffffffffffffffffffffffffffffffffffffff1673ffffffffffffffffffffffffffffffffffffffff1681526020019081526020016000206000828254611fed9190612f6b565b925050819055505b50508061200190612e4b565b9050611df8565b5060018351036120c757600061202860008561136290919063ffffffff16565b9050600061204060008561136290919063ffffffff16565b90508573ffffffffffffffffffffffffffffffffffffffff168773ffffffffffffffffffffffffffffffffffffffff168473ffffffffffffffffffffffffffffffffffffffff167fc3d58168c5ae7397731d063d5bbf3d657854427343f4c083240f7aacaa2d0f6285856040516120b8929190612df3565b60405180910390a45050612146565b8373ffffffffffffffffffffffffffffffffffffffff168573ffffffffffffffffffffffffffffffffffffffff168273ffffffffffffffffffffffffffffffffffffffff167f4a39dc06d4c0dbc64b70af90fd698a233a518aa5d07e595d983b8c0526c8f7fb868660405161213d9291906133bb565b60405180910390a45b5050505050565b6000604051905090565b600080fd5b600080fd5b600073ffffffffffffffffffffffffffffffffffffffff82169050919050565b600061218c82612161565b9050919050565b61219c81612181565b81146121a757600080fd5b50565b6000813590506121b981612193565b92915050565b6000819050919050565b6121d2816121bf565b81146121dd57600080fd5b50565b6000813590506121ef816121c9565b92915050565b6000806040838503121561220c5761220b612157565b5b600061221a858286016121aa565b925050602061222b858286016121e0565b9150509250929050565b61223e816121bf565b82525050565b60006020820190506122596000830184612235565b92915050565b60007fffffffff0000000000000000000000000000000000000000000000000000000082169050919050565b6122948161225f565b811461229f57600080fd5b50565b6000813590506122b18161228b565b92915050565b6000602082840312156122cd576122cc612157565b5b60006122db848285016122a2565b91505092915050565b60008115159050919050565b6122f9816122e4565b82525050565b600060208201905061231460008301846122f0565b92915050565b600080fd5b600080fd5b6000601f19601f8301169050919050565b7f4e487b7100000000000000000000000000000000000000000000000000000000600052604160045260246000fd5b61236d82612324565b810181811067ffffffffffffffff8211171561238c5761238b612335565b5b80604052505050565b600061239f61214d565b90506123ab8282612364565b919050565b600067ffffffffffffffff8211156123cb576123ca612335565b5b6123d482612324565b9050602081019050919050565b82818337600083830152505050565b60006124036123fe846123b0565b612395565b90508281526020810184848401111561241f5761241e61231f565b5b61242a8482856123e1565b509392505050565b600082601f8301126124475761244661231a565b5b81356124578482602086016123f0565b91505092915050565b60006020828403121561247657612475612157565b5b600082013567ffffffffffffffff8111156124945761249361215c565b5b6124a084828501612432565b91505092915050565b6000602082840312156124bf576124be612157565b5b60006124cd848285016121e0565b91505092915050565b600081519050919050565b600082825260208201905092915050565b60005b838110156125105780820151818401526020810190506124f5565b60008484015250505050565b6000612527826124d6565b61253181856124e1565b93506125418185602086016124f2565b61254a81612324565b840191505092915050565b6000602082019050818103600083015261256f818461251c565b905092915050565b600067ffffffffffffffff82111561259257612591612335565b5b602082029050602081019050919050565b600080fd5b60006125bb6125b684612577565b612395565b905080838252602082019050602084028301858111156125de576125dd6125a3565b5b835b8181101561260757806125f388826121e0565b8452602084019350506020810190506125e0565b5050509392505050565b600082601f8301126126265761262561231a565b5b81356126368482602086016125a8565b91505092915050565b600067ffffffffffffffff82111561265a57612659612335565b5b61266382612324565b9050602081019050919050565b600061268361267e8461263f565b612395565b90508281526020810184848401111561269f5761269e61231f565b5b6126aa8482856123e1565b509392505050565b600082601f8301126126c7576126c661231a565b5b81356126d7848260208601612670565b91505092915050565b600080600080600060a086880312156126fc576126fb612157565b5b600061270a888289016121aa565b955050602061271b888289016121aa565b945050604086013567ffffffffffffffff81111561273c5761273b61215c565b5b61274888828901612611565b935050606086013567ffffffffffffffff8111156127695761276861215c565b5b61277588828901612611565b925050608086013567ffffffffffffffff8111156127965761279561215c565b5b6127a2888289016126b2565b9150509295509295909350565b600067ffffffffffffffff8211156127ca576127c9612335565b5b602082029050602081019050919050565b60006127ee6127e9846127af565b612395565b90508083825260208201905060208402830185811115612811576128106125a3565b5b835b8181101561283a578061282688826121aa565b845260208401935050602081019050612813565b5050509392505050565b600082601f8301126128595761285861231a565b5b81356128698482602086016127db565b91505092915050565b6000806040838503121561288957612888612157565b5b600083013567ffffffffffffffff8111156128a7576128a661215c565b5b6128b385828601612844565b925050602083013567ffffffffffffffff8111156128d4576128d361215c565b5b6128e085828601612611565b9150509250929050565b600081519050919050565b600082825260208201905092915050565b6000819050602082019050919050565b61291f816121bf565b82525050565b60006129318383612916565b60208301905092915050565b6000602082019050919050565b6000612955826128ea565b61295f81856128f5565b935061296a83612906565b8060005b8381101561299b5781516129828882612925565b975061298d8361293d565b92505060018101905061296e565b5085935050505092915050565b600060208201905081810360008301526129c2818461294a565b905092915050565b6000602082840312156129e0576129df612157565b5b60006129ee848285016121aa565b91505092915050565b60008060008060808587031215612a1157612a10612157565b5b6000612a1f878288016121aa565b9450506020612a30878288016121e0565b9350506040612a41878288016121e0565b925050606085013567ffffffffffffffff811115612a6257612a6161215c565b5b612a6e878288016126b2565b91505092959194509250565b612a8381612181565b82525050565b6000602082019050612a9e6000830184612a7a565b92915050565b612aad816122e4565b8114612ab857600080fd5b50565b600081359050612aca81612aa4565b92915050565b60008060408385031215612ae757612ae6612157565b5b6000612af5858286016121aa565b9250506020612b0685828601612abb565b9150509250929050565b60008060408385031215612b2757612b26612157565b5b6000612b35858286016121aa565b9250506020612b46858286016121aa565b9150509250929050565b600080600080600060a08688031215612b6c57612b6b612157565b5b6000612b7a888289016121aa565b9550506020612b8b888289016121aa565b9450506040612b9c888289016121e0565b9350506060612bad888289016121e0565b925050608086013567ffffffffffffffff811115612bce57612bcd61215c565b5b612bda888289016126b2565b9150509295509295909350565b7f4e487b7100000000000000000000000000000000000000000000000000000000600052602260045260246000fd5b60006002820490506001821680612c2e57607f821691505b602082108103612c4157612c40612be7565b5b50919050565b6000604082019050612c5c6000830185612a7a565b612c696020830184612a7a565b9392505050565b7f796f752063616e206a757374207769746864726177207a65726f200000000000600082015250565b6000612ca6601b836124e1565b9150612cb182612c70565b602082019050919050565b60006020820190508181036000830152612cd581612c99565b9050919050565b7f4e487b7100000000000000000000000000000000000000000000000000000000600052601160045260246000fd5b6000612d16826121bf565b9150612d21836121bf565b9250828202612d2f816121bf565b91508282048414831517612d4657612d45612cdc565b5b5092915050565b7f4e487b7100000000000000000000000000000000000000000000000000000000600052601260045260246000fd5b6000612d87826121bf565b9150612d92836121bf565b925082612da257612da1612d4d565b5b828204905092915050565b600081905092915050565b50565b6000612dc8600083612dad565b9150612dd382612db8565b600082019050919050565b6000612de982612dbb565b9150819050919050565b6000604082019050612e086000830185612235565b612e156020830184612235565b9392505050565b7f4e487b7100000000000000000000000000000000000000000000000000000000600052603260045260246000fd5b6000612e56826121bf565b91507fffffffffffffffffffffffffffffffffffffffffffffffffffffffffffffffff8203612e8857612e87612cdc565b5b600182019050919050565b7f796f752068617665206e6f7420656e6f756768207065726d6973736f6e000000600082015250565b6000612ec9601d836124e1565b9150612ed482612e93565b602082019050919050565b60006020820190508181036000830152612ef881612ebc565b9050919050565b7f706c6561736520656e7465722072696768742073686172650000000000000000600082015250565b6000612f356018836124e1565b9150612f4082612eff565b602082019050919050565b60006020820190508181036000830152612f6481612f28565b9050919050565b6000612f76826121bf565b9150612f81836121bf565b9250828201905080821115612f9957612f98612cdc565b5b92915050565b60008190508160005260206000209050919050565b60006020601f8301049050919050565b600082821b905092915050565b6000600883026130017fffffffffffffffffffffffffffffffffffffffffffffffffffffffffffffffff82612fc4565b61300b8683612fc4565b95508019841693508086168417925050509392505050565b6000819050919050565b600061304861304361303e846121bf565b613023565b6121bf565b9050919050565b6000819050919050565b6130628361302d565b61307661306e8261304f565b848454612fd1565b825550505050565b600090565b61308b61307e565b613096818484613059565b505050565b5b818110156130ba576130af600082613083565b60018101905061309c565b5050565b601f8211156130ff576130d081612f9f565b6130d984612fb4565b810160208510156130e8578190505b6130fc6130f485612fb4565b83018261309b565b50505b505050565b600082821c905092915050565b600061312260001984600802613104565b1980831691505092915050565b600061313b8383613111565b9150826002028217905092915050565b613154826124d6565b67ffffffffffffffff81111561316d5761316c612335565b5b6131778254612c16565b6131828282856130be565b600060209050601f8311600181146131b557600084156131a3578287015190505b6131ad858261312f565b865550613215565b601f1984166131c386612f9f565b60005b828110156131eb578489015182556001820191506020850194506020810190506131c6565b868310156132085784890151613204601f891682613111565b8355505b6001600288020188555050505b505050505050565b600081519050919050565b600082825260208201905092915050565b60006132448261321d565b61324e8185613228565b935061325e8185602086016124f2565b61326781612324565b840191505092915050565b600060a0820190506132876000830188612a7a565b6132946020830187612a7a565b6132a16040830186612235565b6132ae6060830185612235565b81810360808301526132c08184613239565b90509695505050505050565b6000815190506132db8161228b565b92915050565b6000602082840312156132f7576132f6612157565b5b6000613305848285016132cc565b91505092915050565b600060a0820190506133236000830188612a7a565b6133306020830187612a7a565b8181036040830152613342818661294a565b90508181036060830152613356818561294a565b9050818103608083015261336a8184613239565b90509695505050505050565b600060808201905061338b6000830187612a7a565b6133986020830186612235565b6133a56040830185612235565b6133b26060830184612235565b95945050505050565b600060408201905081810360008301526133d5818561294a565b905081810360208301526133e9818461294a565b9050939250505056fea2646970667358221220ad39de07e827d3c179f1a9de121937baad2f16622445bde71b3746d2252fde3064736f6c63430008140033",
  "linkReferences": {},
  "deployedLinkReferences": {}
}