{
  "_format": "hh-sol-artifact-1",
  "contractName": "BAFC_NFT",
  "sourceName": "contracts/BAFC_NFT.sol",
  "abi": [
    {
      "inputs": [
        {
          "internalType": "uint256",
          "name": "ownerContribution",
          "type": "uint256"
        },
        {
          "internalType": "address",
          "name": "marketPlace",
          "type": "address"
        },
        {
          "internalType": "address",
          "name": "creator",
          "type": "address"
        }
      ],
      "stateMutability": "nonpayable",
      "type": "constructor"
    },
    {
      "inputs": [
        {
          "internalType": "address",
          "name": "sender",
          "type": "address"
        },
        {
          "internalType": "uint256",
          "name": "balance",
          "type": "uint256"
        },
        {
          "internalType": "uint256",
          "name": "needed",
          "type": "uint256"
        },
        {
          "internalType": "uint256",
          "name": "tokenId",
          "type": "uint256"
        }
      ],
      "name": "ERC1155InsufficientBalance",
      "type": "error"
    },
    {
      "inputs": [
        {
          "internalType": "address",
          "name": "approver",
          "type": "address"
        }
      ],
      "name": "ERC1155InvalidApprover",
      "type": "error"
    },
    {
      "inputs": [
        {
          "internalType": "uint256",
          "name": "idsLength",
          "type": "uint256"
        },
        {
          "internalType": "uint256",
          "name": "valuesLength",
          "type": "uint256"
        }
      ],
      "name": "ERC1155InvalidArrayLength",
      "type": "error"
    },
    {
      "inputs": [
        {
          "internalType": "address",
          "name": "operator",
          "type": "address"
        }
      ],
      "name": "ERC1155InvalidOperator",
      "type": "error"
    },
    {
      "inputs": [
        {
          "internalType": "address",
          "name": "receiver",
          "type": "address"
        }
      ],
      "name": "ERC1155InvalidReceiver",
      "type": "error"
    },
    {
      "inputs": [
        {
          "internalType": "address",
          "name": "sender",
          "type": "address"
        }
      ],
      "name": "ERC1155InvalidSender",
      "type": "error"
    },
    {
      "inputs": [
        {
          "internalType": "address",
          "name": "operator",
          "type": "address"
        },
        {
          "internalType": "address",
          "name": "owner",
          "type": "address"
        }
      ],
      "name": "ERC1155MissingApprovalForAll",
      "type": "error"
    },
    {
      "inputs": [
        {
          "internalType": "address",
          "name": "owner",
          "type": "address"
        }
      ],
      "name": "OwnableInvalidOwner",
      "type": "error"
    },
    {
      "inputs": [
        {
          "internalType": "address",
          "name": "account",
          "type": "address"
        }
      ],
      "name": "OwnableUnauthorizedAccount",
      "type": "error"
    },
    {
      "anonymous": false,
      "inputs": [
        {
          "indexed": true,
          "internalType": "address",
          "name": "account",
          "type": "address"
        },
        {
          "indexed": true,
          "internalType": "address",
          "name": "operator",
          "type": "address"
        },
        {
          "indexed": false,
          "internalType": "bool",
          "name": "approved",
          "type": "bool"
        }
      ],
      "name": "ApprovalForAll",
      "type": "event"
    },
    {
      "anonymous": false,
      "inputs": [
        {
          "indexed": true,
          "internalType": "address",
          "name": "previousOwner",
          "type": "address"
        },
        {
          "indexed": true,
          "internalType": "address",
          "name": "newOwner",
          "type": "address"
        }
      ],
      "name": "OwnershipTransferred",
      "type": "event"
    },
    {
      "anonymous": false,
      "inputs": [
        {
          "indexed": true,
          "internalType": "address",
          "name": "operator",
          "type": "address"
        },
        {
          "indexed": true,
          "internalType": "address",
          "name": "from",
          "type": "address"
        },
        {
          "indexed": true,
          "internalType": "address",
          "name": "to",
          "type": "address"
        },
        {
          "indexed": false,
          "internalType": "uint256[]",
          "name": "ids",
          "type": "uint256[]"
        },
        {
          "indexed": false,
          "internalType": "uint256[]",
          "name": "values",
          "type": "uint256[]"
        }
      ],
      "name": "TransferBatch",
      "type": "event"
    },
    {
      "anonymous": false,
      "inputs": [
        {
          "indexed": true,
          "internalType": "address",
          "name": "operator",
          "type": "address"
        },
        {
          "indexed": true,
          "internalType": "address",
          "name": "from",
          "type": "address"
        },
        {
          "indexed": true,
          "internalType": "address",
          "name": "to",
          "type": "address"
        },
        {
          "indexed": false,
          "internalType": "uint256",
          "name": "id",
          "type": "uint256"
        },
        {
          "indexed": false,
          "internalType": "uint256",
          "name": "value",
          "type": "uint256"
        }
      ],
      "name": "TransferSingle",
      "type": "event"
    },
    {
      "anonymous": false,
      "inputs": [
        {
          "indexed": false,
          "internalType": "string",
          "name": "value",
          "type": "string"
        },
        {
          "indexed": true,
          "internalType": "uint256",
          "name": "id",
          "type": "uint256"
        }
      ],
      "name": "URI",
      "type": "event"
    },
    {
      "inputs": [
        {
          "internalType": "address",
          "name": "userAddress",
          "type": "address"
        },
        {
          "internalType": "uint256",
          "name": "contribution",
          "type": "uint256"
        }
      ],
      "name": "addUsersContributions",
      "outputs": [],
      "stateMutability": "nonpayable",
      "type": "function"
    },
    {
      "inputs": [
        {
          "internalType": "address",
          "name": "account",
          "type": "address"
        },
        {
          "internalType": "uint256",
          "name": "id",
          "type": "uint256"
        }
      ],
      "name": "balanceOf",
      "outputs": [
        {
          "internalType": "uint256",
          "name": "",
          "type": "uint256"
        }
      ],
      "stateMutability": "view",
      "type": "function"
    },
    {
      "inputs": [
        {
          "internalType": "address[]",
          "name": "accounts",
          "type": "address[]"
        },
        {
          "internalType": "uint256[]",
          "name": "ids",
          "type": "uint256[]"
        }
      ],
      "name": "balanceOfBatch",
      "outputs": [
        {
          "internalType": "uint256[]",
          "name": "",
          "type": "uint256[]"
        }
      ],
      "stateMutability": "view",
      "type": "function"
    },
    {
      "inputs": [
        {
          "internalType": "uint256",
          "name": "id",
          "type": "uint256"
        }
      ],
      "name": "exists",
      "outputs": [
        {
          "internalType": "bool",
          "name": "",
          "type": "bool"
        }
      ],
      "stateMutability": "view",
      "type": "function"
    },
    {
      "inputs": [
        {
          "internalType": "address",
          "name": "userAddress",
          "type": "address"
        }
      ],
      "name": "getUsersContributions",
      "outputs": [
        {
          "internalType": "uint256",
          "name": "",
          "type": "uint256"
        }
      ],
      "stateMutability": "view",
      "type": "function"
    },
    {
      "inputs": [
        {
          "internalType": "address",
          "name": "account",
          "type": "address"
        },
        {
          "internalType": "address",
          "name": "operator",
          "type": "address"
        }
      ],
      "name": "isApprovedForAll",
      "outputs": [
        {
          "internalType": "bool",
          "name": "",
          "type": "bool"
        }
      ],
      "stateMutability": "view",
      "type": "function"
    },
    {
      "inputs": [
        {
          "internalType": "address",
          "name": "account",
          "type": "address"
        },
        {
          "internalType": "uint256",
          "name": "id",
          "type": "uint256"
        },
        {
          "internalType": "uint256",
          "name": "amount",
          "type": "uint256"
        },
        {
          "internalType": "bytes",
          "name": "data",
          "type": "bytes"
        }
      ],
      "name": "mint",
      "outputs": [],
      "stateMutability": "nonpayable",
      "type": "function"
    },
    {
      "inputs": [],
      "name": "owner",
      "outputs": [
        {
          "internalType": "address",
          "name": "",
          "type": "address"
        }
      ],
      "stateMutability": "view",
      "type": "function"
    },
    {
      "inputs": [],
      "name": "renounceOwnership",
      "outputs": [],
      "stateMutability": "nonpayable",
      "type": "function"
    },
    {
      "inputs": [
        {
          "internalType": "address",
          "name": "from",
          "type": "address"
        },
        {
          "internalType": "address",
          "name": "to",
          "type": "address"
        },
        {
          "internalType": "uint256[]",
          "name": "ids",
          "type": "uint256[]"
        },
        {
          "internalType": "uint256[]",
          "name": "values",
          "type": "uint256[]"
        },
        {
          "internalType": "bytes",
          "name": "data",
          "type": "bytes"
        }
      ],
      "name": "safeBatchTransferFrom",
      "outputs": [],
      "stateMutability": "nonpayable",
      "type": "function"
    },
    {
      "inputs": [
        {
          "internalType": "address",
          "name": "from",
          "type": "address"
        },
        {
          "internalType": "address",
          "name": "to",
          "type": "address"
        },
        {
          "internalType": "uint256",
          "name": "id",
          "type": "uint256"
        },
        {
          "internalType": "uint256",
          "name": "value",
          "type": "uint256"
        },
        {
          "internalType": "bytes",
          "name": "data",
          "type": "bytes"
        }
      ],
      "name": "safeTransferFrom",
      "outputs": [],
      "stateMutability": "nonpayable",
      "type": "function"
    },
    {
      "inputs": [
        {
          "internalType": "address",
          "name": "operator",
          "type": "address"
        },
        {
          "internalType": "bool",
          "name": "approved",
          "type": "bool"
        }
      ],
      "name": "setApprovalForAll",
      "outputs": [],
      "stateMutability": "nonpayable",
      "type": "function"
    },
    {
      "inputs": [
        {
          "internalType": "string",
          "name": "newuri",
          "type": "string"
        }
      ],
      "name": "setURI",
      "outputs": [],
      "stateMutability": "nonpayable",
      "type": "function"
    },
    {
      "inputs": [
        {
          "internalType": "bytes4",
          "name": "interfaceId",
          "type": "bytes4"
        }
      ],
      "name": "supportsInterface",
      "outputs": [
        {
          "internalType": "bool",
          "name": "",
          "type": "bool"
        }
      ],
      "stateMutability": "view",
      "type": "function"
    },
    {
      "inputs": [],
      "name": "totalContribution",
      "outputs": [
        {
          "internalType": "uint256",
          "name": "",
          "type": "uint256"
        }
      ],
      "stateMutability": "view",
      "type": "function"
    },
    {
      "inputs": [],
      "name": "totalSupply",
      "outputs": [
        {
          "internalType": "uint256",
          "name": "",
          "type": "uint256"
        }
      ],
      "stateMutability": "view",
      "type": "function"
    },
    {
      "inputs": [
        {
          "internalType": "uint256",
          "name": "id",
          "type": "uint256"
        }
      ],
      "name": "totalSupply",
      "outputs": [
        {
          "internalType": "uint256",
          "name": "",
          "type": "uint256"
        }
      ],
      "stateMutability": "view",
      "type": "function"
    },
    {
      "inputs": [
        {
          "internalType": "address",
          "name": "newOwner",
          "type": "address"
        }
      ],
      "name": "transferOwnership",
      "outputs": [],
      "stateMutability": "nonpayable",
      "type": "function"
    },
    {
      "inputs": [
        {
          "internalType": "uint256",
          "name": "",
          "type": "uint256"
        }
      ],
      "name": "uri",
      "outputs": [
        {
          "internalType": "string",
          "name": "",
          "type": "string"
        }
      ],
      "stateMutability": "view",
      "type": "function"
    },
    {
      "inputs": [
        {
          "internalType": "address",
          "name": "",
          "type": "address"
        }
      ],
      "name": "usersContributions",
      "outputs": [
        {
          "internalType": "uint256",
          "name": "",
          "type": "uint256"
        }
      ],
      "stateMutability": "view",
      "type": "function"
    },
    {
      "inputs": [],
      "name": "withdraw",
      "outputs": [],
      "stateMutability": "nonpayable",
      "type": "function"
    },
    {
      "stateMutability": "payable",
      "type": "receive"
    }
  ],
  "bytecode": "0x6080604052607d6006553480156200001657600080fd5b5060405162001fb938038062001fb9833981016040819052620000399162000233565b818280604051806020016040528060008152506200005d81620000fe60201b60201c565b506001600160a01b0381166200008e57604051631e4fbdf760e01b8152600060048201526024015b60405180910390fd5b620000998162000110565b5050600a80546001600160a01b0319166001600160a01b038581169190911790915582166000908152600c60205260408120859055600b8054869350909190620000e590849062000274565b90915550620000f5905062000162565b5050506200040d565b60026200010c828262000341565b5050565b600580546001600160a01b038381166001600160a01b0319831681179093556040519116919082907f8be0079c531659141344cd1fd0a4f28419497f9722a3daafe3b4186f6b6457e090600090a35050565b600a546200017c906001600160a01b03168060016200017e565b565b6001600160a01b038216620001a95760405162ced3e160e81b81526000600482015260240162000085565b6001600160a01b03838116600081815260016020908152604080832094871680845294825291829020805460ff191686151590811790915591519182527f17307eab39ab6107e8899845ad3d59bd9653f200f220920489ca2b5937696c31910160405180910390a3505050565b80516001600160a01b03811681146200022e57600080fd5b919050565b6000806000606084860312156200024957600080fd5b835192506200025b6020850162000216565b91506200026b6040850162000216565b90509250925092565b808201808211156200029657634e487b7160e01b600052601160045260246000fd5b92915050565b634e487b7160e01b600052604160045260246000fd5b600181811c90821680620002c757607f821691505b602082108103620002e857634e487b7160e01b600052602260045260246000fd5b50919050565b601f8211156200033c57600081815260208120601f850160051c81016020861015620003175750805b601f850160051c820191505b81811015620003385782815560010162000323565b5050505b505050565b81516001600160401b038111156200035d576200035d6200029c565b62000375816200036e8454620002b2565b84620002ee565b602080601f831160018114620003ad5760008415620003945750858301515b600019600386901b1c1916600185901b17855562000338565b600085815260208120601f198616915b82811015620003de57888601518255948401946001909101908401620003bd565b5085821015620003fd5787850151600019600388901b60f8161c191681555b5050505050600190811b01905550565b611b9c806200041d6000396000f3fe60806040526004361061012d5760003560e01c806368d7cc48116100ab578063a22cb4651161006f578063a22cb46514610367578063bd85b03914610387578063cfd00a72146103b4578063e985e9c5146103d4578063f242432a146103f4578063f2fde38b1461041457600080fd5b806368d7cc48146102a7578063715018a6146102d4578063731133e9146102e9578063753dd464146103095780638da5cb5b1461033f57600080fd5b806318160ddd116100f257806318160ddd146102015780632eb2c2d6146102165780633ccfd60b146102365780634e1273f41461024b5780634f558e791461027857600080fd5b8062fdd58e1461013957806301ffc9a71461016c57806302fe53051461019c5780630dcf4b8f146101be5780630e89341c146101d457600080fd5b3661013457005b600080fd5b34801561014557600080fd5b50610159610154366004611325565b610434565b6040519081526020015b60405180910390f35b34801561017857600080fd5b5061018c610187366004611365565b61045c565b6040519015158152602001610163565b3480156101a857600080fd5b506101bc6101b7366004611428565b6104ac565b005b3480156101ca57600080fd5b50610159600b5481565b3480156101e057600080fd5b506101f46101ef366004611479565b6104c0565b60405161016391906114d8565b34801561020d57600080fd5b50600454610159565b34801561022257600080fd5b506101bc61023136600461159a565b610554565b34801561024257600080fd5b506101bc6105c0565b34801561025757600080fd5b5061026b610266366004611644565b6106af565b604051610163919061173f565b34801561028457600080fd5b5061018c610293366004611479565b600090815260036020526040902054151590565b3480156102b357600080fd5b506101596102c2366004611752565b600c6020526000908152604090205481565b3480156102e057600080fd5b506101bc610784565b3480156102f557600080fd5b506101bc61030436600461176d565b610798565b34801561031557600080fd5b50610159610324366004611752565b6001600160a01b03166000908152600c602052604090205490565b34801561034b57600080fd5b506005546040516001600160a01b039091168152602001610163565b34801561037357600080fd5b506101bc6103823660046117ce565b6107b2565b34801561039357600080fd5b506101596103a2366004611479565b60009081526003602052604090205490565b3480156103c057600080fd5b506101bc6103cf366004611325565b6107fc565b3480156103e057600080fd5b5061018c6103ef36600461180a565b6108dc565b34801561040057600080fd5b506101bc61040f36600461183d565b61090a565b34801561042057600080fd5b506101bc61042f366004611752565b6109c3565b6000818152602081815260408083206001600160a01b03861684529091529020545b92915050565b60006001600160e01b03198216636cdb3d1360e11b148061048d57506001600160e01b031982166303a24d0760e21b145b8061045657506301ffc9a760e01b6001600160e01b0319831614610456565b6104b46109fe565b6104bd81610a2b565b50565b6060600280546104cf906118a2565b80601f01602080910402602001604051908101604052809291908181526020018280546104fb906118a2565b80156105485780601f1061051d57610100808354040283529160200191610548565b820191906000526020600020905b81548152906001019060200180831161052b57829003601f168201915b50505050509050919050565b336001600160a01b0386168114801590610575575061057386826108dc565b155b156105ab5760405163711bec9160e11b81526001600160a01b038083166004830152871660248201526044015b60405180910390fd5b6105b88686868686610a37565b505050505050565b600047116105cd57600080fd5b336000908152600c60205260409020546106295760405162461bcd60e51b815260206004820152601b60248201527f796f752063616e206a757374207769746864726177207a65726f20000000000060448201526064016105a2565b600b54600090339061063c9060646118f2565b336000908152600c602052604090205461065690476118f2565b6106609190611909565b604051600081818185875af1925050503d806000811461069c576040519150601f19603f3d011682016040523d82523d6000602084013e6106a1565b606091505b50509050806104bd57600080fd5b606081518351146106e05781518351604051635b05999160e01b8152600481019290925260248201526044016105a2565b6000835167ffffffffffffffff8111156106fc576106fc611389565b604051908082528060200260200182016040528015610725578160200160208202803683370190505b50905060005b845181101561077c5760208082028601015161074f90602080840287010151610434565b8282815181106107615761076161192b565b602090810291909101015261077581611941565b905061072b565b509392505050565b61078c6109fe565b6107966000610a9e565b565b6107a06109fe565b6107ac84848484610af0565b50505050565b6107e4604051806040016040528060118152602001701cd95d105c1c1c9bdd985b119bdc905b1b607a1b815250610b4d565b6107ed33610b90565b6107f8338383610bd8565b5050565b600a546001600160a01b031633146108565760405162461bcd60e51b815260206004820152601d60248201527f796f752068617665206e6f7420656e6f756768207065726d6973736f6e00000060448201526064016105a2565b600081116108a65760405162461bcd60e51b815260206004820152601860248201527f706c6561736520656e746572207269676874207368617265000000000000000060448201526064016105a2565b6001600160a01b0382166000908152600c60205260408120829055600b80548392906108d390849061195a565b90915550505050565b6001600160a01b03918216600090815260016020908152604080832093909416825291909152205460ff1690565b600a546001600160a01b031633146109645760405162461bcd60e51b815260206004820152601f60248201527f796f7520646f6e74206861766520656e6f756768207065726d697373696f6e0060448201526064016105a2565b336001600160a01b0386168114801590610985575061098381826108dc565b155b156109b65760405163711bec9160e11b81526001600160a01b038083166004830152871660248201526044016105a2565b6105b88686868686610c6e565b6109cb6109fe565b6001600160a01b0381166109f557604051631e4fbdf760e01b8152600060048201526024016105a2565b6104bd81610a9e565b6005546001600160a01b031633146107965760405163118cdaa760e01b81523360048201526024016105a2565b60026107f882826119b8565b6001600160a01b038416610a6157604051632bfa23e760e11b8152600060048201526024016105a2565b6001600160a01b038516610a8a57604051626a0d4560e21b8152600060048201526024016105a2565b610a978585858585610cfc565b5050505050565b600580546001600160a01b038381166001600160a01b0319831681179093556040519116919082907f8be0079c531659141344cd1fd0a4f28419497f9722a3daafe3b4186f6b6457e090600090a35050565b6001600160a01b038416610b1a57604051632bfa23e760e11b8152600060048201526024016105a2565b604080516001808252602082018690528183019081526060820185905260808201909252906105b8600087848487610cfc565b6104bd81604051602401610b6191906114d8565b60408051601f198184030181529190526020810180516001600160e01b031663104c13eb60e21b179052610d4f565b6040516001600160a01b03821660248201526104bd9060440160408051601f198184030181529190526020810180516001600160e01b031663161765e160e11b179052610d4f565b6001600160a01b038216610c015760405162ced3e160e81b8152600060048201526024016105a2565b6001600160a01b03838116600081815260016020908152604080832094871680845294825291829020805460ff191686151590811790915591519182527f17307eab39ab6107e8899845ad3d59bd9653f200f220920489ca2b5937696c31910160405180910390a3505050565b6001600160a01b038416610c9857604051632bfa23e760e11b8152600060048201526024016105a2565b6001600160a01b038516610cc157604051626a0d4560e21b8152600060048201526024016105a2565b60408051600180825260208201869052818301908152606082018590526080820190925290610cf38787848487610cfc565b50505050505050565b610d0885858585610d58565b6001600160a01b03841615610a975782513390600103610d415760208481015190840151610d3a838989858589610d64565b50506105b8565b6105b8818787878787610e88565b6104bd81610f71565b6107ac84848484610f92565b6001600160a01b0384163b156105b85760405163f23a6e6160e01b81526001600160a01b0385169063f23a6e6190610da89089908990889088908890600401611a78565b6020604051808303816000875af1925050508015610de3575060408051601f3d908101601f19168201909252610de091810190611abd565b60015b610e4c573d808015610e11576040519150601f19603f3d011682016040523d82523d6000602084013e610e16565b606091505b508051600003610e4457604051632bfa23e760e11b81526001600160a01b03861660048201526024016105a2565b805181602001fd5b6001600160e01b0319811663f23a6e6160e01b14610cf357604051632bfa23e760e11b81526001600160a01b03861660048201526024016105a2565b6001600160a01b0384163b156105b85760405163bc197c8160e01b81526001600160a01b0385169063bc197c8190610ecc9089908990889088908890600401611ada565b6020604051808303816000875af1925050508015610f07575060408051601f3d908101601f19168201909252610f0491810190611abd565b60015b610f35573d808015610e11576040519150601f19603f3d011682016040523d82523d6000602084013e610e16565b6001600160e01b0319811663bc197c8160e01b14610cf357604051632bfa23e760e11b81526001600160a01b03861660048201526024016105a2565b60006a636f6e736f6c652e6c6f679050600080835160208501845afa505050565b610f9e848484846110ec565b6001600160a01b038416611051576000805b8351811015611037576000838281518110610fcd57610fcd61192b565b602002602001015190508060036000878581518110610fee57610fee61192b565b602002602001015181526020019081526020016000206000828254611013919061195a565b909155506110239050818461195a565b9250508061103090611941565b9050610fb0565b50806004600082825461104a919061195a565b9091555050505b6001600160a01b0383166107ac576000805b83518110156110db5760008382815181106110805761108061192b565b6020026020010151905080600360008785815181106110a1576110a161192b565b6020026020010151815260200190815260200160002060008282540392505081905550808301925050806110d490611941565b9050611063565b506004805491909103905550505050565b805182511461111b5781518151604051635b05999160e01b8152600481019290925260248201526044016105a2565b3360005b835181101561122a576020818102858101820151908501909101516001600160a01b038816156111d2576000828152602081815260408083206001600160a01b038c168452909152902054818110156111ab576040516303dee4c560e01b81526001600160a01b038a1660048201526024810182905260448101839052606481018490526084016105a2565b6000838152602081815260408083206001600160a01b038d16845290915290209082900390555b6001600160a01b03871615611217576000828152602081815260408083206001600160a01b038b1684529091528120805483929061121190849061195a565b90915550505b50508061122390611941565b905061111f565b5082516001036112ab5760208301516000906020840151909150856001600160a01b0316876001600160a01b0316846001600160a01b03167fc3d58168c5ae7397731d063d5bbf3d657854427343f4c083240f7aacaa2d0f62858560405161129c929190918252602082015260400190565b60405180910390a45050610a97565b836001600160a01b0316856001600160a01b0316826001600160a01b03167f4a39dc06d4c0dbc64b70af90fd698a233a518aa5d07e595d983b8c0526c8f7fb86866040516112fa929190611b38565b60405180910390a45050505050565b80356001600160a01b038116811461132057600080fd5b919050565b6000806040838503121561133857600080fd5b61134183611309565b946020939093013593505050565b6001600160e01b0319811681146104bd57600080fd5b60006020828403121561137757600080fd5b81356113828161134f565b9392505050565b634e487b7160e01b600052604160045260246000fd5b604051601f8201601f1916810167ffffffffffffffff811182821017156113c8576113c8611389565b604052919050565b600067ffffffffffffffff8311156113ea576113ea611389565b6113fd601f8401601f191660200161139f565b905082815283838301111561141157600080fd5b828260208301376000602084830101529392505050565b60006020828403121561143a57600080fd5b813567ffffffffffffffff81111561145157600080fd5b8201601f8101841361146257600080fd5b611471848235602084016113d0565b949350505050565b60006020828403121561148b57600080fd5b5035919050565b6000815180845260005b818110156114b85760208185018101518683018201520161149c565b506000602082860101526020601f19601f83011685010191505092915050565b6020815260006113826020830184611492565b600067ffffffffffffffff82111561150557611505611389565b5060051b60200190565b600082601f83011261152057600080fd5b81356020611535611530836114eb565b61139f565b82815260059290921b8401810191818101908684111561155457600080fd5b8286015b8481101561156f5780358352918301918301611558565b509695505050505050565b600082601f83011261158b57600080fd5b611382838335602085016113d0565b600080600080600060a086880312156115b257600080fd5b6115bb86611309565b94506115c960208701611309565b9350604086013567ffffffffffffffff808211156115e657600080fd5b6115f289838a0161150f565b9450606088013591508082111561160857600080fd5b61161489838a0161150f565b9350608088013591508082111561162a57600080fd5b506116378882890161157a565b9150509295509295909350565b6000806040838503121561165757600080fd5b823567ffffffffffffffff8082111561166f57600080fd5b818501915085601f83011261168357600080fd5b81356020611693611530836114eb565b82815260059290921b840181019181810190898411156116b257600080fd5b948201945b838610156116d7576116c886611309565b825294820194908201906116b7565b965050860135925050808211156116ed57600080fd5b506116fa8582860161150f565b9150509250929050565b600081518084526020808501945080840160005b8381101561173457815187529582019590820190600101611718565b509495945050505050565b6020815260006113826020830184611704565b60006020828403121561176457600080fd5b61138282611309565b6000806000806080858703121561178357600080fd5b61178c85611309565b93506020850135925060408501359150606085013567ffffffffffffffff8111156117b657600080fd5b6117c28782880161157a565b91505092959194509250565b600080604083850312156117e157600080fd5b6117ea83611309565b9150602083013580151581146117ff57600080fd5b809150509250929050565b6000806040838503121561181d57600080fd5b61182683611309565b915061183460208401611309565b90509250929050565b600080600080600060a0868803121561185557600080fd5b61185e86611309565b945061186c60208701611309565b93506040860135925060608601359150608086013567ffffffffffffffff81111561189657600080fd5b6116378882890161157a565b600181811c908216806118b657607f821691505b6020821081036118d657634e487b7160e01b600052602260045260246000fd5b50919050565b634e487b7160e01b600052601160045260246000fd5b8082028115828204841417610456576104566118dc565b60008261192657634e487b7160e01b600052601260045260246000fd5b500490565b634e487b7160e01b600052603260045260246000fd5b600060018201611953576119536118dc565b5060010190565b80820180821115610456576104566118dc565b601f8211156119b357600081815260208120601f850160051c810160208610156119945750805b601f850160051c820191505b818110156105b8578281556001016119a0565b505050565b815167ffffffffffffffff8111156119d2576119d2611389565b6119e6816119e084546118a2565b8461196d565b602080601f831160018114611a1b5760008415611a035750858301515b600019600386901b1c1916600185901b1785556105b8565b600085815260208120601f198616915b82811015611a4a57888601518255948401946001909101908401611a2b565b5085821015611a685787850151600019600388901b60f8161c191681555b5050505050600190811b01905550565b6001600160a01b03868116825285166020820152604081018490526060810183905260a060808201819052600090611ab290830184611492565b979650505050505050565b600060208284031215611acf57600080fd5b81516113828161134f565b6001600160a01b0386811682528516602082015260a060408201819052600090611b0690830186611704565b8281036060840152611b188186611704565b90508281036080840152611b2c8185611492565b98975050505050505050565b604081526000611b4b6040830185611704565b8281036020840152611b5d8185611704565b9594505050505056fea2646970667358221220382c7223239a1cebdd58aa3f4c6e0a04aa475a57c44512c3b79ecdcea811ba2164736f6c63430008140033",
  "linkReferences": {},
  "deployedLinkReferences": {}
}